:020000040800F2
:10000000282E0020A1010008430400083B0400083A
:100010003F040008E9010008D905000800000000BD
:10002000000000000000000000000000B301000814
:10003000ED01000800000000B7010008B901000848
:10004000BB010008BB010008BB010008BB010008A0
:10005000BB010008BB010008BB010008BB01000890
:10006000BB010008BB010008BB010008BB01000880
:10007000BB010008BB010008BB010008BB01000870
:10008000BB010008BB010008BB010008BB01000860
:10009000BB010008BB010008BB010008BB01000850
:1000A000BB010008BB010008BB010008BB01000840
:1000B000BB010008BB010008BB010008BB01000830
:1000C000BB010008BB010008BB010008BB01000820
:1000D000BB010008BB010008BB010008BB01000810
:1000E000BB010008BB010008BB010008BB01000800
:1000F000BB010008BB010008BB010008BB010008F0
:10010000BB010008BB010008BB010008BB010008DF
:10011000BB010008BB010008BB010008BB010008CF
:10012000BB010008BB010008BB010008BB010008BF
:10013000BB010008BB010008BB010008BB010008AF
:10014000BB010008BB010008BB010008BB0100089F
:10015000BB010008BB010008BB010008BB0100088F
:10016000BB010008BB010008BB010008BB0100087F
:10017000BB010008BB010008BB010008BB0100086F
:10018000BB010008BB010008DFF810D000F01AF82E
:1001900000480047A1280008AFF30080282E002067
:1001A0000648804706480047FEE7FEE7FEE7FEE711
:1001B000FEE7FEE7FEE7FEE7FEE7FEE77105000863
:1001C00089010008064C074D06E0E06840F0010395
:1001D00094E8070098471034AC42F6D3FFF7D8FFF5
:1001E00064EB000884EB000800BFFEE770470000E6
:1001F00051B18200A2F1C042126842F001038200B4
:10020000A2F1C042136009E08200A2F1C04212686C
:10021000034B1A408300A3F1C0431A6070470000EB
:10022000FEFF0F0030B50021002200230468A40067
:10023000A4F1C0442168424C2140D0E901452C433F
:10024000C5682C4305692C4345692C4385692C43BB
:10025000C5692C43056A2C43456A2C43856A2C43A7
:10026000C56A2C43056B2C4321430468A400A4F108
:10027000C04421608468082C0BD10468A400A4F158
:10028000C044246844F040050468A400A4F1C044BC
:1002900025600468641CA400A4F1C044226802F034
:1002A0004042446B2468456B6D6844EA0514456B15
:1002B000AD6844EA0524456BAD8944EA0544456BC5
:1002C0002D8A44EA0554456B2D7D44EA0564456B4F
:1002D000AD692C4322430468641CA400A4F1C0440B
:1002E0002260C46AB4F5804F20D10468A400A4F150
:1002F000C044D4F80431134C2340846B2468856BCC
:100300006D6844EA0514856BAD6844EA0524856B85
:10031000AD8944EA0544856BAD692C4323430468E9
:10032000A400A4F1C044C4F8043107E06FF07045A4
:100330000468A400A4F1C044C4F8045130BD000016
:100340008000F7FF0000F0CFF0B50A46002100233F
:10035000002400BF3DE0012505FA01F3156805EA18
:1003600003049C4234D105684F000326BE40B543C8
:10037000056015794E00B54006683543056015796E
:10038000012D02D01579022D16D185684F00032664
:10039000BE40B543856055794E00B540866835430B
:1003A0008560456801268E40B5434560456896796D
:1003B0008E40B6B235434560C5684F000326BE4047
:1003C000B543C560D5794E00B540C6683543C560B4
:1003D000491C1029BFD3F0BDF0B5002300244D0700
:1003E000ED0E02FA05F3CE1000F1200555F8265067
:1003F0004E07F70E0F26BE40B543CF1000F1200682
:1004000046F82750CE1000F1200555F8265045EA51
:100410000304CE1000F1200545F82640F0BD024649
:10042000002013690B400BB1012000E00020704751
:100430000AB1018300E04183704700BFFEE700BFBF
:10044000FEE7704729B1064A12680243044B1A605E
:1004500004E0034A12688243014B1A6070470000AF
:100460003038024029B1064A12680243044B1A6030
:1004700004E0034A12688243014B1A60704700008F
:10048000383802400CB500200190009034480068D4
:1004900040F480303249086000BF3148006800F401
:1004A000003000900198401C0190009818B9019804
:1004B000B0F5A04FF1D12A48006800F4003010B127
:1004C0000120009001E0002000900098012846D112
:1004D00023484030006840F0805021494031086096
:1004E0002048006840F440401E4908601C4808301D
:1004F00000681B49083108600846006840F4004065
:1005000008600846006840F4A05008601648091FBB
:100510000860081F006840F08070091F086000BF75
:100520000F48006800F000700028F9D040F2057014
:100530000E4908600A480830006820F003000849A6
:10054000083108600846006840F00200086000BFFB
:1005500003480830006800F00C000828F8D10CBDF2
:10056000003802400070004008544007003C024040
:1005700010B51548006840F470001349086013482E
:10058000006840F001001149086000200F4908315F
:1005900008600E4800680E4908400C4908600D4884
:1005A000091D0860081F006820F48020091F0860EA
:1005B000002006490C310860FFF764FF4FF000602F
:1005C00001498039086010BD88ED00E00038024024
:1005D000FFFFF6FE1030002400BFFEE7014609B120
:1005E000087C10B94FF0FF3070470020087400BF3E
:1005F000FAE72DE9F04104460D4616461F460CB1B8
:10060000207C18B94FF0FF30BDE8F081204600F0A3
:1006100007F96806010E204600F0E4F8204600F0D5
:1006200069F83146204600F0DDF8204600F062F817
:10063000204600F0F5F8012000EB4500C1B220464D
:1006400000F0D0F8204600F055F8204600F066F89B
:1006500038700121204600F0B0F8204600F0F8F88C
:100660000020D1E72DE9F04705460E4690461F468B
:10067000DDF820900DB1287C18B94FF0FF30BDE8AF
:10068000F087284600F0CCF87006010E284600F0EE
:10069000A9F8284600F02EF84146284600F0A2F8B6
:1006A000284600F027F8284600F0BAF8012000EBB1
:1006B0004600C1B2284600F095F8284600F01AF826
:1006C000002410E0284600F029F809F80400781EFC
:1006D000A04201D1012000E000200146284600F0A0
:1006E0006CF8601CC4B2BC42ECDB284600F0B0F8E9
:1006F0000020C4E770B504460121204600F04AF806
:100700000121204600F026F8204600F036F8054684
:100710000021204600F01EF8284670BD70B5064640
:1007200000250121304600F035F807240EE00121B4
:10073000304600F00FF8304600F01FF8A040284384
:10074000C5B20021304600F005F8641E002CEEDA38
:10075000284670BD70B504460D46207C10B94FF098
:10076000FF3070BDA28891B22A462068FFF760FE74
:10077000012001F0DDF80020F3E770B50446A289FE
:1007800091B2A068FFF74BFE0546012001F0D0F8BA
:10079000284670BD70B504460D46207C10B94FF058
:1007A000FF3070BDA28991B22A46A068FFF740FED3
:1007B000012001F0BDF80020F3E770B504460D46B6
:1007C00014B94FF0FF3070BD29462046FFF7E2FF15
:1007D00001212046FFF7BEFF00212046FFF7BAFFA8
:1007E0000020F0E770B505460E4615B94FF0FF3012
:1007F00070BD002410E08020204100EA0601284658
:10080000FFF7C8FF01212846FFF7A4FF0021284673
:10081000FFF7A0FF601CC4B2082CECDB0020E7E768
:1008200010B5044614B94FF0FF3010BD0121204629
:10083000FFF7B0FF01212046FFF78CFF0021204683
:10084000FFF7A8FF00212046FFF784FF0020ECE718
:1008500010B5044614B94FF0FF3010BD00212046FA
:10086000FFF778FF00212046FFF794FF0121204683
:10087000FFF770FF01212046FFF78CFF0020ECE717
:100880002DE9F04104460D4616461F460CB1207C6A
:1008900018B94FF0FF30BDE8F0812046FFF7C0FFE8
:1008A0006806010E2046FFF79DFF2046FFF722FF56
:1008B00031462046FFF796FF2046FFF71BFF3946DB
:1008C0002046FFF78FFF2046FFF714FF2046FFF773
:1008D000BFFF0020DFE72DE9F04705460E4617462B
:1008E0009846DDF820900DB1287C18B94FF0FF3004
:1008F000BDE8F0872846FFF793FF7006010E2846F3
:10090000FFF770FF2846FFF7F5FE39462846FFF748
:1009100069FF2846FFF7EEFE002409E019F80410ED
:100920002846FFF75FFF2846FFF7E4FE601CC4B2CD
:100930004445F3DB2846FFF78BFF0020D8E7000093
:100940002DE9F04104460D4600276688A0884643FD
:1009500000221146204600F0B8F9204600F0E0FDE4
:1009600000BF02E0034805807F1CB742FAD3BDE810
:10097000F0810000000002602DE9FF4F81B00F46BA
:1009800015469846DDE90EABA8EB0700401C1FFAA0
:1009900080F9AAEB0500401C80B20090002416E00C
:1009A000281982B23946019800F08FF9019800F0B9
:1009B000B7FD002607E004FB09603BF8100007497B
:1009C0000880701C86B24E45F5DB601C84B200982E
:1009D0008442E5DB05B0BDE8F08F00000000026056
:1009E00010B504460CB1207810B94FF0FF3010BD9F
:1009F000A06800F0D1FF0020A060207000BFF6E7E3
:100A00002DE9F04781460E4617469846DDF820A0AE
:100A10000025444649E0781B82B2301B81B2534620
:100A2000484600F0A1F8781B82B2301981B25346D3
:100A3000484600F099F8381982B2701B81B25346CB
:100A4000484600F091F8381B82B2701B81B25346C1
:100A5000484600F089F8781982B2301981B25346BD
:100A6000484600F081F8381B82B2701981B25346B3
:100A7000484600F079F8381982B2701981B25346AD
:100A8000484600F071F8781982B2301B81B25346A3
:100A9000484600F069F86D1C05FB05F004FB0401F5
:100AA00008FB08F0814200DD641EA542B3DDBDE80D
:100AB000F0872DE9FF4F85B08946924600200490CB
:100AC00003900898A0EB09051298A0EB0A06CDF850
:100AD0000890CDF804A0002D01DD012705E00DB937
:100AE000002702E04FF0FF376D42002E02DD4FF08D
:100AF000010806E016B94FF0000802E04FF0FF3899
:100B00007642B54201DD2C4600E034464FF0000B42
:100B100023E0019882B2029881B2139B059800F0FD
:100B200023F80498284404900398304403900498D0
:100B3000A04205DD0498001B0490029838440290FE
:100B40000398A04205DD0398001B039001984044E0
:100B500001900BF101001FFA80FB601C8345D8DD7A
:100B600009B0BDE8F08F00002DE9F04105460E46C2
:100B700017461C463A463146284600F0A6F8284655
:100B800000F0CEFC01480480BDE8F0810000026066
:100B90002DE9FC5F82460E4617469846DDE90CB407
:100BA00006EB0800401E1FFA80F907EB0B00401E01
:100BB00085B24B463A4631465046CDE90074FFF7C0
:100BC00078FF33463A4631465046CDE90054FFF7A8
:100BD00070FF4B462A4631465046CDE90054FFF798
:100BE00068FF4B463A4649465046CDE90054FFF768
:100BF00060FFBDE8FC9F00002DE9FF4F81B00C466F
:100C000015461F46DDE90E9AE019401E1FFA80FBCB
:100C100005EB0900401E80B200902E4614E03246DB
:100C20002146019800F051F8019800F079FCA046A7
:100C300006E00848A0F800A008F101001FFA80F8BB
:100C4000D845F6DD701C86B200988642E7DD05B017
:100C5000BDE8F08F0000026010B50246012000E000
:100C600050430B1EA1F10101FAD110BD08B5034894
:100C700000880090BDF8000008BD00000000026080
:100C80002DE9F04705460E4617460024A046A1462A
:100C90003A463146284600F018F82E2000F02EFC87
:100CA000FFF7E4FF0446FFF7E1FF0446FFF7DEFF2E
:100CB000814604F0FF08E012C0024FEAA80140EAB2
:100CC000411040EAE920BDE8F0872DE9F0410646F1
:100CD0000C461546B768F88D00F010FC201200F0A5
:100CE00019FCE0B200F016FC388E00F007FC281268
:100CF00000F010FCE8B200F00DFCBDE8F08100004F
:100D00002DE9FC5F8046894617461E460E9C0197DA
:100D10002046E31704EB5373DB1021464FEAE47CD3
:100D200004EB5C7C4FEAEC0CA4EBCC0CBCF1000FA8
:100D300002D04FF0010C01E04FF0000C634422465A
:100D400004EBD27C4FEA6C0C03FB0CF3DBB2009398
:100D5000A6F12000C6B200255EE00C2C07D106EB00
:100D60004600304901EB800010F805A01BE0102C74
:100D700005D12D4800EB061010F805A013E0182C43
:100D800007D106EB4600294901EB001010F805A039
:100D900009E0202C05D1264800EB861010F805A0AC
:100DA00001E0BDE8FC9F4FF0000B2FE00AF080004F
:100DB00030B13A46494640460C9BFFF7D5FE07E066
:100DC0000F9828B93A46494640460D9BFFF7CCFE9E
:100DD0004FEA4A604FEA106A781C87B2B8F80400FC
:100DE000B84200DCDDE70198381AA0420AD1019F21
:100DF00009F101001FFA80F9B8F80200484500DC4B
:100E0000CFE706E00BF1010000F0FF0BBBF1080F8C
:100E1000CCDB00BF681CC5B2009885429DDB00BFDB
:100E2000BFE700003A320008AE3600089E3C0008DA
:100E30006E4E00082DE9FE4F82468946934698463D
:100E4000DDE90E47DDE90C5633E00C2C08D14346B2
:100E50005A46494650468DE8E00000F031F822E05D
:100E6000102C08D143465A46494650468DE8E000CA
:100E700000F090F817E0182C08D143465A4649462E
:100E800050468DE8E00000F0EFF80CE0202C08D18F
:100E900043465A46494650468DE8E00000F054F972
:100EA00001E0BDE8FE8F08F1030809EB04001FFA1A
:100EB00080F998F800000028C7D100BFF1E70000D2
:100EC0002DE9FF4F81B00D4691461E460C2000F0E3
:100ED0008BFD1FFA80FB18200090AA46002451E0E9
:100EE000C4EBC4002A4911F820003178884246D169
:100EF000C4EBC400264901EB800040787178884239
:100F00003DD14A4629460198FFF7DFFE002733E02E
:100F10004FF000082AE0C4EBC4001D4901EB80003B
:100F2000001DC05D012101FA08F1084030B14A46B8
:100F300029460E9B0198FFF717FE07E0109828B985
:100F40004A4629460F9B0198FFF70EFE681C85B2A2
:100F5000A5EB0A000C2805D1554609F101001FFA3E
:100F600080F906E008F1010000F0FF08B8F1080F71
:100F7000D1DB00BF781CC7B200988742C8DB00BF36
:100F8000601C84B25C45ABDB05B0BDE8F08F0000AF
:100F90002E6600082DE9FF4F81B00D4691461E4692
:100FA000102000F021FD1FFA80FB20200090AA46AF
:100FB000002451E004EBC4002A4911F820003178E4
:100FC000884246D104EBC400264901EB80004078FA
:100FD000717888423DD14A4629460198FFF775FE4F
:100FE000002733E04FF000082AE004EBC4001D495D
:100FF00001EB8000001DC05D012101FA08F10840ED
:1010000030B14A4629460E9B0198FFF7ADFD07E037
:10101000109828B94A4629460F9B0198FFF7A4FD6E
:10102000681C85B2A5EB0A00102805D1554609F1C8
:1010300001001FFA80F906E008F1010000F0FF0846
:10104000B8F1080FD1DB00BF781CC7B20098874207
:10105000C8DB00BF601C84B25C45ABDB05B0BDE8FB
:10106000F08F00009E6600082DE9FF4F81B00D460D
:1010700091461E46182000F0B7FC1FFA80FB48205E
:101080000090AA46002457E004EB440000EB041053
:101090002C4911F82000317888424AD104EB4400F1
:1010A00000EB0410274901EB8000407871788842FA
:1010B0003FD14A4629460198FFF707FE002735E051
:1010C0004FF000082CE004EB440000EB04101D4935
:1010D00001EB8000001DC05D012101FA08F108400C
:1010E00030B14A4629460E9B0198FFF73DFD07E0C7
:1010F000109828B94A4629460F9B0198FFF734FDFE
:10110000681C85B2A5EB0A00182805D1554609F1DF
:1011100001001FFA80F906E008F1010000F0FF0865
:10112000B8F1080FCFDB00BF781CC7B20098874228
:10113000C6DB00BF601C84B25C45A5DB05B0BDE822
:10114000F08F00002E6700082DE9FF4F81B00D469B
:1011500091461E46202000F047FC1FFA80FB8020AD
:101160000090AA46002451E004EB44102A4911F8EB
:1011700020003178884246D104EB4410264901EB27
:1011800080004078717888423DD14A4629460198CE
:10119000FFF79BFD002733E04FF000082AE004EB47
:1011A00044101D4901EB8000001DC05D012101FAC2
:1011B00008F1084030B14A4629460E9B0198FFF7D6
:1011C000D3FC07E0109828B94A4629460F9B01989E
:1011D000FFF7CAFC681C85B2A5EB0A00202805D1E0
:1011E000554609F101001FFA80F906E008F10100F7
:1011F00000F0FF08B8F1080FD1DB00BF781CC7B2C0
:1012000000988742C8DB00BF601C84B25C45ABDB42
:1012100005B0BDE8F08F00005E6800082DE9FF4FC3
:101220002DED020B2DED028B87B00F46B0EE408AFC
:101230001D46DDE91A6ADDE91889304606EBD071F2
:10124000C1F3470BB5EEC08AF1EE10FA10D22D2390
:10125000CDE9026ACDE9008939460D9A0B98FFF76E
:101260004FFD07EB0B0087B2B1EE480AB0EE408AA3
:101270009FED210A28EE000ABCEEC00A8DED050A9A
:10128000002430E0281B411E0A20FFF7E5FC0599E9
:10129000B1FBF0F00A21B0FBF1F201FB1200069065
:1012A000281FA0420FD100FB0B7081B22E23CDE985
:1012B000026ACDE900890D9A0B98FFF721FD601CA9
:1012C000C4B2681CC5B2CDE9026ACDE900890698AE
:1012D0003030C3B204FB0B7081B20D9A0B98FFF74C
:1012E0000FFD601CC4B2AC42CCDB07B0BDEC028B7E
:1012F00006B0BDE8F08F000000401C462DE9FF4F0E
:1013000085B00F469846DDE913ABDDF84890159D92
:10131000002436E0A9EB0400411E1020FFF79CFCDE
:10132000B8FBF0F000F00F060A2E14DA1698CDE99B
:1013300000ABCDE9025004FB05F0049000EBD07047
:1013400007EB600081B206F13000C3B2079A05983E
:10135000FFF7D6FC13E01698CDE900ABCDE90250BB
:1013600004FB05F0049000EBD07007EB600081B245
:1013700006F13700C3B2079A0598FFF7C1FC601C5D
:10138000C4B24C45C6DB09B0BDE8F08F2DE9F04191
:101390000746DDE90664002035E02A25DFF870C045
:1013A000ACF800500D120CF1020CACF80050654680
:1013B00029802B25DFF858C0ACF8005015182D12E5
:1013C0000CF1020CACF800501518ACF800502C25AC
:1013D000DFF83CC0ACF80050002510E094F800C0E5
:1013E00094F801804CEA082CDFF8248008F1020808
:1013F000A8F800C0A41C05F1010C1FFA8CF59D4251
:10140000ECDB451CA8B2B042C7DBBDE8F0810000B0
:10141000FEFF01602DE9FF4F87B00E469946DDE9DA
:1014200015AB149F179C0020069000253FE0781B09
:10143000411E0A20FFF710FCB9FBF0F00A21B0FBB7
:10144000F1F201FB12080698D0B9781EA84217DD08
:10145000B8F1000F12D11898CDE901B4CDF800A071
:101460000594039004EBD470401000FB056081B23A
:101470002023099A0798FFF743FC16E00120069005
:101480001898CDE901B4CDF800A00594039004EBC1
:10149000D470401000FB056081B208F13000C3B287
:1014A000099A0798FFF72CFC00BF681CC5B2BD4223
:1014B000BDDB0BB0BDE8F08F2DE9FF5F07460E46A0
:1014C00090461C46DDE9105BDDE90E9A10E0CDE99F
:1014D000025BCDE9009A2378424631463846FFF751
:1014E0000FFC284605EBD07106EB61018EB2641C3F
:1014F00020780028EBD1BDE8FF9F000001B5BDF8C2
:1015000000000090BDF800000149088008BD0000FF
:10151000FEFF016000BF01490880704700000260C3
:1015200081688A8D014B1A8070470000FEFF0160C0
:1015300070B505460C462846FFF7E0FF2046FFF74A
:10154000E9FF70BD70B504460CB1207E10B94FF0B4
:10155000FF3070BDE5692846E96B8847E06900F017
:101560001BFA0020E061207600BFF2E72DE9F04190
:101570002DED028B84B005460DB1287E30B94FF0B9
:10158000FF3004B0BDEC028BBDE8F0810026B04610
:10159000642429E0674850F82410A4F16400654AE7
:1015A00042F82010644850F82410A4F16400624A04
:1015B00042F820105F4850F82400604909688842CA
:1015C00004D25C4850F824005C490860594850F83F
:1015D00024005B490968884204D9564850F8240021
:1015E00057490860601C84B2B4F5FA7FD2DB4FF42F
:1015F000C8747EE0601E4F4951F8200051490860D0
:1016000000BFAA8A91B22869FEF709FF0128F8D025
:10161000494800EB8402474800EB8401284600F06B
:101620009DF8444850F8240046490968884227D963
:10163000404850F8240043490968401A00EE100A57
:10164000B8EE400AB0EE408A3D4800683B49096860
:10165000401A00EE100AB8EE400AC8EE000AB0EEDA
:10166000608A9FED390A28EE000AB0EE408ABDEE8E
:10167000C80A10EE100A3F1A002F28DA002726E0C9
:101680002C4850F824002F490968081A00EE100A67
:10169000B8EE400AB0EE408A294800682749096838
:1016A000401A00EE100AB8EE400AC8EE000AB0EE8A
:1016B000608A9FED250A28EE000AB0EE408ABDEE52
:1016C000C80A10EE100A0744FF2F00DDFF271F484D
:1016D0000078012809D11E4800688C2805DA1C48CA
:1016E00006781C4890F8008001E00026B046601C97
:1016F00084B2B4F5FA7FFFF67DAF14481449164A58
:10170000144BCDE9002102900A4A4FF4FA710A48BD
:1017100001F062FA002E04DD8C2E02DAA6F114002C
:101720002862B8F1000F03DD642E01DAC5F82480C9
:10173000002026E7F408002024010020C400002037
:10174000C8000020CC00002000007F43C100002022
:10175000BC000020B8000020C00000202DE9F041AE
:1017600086B007460D4616460FB1387E20B94FF0B9
:10177000FF3006B0BDE8F081FC6905AB00225721BF
:101780002046D4F82CC0E04705AB01225721204663
:10179000D4F82CC0E04703A8009006230722572165
:1017A0002046D4F830C0E0478046B8F1000F01D0A1
:1017B0004046DEE700203060286002AB0922572156
:1017C0002046D4F82CC0E0479DF80800032816D125
:1017D0009DF80C0000049DF80D1040EA01209DF8D2
:1017E0000E10084328609DF80F0000049DF81010AB
:1017F00040EA01209DF811100843306002E06FF0CC
:101800000100B6E72868C0F3110028603068C0F313
:10181000110030600020ACE73EB505460DB1287ED2
:1018200010B94FF0FF303EBD244825490860002024
:101830002449086000242AE000BFAA8A91B22869DE
:10184000FEF7EDFD0128F8D01F4800EB84021F4889
:1018500000EB84012846FFF781FF1C4850F8240064
:1018600017490968884204D2184850F824001449DE
:101870000860164850F8240012490968884204D9C3
:10188000124850F824000F490860601C84B2B4F577
:10189000FA7FD1DB0D4850F824000D4908600D484F
:1018A0000D490E4A0E4BCDE900210290074A4FF434
:1018B000FA71054801F090F90020B4E7FFFF03003A
:1018C000C4000020C800002024010020F4080020EB
:1018D000CC000020C1000020BC000020C00000207F
:1018E000B800002002E008C8121F08C1002AFAD17F
:1018F00070477047002001E001C1121F002AFBD190
:1019000070470000024908800121024A11707047A7
:10191000360000203400002010B5044603E04FF4E8
:101920007A7000F005F8201EA4F10104F7D110BD73
:101930000146174A127802B970474FF0E022126947
:1019400042F004024FF0E0231A61124A12884A431F
:101950005A6100229A611A46126942F001021A6124
:1019600000BF4FF0E022106900F001021AB100F44C
:101970008032002AF5D04FF0E022126922F00102F5
:101980004FF0E0231A6100229A6100BFD4E7000003
:10199000340000203600002010B5002821D0114B63
:1019A0000022001F196803E0814203D80A464968F3
:1019B0000029F9D152B11368841A9C4204D10068FD
:1019C00018441060104602E0506000E0186039B121
:1019D00002680B1A934203D10B681A4402604968EB
:1019E000416010BDD000002001460C2901D1042027
:1019F0007047102901D10420FAE7182901D10420E9
:101A0000F6E7202901D10420F2E74FF0FF30EFE79D
:101A10001CB5044614B94FF0FF301CBD5F49206867
:101A2000884204D101210846FEF70CFD34E05C49F0
:101A30002068884204D101210220FEF703FD2BE03B
:101A400058492068884204D101210420FEF7FAFC9D
:101A500022E055492068884204D101210820FEF780
:101A6000F1FC19E051492068884204D1012110207D
:101A7000FEF7E8FC10E04E492068884204D10121BD
:101A80002020FEF7DFFC07E04A492068884203D1A6
:101A900001214020FEF7D6FC4049A068884204D1CD
:101AA00001210846FEF7CEFC34E03D49A06888429B
:101AB00004D101210220FEF7C5FC2BE03949A068C2
:101AC000884204D101210420FEF7BCFC22E0364903
:101AD000A068884204D101210820FEF7B3FC19E078
:101AE0003249A068884204D101211020FEF7AAFCE7
:101AF00010E02F49A068884204D101212020FEF780
:101B0000A1FC07E02B49A068884203D101214020B5
:101B1000FEF798FC01208DF804008DF8060060683F
:101B2000009000208DF8070002208DF8050069461E
:101B30002068FEF709FC01208DF804008DF80600EE
:101B4000E068009000208DF8070002208DF8050065
:101B50006946A068FEF7F8FB174860611748A06166
:101B60001748E06117482062174860621748A06272
:101B70001748E0631748E06217482063174860631E
:101B80001748A06301212046FEF7E4FD012120460D
:101B9000FEF700FE0120207400203EE70000024016
:101BA0000004024000080240000C02400010024005
:101BB00000140240001802402108000851080008E3
:101BC000E50700081D070008BB070008F506000828
:101BD000DD050008F3050008650600088108000817
:101BE000D7080008F0B59FB005461DB94FF0FF308B
:101BF0001FB0F0BD342000F0C9FEA860A86810B97D
:101C00004FF0FF30F4E7AC68012084F82A002C2064
:101C1000A0852A20E0852B202086FE4820604FF4F6
:101C200000406060FC48A0608020E060FA482061CD
:101C3000C0146061F848A0612020E061F64820628D
:101C40001020606201210846FEF70CFCF149A068F3
:101C5000884204D101210846FEF7F4FB34E0EF4945
:101C6000A068884204D101210220FEF7EBFB2BE0A3
:101C7000EB49A068884204D101210420FEF7E2FB71
:101C800022E0E549A068884204D101210820FEF73E
:101C9000D9FB19E0E349A068884204D10121102052
:101CA000FEF7D0FB10E0E049A068884204D1012192
:101CB0002020FEF7C7FB07E0DC49A068884203D17B
:101CC00001214020FEF7BEFBD2492069884204D1A1
:101CD00001210846FEF7B6FB34E0D049206988426E
:101CE00004D101210220FEF7ADFB2BE0CC49206995
:101CF000884204D101210420FEF7A4FB22E0C6495A
:101D00002069884204D101210820FEF79BFB19E0DD
:101D1000C4492069884204D101211020FEF792FBBA
:101D200010E0C1492069884204D101212020FEF73A
:101D300089FB07E0BD492069884203D10121402089
:101D4000FEF780FBB349A069884204D1012108460F
:101D5000FEF778FB34E0B149A069884204D1012143
:101D60000220FEF76FFB2BE0AD49A069884204D149
:101D700001210420FEF766FB22E0A749A069884202
:101D800004D101210820FEF75DFB19E0A549A069F7
:101D9000884204D101211020FEF754FB10E0A24933
:101DA000A069884204D101212020FEF74BFB07E007
:101DB0009E49A069884203D101214020FEF742FBE1
:101DC0009449206A884204D101210846FEF73AFB73
:101DD00034E09249206A884204D101210220FEF7B2
:101DE00031FB2BE08E49206A884204D10121042076
:101DF000FEF728FB22E08849206A884204D10121AD
:101E00000820FEF71FFB19E08649206A884204D1AA
:101E100001211020FEF716FB10E08349206A88425A
:101E200004D101212020FEF70DFB07E07F49206A45
:101E3000884203D101214020FEF704FB7549206848
:101E4000884204D101210846FEF7FCFA34E07349C8
:101E50002068884204D101210220FEF7F3FA2BE02A
:101E60006F492068884204D101210420FEF7EAFA74
:101E700022E069492068884204D101210820FEF748
:101E8000E1FA19E067492068884204D10121102055
:101E9000FEF7D8FA10E064492068884204D1012195
:101EA0002020FEF7CFFA07E060492068884203D17E
:101EB00001214020FEF7C6FA00264DE05C4850F8AC
:101EC00026005449884204D101210846FEF7BAFA97
:101ED00040E0574850F826005049884204D101217B
:101EE0000220FEF7AFFA35E0514850F826004C4981
:101EF000884204D101210420FEF7A4FA2AE04C48CC
:101F000050F826004449884204D101210820FEF7F8
:101F100099FA1FE0464850F826004249884204D109
:101F200001211020FEF78EFA14E0414850F82600F7
:101F30003D49884204D101212020FEF783FA09E0BF
:101F40003B4850F826003949884203D101214020FE
:101F5000FEF778FA701CC6B2102EAFDB02208DF8A7
:101F6000040000208DF80600E068009000208DF845
:101F7000070003208DF805006946A068FEF7E4F924
:101F800002208DF8040000208DF8060060690090A2
:101F900000208DF8070003208DF8050069462069B0
:101FA000FEF7D2F902208DF8040000208DF806001B
:101FB000E069009000208DF8070003208DF80500EF
:101FC0006946A069FEF7C0F902208DF804000020E0
:101FD0008DF80600606A009000208DF8070003204D
:101FE0008DF805006946206AFEF7AEF901208DF8EC
:101FF000040000208DF806006068009000208DF835
:10200000070002208DF8050069462068FEF79CF95C
:10201000002627E000000240000C024000040240BD
:102020000008024000100240001402400018024064
:102030003800002002208DF8040000208DF80600F2
:10204000FE4850F82600009000208DF8070003207D
:102050008DF80500FA4951F826006946FEF774F933
:10206000701CC6B2102EE5DBE268012A01D1002205
:1020700053E0E268022A01D101224EE0E268042A1C
:1020800001D1022249E0E268082A01D1032244E09A
:10209000E268102A01D104223FE0E268202A01D13F
:1020A00005223AE0E268402A01D1062235E0E268E2
:1020B000802A01D1072230E0E268B2F5807F01D1A9
:1020C00008222AE0E268B2F5007F01D1092224E06B
:1020D000E268B2F5806F01D10A221EE0E268B2F533
:1020E000006F01D10B2218E0E268B2F5805F01D1E8
:1020F0000C2212E0E268B2F5005F01D10D220CE083
:10210000E268B2F5804F01D10E2206E0E268B2F536
:10211000004F01D10F2200E0002211460C22A068DE
:10212000FEF75AF96269012A01D1002253E062697F
:10213000022A01D101224EE06269042A01D1022261
:1021400049E06269082A01D1032244E06269102A49
:1021500001D104223FE06269202A01D105223AE040
:102160006269402A01D1062235E06269802A01D1E4
:10217000072230E06269B2F5807F01D108222AE0AF
:102180006269B2F5007F01D1092224E06269B2F5EB
:10219000806F01D10A221EE06269B2F5006F01D1A1
:1021A0000B2218E06269B2F5805F01D10C2212E0C7
:1021B0006269B2F5005F01D10D220CE06269B2F5EF
:1021C000804F01D10E2206E06269B2F5004F01D1C5
:1021D0000F2200E0002211460C222069FEF7FCF8D5
:1021E000E269012A01D1002253E0E269022A01D109
:1021F00001224EE0E269042A01D1022249E0E269AB
:10220000082A01D1032244E0E269102A01D1042204
:102210003FE0E269202A01D105223AE0E269402A42
:1022200001D1062235E0E269802A01D1072230E09F
:10223000E269B2F5807F01D108222AE0E269B2F5B5
:10224000007F01D1092224E0E269B2F5806F01D15B
:102250000A221EE0E269B2F5006F01D10B2218E0FC
:10226000E269B2F5805F01D10C2212E0E269B2F5B9
:10227000005F01D10D220CE0E269B2F5804F01D17F
:102280000E2206E0E269B2F5004F01D10F2200E014
:10229000002211460C22A069FEF79EF8626A012A0C
:1022A00001D1002253E0626A022A01D101224EE0EC
:1022B000626A042A01D1022249E0626A082A01D135
:1022C000032244E0626A102A01D104223FE0626ADC
:1022D000202A01D105223AE0626A402A01D1062271
:1022E00035E0626A802A01D1072230E0626AB2F5E5
:1022F000807F01D108222AE0626AB2F5007F01D115
:10230000092224E0626AB2F5806F01D10A221EE040
:10231000626AB2F5006F01D10B2218E0626AB2F571
:10232000805F01D10C2212E0626AB2F5005F01D138
:102330000D220CE0626AB2F5804F01D10E2206E058
:10234000626AB2F5004F01D10F2200E0002211466F
:102350000C22206AFEF740F80C220E213948FEF7C5
:102360003BF80C220F213748FEF736F80C220021EB
:102370003448FEF731F80C2201213248FEF72CF8E0
:102380000C2207213048FEF727F80C2208212E489E
:10239000FEF722F80C2209212B48FEF71DF80C222B
:1023A0000A212948FEF718F80C220B212648FEF7CF
:1023B00013F80C2211462448FEF70EF80C220D21CA
:1023C0002148FEF709F80C220E211F48FEF704F8F9
:1023D0000C220F211C48FDF7FFFF0C220821194891
:1023E000FDF7FAFF0C2209211648FDF7F5FF0C2234
:1023F0000A211448FDF7F0FFA08BA1690883A08C87
:10240000216A0883A089A1680883A08A21690883BA
:10241000002008E0094931F82010094A52F820202C
:102420001183411CC8B21028F4DB0F201890002043
:1024300019903C201A9000201B9007E078000020A3
:1024400038000020000C0240001002401C901D903B
:102450001E90092011900020129008201390002057
:1024600014901590169017900290039004901020ED
:102470000590002006900890079009900A904FF46C
:1024800080500B9000200C904FF480400D90002065
:102490000E9018A80F9011A8109002A8FDF7C2FE88
:1024A00001210020FDF7A4FE3220FFF735FAD320EA
:1024B000FFF724F8FEF7DAFB2085FEF7D7FB20852F
:1024C000FEF7D4FB2085208D4FF6FF7101EA002036
:1024D0002085FEF7CBFB218D08432085208D49F216
:1024E000413188422BD1DD48006820F00F004FF0C9
:1024F0002041C1F81C010846D0F81C0120F470608E
:10250000C1F81C010846D0F81C0140F00300D34973
:102510000860208D47F28971884208D1CF48006851
:1025200040F440704FF02041C1F81C0107E0CB4857
:10253000006840F400704FF02041C1F81C01208D6C
:1025400049F2413188427CD1CF20FEF7D7FF0020ED
:10255000FEF7E0FFC120FEF7DDFF3020FEF7DAFFD7
:10256000ED20FEF7CBFF6420FEF7D4FF0320FEF73B
:10257000D1FF1220FEF7CEFF8120FEF7CBFFE8202F
:10258000FEF7BCFF8520FEF7C5FF1020FEF7C2FF57
:102590007A20FEF7BFFFCB20FEF7B0FF3920FEF711
:1025A000B9FF2C20FEF7B6FF0020FEF7B3FF342062
:1025B000FEF7B0FF0220FEF7ADFFF720FEF79EFF0B
:1025C0002020FEF7A7FFEA20FEF798FF0020FEF785
:1025D000A1FF0020FEF79EFFC020FEF78FFF1B200B
:1025E000FEF798FFC120FEF789FF0120FEF792FF5A
:1025F000C520FEF783FF3020FEF78CFF3020FEF76A
:1026000089FFC720FEF77AFFB720FEF783FF362049
:10261000FEF774FF4820FEF77DFF3A20FEF76EFFBD
:102620005520FEF777FFB120FEF768FF0020FEF788
:1026300071FF1A20FEF76EFFB620FEF75FFF0A203B
:1026400000E097E0FEF766FFA220FEF763FFF220AE
:10265000FEF754FF0020FEF75DFF2620FEF74EFF39
:102660000120FEF757FFE020FEF748FF0F20FEF79E
:1026700051FF2A20FEF74EFF2820FEF74BFF0820CF
:10268000FEF748FF0E20FEF745FF0820FEF742FF49
:102690005420FEF73FFFA920FEF73CFF4320FEF742
:1026A00039FF0A20FEF736FF0F20FEF733FF002028
:1026B000FEF730FF0020FEF72DFF0020FEF72AFF77
:1026C0000020FEF727FFE120FEF718FF0020FEF7AD
:1026D00021FF1520FEF71EFF1720FEF71BFF072026
:1026E000FEF718FF1120FEF715FF0620FEF712FF78
:1026F0002B20FEF70FFF5620FEF70CFF3C20FEF7C5
:1027000009FF0520FEF706FF1020FEF703FF0F204C
:10271000FEF700FF3F20FEF7FDFE3F20FEF7FAFE2A
:102720000F20FEF7F7FE2B20FEF7E8FE0020FEF755
:10273000F1FE0020FEF7EEFE0120FEF7EBFE3F204B
:10274000FEF7E8FE2A20FEF7D9FE0020FEF7E2FEA3
:102750000020FEF7DFFE0020FEF7DCFEEF20FEF794
:10276000D9FE1120FEF7CAFE7820FFF7D5F8292000
:10277000FEF7C4FEE08DFEF7C1FE0020FEF7CAFEA4
:102780000020FEF7C7FE6988491EC1F30F20FEF73F
:10279000C1FEA978491EC8B2FEF7BCFE208EFEF726
:1027A000ADFE0020FEF7B6FE0020FEF7B3FEA988BE
:1027B000491EC1F30F20FEF7ADFE2979491EC8B2AC
:1027C000FEF7A8FE94F82A0028B9F02068804FF49C
:1027D000A070A88004E04FF4A0706880F020A8806A
:1027E00094F82A0020B908213620FEF7A1FE07E060
:1027F00047F0A00747F0080739463620FEF798FE55
:10280000A088216808834FF6FF712846FEF798F8E4
:102810001348E86013482861134868611348A861A9
:102820001348E86113482862134868621348A86295
:102830001348E86213482863134868631348A86381
:102840001348E86313482864134868641348A8646D
:10285000012028700020FFF7CBB900001C0100A068
:1028600041090008F90B000879090008010D00086A
:10287000B914000815140008FD1200081D12000804
:10288000350E00088D130008690B0008810C000844
:10289000B30A0008910B0008010A0008E1090008CA
:1028A00086B0A820FFF72EF82E48FFF79BF92E4898
:1028B00000F0A2F82B480021C268904700201021A8
:1028C0004FF6FF73CDE90030CDE90210254827A36C
:1028D00000221146C469A047002010214FF6FF7363
:1028E000CDE90030CDE902101E4823A314220021B7
:1028F000C469A047002010214FF6FF73CDE90030D6
:10290000CDE90210174820A314227C21C469A047F6
:102910001548816A884724E01348C16A8847002027
:1029200010214FF6FF73CDE90130CDE903100320EC
:1029300000900D48036A0B4800226421046AA047F6
:10294000002010214FF6FF73CDE90130CDE90310CF
:10295000022000900448436A024814226C21046A51
:10296000A047D9E7D8000020000000206865617208
:102970007420726174653A00626C6F6F64206F78C6
:102980007967656E3A00000025000000F0B50B3055
:10299000154D20F007010024144A0FE003688B4214
:1029A0000BD38B4205D95E1A43184768C3E9006709
:1029B00000E04368136002C004E0021D10680028B4
:1029C000ECD12046002802D1286808B10020F0BDD3
:1029D000064A07481060074A121A22F00702C0E9A7
:1029E000002401202860D7E7D4000020D000002078
:1029F0002C280020282A00207CB5044614B94FF06A
:102A0000FF307CBD4020FFF7C1FFE061E06910B9F5
:102A10004FF0FF30F5E7E56920682860606868607E
:102A2000A068A860E068E86050492069884204D145
:102A300001210846FDF706FD34E04D492069884232
:102A400004D101210220FDF7FDFC2BE0494920695A
:102A5000884204D101210420FDF7F4FC22E046491C
:102A60002069884204D101210820FDF7EBFC19E020
:102A700042492069884204D101211020FDF7E2FC7F
:102A800010E03F492069884204D101212020FDF750
:102A9000D9FC07E03B492069884203D1012140204D
:102AA000FDF7D0FC00208DF8040060690090012043
:102AB0008DF8070002208DF8050069462069FDF7B2
:102AC00043FC2846FEF7A4FF01202076402309227C
:102AD000572128466E6BB047C02302225721284653
:102AE0006E6BB04700230322572128466E6BB04718
:102AF00000230422572128466E6BB047002305228D
:102B0000572128466E6BB0470023062257212846DE
:102B10006E6BB0470F230822572128466E6BB047D3
:102B200003230922572128466E6BB04727230A2228
:102B3000572128466E6BB04724230C225721284684
:102B40006E6BB04724230D22572128466E6BB04789
:102B50007F231022572128466E6BB0470A48A06297
:102B60000A48E0620A48206300204AE70000024069
:102B70000004024000080240000C02400010024025
:102B80000014024000180240191800086D150008D2
:102B9000451500082DE9F84F05460C4616461F4618
:102BA000DDE90B9ADDF828803B463246214628466F
:102BB000CDF8008000F090FA4B4632462146284678
:102BC00000F0C7FA2068504501DA206800E050465E
:102BD0002060BDE8F88F00002DE9FF4FC7B08846A0
:102BE000994600204690002406E0479850F82410AB
:102BF000469808444690641C4445F6DB4698B0FB72
:102C0000F8F04690002408E0479850F824104698C1
:102C1000081AFE4941F82400641C4445F4DB0024F2
:102C200017E0FA4850F824100246601C52F82000C1
:102C30000144A01C52F820000144E01C52F820007E
:102C40000F183846F91707EB9171891042F82410D4
:102C5000641CB4F5F87FE4DB00240AE0EB49601C57
:102C600051F8200051F82410401AE94941F8240095
:102C7000641CB4F5F77FF1DD00240EE0E44951F85F
:102C800024200B46611C53F82110501800EBD07122
:102C900049101A4642F82410641CB4F5F77FEDDBA6
:102CA00000251BE0002044902C460BE0D84850F84B
:102CB0002410601BD74A32F81020449801FB120000
:102CC0004490641C681D8442F0DB40F27A414498D1
:102CD00090FBF1F0CE4941F825006D1CB5F5F47F6D
:102CE000E0DD00204290002410E0C94850F82400A4
:102CF000002803DDC64850F8240003E0C44850F81B
:102D000024004042429908444290641CB4F5F77F85
:102D1000EBDD40F2EF11429890FBF1F0429005217B
:102D20000822429840F2EF13CDE901210090B84A01
:102D300041A913A8FFF72EFF002012904198022806
:102D400021DB01240BE013A850F82410601E13AA05
:102D500052F82000091A129808441290641C4198F5
:102D60008442F0DB4198401E129991FBF0F01290E2
:102D700041F27071129891FBF0F1559801600121B8
:102D80005698017005E0A4495598016000215698B5
:102D90000170002407E013A850F82400801C31A91A
:102DA00041F82400641C41988442F4DB00240CE0C8
:102DB000479850F82400954941F82400499850F864
:102DC0002400964941F82400641C4445F0DB0020AF
:102DD000439000242DE00120459031A850F824A014
:102DE0004FF0807040900AF10500B0F5F77F1FDCCE
:102DF0000A3800281CDD054611E0844850F82510EB
:102E0000409881420ADA459808B1002045907F48F1
:102E100050F82500409022A840F824506D1C0AF17B
:102E200005008542E9DB459810B94398401C439062
:102E3000641C41988442CEDB4398022808DA764825
:102E4000C9F800000021549801704BB0BDE8F08F24
:102E500000242EE06D4951F824200B46611C53F8E4
:102E600021100A44A11C53F821100A44E11C53F814
:102E700021105018C11700EB917189101A4642F8C1
:102E80002410664951F824200B46611C53F8211088
:102E90000A44A11C53F821100A44E11C53F82110E4
:102EA0005018C11700EB917189101A4642F824108E
:102EB000641CB4F5F87FCDDB0020059000260024CB
:102EC00004E0002006A941F82400641C052CF8DB6E
:102ED00000240DE022A850F82400B0F5FA7F06DDAA
:102EE0004D48C9F80000002154980170ADE7641CFA
:102EF00043988442EEDB0024AFE04FF07F400E9019
:102F00000D9022A9601C51F8200051F82410401A9D
:102F10000A2879DD22A850F8245016E03B4850F8E2
:102F200025100D98814204DD384850F825000D9099
:102F30000B953A4850F825100E98814204DD374829
:102F400050F825000E900C956D1C22A9601C51F8BC
:102F50002000A842E2DC601C51F820002F4951F803
:102F6000200022A951F824102C4A52F82110401AAE
:102F700022A951F824200C99891A4843119022A9BA
:102F8000601C51F8200051F82410411A119890FB50
:102F9000F1F022A951F82410204A52F821100844D7
:102FA000119011460C9851F820101198081A1190A0
:102FB00022A9601C51F82000144951F8200022A9D0
:102FC00051F82410114A52F82110401A22A951F840
:102FD00024200B99891A4843109022A9601C51F8AB
:102FE000200051F82410411A109890FBF1F022A90A
:102FF00051F82410054A52F8211008441090114647
:103000000C9851F820100BE026E0000084180020F6
:10301000C41000206EEA000819FCFFFF54200020B5
:103020001098081A10900D9911984843C0110490F7
:103030000E9910984843C711002F0DDD052E0BDAAD
:10304000049848B1049800EB8000800090FBF7F0F2
:1030500006A941F82600761C641C4398401EA04235
:103060003FF74BAF314606A800F0ACF8304606EB10
:10307000D0714FEA610BBBF1010F0CDDABF1010127
:1030800006AA52F8211052F82B20881800EBD071B4
:103090004910059103E006A850F82B00059005980B
:1030A00002280DDD0598B8280ADA09490598085C58
:1030B0000F900F98C9F8000001215498017005E0A5
:1030C0000448C9F8000000215498017000BFBCE614
:1030D000ACEA000819FCFFFFF0B505461C46059E4A
:1030E000012000270F6030E052F82070B7422BDD3E
:1030F00052F820C0471E52F82770BC4524DD01233A
:1031000000E05B1CC718A74207DA52F8207000EBFA
:10311000030C52F82CC06745F3D052F8207000EB36
:10312000030C52F82CC067450CDD0F680F2F09DA2D
:10313000D1F800C00CF101070F6045F82C005F1CAE
:10314000384402E0184400E0401C671E8742CBDC94
:10315000F0BD2DE9F05F05460C469246984629469B
:103160005046226800F049F84FF0FF3621E0D4F8CD
:1031700000B0701C2060771C18E055F82710701CF8
:1031800010B94FF0FF3001E055F82600A1EB00091F
:10319000C14503DCC8F10000814506DA55F8271067
:1031A0002268501C206045F822107F1C5F45E4DB3C
:1031B000761C2068B042DADC2846216800F002F86C
:1031C000BDE8F09F30B50C46012213E050F82230E4
:1031D000114605E04D1E50F8255040F82150491E7B
:1031E000002904DD4D1E50F825509D42F2DC40F8C8
:1031F0002130521CA242E9DB30BDF0B50346154632
:10320000012217E051F82240104605E0461E51F811
:10321000266041F82060401E002808DD53F8247025
:10322000461E51F8266053F82660B742EEDC41F89E
:103230002040521CAA42E5DBF0BD00000000000067
:10324000000000000000000000003E400000000000
:10325000000000002000C0002000C00000000900A5
:103260003FC009003FC009000000188024407FE0F3
:103270002240118000001C0022C01F000B8034403F
:10328000038003801C4027401880074004802000F2
:10329000C0000000000000000000000000001F004F
:1032A00060C0802000000000802060C01F0000007F
:1032B0000000090006001F80060009000000000051
:1032C000040004001F0004000400002000C00000EF
:1032D00000000000000004000400040004000400DA
:1032E000040000000040000000000000000000207A
:1032F00000C003000C00300040001F802040204030
:1033000020401F800000000010403FC0004000002F
:10331000000018C0214022402440184000001080C6
:103320002040244024401B80000003000500194079
:103330003FC0014000003E802440244024402380C0
:1033400000000F8012402440244013800000000041
:10335000200023C02C00300000001B8024402440AB
:1033600024401B8000001C802240224024801F003B
:103370000000000000000840000000000000000005
:1033800000000460000000000000000006000900CA
:103390001080204000000A000A000A000A000A000B
:1033A0000A000000204010800900060000001800FC
:1033B000200023402400180000000F001080274048
:1033C0002F4021401E80004007C039000F0001C07F
:1033D000004020403FC0244024401B8000001F804C
:1033E0002040204020403080000020403FC020404E
:1033F00020401F80000020403FC024402E4030C0AD
:10340000000020403FC024402E00300000000F008C
:103410001080204022403380020020403FC0040042
:1034200004003FC02040204020403FC020402040BA
:1034300000000030201020103FE02000200020403D
:103440003FC024400A0031C0204020403FC02040FF
:103450000040004000C03FC03C0003C03C003FC0F3
:10346000204020403FC00C4023003FC020001F8070
:103470002040204020401F80000020403FC02440CA
:103480002400180000001F802140214020E01FA0E0
:10349000000020403FC02440260019C0004018C052
:1034A00024402440224031800000300020403FC0B2
:1034B00020403000000020003F80004000403F805E
:1034C000200020003E0001C00700380020003C0022
:1034D00003C03E0003C03C000000204039C006008D
:1034E00039C02040000020003C4003C03C40200088
:1034F0000000304021C02640384020C000000000BD
:103500000000FFE0802080200000000060001C0020
:10351000038000600000000080208020FFE00000A9
:10352000000000004000800040000000000000108B
:10353000001000100010001000100000800040007B
:10354000000000000000000002800540054003C0AC
:10355000004040007FC004400440038000000000A1
:103560000380044004400680000000000380044003
:1035700044407FC0004000000380054005400340F8
:103580000000000004403FC04440444020000000D0
:1035900002A0055005500650042040407FC0044062
:1035A000040003C000400000044067C00040000069
:1035B000000000100010041067E000000000404010
:1035C0007FC00100068004400000404040407FC0B2
:1035D00000400040000007C0040007C0040003C012
:1035E0000000044007C00440040003C00040000085
:1035F00003800440044003800000041007F00450DE
:10360000044003800000000003800440045007F0E1
:103610000010044007C00240040004000000000045
:1036200006400540054004C00000000004001FC023
:10363000044004400000040007800040044007C02C
:1036400000400400070000C007000400000006005E
:1036500001C0070001C006000000044006C00100D0
:1036600006C0044000000410071000A000C00700BE
:1036700004000000044005C00640044000000000B3
:1036800000000400FFE080200000000000000000B7
:10369000FFF00000000000008020FBE004000000BC
:1036A000000040008000800040008000000000001A
:1036B000000000000000000000000000000000000A
:1036C000000000001FCC000000000000000000000F
:1036D00008003000400008003000400000000000FA
:1036E000022003FC1E20022003FC1E20000000001C
:1036F0000E18110411043FFF10840C7800000F0015
:10370000108C0F3001C00678188400780000007813
:103710000F8410C411340E9800E4008400080000E7
:1037200048007000000000000000000000000000E1
:103730000000000007E0181820044002000000000C
:1037400040022004181807E00000000000000240BA
:10375000024001800FF001800240024000000000A2
:1037600000800080008007F0008000800080000062
:103770000009000E00000000000000000000000032
:103780000080008000800080008000800000000039
:10379000000C000C00000000000000000000000011
:1037A0000006001800E003001C00200000000000DC
:1037B00007F0080810041004080807F000000000D3
:1037C0000000080408041FFC0004000400000000BE
:1037D0000E0C10141024104410840F0C0000000074
:1037E0000C1810041084108411440E3800000000DE
:1037F000006001A002240C241FFC0024002400000F
:103800001F981104110411041088107000000000AA
:1038100007F0088811041104090400F800000000F2
:1038200018001000107C1180160018000000000025
:103830000E3811441084108411440E38000000002A
:103840000F80104810441044088807F00000000062
:1038500000000000030C030C00000000000000004A
:103860000000000001070000000000000000000050
:10387000008001400220041008081004000000002D
:1038800002400240024002400240024000000000AC
:10389000100408080410022001400080000000000D
:1038A0000E001200100C10EC11000E00000003E0DE
:1038B0000C1813E4141417F4081407E800000004AB
:1038C000003C03C41C40074000E4001C000410043A
:1038D0001FFC1104110411040E880070000003E0A5
:1038E0000C1810041004100410081C100000100420
:1038F0001FFC100410041004080807F00000100456
:103900001FFC1104110417C410040818000010044F
:103910001FFC1104110017C010000800000003E094
:103920000C181004100410441C780040000010040F
:103930001FFC10840080008010841FFC1004000015
:10394000100410041FFC1004100400000000000309
:103950000001100110011FFE1000100000001004F3
:103960001FFC110403801464181C100400001004D0
:103970001FFC1004000400040004000C00001004EC
:103980001FFC1F80007C1F801FFC1004000010041F
:103990001FFC0C04030000E010181FFC100007F0CF
:1039A0000808100410041004080807F000001004B0
:1039B0001FFC10841080108010800F00000007F0A2
:1039C000080810141014100C080A07F20000100464
:1039D0001FFC1104110011C011300E0C0004000076
:1039E0000E1C11041084108410441C3800001800B0
:1039F000100010041FFC100410001800000010003C
:103A00001FF810040004000410041FF81000100038
:103A10001E0011E0001C007013801C00100010003C
:103A20001FC0007C1F80007C1FC01000000010041D
:103A3000180C163401C001C01634180C1004100004
:103A40001C00130400FC13041C00100000000804F8
:103A5000101C1064108413041C04101800000000D3
:103A6000000000007FFE4002400240020000000013
:103A700020001C0003800060001C00030000000008
:103A80004002400240027FFE0000000000000000F3
:103A90000000200040004000200000000000000165
:103AA000000100010001000100010001000100000F
:103AB0004000400020000000000000000000000066
:103AC000009801240124014800FC000400000800C3
:103AD0000FFC008801040104008800700000000051
:103AE0000070008801040104010400880000000047
:103AF00000F801040104010409080FFC000400009F
:103B000000F8012401240124012400E80000000041
:103B10000104010407FC090409040400000000007A
:103B200000D601290129012901C901060000080464
:103B30000FFC008401000100010400FC00040000EF
:103B40000104190419FC0004000400000000000036
:103B5000000300010101190119FE00000000080422
:103B60000FFC002400600194010C0104000000001F
:103B7000080408041FFC0004000400000000010405
:103B800001FC0104010001FC0104010000FC01042E
:103B900001FC008401000100010400FC000400009D
:103BA00000F8010401040104010400F8000001010F
:103BB00001FF00890104010400880070000000007A
:103BC0000070008801040104008901FF0001010464
:103BD000010401FC008401040100018000000000D8
:103BE00000CC0124012401240124019800000000DC
:103BF0000100010007F801040104000800000100B1
:103C000001F8000400040004010801FC00040100A4
:103C100001C00130000C013001C001000000018032
:103C20000170000C013001E0001C01600180000007
:103C30000104018C01700074018C0104000001007A
:103C400001810161001E0018016001800100000077
:103C50000184010C013401440184010C00000000C6
:103C600000000000000000803F7C40024002000095
:103C7000000000000000FFFF000000000000400204
:103C800040023F7C008000000000000000000000B7
:103C90004000800040004000200040000000000084
:103CA0000000000000000000000000000000000014
:103CB0000000000000000000000000000000000004
:103CC00000000000000000000000000000000000F4
:103CD000000000000000000000000000000FEE38AF
:103CE0000FF038000000000000000000000000009D
:103CF00000000000000000000000000000000000C4
:103D0000000000000100000600000C000038000068
:103D10003100000600000C000038000030000000F8
:103D20000000000000000000000000000000000093
:103D30000000C18000C1F800FF800FC18000C18079
:103D400000C18000C18000DFF80FE18000C1800069
:103D50000000000000000000000000000000000063
:103D60000000000001C0E003E0F00630480418083D
:103D70001FFFFE048E080787F00381E000000000AB
:103D8000000000000000000000000000000003E050
:103D9000000C18000808180C18E003F300001C00C1
:103DA0000063E0038C180C0808000C180003E00006
:103DB0000000000000000000000000000000000300
:103DC000E00007F007E8180FFC08081F080FE3C819
:103DD00007C0F0001070001F9800100800100800C5
:103DE00000300000000000000000000000000000A3
:103DF000000000003100003200001C000000000044
:103E000000000000000000000000000000000000B2
:103E100000000000000000000000000000000000A2
:103E200000000000000000000000000000007F0013
:103E30000180C006003008000810000420000200C5
:103E40000000000000000000000000000000000072
:103E5000002000021000040800080600300180C0A5
:103E6000007F0000000000000000000000000000D3
:103E70000000000000000000000000000000000042
:103E800000006600006600002400001C000008001E
:103E900003FFC0011800003C000024000066000081
:103EA00066000000000000000000000000000000AC
:103EB00000000800000800000800000800000800DA
:103EC00001FFC00008000008000008000008000012
:103ED00008000000000000000000000000000000DA
:103EE0000000000000003100003200001C00000053
:103EF00000000000000000000000000000000000C2
:103F000000000000000000000000000000000000B1
:103F10000000080000080000080000080000080079
:103F20000008000008000008000008000008000069
:103F30000000000000000000000000000000000081
:103F400000000000000038000038000038000000C9
:103F50000000000000000000000000000000000061
:103F60000000000000000000000000000000000051
:103F70000000000600001C000070000180000E0020
:103F800000380000C0000700001C000030000000E6
:103F90000000000000000000000000000000000021
:103FA00000007F8001FFE003807006001804000815
:103FB00004000806001803807001FFE0007F800005
:103FC00000000000000000000000000000000000F1
:103FD0000000000002000802000802000803FFF8C9
:103FE00007FFF800000800000800000800000000BB
:103FF00000000000000000000000000000000000C1
:104000000001C01802C038040048040088040308F6
:10401000040608060C0803F80801E0780000000018
:104020000000000000000000000000000000000090
:104030000003807003807004000804080804080866
:1040400006180803F41801E7F00001E00000000082
:104050000000000000000000000000000000000060
:104060000000030000050000190000210000C10845
:1040700001010807FFF807FFF80001080001080028
:10408000010000000000000000000000000000002F
:10409000000000E007FCD004080804100804100821
:1040A000041008041838040FF00407C000000000D2
:1040B0000000000000000000000000000000000000
:1040C00000003F8001FFE00384300208180410085C
:1040D000041008041008071810030FF00007C000B0
:1040E00000000000000000000000000000000000D0
:1040F000000000000380000600000400000400F837
:104100000407F804180004E000070000060000009F
:10411000000000000000000000000000000000009F
:104120000001C1E003F3F006361004180804080883
:10413000040C08040C0806161803F3F001C1E00093
:10414000000000000000000000000000000000006F
:104150000000F80003FC30030638040208040208DB
:104160000402080404100308F001FFC0007F0000EF
:10417000000000000000000000000000000000003F
:1041800000000000000000000000000000003838BF
:10419000003838003838000000000000000000003F
:1041A000000000000000000000000000000000000F
:1041B0000000000000000000000000000000301BB4
:1041C00000301C00000000000000000000000000A3
:1041D00000000000000000000000000000000000DF
:1041E0000000000000080000140000220000410050
:1041F0000080800100400200200400100800080038
:1042000000000000000000000000000000000000AE
:1042100000002200002200002200002200002200F4
:1042200000220000220000220000220000220000E4
:10423000000000000000000000000000000000007E
:1042400000000000080008040010020020010040E7
:1042500000808000410000220000140000080000DF
:10426000000000000000000000000000000000004E
:104270000000000001E000026000020000040038BD
:1042800004073804083804180006100003F0000181
:10429000E00000000000000000000000000000003E
:1042A00000007F0003FFE0070070041F1808FF886C
:1042B00009C088093F8805E09006013001FE4000F2
:1042C00000000000000000000000000000000000EE
:1042D000080000380001C8001E0801E200060200C4
:1042E00007820000FA00000F880001F800001800A3
:1042F00000080000000000000000000000000000B6
:104300000004000807FFF807FFF80408080408087D
:1043100004080806180803F41803E7F00001E00099
:10432000000000000000000000000000000000008D
:1043300000003F8001FFE0038070020018040008C5
:1043400004000804000806001007003001C0C00087
:104350000000000000000000000000000000040059
:104360000804000807FFF807FFF804000804000825
:1043700004000802001003807001FFE0007F80004D
:104380000000000000000000000000000000040029
:104390000807FFF807FFF8040808040808040808DD
:1043A000040808043F0806000806001801806000A1
:1043B00000000000000000000000000000000400F9
:1043C0000807FFF807FFF8040808040808040800B5
:1043D000040800043F000600000600000180000001
:1043E00000000000000000000000000000000000CD
:1043F00000003F8001FFE003807006001804000801
:104400000402080402080203F001C3F000020000E5
:104410000200000000000000000000000000040096
:104420000807FFF807FFF804080800080000080064
:1044300000080000080004080807FFF807FFF80458
:104440000008000000000000000000000000000064
:104450000000000004000804000804000807FFF83A
:1044600007FFF8040008040008040008000000002A
:10447000000000000000000000000000000000003C
:10448000000000060000070400010400010400030E
:1044900007FFFE07FFFC040000040000040000000A
:1044A0000000000000000000000000000000040008
:1044B0000807FFF807FFF8040C08003000005C0054
:1044C0000587000701C806007804001800000800EE
:1044D00000000000000000000000000000000400D8
:1044E0000807FFF807FFF8040008040008000008A8
:1044F000000008000008000008000018000060002C
:1045000000000000000000000000000000000400A7
:104510000807FFF807F00800FF000007F00001E0BF
:10452000003E0003C00807FFF807FFF8040008007A
:10453000000000000000000000000000000000007B
:104540000804000807FFF807800801E00800780069
:10455000001E000403C00400F007FFF8040000047C
:10456000000000000000000000000000000000004B
:1045700000007F8001FFE00380700600180400083F
:1045800004000806001803003001FFE0007F8000EF
:104590000000000000000000000000000000040017
:1045A0000807FFF807FFF8040408040408040400DF
:1045B000040400040C0002080003F80001F00000ED
:1045C00000000000000000000000000000000000EB
:1045D00000007F8001FFE0038070060098040088DF
:1045E0000400E806003C03003601FFE6007F84007B
:1045F00000000000000000000000000000000400B7
:104600000807FFF807FFF80408080408000408007A
:10461000040E00040B800610E003F07801E018009F
:104620000008000000000000000000000000000082
:104630000001E0E003F030063810041808041C08FC
:10464000040C08040E080207180787F00001E000B8
:1046500000000000000000000000000000000180D9
:104660000006000004000004000804000807FFF82A
:1046700007FFF80400080400080400000600000119
:1046800080000000000000000000000000000000AA
:104690000004000007FFE007FFF004001800000816
:1046A00000000800000804001007FFE004000000FC
:1046B00000000000000000000000000000000400F6
:1046C0000006000007E000047E000007E00000781C
:1046D0000001C0001E0005E000060000040000000C
:1046E00000000000000000000000000000000400C6
:1046F0000007C00004FF000003F80403C0063C00EC
:1047000007FC00040FF80001E0043E0007C00004AD
:104710000000000000000000000000000000000099
:104720000004000806001807806804E180003E00CD
:104730000017000461C8078078040018040008000E
:104740000000000000000000000000000000040065
:104750000006000007800004F008003C08001FF875
:104760000007F8001808046008058000060000042F
:104770000000000000000000000000000000000039
:10478000000180080700380600E8040188040608D4
:1047900004180804600805C0080700180400600039
:1047A0000000000000000000000000000000000009
:1047B000000000000000000000000000003FFFFEBD
:1047C0002000022000022000022000020000000061
:1047D00000000000000000000000000000000000D9
:1047E000000000000C000003000000E000001800C2
:1047F0000007000001C000003000000E00000100B2
:1048000000000000000000000000000000000000A8
:104810000000000020000220000220000220000210
:104820003FFFFE000000000000000000000000004C
:104830000000000000000000000000000000000078
:1048400000000000000000100000200000400000F8
:1048500040000020000010000000000000000000E8
:104860000000000000000000000000000000000048
:104870000100000100000100000100000100000132
:104880000000010000010000010000010000010023
:104890000001000000000000000000000000000017
:1048A00000000000000000200000200000100000B8
:1048B00010000000000000000000000000000000E8
:1048C00000000000000000000000000000000000E8
:1048D000000000F00019F8001998002108002208D3
:1048E000002208002210003FF0001FF8000008001E
:1048F00000180000000000000000000000000000A0
:104900000004000007FFF80FFFF000181000100867
:10491000002008002008003018001FF0000FC00021
:104920000000000000000000000000000000000087
:10493000000007C0001FF000183000200800200809
:10494000002008003C08001C10000060000000006F
:104950000000000000000000000000000000000057
:10496000000007C0001FF0003818002008002008D1
:1049700004200804101007FFF80FFFF000001000DB
:104980000000000000000000000000000000000027
:10499000000000000007C0001FF0001130002108D7
:1049A000002108002108003108001F100007200026
:1049B00000000000000000000000000000000000F7
:1049C0000000200000200800200801FFF803FFF885
:1049D0000620080420080420080700000300000047
:1049E00000000000000000000000000000000000C7
:1049F0000000000E000E7E001FF30031A10020A178
:104A00000030B1003FB3002F1E00301E0030000008
:104A10000000000000000000000000000000000096
:104A20000004000807FFF80FFFF80010080020003E
:104A3000002000002008003FF8001FF800000800D8
:104A40000000000000000000000000000000000066
:104A500000000000002008002008002008063FF8A1
:104A6000067FF800000800000800000800000000B1
:104A70000000000000000000000000000000000036
:104A800000000000000003000003002001002001DE
:104A9000062003063FFE067FFC0000000000000029
:104AA0000000000000000000000000000000000006
:104AB0000004000807FFF80FFFF8000108000200DB
:104AC0000007000038C80020780020180000080007
:104AD00000000000000000000000000000000000D6
:104AE0000000000004000804000804000807FFF8A4
:104AF0000FFFF80000080000080000080000000098
:104B00000000000000000000000000000000002085
:104B100008003FF8003FF8001008002008003FF8A8
:104B2000001FF8001008002008003FF8003FF800C0
:104B3000000800000000000000000000000000006D
:104B400000002008003FF8003FF800100800200097
:104B5000002000002008003FF8001FF800000800B7
:104B60000000000000000000000000000000000045
:104B7000000007C0000FF0001830003008002008C7
:104B8000002008003008001830000FF00007C000B7
:104B90000000000000000000000000000000000015
:104BA00000002001003FFF003FFF0010110020091E
:104BB000002008002008003038001FF0000FC0005F
:104BC00000000000000000000000000000000000E5
:104BD000000007C0001FF00038180020080020085F
:104BE000002009001011001FFF003FFF000001001E
:104BF0000000000000000000000000000000002095
:104C000008002008002008003FF8003FF8000808CE
:104C100000100800200800200000380000180000E4
:104C20000000000000000000000000000000000084
:104C300000000000001C78001E1800330800230844
:104C40000021880021980030F8003CF000000000AE
:104C50000000000000000000000000000000000054
:104C60000000200000200000200000FFF003FFF8FB
:104C7000002008002008002008000030000000008C
:104C80000000000000000000000000000000000024
:104C900000002000003FF0007FF80000180000082E
:104CA000000008002010003FF8007FF00000100016
:104CB00000000000000000000000000000000000F4
:104CC00000002000003000003E000023C00000F87B
:104CD0000000300001C0002E000030000020000065
:104CE00000000000000000000000000000000020A4
:104CF00000003800002F800001F80020F00037008D
:104D0000003F000021F00000F00027000038000004
:104D10002000000000000000000000000000000073
:104D200000000008002008003038003C48002780C0
:104D30000003800024C80038380020180020080034
:104D40000000000000000000000000000000000063
:104D500000002000002003003C010023810000FE31
:104D6000000070002380003C0000200000200000B4
:104D70000000000000000000000000000000000033
:104D800000000000003C180020780020C8002388A4
:104D9000002E0800380800301800007000000000E5
:104DA0000000000000000000000000000000000003
:104DB00000000000000000000000000000000800EB
:104DC0000014001FE3FC200002200002000000008D
:104DD00000000000000000000000000000000000D3
:104DE00000000000000000000000000000000000C3
:104DF000FFFFFF00000000000000000000000000B6
:104E000000000000000000000000000000000000A2
:104E1000000000002000022000021FE3FC0014003C
:104E2000000800000000000000000000000000007A
:104E30000000000000000000000000000000000072
:104E40000030000040000040000040000020000052
:104E500010000018000008000008000030000000EA
:104E60000000000000000000000000000000000042
:104E70000000000000000000000000000000000032
:104E80000000000000000000000000000000000022
:104E90000000000000000000000000000000000012
:104EA0000000000000000000000000000000000002
:104EB00000000000000000000000000000000000F2
:104EC00000000000000003F0006003FFF8F003FFA3
:104ED000F8F003F80060000000000000000000008F
:104EE00000000000000000000000000000000000C2
:104EF00000000000000000C000000180000007006A
:104F000000001E0000003C00000038C000000180CE
:104F10000000070000001E0000003C0000003800F8
:104F20000000000000000000000000000000000081
:104F30000000001C0E00001C0E00001C0FF0001FE3
:104F4000FF0003FC0E00001C0E00001C0E00001CE5
:104F50000E00001C0E00001C0FF0001FFF0003FCE1
:104F60000E00001C0E00001C0E00000000000000DF
:104F7000000000000000000003C0007803E001FE14
:104F80000320010F0010020380100FFFFFFE02003C
:104F9000E0100200E0300130786001F03FC000F026
:104FA0000F80000000000000000000000000007EF4
:104FB000000001FF80000300C00002004030030039
:104FC000C1C001FF8600007E38000000C00000075D
:104FD0001F8000387FE000C0C03003008010000058
:104FE000C03000007FE000001F80000000000000D3
:104FF0001F8000003FC000FEC06001FFC0300303FF
:10500000F01002017C1002061E1003FC07A000F045
:1050100001C0000081E000008E700000F030000050
:10502000803000008060000000C000000000000030
:1050300000000040000038C00000388000003F0041
:1050400000001E0000000000000000000000000042
:105050000000000000000000000000000000000050
:105060000000000000000000000000000000000040
:105070000000000000000000000000000000000030
:1050800000000000000000000000000FF800003FDA
:10509000FE0000F00780038000E0060000300C00F6
:1050A00000181000000420000002000000000000B2
:1050B000000020000002100000040C000018060090
:1050C0000030038000E000F00780003FFF00000F89
:1050D000F8000000000000000000000000000000D8
:1050E00000000000000000000000000000000000C0
:1050F00000000000000000181800001C3800000C20
:105100003000000660000002400000618F0000FFD8
:10511000FF0000F187000002400000066000000C64
:105120003000001C380000181800000000000000CB
:10513000000000000000000080000000800000006F
:105140008000000080000000800000008000007FE0
:10515000FF000000800000008000000080000000D0
:1051600080000000800000008000000000000000BF
:10517000000000000001000000E3000000E2000069
:1051800000FC0000007800000000000000000000AB
:10519000000000000000000000000000000000000F
:1051A00000000000000000000000000000000000FF
:1051B000000000008000000080000000800000006F
:1051C00080000000800000008000000080000000DF
:1051D00080000000800000008000000080000000CF
:1051E000800000008000000080000000000000003F
:1051F00000000000000000000060000000F000005F
:1052000000F000000060000000000000000000004E
:10521000000000000000000000000000000000008E
:10522000000000000000000000000000000000007E
:1052300000000000000C00000038000000E000004A
:10524000038000000E00000038000000E0000003B2
:105250008000000E00000038000000E00000038025
:1052600000000E0000001800000000000000000018
:10527000000000000000000FFC00007FFF8000F035
:1052800003C0018000600300003002000010020033
:105290000010020000100180006000E001C0007FEB
:1052A000FF80000FFC000000000000000000000074
:1052B00000000000000000000000008000100080DE
:1052C0000010008000100080003001FFFFF003FF9D
:1052D000FFF000000030000000100000001000008F
:1052E00000100000000000000000000000000000AE
:1052F00000000000000000780070009800B001007D
:1053000001300200023002000C30020018300200AE
:105310003030020060300300C0300183803001FF74
:105320000070007C03C000000000000000000000CE
:1053300000000000000000F003C001F003E00100E5
:105340000020020000100200801002008010020005
:1053500080100301C0100183402000FE6060007CCB
:105360003FC000000F00000000000000000000002F
:10537000000000000C000000340000006400000188
:10538000840000060400000804100030041000C06F
:10539000041003FFFFF003FFFFF000000410000003
:1053A00004100000041000000000000000000000D5
:1053B000000000000000000003C000FFC320030045
:1053C00080200301001003020010030200100302FA
:1053D00000100302001003030020030180E003001B
:1053E000FFC003003F0000000000000000000000BC
:1053F0000000000000000007FE00003FFF8000E00A
:10540000C1E00181006001030030020200100202CD
:105410000010020200100203003001C1806001C0D0
:10542000FFC000003F00000000000000000000007E
:105430000000000000000070000003C00000030036
:10544000000003000000030003F003003FF003002E
:10545000C000030700000318000003600000038081
:105460000000030000000000000000000000000039
:10547000000000000F80007C3FC000FE7060018FC4
:1054800040200303801002038010020180100200FC
:10549000C0100200E010030170200182786000FE5D
:1054A0003FC000780F8000000000000000000000F6
:1054B0000000003F800000FFC0E001C0E0E001000C
:1054C0003010020010100200101002001010020034
:1054D000103002002060010060C000C08780007FA3
:1054E000FE00001FF80000000000000000000000A7
:1054F00000000000000000000000000000000000AC
:1055000000000000000000030060000780F00007BA
:1055100080F00003006000000000000000000000B8
:10552000000000000000000000000000000000007B
:10553000000000000000000000000000000000006B
:10554000000000000000000380760003807E00035E
:105550008078000000000000000000000000000053
:10556000000000000000000000000000000000003B
:10557000000000000000000000000000C00000016A
:1055800020000002100000040800000804000010C1
:105590000200002001000040008000800040010067
:1055A00000200200001000000000000000000000C9
:1055B00000000004100000041000000410000004AB
:1055C000100000041000000410000004100000048B
:1055D000100000041000000410000004100000047B
:1055E0001000000410000004100000000000000083
:1055F00000000000000002000010010000200080F8
:10560000004000400080002001000010020000085F
:105610000400000408000002100000012000000047
:10562000C0000000000000000000000000000000BA
:10563000000000000000003C000000FC0000019C95
:1056400000000100000002000060020000F0020003
:105650007CF00200C0600200800001018000018334
:10566000000000FE0000007C0000000000000000C0
:1056700000000007F800003FFF00007003C000C0FA
:1056800000600181FC200307FE10021E02100230A0
:10569000041002203C10021FFE10013C022000807A
:1056A0000460006018C0001FE1000000000000005E
:1056B000001000000030000001F000003E10000368
:1056C000F010003E100003C0100003C0100003FCE7
:1056D0001000003FD0000001FE1000001FF000008D
:1056E00001F0000000300000001000000000000089
:1056F0000000020000100200001003FFFFF003FF93
:10570000FFF00200801002008010020080100200F2
:10571000801002008010030180100183403001FEE0
:105720006060007C3FC000000F80000000000000AF
:1057300000000007FC00003FFF00007803C000C02D
:1057400000600100002003000010020000100200B1
:105750000010020000100200001001000020018073
:10576000004001C000800070030000000000000045
:105770000000020000100200001003FFFFF003FF12
:10578000FFF00200001002000010020000100200F2
:1057900000100300003001000020018000C000F074
:1057A00003C0003FFF00000FF800000000000000F1
:1057B0000000020000100200001003FFFFF003FFD2
:1057C000FFF0020080100200801002008010020032
:1057D0008010020080100201C0100207F0100300C8
:1057E00000300380007000600180000000000000B5
:1057F0000000020000100200001003FFFFF003FF92
:10580000FFF0020080100200801002008000020001
:105810008000020080000201C0000307F8000300BE
:105820000000038000000060000000000000000095
:1058300000000007F800003FFF00007003C001C037
:1058400000600100003002000010020000100200A1
:105850000010020020100100202001C03FC0007095
:105860003FC00000200000002000000000000200F7
:1058700000100200001003FFFFF003FFFFF0020022
:1058800080100200801000008000000080000000F6
:10589000800000008000020080100200801003FFE2
:1058A000FFF003FFFFF002000010020000100000F4
:1058B00000000000000000000000020000100200D4
:1058C0000010020000100200001003FFFFF003FFB1
:1058D000FFF00200001002000010020000100200A1
:1058E00000100000000000000000000000000000A8
:1058F00000000000000E0000000F0000000F00007C
:105900000001020000010200000102000003020089
:10591000000603FFFFFC03FFFFF802000000020087
:105920000000020000000200000000000000000073
:105930000000020000100200001003FFFFF003FF50
:10594000FFF00200C010020100100007C0000018A4
:10595000F00002603C0003C00F90030003F002005F
:1059600000700200001000000010000000000000A5
:105970000000020000100200001003FFFFF003FF10
:10598000FFF00200001002000010000000100000F4
:1059900000100000001000000010000000100000C7
:1059A00000300000007000000180000000000200D4
:1059B00000100200001003FFFFF003F0001001FFD1
:1059C0008000000FF80000007FC0000003F000001E
:1059D0000F000001F000001E001001E0001003FFA6
:1059E000FFF003FFFFF002000010020000100200B1
:1059F00000100200001003FFFFF00380001001E020
:105A0000001000780000001E000000078000000168
:105A1000E0000000780000001E0002000780020085
:105A200001E003FFFFF002000000020000000000A0
:105A30000000000FF800003FFF0000F003C00180ED
:105A400000600100002002000010020000100200AF
:105A5000001002000010010000200180006000F032
:105A600003C0003FFF000007FC0000000000000032
:105A70000000020000100200001003FFFFF003FF0F
:105A8000FFF002004010020040100200400002003F
:105A9000400002004000020040000300800001813D
:105AA000800000FF0000007E0000000000000000F9
:105AB0000000000FFC00003FFF8000F001C00180EB
:105AC00001E00100022002000210020002100200A8
:105AD0000310020001F0010000FC0180006E00F0E4
