:020000040800F2
:1000000040040020050100087B020008730200087C
:10001000770200084D0100080504000800000000F8
:10002000000000000000000000000000B502000811
:10003000510100080000000091020008A10300081F
:100040001F0100081F0100081F0100081F01000810
:100050001F0100081F0100081F0100081F01000800
:100060001F0100081F0100081F0100081F010008F0
:100070001F0100081F0100081F0100081F010008E0
:100080001F0100081F0100081F0100081F010008D0
:100090001F0100081F0100081F0100081F010008C0
:1000A0001F0100081F0100081F0100081F010008B0
:1000B0001F0100081F0100081F0100081F010008A0
:1000C0001F0100081F0100081F0100081F01000890
:1000D0001F0100081F0100081F0100081F01000880
:1000E0001F0100081F0100081F010008DFF810D0E1
:1000F00000F01AF80048004735060008AFF300800A
:10010000400400200648804706480047FEE7FEE717
:10011000FEE7FEE7FEE7FEE7FEE7FEE7FEE7FEE7B7
:10012000A5030008ED000008064C074D06E0E06856
:1001300040F0010394E8070098471034AC42F6D32E
:10014000FFF7D8FF0C0900082C09000800BFFEE7E4
:1001500070472DE9F04102460025002600200023CB
:100160000024002791F803C00CF00F0591F803C09C
:100170000CF0100CBCF1000F03D091F802C04CEA57
:10018000050591F800C0BCF1000F31D014680020C3
:100190002BE04FF0010C0CFA00F3B1F800C00CEAB0
:1001A00003069E4220D183004FF00F0C0CFA03F798
:1001B000BC4305FA03FC4CEA040491F803C0BCF10B
:1001C000280F06D14FF0010C0CFA00FCC2F814C045
:1001D0000AE091F803C0BCF1480F05D14FF0010CC3
:1001E0000CFA00FCC2F810C0401C0828D1D31460DF
:1001F000B1F800C0BCF1FF0F34DD546800202EE0E0
:1002000000F1080C4FF0010808FA0CF3B1F800C037
:100210000CEA03069E4221D183004FF00F0C0CFA2A
:1002200003F7BC4305FA03FC4CEA040491F803C04D
:10023000BCF1280F05D100F1080C08FA0CF8C2F83F
:10024000148091F803C0BCF1480F07D100F1080CED
:100250004FF0010808FA0CF8C2F81080401C08287A
:10026000CED35460BDE8F0810AB1016100E0416184
:10027000704700BFFEE700BFFEE770470249014339
:10028000024A1160704700000000FA050CED00E022
:100290007047000029B1064A92690243044B9A61F3
:1002A00004E0034A92698243014B9A61704700005F
:1002B00000100240704710B500F002F810BD0000B9
:1002C0000CB50020019000903348006840F4803065
:1002D0003149086000BF3048006800F400300090E9
:1002E0000198401C0190009818B90198B0F5A06FD2
:1002F000F1D12948006800F4003010B101200090CD
:1003000001E0002000900098012843D123480068B4
:1003100040F01000214908600846006820F0030002
:1003200008600846006840F0020008601A4840680B
:10033000194948600846406848600846406840F4EB
:10034000806048600846406820F47C104860084699
:10035000406840F4E81048600846006840F080704B
:10036000086000BF0C48006800F000700028F9D059
:100370000948406820F00300074948600846406883
:1003800040F00200486000BF0348406800F00C00E5
:100390000828F9D10CBD00000010024000200240E6
:1003A0007047000010B51348006840F00100114983
:1003B000086008464068104908400E4948600846F1
:1003C00000680E4908400B4908600846006820F4A0
:1003D000802008600846406820F4FE0048604FF422
:1003E0001F008860FFF767FF4FF000600449086056
:1003F00010BD0000001002400000FFF8FFFFF6FEF5
:1004000008ED00E000BFFEE702E008C8121F08C1C7
:10041000002AFAD170477047002001E001C1121F85
:10042000002AFBD1704700002DE9F04107460D4638
:100430001646002D1BDB002416E01D4890F9001025
:10044000384600F05FF8304600F0B4F818480078FD
:10045000401E40B216490870084690F90000401C42
:1004600008B907200870641CAC42E6DB1AE06D4254
:10047000002415E00E4890F90010384600F042F8CC
:10048000304600F097F80A480078401C40B208490E
:10049000087008460078082801D100200870641C04
:1004A000AC42E7DB384600F012F8BDE8F08100000E
:1004B0003C000020014611B191F8200010B94FF026
:1004C000FF307047002081F8200000BFF9E710B529
:1004D0000446A28891B200222068FFF7C5FEA289D7
:1004E00091B20022A068FFF7BFFEA28A91B200225B
:1004F0002069FFF7B9FEA28B91B20022A069FFF735
:10050000B3FE10BD70B504460D462448405D00F0B2
:10051000010030B1A28891B201222068FFF7A4FE49
:1005200005E0A28891B200222068FFF79DFE1B48DB
:10053000405D00F0020030B1A28991B20122A068B2
:10054000FFF792FE05E0A28991B20022A068FFF7B2
:100550008BFE1248405D00F0040030B1A28A91B2D7
:1005600001222069FFF780FE05E0A28A91B20022F5
:100570002069FFF779FE0948405D00F0080030B1BE
:10058000A28B91B20122A069FFF76EFE05E0A28B5B
:1005900091B20022A069FFF767FE70BD3400002011
:1005A000024908800121024A117070473200002080
:1005B0003000002010B5044603E04FF47A7000F0DC
:1005C00005F8201EA4F10104F7D110BD0146174A19
:1005D000127802B970474FF0E022126942F004022B
:1005E0004FF0E0231A61124A12884A435A610022EE
:1005F0009A611A46126942F001021A6100BF4FF077
:10060000E022106900F001021AB100F48032002AE1
:10061000F5D04FF0E022126922F001024FF0E02302
:100620001A6100229A6100BFD4E700003000002068
:10063000320000204FF44070FFF720FE4820FFF703
:10064000AFFF054800F00AF8034801221103436A8E
:10065000984700BFFEE700000000002038B50446C0
:1006600014B94FF0FF3038BD9E492068884204D14C
:1006700001210420FFF70EFE34E09B4920688842E8
:1006800004D101210820FFF705FE2BE097492068DF
:10069000884204D101211020FFF7FCFD22E094499B
:1006A0002068884204D101212020FFF7F3FD19E0E2
:1006B00090492068884204D101214020FFF7EAFDDB
:1006C00010E08D492068884204D101218020FFF785
:1006D000E1FD07E089492068884203D101218015A6
:1006E000FFF7D8FD7F49A068884204D1012104208A
:1006F000FFF7D0FD34E07C49A068884204D1012195
:100700000820FFF7C7FD2BE07849A068884204D194
:1007100001211020FFF7BEFD22E07549A068884244
:1007200004D101212020FFF7B5FD19E07149A0682F
:10073000884204D101214020FFF7ACFD10E06E4952
:10074000A068884204D101218020FFF7A3FD07E0C3
:100750006A49A068884203D101218015FFF79AFDFC
:1007600060492069884204D101210420FFF792FDED
:1007700034E05D492069884204D101210820FFF757
:1007800089FD2BE059492069884204D101211020BC
:10079000FFF780FD22E056492069884204D10121FB
:1007A0002020FFF777FD19E052492069884204D1E3
:1007B00001214020FFF76EFD10E04F49206988427B
:1007C00004D101218020FFF765FD07E04B49206936
:1007D000884203D101218015FFF75CFD4149A069E2
:1007E000884204D101210420FFF754FD34E03E4942
:1007F000A069884204D101210820FFF74BFD2BE0BE
:100800003A49A069884204D101211020FFF742FD36
:1008100022E03749A069884204D101212020FFF756
:1008200039FD19E03349A069884204D101214020F3
:10083000FFF730FD10E03049A069884204D1012162
:100840008020FFF727FD07E02C49A069884203D1EB
:1008500001218015FFF71EFD10208DF803000320F5
:100860008DF80200A08880B2ADF8000069462068CB
:10087000FFF76FFC10208DF8030003208DF80200B5
:10088000A08980B2ADF800006946A068FFF761FC5E
:1008900010208DF8030003208DF80200A08A80B29A
:1008A000ADF8000069462069FFF753FC10208DF871
:1008B000030003208DF80200A08B80B2ADF8000089
:1008C0006946A069FFF745FC0D4860620D48A062CB
:1008D0000D48E062012084F820002046FFF7F7FD74
:1008E0000020C0E600080140000C0140001001405B
:1008F0000014014000180140001C0140002001408C
:1009000029040008CF040008B50400082C090008D9
:100910000000002040000000080400086C090008E6
:10092000400000200004000018040008000C0140F2
:1009300001000000000C014002000000000C01401A
:1009400000040000000C014000080000000000004E
:100950000000000000000000000000000000000097
:0C09600002030109080C0406000000005E
:04000005080000ED02
:00000001FF
