:020000040800F2
:100000001815002005010008AD090008A509000821
:10001000A9090008E1060008B10E00080000000070
:100020000000000000000000000000006D0B000850
:100030008D08000800000000350A0008590C00086F
:100040001F0100081F0100081F0100081F01000810
:100050001F0100081F0100081F0100081F01000800
:100060001F0100081F0100081F0100081F010008F0
:100070001F0100081F0100081F0100081F010008E0
:100080001F0100081F0100081F0100081F010008D0
:100090001F0100081F0100081F0100081F010008C0
:1000A0001F0100081F0100081F0100081F010008B0
:1000B0001F0100081F0100081F0100081F010008A0
:1000C0001F0100081F0100081F0100081F01000890
:1000D0001F010008BD0C0008CD0C0008DD0C000855
:1000E0001F0100081F0100081F010008DFF810D0E1
:1000F00000F056FA00480047391B0008AFF30080B3
:10010000181500200648804706480047FEE7FEE72E
:10011000FEE7FEE7FEE7FEE7FEE7FEE7FEE7FEE7B7
:100120005D0C0008ED00000840EA01039B0703D0C6
:1001300009E008C9121F08C0042AFAD203E011F826
:10014000013B00F8013B521EF9D27047D2B201E0E8
:1001500000F8012B491EFBD270470022F6E710B5CC
:1001600013460A4604461946FFF7F0FF204610BD25
:1001700030B505462A460B4612F8010B13F8014B21
:1001800008B1A042F8D01CB1002802D06D1CF1E7E4
:10019000284630BD421C10F8011B0029FBD1801AF3
:1001A000704730B50B46014600202022012409E0AB
:1001B00021FA02F59D4205D303FA02F5491B04FA20
:1001C00002F52844151EA2F10102F1DC30BD2DE933
:1001D000F05F0546002092469B46884606468146CB
:1001E00040241BE0284641464746224600F0F9F9E4
:1001F00053465A46C01A914110D31146184622461A
:1002000000F0E0F92D1A67EB01084F462246012065
:10021000002100F0D7F917EB00094E41201EA4F190
:100220000104DFDC484631462A464346BDE8F09FDC
:100230002DE9FE4F804681EA0300C00F0C46009076
:1002400021F0004123F00045B8EB0200A94105D29E
:100250004046214690461C460B46024623F000408D
:10026000104347D0270DC7F30A00C3F30A51029089
:10027000401A019040286BDAC3F3130040F4801B4E
:100280000098924620B10023D2EB030A63EB0B0BDC
:1002900001985946C0F14002504600F093F90646D5
:1002A0000D4650465946019A00F0ABF910EB080094
:1002B0006141002487EA115284EAE7731A4340D06F
:1002C000009A62B3019A012A4FEA075215DC001B1B
:1002D00061EB02014FF0004202EA0752CDE9004211
:1002E000001C41F5801132462B4600F0ABF903B0FB
:1002F000BDE8F08F40462146F9E7001B61EB0201A3
:10030000001C41F5801300185B412018A2F500176E
:1003100047EB030140EAD570B6196D4111E06D0855
:100320004FEA360645EAC0754FEA0752001B61EBFB
:100330000201001C41F5801149084FEA3000001904
:10034000514132462B4603B0BDE8F04F00F06BB987
:100350000098012240000023D0EB020263EBE0731F
:10036000009821464FEAE074B8EB000061EB04010D
:10037000E9E783F000435BE781F0004158E72DE9AE
:10038000FE4F81EA030404F0004421F00041009490
:100390004FF0000B23F0004350EA01045ED052EA14
:1003A00003045BD0C3F30A54C1F30A552C44A4F2EE
:1003B000F3340194A0FB0254C1F3130141F4801102
:1003C000C3F3130343F4801301FB024400FB034E09
:1003D000840A970A44EA815447EA8357A4FB0768D2
:1003E00002958D0A05FB07854FEA932C04FB0C54FC
:1003F0002705029D4FEA065847EA1637B5EB080570
:100400006EEB070C870E920E47EA811742EA8312C1
:10041000A7FB0201B6EB0B0164EB00042B0D43EAD2
:100420000C335E1844EB1C50DA465146E7FB0201E0
:10043000C5F313044FEA0B3343EA14534FEA043273
:10044000019C43EA0603A4F10C040294009CCDE94C
:1004500000B400F0F7F803B0BDE8F08F00200146CB
:10046000F9E72DE9F04D81EA030404F0004B21F097
:10047000004514464FF0000A23F0004150EA0502FF
:1004800020D054EA01021DD0C5F30A570246C5F335
:100490001303C1F31300C1F30A5640F4801543F46B
:1004A0008013A7EB0608101BD64608F2FD3873EB45
:1004B000050002D308F1010801E092185B41B8F190
:1004C000000F03DA00200146BDE8F08D00204FF454
:1004D0008011064684460EE0171B73EB050705D313
:1004E000121B63EB050306434CEA010C49084FEA73
:1004F000300092185B4150EA0107EDD152EA030047
:1005000012D082EA040083EA0501084305D0101BDB
:10051000AB4106D20122002306E000224FF0004347
:1005200002E06FF0010253101AEB06004CEB085189
:1005300010EB0A0041EB0B01BDE8F04D00F073B881
:10054000C1F30A52C1F3130140F2FF3341F48011A9
:100550009A4202DA00200146704740F233439A4241
:10056000A2F2334202DC524200F03BB800F02AB85B
:1005700030B5041E71F1000404DB4FF0004440422A
:1005800064EB0101141E73F1000405DB1C464FF0FF
:100590000043524263EB0403994208BF904230BDCE
:1005A000064C074D06E0E06840F0010394E80700C0
:1005B00098471034AC42F6D3FFF79CFDE4230008C3
:1005C00004240008202A04DB203A00FA02F100206B
:1005D00070479140C2F1200320FA03F31943904081
:1005E0007047202A04DB203A21FA02F000217047EC
:1005F00021FA02F3D040C2F120029140084319468B
:100600007047202A06DBCB17203A41FA02F043EA72
:10061000E07306E041FA02F3D040C2F120029140BB
:1006200008431946704710B5141E73F1000408DA28
:10063000401C41F1000192185B411A4301D120F0A6
:10064000010010BD2DE9F04D92469B4611B1B1FA63
:1006500081F202E0B0FA80F220329046FFF7B2FF5A
:1006600004460F4640EA0A0041EA0B0153465A4647
:10067000084313D0114653EA010019D0C8F14002D3
:100680005046FFF7AEFF05460E46504659464246D5
:10069000FFF798FF084305D0012004E020463946C3
:1006A000BDE8F08D0020054346EAE0762C43374351
:1006B0000A986305E40AA0EB08000022FD0A44EA58
:1006C00047540A3002D500200146E9E70105101918
:1006D0006941DDE9084500196941BDE8F04DA2E72F
:1006E00000BFFEE721B1026842F00102026004E0AF
:1006F00002684FF6FE731A400260704701684FF6B9
:10070000FE72114001600021016041608160C160A2
:100710004B49884208D14A490839496841F00F01DC
:10072000474A083A51608AE045491431884208D165
:1007300043490839496841F0F001414A083A51609B
:100740007DE03F492831884208D13D490839496850
:1007500041F470613A4A083A516070E038493C31DE
:10076000884208D136490839496841F47041344A11
:10077000083A516063E032495031884208D130492B
:100780000839496841F470212D4A083A516056E011
:100790002B496431884208D129490839496841F414
:1007A0007001274A083A516049E02549783188426A
:1007B00008D123490839496841F07061204A083A54
:1007C00051603CE01F49884206D1011F096841F091
:1007D0000F01021F116032E01A491431884208D11A
:1007E0001849091F096841F0F001164A121F1160EB
:1007F00025E014492831884208D11249091F0968A7
:1008000041F470610F4A121F116018E00D493C312C
:10081000884208D10B49091F096841F47041094A0F
:10082000121F11600BE007495031884207D105497A
:10083000091F096841F47021024A121F11607047B4
:1008400008000240080402400146486880B2704730
:1008500010B50022026847F6F0739A430C6A8B6861
:1008600023430C6923434C6923438C692343CC699C
:1008700023434C6A23438C6A23431A430260CB68A8
:1008800043600B6883604B68C36010BD70472DE9FF
:10089000F041024600250026002000230024002706
:1008A00091F803C00CF00F0591F803C00CF0100C88
:1008B000BCF1000F03D091F802C04CEA050591F895
:1008C00000C0BCF1000F31D0146800202BE04FF0C5
:1008D000010C0CFA00F3B1F800C00CEA03069E42CA
:1008E00020D183004FF00F0C0CFA03F7BC4305FA3C
:1008F00003FC4CEA040491F803C0BCF1280F06D1B4
:100900004FF0010C0CFA00FCC2F814C00AE091F898
:1009100003C0BCF1480F05D14FF0010C0CFA00FCEC
:10092000C2F810C0401C0828D1D31460B1F800C030
:10093000BCF1FF0F34DD546800202EE000F1080CFC
:100940004FF0010808FA0CF3B1F800C00CEA0306F6
:100950009E4221D183004FF00F0C0CFA03F7BC43E9
:1009600005FA03FC4CEA040491F803C0BCF1280F1B
:1009700005D100F1080C08FA0CF8C2F8148091F8BF
:1009800003C0BCF1480F07D100F1080C4FF001087B
:1009900008FA0CF8C2F81080401C0828CED3546026
:1009A000BDE8F08100BFFEE700BFFEE77047000032
:1009B00070B5002100230F22C47804B3154C2468BD
:1009C00004F4E064C4F5E064210AC1F10403CA4000
:1009D000447804FA03F184781440214309010E4C51
:1009E0000678A155047804F01F050124AC40057871
:1009F0006D11AD0005F1E025C5F8004109E004786E
:100A000004F01F050124AC40044D0678761145F82A
:100A1000264070BD0CED00E000E400E080E100E065
:100A200002490143024A1160704700000000FA05C4
:100A30000CED00E07047000029B1064A52690243FC
:100A4000044B5A6104E0034A52698243014B5A61E4
:100A5000704700000010024029B1064AD2690243E3
:100A6000044BDA6104E0034AD2698243014BDA6144
:100A7000704700000010024029B1064A9269024303
:100A8000044B9A6104E0034A92698243014B9A61E4
:100A9000704700000010024030B500210022002401
:100AA00000232D4D6D6805F00C0121B1042905D0FE
:100AB000082923D105E0294D056022E0274D056076
:100AC0001FE0254D6D6805F47012234D6D6805F427
:100AD0008034022505EB92421CB9214D5543056037
:100AE0000BE01D4D6D6805F400351DB11C4D5543DF
:100AF000056002E0194D5543056002E0174D0560A1
:100B000000BF00BF144D6D6805F0F0010909154DD7
:100B10006B5C0568DD4045600F4D6D6805F4E06174
:100B2000090A104D6B5C4568DD4085600A4D6D68B3
:100B300005F46051C90A0B4D6B5C4568DD40C5602A
:100B4000054D6D6805F44041890B074D6B5CC56828
:100B5000B5FBF3F5056130BD0010024000127A00CC
:100B600000093D004000002050000020704710B5F3
:100B700000F002F810BD00000CB5002001900090BC
:100B80003348006840F480303149086000BF304885
:100B9000006800F4003000900198401C019000981B
:100BA00018B90198B0F5A06FF1D12948006800F498
:100BB000003010B10120009001E00020009000986A
:100BC000012843D12348006840F010002149086003
:100BD0000846006820F0030008600846006840F0FE
:100BE000020008601A484068194948600846406891
:100BF00048600846406840F48060486008464068A5
:100C000020F47C1048600846406840F4E8104860D2
:100C10000846006840F08070086000BF0C4800681B
:100C200000F000700028F9D00948406820F0030067
:100C3000074948600846406840F00200486000BF2D
:100C40000348406800F00C000828F9D10CBD0000F2
:100C500000100240002002407047000010B5134809
:100C6000006840F0010011490860084640681049DA
:100C700008400E494860084600680E4908400B4984
:100C800008600846006820F4802008600846406834
:100C900020F4FE0048604FF41F008860FFF767FFF4
:100CA0004FF000600449086010BD000000100240D1
:100CB0000000FFF8FFFFF6FE08ED00E010B5024867
:100CC00001F018FA10BD00000038014010B50248CC
:100CD00001F010FA10BD00000044004010B50248B9
:100CE00001F008FA10BD00000048004021B18289DF
:100CF00042F40052828104E082894DF6FF731A406B
:100D0000828170471AB1838A0B43838202E0838A0F
:100D10008B438382704702460020B1F5007F00D1EB
:100D200000BF13880B400BB1012000E0002070478A
:100D300070B50246002400230025002040F66A1604
:100D4000B14200D100BFC1F3421501F01F030126DB
:100D500006FA03F3012D02D19689334006E0022DF5
:100D600002D1168A334001E0968A33400C120126E4
:100D700006FA04F41688344013B10CB1012000E0E7
:100D8000002070BDF0B50346002400260025002099
:100D900040F66A17B94200D100BF1846C1F34214A9
:100DA00001F01F06012707FA06F5012C01D10C30CE
:100DB00004E0022C01D1103000E014301AB10768B1
:100DC0002F43076002E00768AF430760F0BD0000F3
:100DD0002DE9F04786B005460E460024A24600BF26
:100DE000A1460027B08900B100BF2F462C8A4CF6DF
:100DF000FF700440F08804432C82AC894EF6F31057
:100E00000440B08831890843718908430443AC81A8
:100E1000AC8A4FF6FF400440B0890443AC8201A87D
:100E2000FFF73AFE1F48874202D1DDF810A001E02B
:100E3000DDF80CA0A88900F4004040B10AEBCA001C
:100E400000EB0A1031684900B0FBF1F807E00AEB4B
:100E5000CA0000EB0A1031688900B0FBF1F8642089
:100E6000B8FBF0F004012009642101FB1089A88976
:100E700000F4004040B1322000EBC900B0FBF1F0BB
:100E800000F00700044308E0322000EB0910642161
:100E9000B0FBF1F000F00F0004432C8106B0BDE878
:100EA000F087000000380140C1F3080282807047DB
:100EB00000BFFEE77CB50C001D461646014601D07A
:100EC000601E00E00020CDE90010064B6A4629466E
:100ED000304600F0DBF8002C02D0009A002111709F
:100EE0007CBD00009317000802E008C8121F08C16B
:100EF000002AFAD170477047002001E001C1121F9B
:100F0000002AFBD1704700002DE9FF5F82B000216D
:100F1000DDE90430020DDDF840B0034318D044F69B
:100F20001050A2F2FF3242431514119801281FD02D
:100F3000A5EB0B00401C5FEA000A4FF000064E4F85
:100F4000DFF83891B046504615D5CAF1000413E0D9
:100F5000119801244AA3012801D16FEA0B010298DC
:100F6000119AC0E90031C0E9024206B0BDE8F09F25
:100F7000CBF10000DFE704460021404A491842EB6C
:100F80000450CDE9001012E0E00707D032463B469E
:100F900040464946FFF7F3F98046894632463B46CC
:100FA00010461946FFF7EBF906460F466410002C71
:100FB000EAD1DDE90401DDE90023BAF1000F06DA28
:100FC000FFF7DDF942464B46FFF7D9F905E0FFF799
:100FD00048FA42464B46FFF744FA04460E460022C2
:100FE000284BFFF7C5FA03D84FF0FF30014607E062
:100FF0000022254B20463146FFF71AF9FFF7A0FAE9
:10100000102409E0002C0ADB0A220023FFF7DFF896
:10101000039B30321A55641E50EA0102F2D1641C5F
:10102000039AC4F111031444119A012A03D0012236
:1010300008430DD10AE0084304D000204FF0110B03
:10104000119072E7A3EB0B056D1E0DE05B4504DD0F
:101050004FF0000205F1010504E003DA4FF0000251
:10106000A5F10105002AECD002981199C0E90231DE
:10107000C0E9004579E70000000014400000F03F9F
:10108000300000000000F0430000E03F2DE9FF4F7A
:1010900095B09A46884606460025EEE1252877D188
:1010A00000242746F94A0121039400E0044316F87E
:1010B000013F203B01FA03F01042F7D130782A2893
:1010C00011D06FF02F033078A0F13002092A16D822
:1010D000039A44F0020402EB820203EB4202104442
:1010E000761C0390EFE758F8042B0392002A03DAEA
:1010F000504244F40054039044F00204761C3078CB
:101100002E2816D116F8010F44F004042A280DD019
:101110006FF02F023078A0F13003092B09D807EBCC
:10112000870302EB4303C718761CF3E758F8047BE8
:10113000761C30786C280FD006DC4C2817D0682835
:101140000DD06A2814D104E0742810D07A280FD169
:101150000DE044F400140AE044F4801401E044F487
:1011600040147278824202D104F58014761C761CF9
:10117000307866280BD013DC582877D009DC00289B
:1011800075D04528F6D04628F4D047281AD193E1E7
:1011900018E0632835D0642879D0652812D18BE116
:1011A000702873D008DC6728F1D069286FD06E28CA
:1011B0000DD06F2806D1ACE073282CD0752874D0E0
:1011C000782853D05246179990476D1C54E1C4F3C8
:1011D0000250022809D003280DD0D8F800100428A6
:1011E0000DD00D6008F1040846E1D8F80010EA17A8
:1011F000C1E90052F6E7D8F800100D80F2E70D7053
:10120000F0E718F8041B8DF8001000208DF801009D
:10121000EB46012003E058F804BB4FF0FF306107B4
:101220004FF0000102D40DE009F101018946B942F5
:101230000FDA8145F8DB1BF809100029F4D108E02A
:1012400009F1010189468142FADB1BF809100029E6
:10125000F6D103985346A0EB090721463846179A62
:1012600000F080FA284400EB090507E044E008E1BB
:101270000DE01BF8010B524617999047B9F101098F
:10128000F7D2534621463846179AF2E039E00A2150
:10129000C4F302524FF0000B0091022A06D058F816
:1012A000040BC117032A09D00AE023E008F1070064
:1012B00020F00702F2E80201904605E000B2C117F3
:1012C000042A01D140B2C117002906DA0A460021DA
:1012D000404261EB02012D2202E0220504D52B22BF
:1012E0008DF80420012203E0E20701D02022F7E775
:1012F000914657E00A2100E010214FF0000B0091C9
:101300000BE010214FF0000B44F00404082700917B
:1013100003E008204FF0000B0090C4F30252022AB1
:1013200005D058F8040B0021032A08D008E008F182
:10133000070020F00702F2E80201904603E080B2C5
:10134000042A00D1C0B24FF0000922072AD5327812
:10135000702A07D0DDF800C08CF0100C5CEA0B0C92
:1013600005D00EE040228DF80420012208E050EA6A
:10137000010306D030238DF804308DF805200222B9
:101380009146009B83F0080353EA0B030AD150EA0D
:10139000010201D1620705D530228DF804204FF0FB
:1013A00001097F1E3278582A04D039A20C920CAA67
:1013B00002920BE03BA2F9E75B46009AFEF707FFBB
:1013C0000C9B9B5C029A521E0292137050EA01021F
:1013D000F2D1029804A9081A00F1200B600702D587
:1013E00024F4803400E001275F4502DDA7EB0B0009
:1013F00000E0002000EB0B01009003984944401AE4
:101400000390E00306D453462146179A039800F050
:10141000A9F90544002706E001A85246C05D1799C6
:1014200090476D1C7F1C4F45F6DBE0030CD55346FF
:101430002146179A039800F095F9054404E03020FE
:101440005246179990476D1C0099481E009000293C
:10145000F5DC08E00298029952460078491C029196
:10146000179990476D1CBBF10001ABF1010BF1DC4A
:101470005BE100F065F90544761C307800287FF4C4
:101480000DAE19B02846BDE8F08F00000928010014
:1014900030313233343536373839616263646566EA
:1014A00000000000303132333435363738394142AC
:1014B0004344454600000000600700D4062708F1B9
:1014C000070020F00700F0E80223804603F0004CFC
:1014D0005FEA0C0001D097A009E0200501D596A095
:1014E00005E0E00701D095A001E0AFF24C001390B9
:1014F000307823F0004365280CD006DC452809D05D
:1015000046281DD047287FD13BE0662818D06728A1
:101510007AD136E00021112F01DB112000E0781C88
:10152000CDE9000104A90CA8FFF7EEFCDDE90D01EF
:101530000C9A4FF0000B07F10109109200914EE058
:101540004FF000400097CDE9011004A90CA8FFF767
:10155000DBFCDDE90D020C9B0F994FF0000B91466F
:101560001093009211B9791C00EB0109B7EB090047
:1015700003D4C0F1FF3B07F10109A9EB070001907B
:1015800042E0012F00DA01270021112F01DD112097
:1015900000E03846CDE9000104A90CA8FFF7B4FC2F
:1015A000DDE90D010C9A00914FF0000BB946109245
:1015B00021070FD4009A4A4503DA914601E0A9F1C8
:1015C0000109B9F1010F05DD109AA9F10101515C82
:1015D0003029F4D0B84202DA10F1040F03DA012105
:1015E000CDE9011010E0002803DC8344A9EB0001E1
:1015F00002E0411C494500DD8946A0EB0B00401C80
:1016000001904FF000400290200705D40198484512
:1016100002DB4FF0FF30019000208DF84B00029864
:101620000DF14B07B0F1004F25D002200C902B207C
:101630000D90029800280CDA404202902D200D9067
:1016400007E00A210298FEF7ACFD3031029007F85E
:10165000011D0C99481E0C900029F2DC029800280C
:10166000EFD1791E0D980870307800F0200040F01E
:10167000450007F8020D11A8C01BC01D0290139869
:10168000007800B1012000EB0901019801EBE07145
:10169000029801440398401A401E0390E00306D4C8
:1016A00053462146179A039800F05CF805441398B6
:1016B000007818B15246179990476D1CE00323D566
:1016C00053462146179A039800F04CF805441BE056
:1016D000BBF1000F07DB0098584504DD10981799FF
:1016E00010F80B0001E017993020524690470198FE
:1016F0000BF1010B401E05F10105019004D12E20D4
:101700005246179990476D1CB9F10001A9F10109E2
:10171000DEDC05E017F8010B5246179990476D1C67
:101720000299481E02900029F4DC53462146179A7C
:1017300003989EE62D0000002B0000002000000012
:101740002DE9F041044600251E461746880404D4BE
:1017500005E039462020B0476D1C641EF9D52846A7
:10176000BDE8F0812DE9F041044600251E46904673
:10177000C80301D5302700E02027880404D505E000
:1017800041463846B0476D1C641EF9D52846BDE871
:10179000F0814A68002A06D00A68531C0B6010705A
:1017A0004868401E4860704710B5044604B910BD33
:1017B00003E04FF47A7000F007F8201EA4F1010452
:1017C000F7D100BFF3E7000000B970474FF0E02207
:1017D000126942F004024FF0E0231A61134A1268C2
:1017E000134BB2FBF3F24243521E4FF0E0235A6117
:1017F00000229A611A46126942F001021A6100BF82
:101800004FF0E022116901F001021AB101F48032B7
:10181000002AF5D04FF0E022126922F001024FF0C9
:10182000E0231A6100229A6100BFCEE72C0000205D
:1018300040420F00F8B504460D460020009004B168
:1018400015B96FF00400F8BD202229462046FEF7A6
:101850006BFC17482062E06830B1208A002803DD65
:10186000218AE068FEF779FC6068016811A088476A
:101870004FF4FA70A1688847206A6B4612A213A140
:1018800006682046B04760B1009808B1009800E0B3
:101890000FA00146606802680FA090476FF00A0031
:1018A000D1E76068016812A088470020CBE70000FC
:1018B000A82300080D0A4553503832363620696E89
:1018C00069742E2E2E0D0A004F4B0000415400006B
:1018D000286E756C6C2900004154206661696C6546
:1018E000642C20726573703A2025730D0A00000085
:1018F00045535038323636207375636365737366AB
:10190000756C6C7920696E697469616C697A65645B
:10191000210D0A00FEB505460E4605B116B96FF059
:101920000400FEBD306800F053FC044614B96FF0AB
:101930000500F6E7201D6065A0654830E065F069A8
:10194000616D08600020208025662C6028223146C9
:10195000281DFEF7E9FB084A07CA8DE80700306832
:1019600000F048FA0746387B5DF82000E862304610
:1019700000F008FB0020D4E79C230008014611B9C1
:101980006FF0040070470020086200BFFAE7000013
:101990000FB400B5C1B043A800904FF4807101A806
:1019A000009B429AFFF786FA002000900448C06A24
:1019B00001A9026803A0904741B05DF814FB000044
:1019C00054000020257300002DE9FF4F85B0044628
:1019D0009846E668D4F81490B4F810A0208B0490D0
:1019E0004FF0000B00270020039002901EB15146DB
:1019F0003046FEF7B2FB0698FEF7CCFB0546A81C66
:101A00000499884204D34FF0FF3009B0BDE8F08F4D
:101A10002A4648460699FEF787FB0D2009F805007F
:101A20000A21681C09F800102068A91C02684846B1
:101A300090470A20A16888474FF4FA6001902BE094
:101A4000206802A9426803A8904700900098F8B95E
:101A50000298E8B1DDF808B007EB0B00504503D35E
:101A6000AAEB0700A0F1010BF0195A460399FEF703
:101A70005BFB5F440020F05530460799FEF778FB8A
:101A800030B1B8F1000F01D0C8F800600020BCE709
:101A90000120A168884700BF0198411E01910028DC
:101AA000CED1606820B16068026803A006999047B3
:101AB0004FF0FF30A9E70000657370383236363AD0
:101AC00020636D6420222573222074696D656F7513
:101AD000740D0A00014611B96FF004007047002030
:101AE000FCE7034613B96FF0040070470020FCE7E1
:101AF000034613B96FF0040070470020FCE702466C
:101B00000020704770B504460D460348C06A294658
:101B1000C2682046904770BD8405002070B5044619
:101B20000D460448C06A2946426820469047002076
:101B300070BD0000840500204FF44070FEF770FF78
:101B400008490948FFF7E6FE08490948FFF7E2FEA1
:101B500008490948FFF76EFE03E04FF47A70FFF77B
:101B600023FEFAE7E02200085400002008230008C2
:101B7000840500200C000020B40A00200FB47CB5BE
:101B80000D4800F037F90446207B00EB800101EBA3
:101B9000C0000A4901EBC000056E07A8019001983A
:101BA0000090AA8CE9692046069B00F003FA002009
:101BB00001907CBC5DF814FB00380140D80D00207A
:101BC0002DE9F04104460D46094800F013F9064698
:101BD000307B00EB800101EBC000064901EBC00047
:101BE000076E2A462146384600F021FBBDE8F08109
:101BF00000380140D80D002070B5084800F0FAF810
:101C00000446207B00EB800101EBC000044901EB9E
:101C1000C000056E284600F033FB70BD003801405F
:101C2000D80D002070B504460D46054800F0E2F8D6
:101C300006462A462146304600F0E5F970BD000010
:101C4000003801400FB47CB50D4800F0D3F80446CD
:101C5000207B00EB800101EBC0000A4901EBC000D2
:101C6000056E07A8019001980090AA8CE9692046AA
:101C7000069B00F09FF9002001907CBC5DF814FBEE
:101C800000440040D80D00202DE9F04104460D46E7
:101C9000094800F0AFF80646307B00EB800101EB0D
:101CA000C000064901EBC000076E2A4621463846AF
:101CB00000F0BDFABDE8F08100440040D80D0020DE
:101CC00070B5084800F096F80446207B00EB8001D0
:101CD00001EBC000044901EBC000056E284600F08E
:101CE000CFFA70BD00440040D80D002070B5044606
:101CF0000D46054800F07EF806462A462146304645
:101D000000F081F970BD0000004400400FB47CB5C4
:101D10000D4800F06FF80446207B00EB800101EBDA
:101D2000C0000A4901EBC000056E07A801900198A8
:101D30000090AA8CE9692046069B00F03BF9002040
:101D400001907CBC5DF814FB00480040D80D0020D9
:101D50002DE9F04104460D46094800F04BF80646CF
:101D6000307B00EB800101EBC000064901EBC000B5
:101D7000076E2A462146384600F059FABDE8F08140
:101D800000480040D80D002070B5084800F032F837
:101D90000446207B00EB800101EBC000044901EB0D
:101DA000C000056E284600F06BFA70BD0048004088
:101DB000D80D002070B504460D46054800F01AF80D
:101DC00006462A462146304600F01DF970BD000047
:101DD0000048004070B5044614B96FF0040070BDAF
:101DE0002568284600F01EFA00202060E06200BF4F
:101DF000F5E70000024600210BE0084800EB011067
:101E00000068904203D1054800EB01107047481C60
:101E1000C1B20329F1D30020F8E700003023000805
:101E200010B504460A48844205D00A48844202D0CC
:101E30000948844204D101210846FEF7FDFD06E071
:101E40000648844203D101210220FEF7F5FD10BDB2
:101E5000003801400044004000480040004C004071
:101E600030B58BB004462068FFF7C4FF0546A8686C
:101E7000FEF744FC2068001D0090002006900490AE
:101E8000E0690190002007908020059040F2012039
:101E900003900020029008900A904FF4005009909F
:101EA0006946A868FEF7D4FC0121A868FEF71AFC71
:101EB000012240212068FEF725FF0BB030BD000055
:101EC00010B504461F49601A8C4223D009DC1E4815
:101ED000204480B1B0F5806F12D0B0F5006F2DD1E5
:101EE00013E0B0F5806F1AD0B0F5006F1CD0B0F5DC
:101EF000406F23D11DE001210420FEF7BDFD1EE04F
:101F000001210820FEF7B8FD19E001211020FEF79D
:101F1000B3FD14E001212020FEF7AEFD0FE001210A
:101F20004020FEF7A9FD0AE001218020FEF7A4FD74
:101F300005E001210802FEF79FFD00E000BF00BFA1
:101F400010BD00000014014000F8FEBF38B5044683
:101F500018208DF8030003208DF80200A08980B2BC
:101F6000ADF800006946A068FEF791FC48208DF8A6
:101F70000300A08A80B2ADF8000069462069FEF730
:101F800086FC38BD10B50446A068FFF799FF2069AC
:101F9000FFF796FF206800F04DF82068FFF740FF3C
:101FA0002046FFF7D3FF204600F06CF82046FFF7ED
:101FB00057FF10BD2DE9F04104460D4617469846DF
:101FC000424639462846069BFEF774FF00260CE081
:101FD00000BF80212068FEF79EFE0028F9D0A95D91
:101FE0002068FEF761FF701C86B22846FEF7D2F823
:101FF000B042EDD800BF40212068FEF78CFE0028DB
:10200000F9D0BDE8F0812DE9F04104460E461746AF
:1020100000250BE0715D2068FEF746FF00BF8021C0
:102020002068FEF778FE0028F9D06D1CBD42F1D380
:10203000BDE8F08110B504461148204468B1B0F500
:10204000806F0FD0B0F5006F11D0B0F5744F13D181
:1020500001218803FEF710FD0FE001214804FEF77F
:10206000FBFC0AE001218804FEF7F6FC05E00121F3
:10207000C804FEF7F1FC00E000BF00BF10BD000087
:1020800000BCFFBF30B585B004462068FFF7B2FE44
:102090000546606801900020ADF810000C20ADF8F6
:1020A0000E000020ADF80C00ADF80A00ADF80800F5
:1020B00001A92068FEF78CFE012240F2244120682D
:1020C000FEF760FE28798DF8000001208DF80300EE
:1020D00094F824008DF8010094F825008DF8020092
:1020E0006846FEF765FC01212068FEF7FFFD05B09C
:1020F00030BD00002DE9F84F82465046FFF77AFECA
:102100000546287B00EB800101EBC0002F4901EB65
:10211000C004266E00BF40F224412868FEF708FE86
:1021200008B1012000E0002000284DD000BF286841
:102130000088C0B2009028688088C0B2009000BFBC
:1021400000BFA868FEF780FB40F20121081A218831
:10215000084420802088401E316A0844616D486030
:10216000606D08306065E16D606D884201D1201DB1
:102170006065F08C2188401AB0F5007F05DB21886E
:10218000306A0844616D086004E0306A616D08607F
:1021900000202080606D40F20129D0F80080AF68F7
:1021A00000213846FEF79EFA00BF00BF386800F0F5
:1021B00001000028FAD1C7F80490C7F80C8001216B
:1021C0003846FEF78FFA00BFBDE8F88FD80D002023
:1021D00070B506463046FFF70DFE05460DB90020E6
:1021E00070BD2C7B04EB840000EBC4000C4901EBB8
:1021F000C00090F8640008B10020F1E7012004EB72
:10220000840101EBC401064A02EBC10181F86400BC
:1022100004EB840000EBC400114601EBC000DFE7D3
:10222000D80D002010B1002180F864107047F0B57F
:1022300004460B460CB103B112B96FF00400F0BDB7
:102240002168D1E91507B84205D100201860106057
:102250006FF00A00F3E7886D0568886D40688F6D40
:102260003F68C01B461C1D601660886D083088657D
:10227000D1E91607B84201D1081D88650020DEE7C4
:102280002DE9F041054615B90020BDE8F0812C6824
:10229000D4E9150188421FD0A06D0768A06D406881
:1022A000A16D0968401A461CB6F5007F01D94FF4AC
:1022B0000076324639460948FDF736FF00200749C7
:1022C0008855A06D0830A065D4E91601884201D177
:1022D000201DA0650148D8E70020D6E7100F002098
:1022E0000038014000C20100000801400002000067
:1022F0000008014000040000840000208401002048
:10230000000100040000000000440040802500009F
:10231000000801400400000000080140080000001F
:10232000B4050020B40600200001000400000000F5
:102330000038014025000000580002400000000065
:1023400000440040260000006C0002400100000034
:10235000004800402700000030000240020000005A
:102360007D1B0008251C0008F91B0008C11B000884
:10237000D51D0008451C0008ED1C0008C11C000804
:10238000891C0008D51D00080D1D0008B51D00089A
:10239000891D0008511D0008D51D00086023000894
:1023A0007423000888230008C9190008E31A0008EC
:1023B000FF1A0008F11A0008D51A00087D19000854
:1023C00041542B43574A41503D2273686F756A69E7
:1023D000222C2274687864313536333639313638F8
:1023E000220D0A0004240008000000205400000010
:1023F000E80E00085824000854000020C41400000F
:10240000F80E00081D1B0008051B000891190008A4
:102410000000002008000020A9170008D80B0020A9
:1024200000020000D80A002000010000C0230008BC
:1024300000A24A04000000000000000001020304A2
:10244000060708090000000001020304010203045A
:08245000060708090204060852
:04000005080000ED02
:00000001FF
