:020000040800F2
:1000000078140020C5010008410A0008390A0008D8
:100010003D0A000859070008C10F00080000000051
:10002000000000000000000000000000D7010008F0
:100030006109000800000000DB010008DD01000884
:10004000DF010008DF010008DF010008DF01000810
:10005000DF010008DF010008DF010008DF01000800
:10006000DF010008DF010008DF010008DF010008F0
:10007000DF010008DF010008DF010008DF010008E0
:10008000DF010008DF010008DF010008DF010008D0
:10009000DF010008DF010008DF010008DF010008C0
:1000A000DF010008DF010008DF010008DF010008B0
:1000B000DF010008DF010008DF010008DF010008A0
:1000C000DF010008DF010008DF010008DF01000890
:1000D000DF010008C10D0008D10D0008E10D000886
:1000E000DF010008DF010008DF010008DF01000870
:1000F000DF010008DF010008DF010008DF01000860
:10010000DF010008DF010008DF010008DF0100084F
:10011000A10D0008B10D0008DF010008DF01000893
:10012000DF010008DF010008DF010008DF0100082F
:10013000DF010008DF010008DF010008DF0100081F
:10014000DF010008DF010008DF010008DF0100080F
:10015000DF010008DF010008DF010008F10D0008E1
:10016000DF010008DF010008DF010008DF010008EF
:10017000DF010008DF010008DF010008DF010008DF
:10018000DF010008DF010008DF010008DF010008CF
:10019000DF010008DF010008DF010008DF010008BF
:1001A000DF010008DF010008DF010008DFF810D0E0
:1001B00000F032FA0048004729190008AFF3008028
:1001C000781400200648804706480047FEE7FEE70F
:1001D000FEE7FEE7FEE7FEE7FEE7FEE7FEE7FEE7F7
:1001E000390D0008AD01000840EA01039B0703D068
:1001F00009E008C9121F08C0042AFAD203E011F866
:10020000013B00F8013B521EF9D27047421C10F826
:10021000011B0029FBD1801A704730B50B460146FF
:1002200000202022012409E021FA02F59D4205D395
:1002300003FA02F5491B04FA02F52844151EA2F13F
:100240000102F1DC30BD2DE9F05F05460020924649
:100250009B4688460646814640241BE02846414688
:100260004746224600F0F9F953465A46C01A9141D2
:1002700010D311461846224600F0E0F92D1A67EB1C
:1002800001084F4622460120002100F0D7F917EB64
:1002900000094E41201EA4F10104DFDC484631462E
:1002A0002A464346BDE8F09F2DE9FE4F804681EA8D
:1002B0000300C00F0C46009021F0004123F00045E0
:1002C000B8EB0200A94105D24046214690461C46A3
:1002D0000B46024623F00040104347D0270DC7F3DA
:1002E0000A00C3F30A510290401A019040286BDAC9
:1002F000C3F3130040F4801B0098924620B1002302
:10030000D2EB030A63EB0B0B01985946C0F1400294
:10031000504600F093F906460D4650465946019A5C
:1003200000F0ABF910EB08006141002487EA11529C
:1003300084EAE7731A4340D0009A62B3019A012A13
:100340004FEA075215DC001B61EB02014FF000423F
:1003500002EA0752CDE90042001C41F58011324605
:100360002B4600F0ABF903B0BDE8F08F40462146C4
:10037000F9E7001B61EB0201001C41F58013001836
:100380005B412018A2F5001747EB030140EAD57046
:10039000B6196D4111E06D084FEA360645EAC075A1
:1003A0004FEA0752001B61EB0201001C41F580116E
:1003B00049084FEA30000019514132462B4603B03C
:1003C000BDE8F04F00F06BB9009801224000002317
:1003D000D0EB020263EBE073009821464FEAE07431
:1003E000B8EB000061EB0401E9E783F000435BE751
:1003F00081F0004158E72DE9FE4F81EA030404F043
:10040000004421F0004100944FF0000B23F0004322
:1004100050EA01045ED052EA03045BD0C3F30A54ED
:10042000C1F30A552C44A4F2F3340194A0FB025406
:10043000C1F3130141F48011C3F3130343F4801398
:1004400001FB024400FB034E840A970A44EA8154EC
:1004500047EA8357A4FB076802958D0A05FB0785C9
:100460004FEA932C04FB0C542705029D4FEA0658D3
:1004700047EA1637B5EB08056EEB070C870E920EB0
:1004800047EA811742EA8312A7FB0201B6EB0B0190
:1004900064EB00042B0D43EA0C335E1844EB1C5054
:1004A000DA465146E7FB0201C5F313044FEA0B336A
:1004B00043EA14534FEA0432019C43EA0603A4F1D1
:1004C0000C040294009CCDE900B400F0F7F803B0EE
:1004D000BDE8F08F00200146F9E72DE9F04D81EAF3
:1004E000030404F0004B21F0004514464FF0000ACD
:1004F00023F0004150EA050220D054EA01021DD049
:10050000C5F30A570246C5F31303C1F31300C1F341
:100510000A5640F4801543F48013A7EB0608101B1D
:10052000D64608F2FD3873EB050002D308F1010846
:1005300001E092185B41B8F1000F03DA0020014698
:10054000BDE8F08D00204FF48011064684460EE091
:10055000171B73EB050705D3121B63EB050306435B
:100560004CEA010C49084FEA300092185B4150EA0E
:100570000107EDD152EA030012D082EA040083EAB7
:100580000501084305D0101BAB4106D20122002310
:1005900006E000224FF0004302E06FF0010253102A
:1005A0001AEB06004CEB085110EB0A0041EB0B0173
:1005B000BDE8F04D00F073B8C1F30A52C1F3130166
:1005C00040F2FF3341F480119A4202DA00200146E2
:1005D000704740F233439A42A2F2334202DC524265
:1005E00000F03BB800F02AB830B5041E71F10004E9
:1005F00004DB4FF00044404264EB0101141E73F130
:10060000000405DB1C464FF00043524263EB040339
:10061000994208BF904230BD064C074D06E0E068A5
:1006200040F0010394E8070098471034AC42F6D339
:10063000FFF7C0FDF826000818270008202A04DB71
:10064000203A00FA02F1002070479140C2F12003E5
:1006500020FA03F3194390407047202A04DB203A24
:1006600021FA02F00021704721FA02F3D040C2F1D2
:1006700020029140084319467047202A06DBCB1719
:10068000203A41FA02F043EAE07306E041FA02F34D
:10069000D040C2F12002914008431946704710B57E
:1006A000141E73F1000408DA401C41F10001921895
:1006B0005B411A4301D120F0010010BD2DE9F04D3E
:1006C00092469B4611B1B1FA81F202E0B0FA80F293
:1006D00020329046FFF7B2FF04460F4640EA0A0078
:1006E00041EA0B0153465A46084313D0114653EAD8
:1006F000010019D0C8F140025046FFF7AEFF054691
:100700000E46504659464246FFF798FF084305D02B
:10071000012004E020463946BDE8F08D0020054365
:1007200046EAE0762C4337430A986305E40AA0EBD7
:1007300008000022FD0A44EA47540A3002D500208E
:100740000146E9E7010510196941DDE9084500198D
:100750006941BDE8F04DA2E700BFFEE70246094B44
:100760009A4201D2084801E00648103801F00053CF
:100770001BB1064B0B40C36002E0044B0B4083608F
:100780007047000010640240006002407D0F7D0F42
:1007900021B1026842F00102026003E0026822F027
:1007A0000102026070470000016821F00101016050
:1007B0000021016041608160C160016121214161CE
:1007C0004A49884204D13D21484A103A91608CE060
:1007D00046491831884205D14FF47461434A103AB2
:1007E000916082E041493031884205D14FF4741163
:1007F0003E4A103A916078E03C494831884205D140
:100800004FF07461394A103A91606EE037496031B7
:10081000884204D13649354A103AD16065E03349FF
:100820007831884204D13349304A103AD1605CE0D3
:100830002E499031884204D12F492C4A103AD16078
:1008400053E02A49A831884205D14FF03D51274A4B
:10085000103AD16049E02949884204D13D21274A14
:10086000083A116041E025491831884205D14FF41A
:100870007461224A083A116037E0204930318842D9
:1008800005D14FF474111D4A083A11602DE01B493F
:100890004831884205D14FF07461184A083A116016
:1008A00023E016496031884204D11149134A121FCE
:1008B00011601AE011497831884204D10D490F4A7C
:1008C000121F116011E00D499031884204D10A498C
:1008D0000A4A121F116008E00849A831884204D171
:1008E0004FF03D51054A121F1160704710600240E1
:1008F0003D000020400F002000003D201064024019
:100900000146486880B2704710B500220268134B58
:100910001A40CC680B6823434C6923438C692343FA
:10092000CC6923430C6A23434C6A23438C6A2343D8
:100930004C6B23438C6B23431A430260426922F0C1
:100940000702D1E90B3423431A4342610B69436028
:100950004B6883608B68C36010BD00003F801CF053
:100960007047F0B50A4600210023002400BF3DE097
:10097000012505FA01F3156805EA03049C4234D108
:1009800005684F000326BE40B543056015794E004B
:10099000B5400668354305601579012D02D01579FB
:1009A000022D16D185684F000326BE40B5438560F1
:1009B00055794E00B5408668354385604568012607
:1009C0008E40B5434560456896798E40B6B2354352
:1009D0004560C5684F000326BE40B543C560D57964
:1009E0004E00B540C6683543C560491C1029BFD3C9
:1009F000F0BDF0B5002300244D07ED0E02FA05F31B
:100A0000CE1000F1200555F826504E07F70E0F26A0
:100A1000BE40B543CF1000F1200646F82750CE1057
:100A200000F1200555F8265045EA0304CE1000F1E8
:100A3000200545F82640F0BD00BFFEE700BFFEE7F9
:100A40007047000070B5002100230F22C4781CB34A
:100A5000174C246804F4E064C4F5E064C4F307218F
:100A6000C1F10404E3B20A4144789C40E1B28478C5
:100A7000144021430C07210E0E4C05786155047873
:100A800004F01F050124AC4005786D11AD0005F19F
:100A9000E025C5F8004109E0047804F01F050124B1
:100AA000AC40054D0678761145F8264070BD000033
:100AB0000CED00E000E400E080E100E002490143C9
:100AC000024A1160704700000000FA050CED00E0DA
:100AD00029B1064A12680243044B1A6004E0034A33
:100AE00012688243014B1A607047000030380240A0
:100AF00029B1064A12680243044B1A6004E0034A13
:100B000012688243014B1A6070470000403802406F
:100B100029B1064A12680243044B1A6004E0034AF2
:100B200012688243014B1A6070470000443802404B
:100B3000F0B5002100220024022500260223324FB6
:100B40003F6807F00C0121B1042905D0082937D1ED
:100B500005E02E4F076036E02D4F076033E02A4F47
:100B60003F1F3F68C7F38056274F3F1F3F6807F07E
:100B70003F036EB1264FB7FBF3F7DFF88CC0ACF143
:100B8000040CDCF800C0CCF3881C07FB0CF40CE070
:100B90001E4FB7FBF3F7DFF870C0ACF1040CDCF8C4
:100BA00000C0CCF3881C07FB0CF4174F3F1F3F68B5
:100BB000C7F301477F1C7D00B4FBF5F7076002E037
:100BC000124F076000BF00BF0F4F3F6807F0F001F2
:100BD0000909104F7A5C0768D74047600A4F3F68A1
:100BE00007F4E051890A0B4F7A5C4768D740876069
:100BF000054F3F6807F46041490B064F7A5C476830
:100C0000D740C760F0BD0000083802400024F4005F
:100C100000127A00540000200CB5002001900090D2
:100C20004148006840F480303F49086000BF3E48BA
:100C3000006800F4003000900198401C019000987A
:100C400018B90198B0F5A04FF1D13748006800F409
:100C5000003010B10120009001E0002000900098C9
:100C6000012860D130484030006840F080502E4963
:100C7000403108602D48006840F440402B4908602E
:100C8000294808300068284908310860084600688B
:100C900040F4004008600846006840F4A050086036
:100CA0002348091F0860081F006840F08070091F72
:100CB000086000BF1C48006800F000700028F9D0F0
:100CC0001A48006840F480301849086000BF17488F
:100CD000406800F480300028F9D01448006840F4DF
:100CE00000301249086000BF1048406800F400302E
:100CF0000028F9D040F205700E4908600A48083013
:100D0000006820F0030008490831086008460068C0
:100D100040F00200086000BF03480830006800F09F
:100D20000C000828F8D10CBD0038024000700040CB
:100D3000085A4007003C024010B51548006840F4CE
:100D40007000134908601348006840F00100114921
:100D5000086000200F49083108600E4800680E49FD
:100D600008400C4908600D48091D0860081F00680C
:100D700020F48020091F0860002006490C3108601B
:100D8000FFF74AFF4FF0006001498039086010BD4D
:100D900088ED00E000380240FFFFF6FE103000242E
:100DA00010B5024801F0DEFA10BD0000004C004012
:100DB00010B5024801F0D6FA10BD00000050004006
:100DC00010B5024801F0CEFA10BD0000001001403D
:100DD00010B5024801F0C6FA10BD00000044004002
:100DE00010B5024801F0BEFA10BD000000480040F6
:100DF00010B5024801F0B6FA10BD00000014014021
:100E000021B1828942F40052828104E082894DF648
:100E1000FF731A40828170471AB1838A0B43838221
:100E200002E0838A8B438382704702460020B1F53B
:100E3000007F00D100BF13880B400BB1012000E000
:100E40000020704770B502460024002300250020D2
:100E500040F66A16B14200D100BFC1F3421501F05D
:100E60001F03012606FA03F3012D02D196893340B0
:100E700006E0022D02D1168A334001E0968A334003
:100E80000C12012606FA04F41688344013B10CB192
:100E9000012000E0002070BDF0B5034600240026CC
:100EA0000025002040F66A17B94200D100BF18465D
:100EB000C1F3421401F01F06012707FA06F5012CC1
:100EC00001D10C3004E0022C01D1103000E01430CC
:100ED0001AB107682F43076002E00768AF43076055
:100EE000F0BD00002DE9FF4705460E460024A1464F
:100EF00000BFA046B08900B100BF2C8A24F4405442
:100F0000F08804432C82AC8941F20C608443B088A1
:100F100031890843718908430443AC81AC8A24F4C5
:100F20004074B0890443AC826846FFF701FE204854
:100F3000854202D01F48854202D1DDF80C9001E0C5
:100F4000DDF80890A88900F4004040B109EBC90021
:100F500000EB091031684900B0FBF1F707E009EB3D
:100F6000C90000EB091031688900B0FBF1F764207B
:100F7000B7FBF0F004012009642101FB1078A88977
:100F800000F4004040B1322000EBC800B0FBF1F0AB
:100F900000F00700044308E0322000EB0810642151
:100FA000B0FBF1F000F00F0004432C81BDE8FF8797
:100FB0000010014000140140C1F308028280704714
:100FC00000BFFEE77CB50C001D461646014601D069
:100FD000601E00E00020CDE90010064B6A4629465D
:100FE000304600F0DBF8002C02D0009A002111708E
:100FF0007CBD0000A318000802E008C8121F08C149
:10100000002AFAD170477047002001E001C1121F89
:10101000002AFBD1704700002DE9FF5F82B000215C
:10102000DDE90430020DDDF840B0034318D044F68A
:101030001050A2F2FF3242431514119801281FD01C
:10104000A5EB0B00401C5FEA000A4FF000064E4F74
:10105000DFF83891B046504615D5CAF1000413E0C8
:10106000119801244AA3012801D16FEA0B010298CB
:10107000119AC0E90031C0E9024206B0BDE8F09F14
:10108000CBF10000DFE704460021404A491842EB5B
:101090000450CDE9001012E0E00707D032463B468D
:1010A00040464946FFF7A7F98046894632463B4607
:1010B00010461946FFF79FF906460F466410002CAC
:1010C000EAD1DDE90401DDE90023BAF1000F06DA17
:1010D000FFF791F942464B46FFF78DF905E0FFF720
:1010E000FCF942464B46FFF7F8F904460E4600224B
:1010F000284BFFF779FA03D84FF0FF30014607E09D
:101100000022254B20463146FFF7CEF8FFF754FA70
:10111000102409E0002C0ADB0A220023FFF793F8D1
:10112000039B30321A55641E50EA0102F2D1641C4E
:10113000039AC4F111031444119A012A03D0012225
:1011400008430DD10AE0084304D000204FF0110BF2
:10115000119072E7A3EB0B056D1E0DE05B4504DDFE
:101160004FF0000205F1010504E003DA4FF0000240
:10117000A5F10105002AECD002981199C0E90231CD
:10118000C0E9004579E70000000014400000F03F8E
:10119000300000000000F0430000E03F2DE9FF4F69
:1011A00095B09A46884606460025EEE1252877D177
:1011B00000242746F94A0121039400E0044316F86D
:1011C000013F203B01FA03F01042F7D130782A2882
:1011D00011D06FF02F033078A0F13002092A16D811
:1011E000039A44F0020402EB820203EB4202104431
:1011F000761C0390EFE758F8042B0392002A03DAD9
:10120000504244F40054039044F00204761C3078B9
:101210002E2816D116F8010F44F004042A280DD008
:101220006FF02F023078A0F13003092B09D807EBBB
:10123000870302EB4303C718761CF3E758F8047BD7
:10124000761C30786C280FD006DC4C2817D0682824
:101250000DD06A2814D104E0742810D07A280FD158
:101260000DE044F400140AE044F4801401E044F476
:1012700040147278824202D104F58014761C761CE8
:10128000307866280BD013DC582877D009DC00288A
:1012900075D04528F6D04628F4D047281AD193E1D6
:1012A00018E0632835D0642879D0652812D18BE105
:1012B000702873D008DC6728F1D069286FD06E28B9
:1012C0000DD06F2806D1ACE073282CD0752874D0CF
:1012D000782853D05246179990476D1C54E1C4F3B7
:1012E0000250022809D003280DD0D8F80010042895
:1012F0000DD00D6008F1040846E1D8F80010EA1797
:10130000C1E90052F6E7D8F800100D80F2E70D7041
:10131000F0E718F8041B8DF8001000208DF801008C
:10132000EB46012003E058F804BB4FF0FF306107A3
:101330004FF0000102D40DE009F101018946B942E4
:101340000FDA8145F8DB1BF809100029F4D108E019
:1013500009F1010189468142FADB1BF809100029D5
:10136000F6D103985346A0EB090721463846179A51
:1013700000F080FA284400EB090507E044E008E1AA
:101380000DE01BF8010B524617999047B9F101097E
:10139000F7D2534621463846179AF2E039E00A213F
:1013A000C4F302524FF0000B0091022A06D058F805
:1013B000040BC117032A09D00AE023E008F1070053
:1013C00020F00702F2E80201904605E000B2C117E2
:1013D000042A01D140B2C117002906DA0A460021C9
:1013E000404261EB02012D2202E0220504D52B22AE
:1013F0008DF80420012203E0E20701D02022F7E764
:10140000914657E00A2100E010214FF0000B0091B7
:101410000BE010214FF0000B44F00404082700916A
:1014200003E008204FF0000B0090C4F30252022AA0
:1014300005D058F8040B0021032A08D008E008F171
:10144000070020F00702F2E80201904603E080B2B4
:10145000042A00D1C0B24FF0000922072AD5327801
:10146000702A07D0DDF800C08CF0100C5CEA0B0C81
:1014700005D00EE040228DF80420012208E050EA59
:10148000010306D030238DF804308DF805200222A8
:101490009146009B83F0080353EA0B030AD150EAFC
:1014A000010201D1620705D530228DF804204FF0EA
:1014B00001097F1E3278582A04D039A20C920CAA56
:1014C00002920BE03BA2F9E75B46009AFEF7BBFEF7
:1014D0000C9B9B5C029A521E0292137050EA01020E
:1014E000F2D1029804A9081A00F1200B600702D576
:1014F00024F4803400E001275F4502DDA7EB0B00F8
:1015000000E0002000EB0B01009003984944401AD2
:101510000390E00306D453462146179A039800F03F
:10152000A9F90544002706E001A85246C05D1799B5
:1015300090476D1C7F1C4F45F6DBE0030CD55346EE
:101540002146179A039800F095F9054404E03020ED
:101550005246179990476D1C0099481E009000292B
:10156000F5DC08E00298029952460078491C029185
:10157000179990476D1CBBF10001ABF1010BF1DC39
:101580005BE100F065F90544761C307800287FF4B3
:101590000DAE19B02846BDE8F08F00000928010003
:1015A00030313233343536373839616263646566D9
:1015B000000000003031323334353637383941429B
:1015C0004344454600000000600700D4062708F1A8
:1015D000070020F00700F0E80223804603F0004CEB
:1015E0005FEA0C0001D097A009E0200501D596A084
:1015F00005E0E00701D095A001E0AFF24C001390A8
:10160000307823F0004365280CD006DC452809D04B
:1016100046281DD047287FD13BE0662818D0672890
:101620007AD136E00021112F01DB112000E0781C77
:10163000CDE9000104A90CA8FFF7EEFCDDE90D01DE
:101640000C9A4FF0000B07F10109109200914EE047
:101650004FF000400097CDE9011004A90CA8FFF756
:10166000DBFCDDE90D020C9B0F994FF0000B91465E
:101670001093009211B9791C00EB0109B7EB090036
:1016800003D4C0F1FF3B07F10109A9EB070001906A
:1016900042E0012F00DA01270021112F01DD112086
:1016A00000E03846CDE9000104A90CA8FFF7B4FC1E
:1016B000DDE90D010C9A00914FF0000BB946109234
:1016C00021070FD4009A4A4503DA914601E0A9F1B7
:1016D0000109B9F1010F05DD109AA9F10101515C71
:1016E0003029F4D0B84202DA10F1040F03DA0121F4
:1016F000CDE9011010E0002803DC8344A9EB0001D0
:1017000002E0411C494500DD8946A0EB0B00401C6E
:1017100001904FF000400290200705D40198484501
:1017200002DB4FF0FF30019000208DF84B00029853
:101730000DF14B07B0F1004F25D002200C902B206B
:101740000D90029800280CDA404202902D200D9056
:1017500007E00A210298FEF760FD3031029007F899
:10176000011D0C99481E0C900029F2DC02980028FB
:10177000EFD1791E0D980870307800F0200040F00D
:10178000450007F8020D11A8C01BC01D0290139858
:10179000007800B1012000EB0901019801EBE07134
:1017A000029801440398401A401E0390E00306D4B7
:1017B00053462146179A039800F05CF805441398A5
:1017C000007818B15246179990476D1CE00323D555
:1017D00053462146179A039800F04CF805441BE045
:1017E000BBF1000F07DB0098584504DD10981799EE
:1017F00010F80B0001E017993020524690470198ED
:101800000BF1010B401E05F10105019004D12E20C2
:101810005246179990476D1CB9F10001A9F10109D1
:10182000DEDC05E017F8010B5246179990476D1C56
:101830000299481E02900029F4DC53462146179A6B
:1018400003989EE62D0000002B0000002000000001
:101850002DE9F041044600251E461746880404D4AD
:1018600005E039462020B0476D1C641EF9D5284696
:10187000BDE8F0812DE9F041044600251E46904662
:10188000C80301D5302700E02027880404D505E0EF
:1018900041463846B0476D1C641EF9D52846BDE860
:1018A000F0814A68002A06D00A68531C0B60107049
:1018B0004868401E48607047F0B587B005460E4640
:1018C00005B11EB96FF0040007B0F0BD306800F03C
:1018D000B9FD044614B96FF00500F5E7201D6065F9
:1018E000A0654830E065F069616D086000202080E7
:1018F00025662C6028223146281DFEF775FC18222B
:10190000084901A8FEF770FC306800F071FB07463B
:10191000787D01A951F82000E862304600F053FCC0
:101920000020D1E7E02600084FF44070FFF7C6F82A
:101930006F497048FFF7C0FF6F497048FFF7BCFF61
:101940006F497048FFF7B8FF6F497048FFF7B4FF61
:101950006F497048FFF7B0FF6F497048FFF7ACFF61
:101960006448C06A0A2142686D4890476348C06A6B
:101970000A2142686B4890476248C06A0A2142685F
:10198000694890476148C06A0A21426867489047A1
:101990006048C06A0A214268654890475F48C06A4B
:1019A0000A214268634890475248C06A016862A0B1
:1019B00088475248C06A016864A088475148C06A95
:1019C000016867A088475148C06A016869A08847D4
:1019D0005048C06A01686CA088475048C06A0168D6
:1019E0006EA0884783E04349C96A88688047704988
:1019F00008600846006860B108460068FEF706FC0B
:101A000004463C48C06A036869482146026869A0E8
:101A100098473A49C96A886880476D49086008460E
:101A2000006860B108460068FEF7F0FB04463348E2
:101A3000C06A036866482146026866A09847314933
:101A4000C96A886880476A4908600846006860B1CA
:101A500008460068FEF7DAFB04462A48C06A0368B5
:101A600063482146026863A098472849C96A886884
:101A70008047674908600846006860B1084600680A
:101A8000FEF7C4FB04462148C06A0368604821464B
:101A9000026860A098471F49C96A886880476449FE
:101AA00008600846006860B108460068FEF7AEFBB3
:101AB00004461848C06A03685D48214602685DA074
:101AC00098471649C96A886880476149086008468E
:101AD000006860B108460068FEF798FB04460F48AE
:101AE000C06A03685A48214602685AA098477AE7B4
:101AF000002500086400002028250008940200202A
:101B000050250008C404002078250008F4060020B1
:101B1000A025000824090020C8250008540B002037
:101B200018000020220000202C0000203600002099
:101B3000400000204A0000200D0A546869732069A3
:101B400073205541525431210D0A00000D0A54688A
:101B50006973206973205541525432210D0A0000E7
:101B60000D0A54686973206973205541525433211A
:101B70000D0A00000D0A54686973206973205541ED
:101B8000525434210D0A00000D0A5468697320690B
:101B900073205541525435210D0A00000D0A546836
:101BA0006973206973205541525436210D0A000093
:101BB0000000002055415254312072656376202583
:101BC000642062797465733A2025730D0A00000061
:101BD000040000205541525432207265637620255E
:101BE000642062797465733A2025730D0A00000041
:101BF0000800002055415254332072656376202539
:101C0000642062797465733A2025730D0A00000020
:101C10000C00002055415254342072656376202513
:101C2000642062797465733A2025730D0A00000000
:101C300010000020554152543520726563762025EE
:101C4000642062797465733A2025730D0A000000E0
:101C500014000020554152543620726563762025C9
:101C6000642062797465733A2025730D0A000000C0
:101C70000FB47CB50D4800F0BBF90446607D00EB65
:101C8000800101EBC0000A4901EBC000056E07A806
:101C9000019001980090AA8CE9692046069B00F00B
:101CA000AAFA002001907CBC5DF814FB00100140F2
:101CB000840D002070B5084800F09AF90446607D54
:101CC00000EB800101EBC000044901EBC000056E90
:101CD000284600F0E7FB70BD00100140840D002095
:101CE00070B504460D46054800F082F906462A46BE
:101CF0002146304600F0A8FA70BD000000100140F7
:101D00000FB47CB50D4800F073F90446607D00EB1C
:101D1000800101EBC0000A4901EBC000056E07A875
:101D2000019001980090AA8CE9692046069B00F07A
:101D300062FA002001907CBC5DF814FB0044004076
:101D4000840D002070B5084800F052F90446607D0B
:101D500000EB800101EBC000044901EBC000056EFF
:101D6000284600F09FFB70BD00440040840D002019
:101D700070B504460D46054800F03AF906462A4675
:101D80002146304600F060FA70BD0000004400407B
:101D90000FB47CB50D4800F02BF90446607D00EBD4
:101DA000800101EBC0000A4901EBC000056E07A8E5
:101DB000019001980090AA8CE9692046069B00F0EA
:101DC0001AFA002001907CBC5DF814FB004800402A
:101DD000840D002070B5084800F00AF90446607DC3
:101DE00000EB800101EBC000044901EBC000056E6F
:101DF000284600F057FB70BD00480040840D0020CD
:101E000070B504460D46054800F0F2F806462A462D
:101E10002146304600F018FA70BD0000004800402E
:101E20000FB47CB50D4800F0E3F80446607D00EB8C
:101E3000800101EBC0000A4901EBC000056E07A854
:101E4000019001980090AA8CE9692046069B00F059
:101E5000D2F9002001907CBC5DF814FB004C0040DE
:101E6000840D002070B5084800F0C2F80446607D7B
:101E700000EB800101EBC000044901EBC000056EDE
:101E8000284600F00FFB70BD004C0040840D002080
:101E900070B504460D46054800F0AAF806462A46E5
:101EA0002146304600F0D0F970BD0000004C0040E3
:101EB0000FB47CB50D4800F09BF80446607D00EB44
:101EC000800101EBC0000A4901EBC000056E07A8C4
:101ED000019001980090AA8CE9692046069B00F0C9
:101EE0008AF9002001907CBC5DF814FB0050004092
:101EF000840D002070B5084800F07AF80446607D33
:101F000000EB800101EBC000044901EBC000056E4D
:101F1000284600F0C7FA70BD00500040840D002034
:101F200070B504460D46054800F062F806462A469C
:101F30002146304600F088F970BD00000050004096
:101F40000FB47CB50D4800F053F80446607D00EBFB
:101F5000800101EBC0000A4901EBC000056E07A833
:101F6000019001980090AA8CE9692046069B00F038
:101F700042F9002001907CBC5DF814FB0014014084
:101F8000840D002070B5084800F032F80446607DEA
:101F900000EB800101EBC000044901EBC000056EBD
:101FA000284600F07FFA70BD00140140840D002027
:101FB00070B504460D46054800F01AF806462A4654
:101FC0002146304600F040F970BD00000014014089
:101FD00070B5044614B96FF0040070BD256828463A
:101FE00000F05AFA00202060E06200BFF5E7000030
:101FF000024600210DE001EB4100084B53F8300090
:10200000904204D101EB410003EBC0007047481C33
:10201000C1B20629EFD30020F8E70000F025000840
:1020200010B504460748844202D00748844204D1D0
:1020300001218805FEF74CFD03E001214805FEF76C
:1020400047FD10BD001001400014014030B58FB0B5
:1020500004462068FFF7CCFF0546E868FEF7A4FBBE
:10206000A86800902068001D01900020079005904E
:10207000E0690290002008904FF480600690812073
:1020800004900020039009904FF400300A90002043
:102090000B9003200C9000200E900D906946E8688C
:1020A000FEF732FC0121E868FEF772FB01224021B5
:1020B0002068FEF7B1FE0FB030BD0146002006E0FB
:1020C000012282400A4002B17047421CD0B210285F
:1020D000F6DBFF20F8E7000010B504461F49601A40
:1020E0008C4223D009DC1E48204480B1B0F5806FBB
:1020F00012D0B0F5006F2DD113E0B0F5806F1AD07B
:10210000B0F5006F1CD0B0F5406F23D11DE0012168
:102110000846FEF7DDFC1EE001210220FEF7D8FC98
:1021200019E001210420FEF7D3FC14E0012108206E
:10213000FEF7CEFC0FE001211020FEF7C9FC0AE0FB
:1021400001212020FEF7C4FC05E001214020FEF71C
:10215000BFFC00E000BF00BF10BD0000000C02404B
:102160000000FEBF7CB5044602208DF8040000206C
:102170008DF8060001208DF8070002208DF805007B
:10218000E06800906946A068FEF7EBFB606900908C
:1021900069462069FEF7E5FB2068FFF729FF054641
:1021A000E068FFF78AFF06462A7D3146A068FEF701
:1021B00020FC6069FFF781FF06462A7D31462069D1
:1021C000FEF717FC7CBD10B50446A068FFF784FF3E
:1021D0002069FFF781FF206800F04EF82068FFF7C4
:1021E0001FFF2046FFF7BEFF204600F083F8204681
:1021F000FFF72CFF10BD2DE9F04104460D461746B0
:102200009846424639462846069BFEF7DBFE0026E6
:102210000CE000BF80212068FEF707FE0028F9D0FF
:10222000A95D2068FEF7C8FE701C86B22846FDF73F
:10223000EDFFB042EDD800BF40212068FEF7F5FD6C
:102240000028F9D0BDE8F0812DE9F04104460E46A2
:10225000174600250BE0715D2068FEF7ADFE00BF5C
:1022600080212068FEF7E1FD0028F9D06D1CBD42F9
:10227000F1D3BDE8F081000010B504461B49601A97
:102280008C4225D009DC1A48204490B1B0F5806F0B
:1022900014D0B0F5006F25D115E0B0F5404F03D054
:1022A000B0F5444F1ED118E001211020FEF730FC9C
:1022B00019E001214804FEF71BFC14E00121880409
:1022C000FEF716FC0FE00121C804FEF711FC0AE03E
:1022D00001210805FEF70CFC05E001212020FEF796
:1022E00017FC00E000BF00BF10BD00000050004020
:1022F00000BCFFBF30B585B004462068FFF778FE0C
:102300000546606801900020ADF810000C20ADF883
:102310000E000020ADF80C00ADF80A00ADF8080082
:1023200001A92068FEF7DEFD012240F22441206869
:10233000FEF7B2FD28798DF8000001208DF803002A
:1023400094F824008DF8010094F825008DF802001F
:102350006846FEF777FB01212068FEF751FD05B0C6
:1023600030BD00002DE9F84F82465046FFF740FE91
:102370000546687D00EB800101EBC000304901EBB0
:10238000C004266E00BF40F224412868FEF75AFDC3
:1023900008B1012000E0002000284FD000BF2868CD
:1023A0000088C0B2009028688088C0B2009000BF4A
:1023B00000BFE868FEF7A4FAC0F181002188084454
:1023C00020802088401E316A0844616D4860606D3D
:1023D00008306065E16D606D884201D1201D606547
:1023E000F08C2188401A802805DB2188306A084457
:1023F000616D086004E0306A616D08600020208033
:10240000606D4FF08109D0F80080EF6800213846F8
:10241000FEF7BEF900BF00BF386800F001000028D9
:10242000FAD1C7F80490C7F80C8038462969FEF73E
:1024300095F901213846FEF7ABF900BFBDE8F88FEA
:10244000840D002070B506463046FFF7D1FD0546E5
:102450000DB9002070BD6C7D04EB840000EBC4005E
:102460000C4901EBC00090F8640008B10020F1E7CE
:10247000012004EB840101EBC401064A02EBC10117
:1024800081F8640004EB840000EBC400114601EB0A
:10249000C000DFE7840D002010B1002180F8641037
:1024A000704700002DE9F041054615B90020BDE850
:1024B000F0812C68D4E9150188421DD0A06D076811
:1024C000A06D4068A16D0968401A461C812E00D39A
:1024D0008026324639460948FDF786FE0020074926
:1024E0008855A06D0830A065D4E91601884201D155
:1024F000201DA0650148DAE70020D8E7F40F00208E
:102500000010014000C20100000002400002000073
:10251000000002400004000094000020940100200C
:1025200000010001000000000044004000C2010062
:10253000000002400400000000000240080000000B
:10254000C4020020C40300200001000100000000BC
:102550000048004000C201000004024000040000E6
:102560000004024000080000F4040020F4050020EC
:102570000001000100000000004C004000C201000A
:1025800000080240000400000008024000080000AB
:1025900024070020240800200001000100000000A2
:1025A0000050004000C2010000080240001000007E
:1025B000000C02400400000054090020540A0020CE
:1025C00000010001000000000014014000C20100F1
:1025D00000080240400000000008024080000000A7
:1025E000840B0020840C002000010001000000008A
:1025F000001001402500000000000008886402402F
:1026000000080020070000000044004026000000F1
:102610000000000888600240000800200701000058
:102620000048004027000000000000082860024029
:102630000008001007020000004C004034000000B9
:102640000000000840600240000020100803000065
:1026500000500040350000000000000810600240FB
:102660002000001008040000001401404700000092
:102670000000000A2864024000080010080500005D
:10268000711C0008E11C0008B51C0008D11F0008DF
:10269000011D0008711D0008451D0008D11F00081C
:1026A000911D0008011E0008D51D0008D11F00085B
:1026B000211E0008911E0008651E0008D11F000899
:1026C000B11E0008211F0008F51E0008D11F0008D8
:1026D000411F0008B11F0008851F0008D11F000816
:1026E0008026000890260008A0260008B0260008D2
:1026F000C0260008D0260008182700080000002087
:1027000064000000F80F00087C2700086400002027
:102710001414000008100008000000000000000071
:1027200000000000000000000000000000000000A9
:102730004142434445464748494A4142434445464D
:102740004748494A4142434445464748494A41422D
:10275000434445464748494A414243444546474821
:10276000494A4142434445464748494A000000001F
:0C2770000102030401020304060708092B
:04000005080001AD41
:00000001FF
