:020000040800F2
:1000000078670020C5010008750A00086D0A00081D
:10001000710A00088B070008DD14000800000000CA
:10002000000000000000000000000000D7010008F0
:100030009509000800000000DB010008DD01000850
:10004000DF010008DF010008DF010008DF01000810
:10005000DF010008DF010008DF010008DF01000800
:10006000DF010008DF010008DF010008DF010008F0
:10007000DF010008DF010008DF010008DF010008E0
:10008000DF010008DF010008DF010008DF010008D0
:10009000DF010008DF010008DF010008DF010008C0
:1000A000DF010008DF010008DF010008DF010008B0
:1000B000DF010008DF010008DF010008DF010008A0
:1000C000DF010008DF010008DF010008DF01000890
:1000D000DF010008950F000875100008591100088D
:1000E000DF010008DF010008DF010008DF01000870
:1000F000DF010008DF010008DF010008DF01000860
:10010000DF010008DF010008DF010008DF0100084F
:10011000D50D0008B50E0008DF010008DF0100085A
:10012000DF010008DF010008DF010008DF0100082F
:10013000DF010008DF010008DF010008DF0100081F
:10014000DF010008DF010008DF010008DF0100080F
:10015000DF010008DF010008DF0100083912000894
:10016000DF010008DF010008DF010008DF010008EF
:10017000DF010008DF010008DF010008DF010008DF
:10018000DF010008DF010008DF010008DF010008CF
:10019000DF010008DF010008DF010008DF010008BF
:1001A000DF010008DF010008DF010008DFF810D0E0
:1001B00000F020FA0048004785260008AFF30080D1
:1001C000786700200648804706480047FEE7FEE7BC
:1001D000FEE7FEE7FEE7FEE7FEE7FEE7FEE7FEE7F7
:1001E0006D0D0008AD010008421C10F8011B00292C
:1001F000FBD1801A704730B50B4601460020202203
:10020000012409E021FA02F59D4205D303FA02F523
:10021000491B04FA02F52844151EA2F10102F1DC83
:1002200030BD2DE9F05F0546002092469B4688468A
:100230000646814640241BE0284641464746224662
:1002400000F0F9F953465A46C01A914110D31146AD
:100250001846224600F0E0F92D1A67EB01084F46D8
:1002600022460120002100F0D7F917EB00094E418A
:10027000201EA4F10104DFDC484631462A464346ED
:10028000BDE8F09F2DE9FE4F804681EA0300C00FD4
:100290000C46009021F0004123F00045B8EB02002D
:1002A000A94105D24046214690461C460B460246CF
:1002B00023F00040104347D0270DC7F30A00C3F3D3
:1002C0000A510290401A019040286BDAC3F31300E0
:1002D00040F4801B0098924620B10023D2EB030A21
:1002E00063EB0B0B01985946C0F14002504600F0F9
:1002F00093F906460D4650465946019A00F0ABF96F
:1003000010EB08006141002487EA115284EAE77388
:100310001A4340D0009A62B3019A012A4FEA075269
:1003200015DC001B61EB02014FF0004202EA0752AC
:10033000CDE90042001C41F5801132462B4600F009
:10034000ABF903B0BDE8F08F40462146F9E7001B4A
:1003500061EB0201001C41F5801300185B4120187D
:10036000A2F5001747EB030140EAD570B6196D41BD
:1003700011E06D084FEA360645EAC0754FEA0752AC
:10038000001B61EB0201001C41F5801149084FEA96
:1003900030000019514132462B4603B0BDE8F04F02
:1003A00000F06BB90098012240000023D0EB02025C
:1003B00063EBE073009821464FEAE074B8EB00006D
:1003C00061EB0401E9E783F000435BE781F0004162
:1003D00058E72DE9FE4F81EA030404F0004421F0C0
:1003E000004100944FF0000B23F0004350EA010459
:1003F0005ED052EA03045BD0C3F30A54C1F30A553A
:100400002C44A4F2F3340194A0FB0254C1F3130171
:1004100041F48011C3F3130343F4801301FB02443E
:1004200000FB034E840A970A44EA815447EA835743
:10043000A4FB076802958D0A05FB07854FEA932CFC
:1004400004FB0C542705029D4FEA065847EA16376D
:10045000B5EB08056EEB070C870E920E47EA811785
:1004600042EA8312A7FB0201B6EB0B0164EB000426
:100470002B0D43EA0C335E1844EB1C50DA46514610
:10048000E7FB0201C5F313044FEA0B3343EA1453AD
:100490004FEA0432019C43EA0603A4F10C040294DF
:1004A000009CCDE900B400F0F7F803B0BDE8F08F90
:1004B00000200146F9E72DE9F04D81EA030404F03C
:1004C000004B21F0004514464FF0000A23F0004194
:1004D00050EA050220D054EA01021DD0C5F30A57A4
:1004E0000246C5F31303C1F31300C1F30A5640F4E7
:1004F000801543F48013A7EB0608101BD64608F2BC
:10050000FD3873EB050002D308F1010801E09218F1
:100510005B41B8F1000F03DA00200146BDE8F08D21
:1005200000204FF48011064684460EE0171B73EB43
:10053000050705D3121B63EB050306434CEA010CC8
:1005400049084FEA300092185B4150EA0107EDD1AB
:1005500052EA030012D082EA040083EA050108434C
:1005600005D0101BAB4106D20122002306E0002279
:100570004FF0004302E06FF0010253101AEB060047
:100580004CEB085110EB0A0041EB0B01BDE8F04DBC
:1005900000F073B8C1F30A52C1F3130140F2FF3304
:1005A00041F480119A4202DA00200146704740F27D
:1005B00033439A42A2F2334202DC524200F03BB88B
:1005C00000F02AB830B5041E71F1000404DB4FF0CE
:1005D0000044404264EB0101141E73F1000405DB8A
:1005E0001C464FF00043524263EB0403994208BF9C
:1005F000904230BD064C074D06E0E06840F0010334
:1006000094E8070098471034AC42F6D3FFF7D2FDC8
:10061000E835000808360008202A04DB203A00FAF2
:1006200002F1002070479140C2F1200320FA03F349
:10063000194390407047202A04DB203A21FA02F047
:100640000021704721FA02F3D040C2F1200291400C
:10065000084319467047202A06DBCB17203A41FA97
:1006600002F043EAE07306E041FA02F3D040C2F13F
:100670002002914008431946704710B5141E73F1CB
:10068000000408DA401C41F1000192185B411A4352
:1006900001D120F0010010BD2DE9F04D92469B469E
:1006A00011B1B1FA81F202E0B0FA80F22032904644
:1006B000FFF7B2FF04460F4640EA0A0041EA0B0189
:1006C00053465A46084313D0114653EA010019D045
:1006D000C8F140025046FFF7AEFF05460E465046B1
:1006E00059464246FFF798FF084305D0012004E031
:1006F00020463946BDE8F08D0020054346EAE07605
:100700002C4337430A986305E40AA0EB0800002253
:10071000FD0A44EA47540A3002D500200146E9E7C1
:10072000010510196941DDE9084500196941BDE875
:10073000F04DA2E770B58C1810F8015B15F00703B7
:1007400001D110F8013B2A1106D110F8012B03E06A
:1007500010F8016B01F8016B5B1EF9D12B0705D472
:100760000023521E0DD401F8013BFAE710F8013BBB
:10077000CB1A921C03E013F8015B01F8015B521ED7
:10078000F9D5A142D8D3002070BD00BFFEE700001C
:100790000246094B9A4201D2084801E00648103847
:1007A00001F000531BB1064B0B40C36002E0044B49
:1007B0000B408360704700001064024000600240FC
:1007C0007D0F7D0F21B1026842F00102026003E05B
:1007D000026822F00102026070470000016821F007
:1007E000010101600021016041608160C16001611F
:1007F000212141614A49884204D13D21484A103AA9
:1008000091608CE046491831884205D14FF47461FB
:10081000434A103A916082E041493031884205D123
:100820004FF474113E4A103A916078E03C494831E7
:10083000884205D14FF07461394A103A91606EE0F8
:1008400037496031884204D13649354A103AD1607F
:1008500065E033497831884204D13349304A103A4F
:10086000D1605CE02E499031884204D12F492C4A56
:10087000103AD16053E02A49A831884205D14FF09F
:100880003D51274A103AD16049E02949884204D1B4
:100890003D21274A083A116041E025491831884234
:1008A00005D14FF47461224A083A116037E02049BB
:1008B0003031884205D14FF474111D4A083A116055
:1008C0002DE01B494831884205D14FF07461184A28
:1008D000083A116023E016496031884204D1114979
:1008E000134A121F11601AE011497831884204D16D
:1008F0000D490F4A121F116011E00D4990318842D5
:1009000004D10A490A4A121F116008E00849A831B7
:10091000884204D14FF03D51054A121F11607047C3
:10092000106002403D000020400F002000003D20EC
:10093000106402400146486880B2704710B500223A
:100940000268134B1A40CC680B6823434C6923435D
:100950008C692343CC6923430C6A23434C6A2343A9
:100960008C6A23434C6B23438C6B23431A430260F2
:10097000426922F00702D1E90B3423431A43426152
:100980000B6943604B6883608B68C36010BD0000D7
:100990003F801CF07047F0B50A4600210023002478
:1009A00000BF3DE0012505FA01F3156805EA0304DF
:1009B0009C4234D105684F000326BE40B543056014
:1009C00015794E00B5400668354305601579012D4F
:1009D00002D01579022D16D185684F000326BE403E
:1009E000B543856055794E00B540866835438560CE
:1009F000456801268E40B5434560456896798E402E
:100A0000B6B235434560C5684F000326BE40B543C6
:100A1000C560D5794E00B540C6683543C560491CF0
:100A20001029BFD3F0BDF0B5002300244D07ED0E13
:100A300002FA05F3CE1000F1200555F826504E07B6
:100A4000F70E0F26BE40B543CF1000F1200646F842
:100A50002750CE1000F1200555F8265045EA030432
:100A6000CE1000F1200545F82640F0BD00BFFEE79E
:100A700000BFFEE77047000070B5002100230F2281
:100A8000C4781CB3174C246804F4E064C4F5E06433
:100A9000C4F30721C1F10404E3B20A4144789C4045
:100AA000E1B28478144021430C07210E0E4C0578E6
:100AB0006155047804F01F050124AC4005786D11E0
:100AC000AD0005F1E025C5F8004109E0047804F027
:100AD0001F050124AC40054D0678761145F82640E7
:100AE00070BD00000CED00E000E400E080E100E0FB
:100AF00002490143024A1160704700000000FA05F4
:100B00000CED00E029B1064A12680243044B1A605A
:100B100004E0034A12688243014B1A6070470000E8
:100B20003038024029B1064A12680243044B1A6069
:100B300004E0034A12688243014B1A6070470000C8
:100B40004038024029B1064A12680243044B1A6039
:100B500004E0034A12688243014B1A6070470000A8
:100B600044380240F0B5002100220024022500266E
:100B70000223324F3F6807F00C0121B1042905D050
:100B8000082937D105E02E4F076036E02D4F07606A
:100B900033E02A4F3F1F3F68C7F38056274F3F1F60
:100BA0003F6807F03F036EB1264FB7FBF3F7DFF85E
:100BB0008CC0ACF1040CDCF800C0CCF3881C07FB43
:100BC0000CF40CE01E4FB7FBF3F7DFF870C0ACF18C
:100BD000040CDCF800C0CCF3881C07FB0CF4174FA6
:100BE0003F1F3F68C7F301477F1C7D00B4FBF5F74B
:100BF000076002E0124F076000BF00BF0F4F3F6861
:100C000007F0F0010909104F7A5C0768D740476088
:100C10000A4F3F6807F4E051890A0B4F7A5C476836
:100C2000D7408760054F3F6807F46041490B064F86
:100C30007A5C4768D740C760F0BD000008380240C2
:100C40000024F40000127A00240100200CB50020DA
:100C5000019000904148006840F480303F490860AE
:100C600000BF3E48006800F4003000900198401C2E
:100C70000190009818B90198B0F5A04FF1D137480C
:100C8000006800F4003010B10120009001E0002065
:100C900000900098012860D130484030006840F052
:100CA00080502E49403108602D48006840F4404093
:100CB0002B49086029480830006828490831086035
:100CC0000846006840F4004008600846006840F4A8
:100CD000A05008602348091F0860081F006840F002
:100CE0008070091F086000BF1C48006800F0007099
:100CF0000028F9D01A48006840F48030184908608C
:100D000000BF1748406800F480300028F9D014482C
:100D1000006840F400301249086000BF1048406885
:100D200000F400300028F9D040F205700E49086048
:100D30000A480830006820F00300084908310860BC
:100D40000846006840F00200086000BF0348083011
:100D5000006800F00C000828F8D10CBD00380240F3
:100D600000700040085A4007003C024010B515488A
:100D7000006840F47000134908601348006840F0B0
:100D800001001149086000200F49083108600E4831
:100D900000680E4908400C4908600D48091D0860AC
:100DA000081F006820F48020091F08600020064901
:100DB0000C310860FFF74AFF4FF0006001498039AD
:100DC000086010BD88ED00E000380240FFFFF6FE2D
:100DD0001030002408B540F22441324800F0C0FA37
:100DE00000285DD02F480088C0B200902D48001D1B
:100DF0000088C0B200902C48FFF79CFD40F2012112
:100E0000081A2A49098808442849088008460088A1
:100E1000401E274908442549496D48602348406DD4
:100E20000830224948650846406DC96D884203D1A3
:100E30001E48001D011F48651C480088C0F5006061
:100E4000B0F5007F07DB19480088194908441749A5
:100E5000496D086006E016481449496D0860002095
:100E60001249088000211048FFF7ACFC00BF0E4873
:100E70004038006C00F001000028F8D140F2012059
:100E80000949403948640948406D0068C8644FF01A
:100E900081510548FFF77CFC01210348FFF792FCD4
:100EA00008BD0000004C0040406002405442002059
:100EB000543A002008B540F22441314800F050FA7D
:100EC00000285BD02E480088C0B200902C48808853
:100ED000C0B200902B48FFF72DFD40F20121081A07
:100EE0002949098808442849088008460088401E86
:100EF000264908442449496D48602348406D08301C
:100F0000214948650846406DC96D884203D11E4895
:100F1000001D011F48651C480088C0F50060B0F541
:100F2000007F07DB18480088184908441649496DB6
:100F3000086006E015481449496D08600020124910
:100F4000088000210F48FFF73DFC00BF0D48103816
:100F5000006900F001000028F8D140F201200949A1
:100F6000103948610848406D0068C8610849054863
:100F7000FFF70EFC01210348FFF724FC08BD000029
:100F80000050004010600240B4520020B44A0020DB
:100F90002000001008B540F22441314800F0E0F98B
:100FA00000285CD02E480088C0B200902C48808871
:100FB000C0B200902B48FFF7BDFC40F20121081A97
:100FC0002949098808442849088008460088401EA5
:100FD000264908442449496D48602348406D08303B
:100FE000214948650846406DC96D884203D11E48B5
:100FF000001D011F48651C480088C0F50060B0F561
:10100000007F07DB18480088184908441649496DD5
:10101000086006E015481449496D0860002012492F
:10102000088000210F48FFF7CDFB00BF0D48006886
:1010300000F001000028F9D140F201200949091D02
:1010400008600948406D006806490C31086008498D
:101050000448FFF79DFB01210248FFF7B3FB08BDE1
:10106000001001408864024034110020340900203F
:101070000008002008B540F22441324800F070F921
:1010800000285ED02F480088C0B200902D48001D77
:101090000088C0B200902C48FFF74CFC40F20121C0
:1010A000081A2A49098808442849088008460088FF
:1010B000401E274908442549496D48602348406D32
:1010C0000830224948650846406DC96D884203D101
:1010D0001E48001D011F48651C480088C0F50060BF
:1010E000B0F5007F07DB1948008819490844174903
:1010F000496D086006E016481449496D08600020F3
:101100001249088000211048FFF75CFB00BF0E4821
:10111000006800F001000028F9D140F201200A49DE
:10112000091D08600948406D006807498839C1F801
:10113000940008490448FFF72BFB01210248FFF700
:1011400041FB08BD0044004088600240942100201B
:10115000941900200008002008B540F224413148CD
:1011600000F0FEF800285CD02E480088C0B2009045
:101170002C48001D0088C0B200902B48FFF7DAFB16
:1011800040F20121081A29490988084427490880A2
:1011900008460088401E264908442449496D486095
:1011A0002248406D0830214948650846406DC96DA8
:1011B000884203D11D48001D011F48651B48008857
:1011C000C0F50060B0F5007F07DB184800881849BB
:1011D00008441649496D086006E015481349496DF1
:1011E000086000201149088000210F48FFF7EAFA43
:1011F00000BF0D482838806A00F001000028F8D1AF
:1012000040F2012008492839C8620848406D00684A
:10121000486308490448FFF7BBFA01210248FFF779
:10122000D1FA08BD0048004028600240F431002097
:10123000F42900200008001008B540F2244132488B
:1012400000F08EF800285DD02F480088C0B20090D2
:101250002D48001D0088C0B200902C48FFF76AFBA3
:1012600040F20121081A2A490988084428490880BF
:1012700008460088401E274908442549496D4860B2
:101280002348406D0830224948650846406DC96DC5
:10129000884203D11E48001D011F48651C48008874
:1012A000C0F50060B0F5007F07DB194800881949D8
:1012B00008441749496D086006E016481449496D0D
:1012C000086000201249088000211048FFF77AFAD0
:1012D00000BF0E48006800F001000028F9D140F27C
:1012E00001200A49091D08600948406D0068074946
:1012F0000C31086008490548FFF74AFA0121034804
:10130000FFF760FA08BD00000014014028640240A5
:1013100014630020145B00200008001021B18289B2
:1013200042F40052828104E082894DF6FF731A4034
:10133000828170471AB1838A0B43838202E0838AD9
:101340008B438382704702460020B1F5007F00D1B5
:1013500000BF13880B400BB1012000E00020704754
:1013600070B50246002400230025002040F66A16CE
:10137000B14200D100BFC1F3421501F01F030126A5
:1013800006FA03F3012D02D19689334006E0022DBF
:1013900002D1168A334001E0968A33400C120126AE
:1013A00006FA04F41688344013B10CB1012000E0B1
:1013B000002070BDF0B50346002400260025002063
:1013C00040F66A17B94200D100BF1846C1F3421473
:1013D00001F01F06012707FA06F5012C01D10C3098
:1013E00004E0022C01D1103000E014301AB107687B
:1013F0002F43076002E00768AF430760F0BD0000BD
:101400002DE9FF4705460E460024A14600BFA04631
:10141000B08900B100BF2C8A24F44054F088044302
:101420002C82AC8941F20C608443B0883189084336
:10143000718908430443AC81AC8A24F44074B089B8
:101440000443AC826846FFF78DFB2048854202D0FA
:101450001F48854202D1DDF80C9001E0DDF80890CC
:10146000A88900F4004040B109EBC90000EB091065
:1014700031684900B0FBF1F707E009EBC90000EB68
:10148000091031688900B0FBF1F76420B7FBF0F078
:1014900004012009642101FB1078A88900F40040B0
:1014A00040B1322000EBC800B0FBF1F000F00700C3
:1014B000044308E0322000EB08106421B0FBF1F097
:1014C00000F00F0004432C81BDE8FF8700100140AD
:1014D00000140140C1F308028280704700BFFEE79C
:1014E00037B514460846064B6A46214600F038FDDB
:1014F00004466946002001F0B6F820463EBD0000D3
:101500006726000802E008C8121F08C1002AFAD1A5
:1015100070477047002001E001C1121F002AFBD173
:10152000704700000FB438B505A800901248009A23
:101530000499FFF7D5FF0020009000240DE000BFC4
:1015400080210E48FFF7FFFE0128F9D10A48015D0E
:101550000A48FFF7BFFF601C84B20748FEF744FE4D
:10156000A042ECD800BF40210448FFF7ECFE012860
:10157000F9D138BC5DF814FB3401002000100140A3
:101580000F48406D0E4A926D904217D000200C4AD1
:10159000926D526850700A48806D01680848806DED
:1015A0000830074A90651046806DD26D904203D195
:1015B0000348001D021F9065084670470020FCE7A5
:1015C0003411002070B505460E4600240BE0295D5D
:1015D0000648FFF77FFF00BF80210448FFF7B3FEF6
:1015E0000028F9D0641CB442F1D370BD0010014052
:1015F0000FB438B505A800901248009A0499FFF777
:101600006FFF0020009000240DE000BF80210E48F5
:10161000FFF799FE0128F9D10A48015D0A48FFF752
:1016200059FF601C84B20748FEF7DEFDA042ECD8EB
:1016300000BF40210448FFF786FE0128F9D138BCDD
:101640005DF814FB94110020004400400F48406DE9
:101650000E4A926D904217D000200C4A926D52684B
:1016600050700A48806D01680848806D0830074A4C
:1016700090651046806DD26D904203D10348001DE5
:10168000021F9065084670470020FCE79421002067
:1016900070B505460E4600240BE0295D0648FFF7AD
:1016A00019FF00BF80210448FFF74DFE0028F9D044
:1016B000641CB442F1D370BD004400400FB438B58F
:1016C00005A800901248009A0499FFF709FF00202E
:1016D000009000240DE000BF80210E48FFF733FE8C
:1016E0000128F9D10A48015D0A48FFF7F3FE601CA2
:1016F00084B20748FEF778FDA042ECD800BF402135
:101700000448FFF720FE0128F9D138BC5DF814FB2E
:10171000F4210020004800400F48406D0E4A926DB1
:10172000904217D000200C4A926D526850700A48BF
:10173000806D01680848806D0830074A9065104642
:10174000806DD26D904203D10348001D021F906549
:10175000084670470020FCE7F431002070B50546CC
:101760000E4600240BE0295D0648FFF7B3FE00BFDC
:1017700080210448FFF7E7FD0028F9D0641CB4423B
:10178000F1D370BD004800400FB438B505A80090F3
:101790001248009A0499FFF7A3FE0020009000244D
:1017A0000DE000BF80210E48FFF7CDFD0128F9D1E3
:1017B0000A48015D0A48FFF78DFE601C84B20748A5
:1017C000FEF712FDA042ECD800BF40210448FFF70D
:1017D000BAFD0128F9D138BC5DF814FB5432002061
:1017E000004C00400F48406D0E4A926D904217D059
:1017F00000200C4A926D526850700A48806D016852
:101800000848806D0830074A90651046806DD26D9B
:10181000904203D10348001D021F9065084670479F
:101820000020FCE75442002070B505460E46002417
:101830000BE0295D0648FFF74DFE00BF80210448FC
:10184000FFF781FD0028F9D0641CB442F1D370BDCC
:10185000004C00400FB438B505A800901248009A1B
:101860000499FFF73DFE0020009000240DE000BF2A
:1018700080210E48FFF767FD0128F9D10A48015D74
:101880000A48FFF727FE601C84B20748FEF7ACFC4D
:10189000A042ECD800BF40210448FFF754FD0128C6
:1018A000F9D138BC5DF814FBB44200200050004070
:1018B0000F48406D0E4A926D904217D000200C4A9E
:1018C000926D526850700A48806D01680848806DBA
:1018D0000830074A90651046806DD26D904203D162
:1018E0000348001D021F9065084670470020FCE772
:1018F000B452002070B505460E4600240BE0295D69
:101900000648FFF7E7FD00BF80210448FFF71BFDF5
:101910000028F9D0641CB442F1D370BD00500040DF
:101920000FB438B505A800901248009A0499FFF743
:10193000D7FD0020009000240DE000BF80210E485C
:10194000FFF701FD0128F9D10A48015D0A48FFF7B8
:10195000C1FD601C84B20748FEF746FCA042ECD8EB
:1019600000BF40210448FFF7EEFC0128F9D138BC44
:101970005DF814FB14530020001401400F48406D23
:101980000E4A926D904217D000200C4A926D526818
:1019900050700A48806D01680848806D0830074A19
:1019A00090651046806DD26D904203D10348001DB2
:1019B000021F9065084670470020FCE71463002072
:1019C00070B505460E4600240BE0295D0648FFF77A
:1019D00081FD00BF80210448FFF7B5FC0028F9D045
:1019E000641CB442F1D370BD00140140294A01685F
:1019F00091420CD128490A1F516591654831D16542
:101A00002649526D11600021234A121F1180244A79
:101A10000168914208D123490A1F516591654831F7
:101A2000D1652149526D1160204A0168914208D167
:101A30001F490A1F516591654831D1651D49526D95
:101A400011601D4A0168914208D11C490A1F516565
:101A500091654831D1651A49526D1160194A016882
:101A6000914208D118490A1F516591654831D165E5
:101A70001649526D1160164A0168914208D1154904
:101A80000A1F516591654831D1651349526D116046
:101A90007047000000100140381100203409002078
:101AA0000044004098210020941900200048004084
:101AB000F8310020F4290020004C0040584200205A
:101AC000543A002000500040B8520020B44A002090
:101AD0000014014018630020145B0020014609B186
:101AE000087E10B94FF0FF3070470020087600BF25
:101AF000FAE7000010B590B00446AA492068884271
:101B000004D101218805FEF7FDFF2BE0A6492068DE
:101B1000884204D101214805FEF7F4FF22E0A349E1
:101B20002068884204D101214805FEF7EBFF19E047
:101B30009F492068884204D101214805FEF7E2FF51
:101B400010E09C492068884204D101214805FEF735
:101B5000D9FF07E098492068884203D10121880510
:101B6000FEF7D0FF8F4A2168914201D1934922E0CC
:101B70008D4A2168914201D191491CE08B4A21682C
:101B8000914202D18E49603915E0894A216891421B
:101B900002D18B4948390EE0864A2168914202D130
:101BA0008749783907E0844A2168914202D1834904
:101BB000603900E000210846FEF710FE79492068F0
:101BC000884202D14FF0006023E0774920688842C4
:101BD00002D14FF000601CE074492068884202D1B5
:101BE0004FF0006015E072492068884202D14FF042
:101BF00000600EE06F492068884202D14FF000601B
:101C000007E06D492068884202D14FF0206000E073
:101C1000002001902068001D02900020089006908E
:101C200060492068884201D1664803905E49206877
:101C3000884201D1644803905C492068884201D100
:101C4000624803905A492068884201D16048039055
:101C500058492068884201D15E480390564920685F
:101C6000884201D15C480390002009904FF48060C5
:101C700007904C492068884202D140F2012005902B
:101C800049492068884202D140F201200590474925
:101C90002068884202D140F2012005904449206822
:101CA000884202D140F201200590424920688842D2
:101CB00002D140F2012005903F492068884202D1BC
:101CC00040F201200590002004900A904FF400306B
:101CD0000B9000200C9003200D9000200F900E9090
:101CE000304A2168914201D1344922E02E4A2168CC
:101CF000914201D132491CE02C4A2168914202D123
:101D00002F49603915E02A4A2168914202D12C49B5
:101D100048390EE0274A2168914202D12849783992
:101D200007E0254A2168914202D12449603900E048
:101D30000021084601A9FEF701FE1A4A21689142D6
:101D400001D11E4922E0184A2168914201D11C4963
:101D50001CE0164A2168914202D11949603915E008
:101D6000134A2168914202D1154948390EE0114ABF
:101D70002168914202D11249783907E00E4A216860
:101D8000914202D10D49603900E00021084601214D
:101D9000FEF718FD012240212068FFF7CBFA10B0B2
:101DA00010BD000000100140004400400048004009
:101DB000004C004000500040001401408864024084
:101DC000886002403409002094190020F429002082
:101DD000543A0020B44A0020145B00202DE9FF5F34
:101DE00082B00021DDE90430020DDDF840B003438C
:101DF00018D044F61050A2F2FF3242431514119845
:101E000001281FD0A5EB0B00401C5FEA000A4FF031
:101E100000064E4FDFF83891B046504615D5CAF14E
:101E2000000413E0119801244AA3012801D16FEAAC
:101E30000B010298119AC0E90031C0E9024206B0D4
:101E4000BDE8F09FCBF10000DFE704460021404AE7
:101E5000491842EB0450CDE9001012E0E00707D02A
:101E600032463B4640464946FEF7B3FA804689462D
:101E700032463B4610461946FEF7ABFA06460F4679
:101E80006410002CEAD1DDE90401DDE90023BAF198
:101E9000000F06DAFEF79DFA42464B46FEF799FA26
:101EA00005E0FEF708FB42464B46FEF704FB0446FE
:101EB0000E460022284BFEF785FB03D84FF0FF307B
:101EC000014607E00022254B20463146FEF7DAF9AD
:101ED000FEF760FB102409E0002C0ADB0A22002335
:101EE000FEF79FF9039B30321A55641E50EA010237
:101EF000F2D1641C039AC4F111031444119A012A0B
:101F000003D0012208430DD10AE0084304D0002089
:101F10004FF0110B119072E7A3EB0B056D1E0DE056
:101F20005B4504DD4FF0000205F1010504E003DA32
:101F30004FF00002A5F10105002AECD0029811999A
:101F4000C0E90231C0E9004579E700000000144013
:101F50000000F03F300000000000F0430000E03FD0
:101F60002DE9FF4F95B09A46884606460025EEE1DA
:101F7000252877D100242746F94A0121039400E05F
:101F8000044316F8013F203B01FA03F01042F7D159
:101F900030782A2811D06FF02F033078A0F130026A
:101FA000092A16D8039A44F0020402EB820203EBDA
:101FB00042021044761C0390EFE758F8042B03927A
:101FC000002A03DA504244F40054039044F002041F
:101FD000761C30782E2816D116F8010F44F0040430
:101FE0002A280DD06FF02F023078A0F13003092B92
:101FF00009D807EB870302EB4303C718761CF3E706
:1020000058F8047B761C30786C280FD006DC4C28FE
:1020100017D068280DD06A2814D104E0742810D095
:102020007A280FD10DE044F400140AE044F480143F
:1020300001E044F440147278824202D104F5801425
:10204000761C761C307866280BD013DC582877D0A5
:1020500009DC002875D04528F6D04628F4D047285A
:102060001AD193E118E0632835D0642879D0652827
:1020700012D18BE1702873D008DC6728F1D0692871
:102080006FD06E280DD06F2806D1ACE073282CD00D
:10209000752874D0782853D05246179990476D1CF4
:1020A00054E1C4F30250022809D003280DD0D8F817
:1020B000001004280DD00D6008F1040846E1D8F89E
:1020C0000010EA17C1E90052F6E7D8F800100D80B9
:1020D000F2E70D70F0E718F8041B8DF800100020EF
:1020E0008DF80100EB46012003E058F804BB4FF0E7
:1020F000FF3061074FF0000102D40DE009F101014A
:102100008946B9420FDA8145F8DB1BF8091000292E
:10211000F4D108E009F1010189468142FADB1BF89C
:1021200009100029F6D103985346A0EB0907214670
:102130003846179A00F080FA284400EB090507E0BA
:1021400044E008E10DE01BF8010B52461799904757
:10215000B9F10109F7D2534621463846179AF2E001
:1021600039E00A21C4F302524FF0000B0091022A19
:1021700006D058F8040BC117032A09D00AE023E05F
:1021800008F1070020F00702F2E80201904605E09E
:1021900000B2C117042A01D140B2C117002906DAE2
:1021A0000A460021404261EB02012D2202E0220595
:1021B00004D52B228DF80420012203E0E20701D090
:1021C0002022F7E7914657E00A2100E010214FF066
:1021D000000B00910BE010214FF0000B44F00404C1
:1021E0000827009103E008204FF0000B0090C4F393
:1021F0000252022A05D058F8040B0021032A08D005
:1022000008E008F1070020F00702F2E8020190461A
:1022100003E080B2042A00D1C0B24FF000092207C7
:102220002AD53278702A07D0DDF800C08CF0100C67
:102230005CEA0B0C05D00EE040228DF80420012250
:1022400008E050EA010306D030238DF804308DF801
:10225000052002229146009B83F0080353EA0B03FA
:102260000AD150EA010201D1620705D530228DF86A
:1022700004204FF001097F1E3278582A04D039A279
:102280000C920CAA02920BE03BA2F9E75B46009A83
:10229000FDF7C7FF0C9B9B5C029A521E02921370C3
:1022A00050EA0102F2D1029804A9081A00F1200BA9
:1022B000600702D524F4803400E001275F4502DD89
:1022C000A7EB0B0000E0002000EB0B01009003984F
:1022D0004944401A0390E00306D453462146179A16
:1022E000039800F0A9F90544002706E001A852462A
:1022F000C05D179990476D1C7F1C4F45F6DBE003CE
:102300000CD553462146179A039800F095F90544D9
:1023100004E030205246179990476D1C0099481EE2
:1023200000900029F5DC08E00298029952460078F6
:10233000491C0291179990476D1CBBF10001ABF14C
:10234000010BF1DC5BE100F065F90544761C3078A7
:1023500000287FF40DAE19B02846BDE8F08F0000CC
:10236000092801003031323334353637383961626B
:10237000636465660000000030313233343536372F
:10238000383941424344454600000000600700D40C
:10239000062708F1070020F00700F0E80223804636
:1023A00003F0004C5FEA0C0001D097A009E0200583
:1023B00001D596A005E0E00701D095A001E0AFF2BD
:1023C0004C001390307823F0004365280CD006DCD5
:1023D000452809D046281DD047287FD13BE06628F4
:1023E00018D067287AD136E00021112F01DB1120A7
:1023F00000E0781CCDE9000104A90CA8FFF7EEFC71
:10240000DDE90D010C9A4FF0000B07F10109109264
:1024100000914EE04FF000400097CDE9011004A973
:102420000CA8FFF7DBFCDDE90D020C9B0F994FF0C8
:10243000000B91461093009211B9791C00EB010931
:10244000B7EB090003D4C0F1FF3B07F10109A9EB89
:102450000700019042E0012F00DA01270021112F2F
:1024600001DD112000E03846CDE9000104A90CA8E7
:10247000FFF7B4FCDDE90D010C9A00914FF0000B61
:10248000B946109221070FD4009A4A4503DA9146C3
:1024900001E0A9F10109B9F1010F05DD109AA9F1D7
:1024A0000101515C3029F4D0B84202DA10F1040F76
:1024B00003DA0121CDE9011010E0002803DC834498
:1024C000A9EB000102E0411C494500DD8946A0EB73
:1024D0000B00401C01904FF000400290200705D4F3
:1024E0000198484502DB4FF0FF30019000208DF845
:1024F0004B0002980DF14B07B0F1004F25D00220A0
:102500000C902B200D90029800280CDA404202908B
:102510002D200D9007E00A210298FDF76CFE303166
:10252000029007F8011D0C99481E0C900029F2DC5E
:1025300002980028EFD1791E0D980870307800F0CD
:10254000200040F0450007F8020D11A8C01BC01D77
:1025500002901398007800B1012000EB0901019866
:1025600001EBE071029801440398401A401E039069
:10257000E00306D453462146179A039800F05CF80E
:1025800005441398007818B15246179990476D1C6E
:10259000E00323D553462146179A039800F04CF8E0
:1025A00005441BE0BBF1000F07DB0098584504DD34
:1025B0001098179910F80B0001E017993020524637
:1025C000904701980BF1010B401E05F101050190A8
:1025D00004D12E205246179990476D1CB9F1000185
:1025E000A9F10109DEDC05E017F8010B5246179945
:1025F00090476D1C0299481E02900029F4DC534656
:102600002146179A03989EE62D0000002B0000003B
:10261000200000002DE9F041044600251E46174623
:10262000880404D405E039462020B0476D1C641EA0
:10263000F9D52846BDE8F0812DE9F0410446002592
:102640001E469046C80301D5302700E020278804A5
:1026500004D505E041463846B0476D1C641EF9D5E7
:102660002846BDE8F0810A68531C0B601070704763
:10267000024908800121024A11707047220100209E
:10268000200100204FF44070FEF732FAB420FFF72B
:10269000EFFF524800F056F9514800F053F9514805
:1026A00000F050F9504800F04DF9504800F04AF958
:1026B0004F4800F047F94948C1694EA0884748484B
:1026C000C16951A088474748C16954A08847464816
:1026D000C16957A088474548C1695AA088474448FE
:1026E000C1695DA0884777E03C49486A80475F49F7
:1026F00008600846006858B108460068FDF774FD98
:1027000004463648C36959482146026858A098478C
:102710003349486A80475E4908600846006858B1F6
:1027200008460068FDF760FD04462D48C369584817
:102730002146026857A098472A49486A80475D4960
:1027400008600846006858B108460068FDF74CFD6F
:1027500004462448C36957482146026856A0984752
:102760002149486A80475C4908600846006858B1BA
:1027700008460068FDF738FD04461B48C369564803
:102780002146026855A098471849486A80475B4926
:1027900008600846006858B108460068FDF724FD47
:1027A00004461248C36955482146026854A0984718
:1027B0000F49486A80475A4908600846006858B17E
:1027C00008460068FDF710FD04460948C3695448EF
:1027D0002146026853A0984786E7000000000020C9
:1027E0002C0000205800002084000020B0000020B1
:1027F000DC0000200D0A546869732069732055417C
:10280000525431210D0A00000D0A54686973206981
:1028100073205541525432210D0A00000D0A5468AC
:102820006973206973205541525433210D0A000009
:102830000D0A54686973206973205541525434213C
:102840000D0A00000D0A5468697320697320554110
:10285000525435210D0A00000D0A5468697320692D
:1028600073205541525436210D0A00000801002002
:10287000554152543120726563656976656420253F
:10288000642062797465733A2025730D0A00000094
:102890000C010020554152543220726563656976FF
:1028A00065642025642062797465733A2025730D70
:1028B0000A00000010010020554152543320726577
:1028C0006365697665642025642062797465733A6E
:1028D0002025730D0A0000001401002055415254B8
:1028E00034207265636569766564202564206279A9
:1028F0007465733A2025730D0A000000180100204A
:1029000055415254352072656365697665642025AA
:10291000642062797465733A2025730D0A00000003
:102920001C0100205541525436207265636569765A
:1029300065642025642062797465733A2025730DDF
:102940000A00000010B588B004461CB94FF0FF30F3
:1029500008B010BDF9492068884204D10121102037
:10296000FEF7F0F82BE0F6492068884204D10121F7
:102970004804FEF7D7F822E0F2492068884204D1E3
:1029800001218804FEF7CEF819E0EF49206888425B
:1029900004D10121C804FEF7C5F810E0EB49206816
:1029A000884204D101210805FEF7BCF807E0E84998
:1029B0002068884203D101212020FEF7C3F8E549B1
:1029C000A068884204D101210846FEF79BF834E054
:1029D000E149A068884204D101210220FEF792F863
:1029E0002BE0DE49A068884204D101210420FEF7D3
:1029F00089F822E0DA49A068884204D10121082040
:102A0000FEF780F819E0D749A068884204D1012177
:102A10001020FEF777F810E0D349A068884204D16F
:102A200001212020FEF76EF807E0D049A068884217
:102A300003D101214020FEF765F8C649206988428C
:102A400004D101210846FEF75DF834E0C24920694F
:102A5000884204D101210220FEF754F82BE0BF493F
:102A60002069884204D101210420FEF74BF822E0BE
:102A7000BB492069884204D101210820FEF742F8B1
:102A800019E0B8492069884204D101211020FEF7DD
:102A900039F810E0B4492069884204D1012120208E
:102AA000FEF730F807E0B1492069884203D10121DF
:102AB0004020FEF727F802208DF8080000208DF84E
:102AC0000A00E068019001208DF80B0002208DF8CB
:102AD000090001A9A068FDF75EFF02208DF808003B
:102AE00000208DF80A006069019001208DF80B002C
:102AF00002208DF8090001A92069FDF74CFF8F49DC
:102B00002068884271D1E268012A01D1002253E095
:102B1000E268022A01D101224EE0E268042A01D1D2
:102B2000022249E0E268082A01D1032244E0E26877
:102B3000102A01D104223FE0E268202A01D10522B7
:102B40003AE0E268402A01D1062235E0E268802AB4
:102B500001D1072230E0E268B2F5807F01D108227E
:102B60002AE0E268B2F5007F01D1092224E0E268A0
:102B7000B2F5806F01D10A221EE0E268B2F5006F63
:102B800001D10B2218E0E268B2F5805F01D10C227E
:102B900012E0E268B2F5005F01D10D220CE0E268BC
:102BA000B2F5804F01D10E2206E0E268B2F5004F87
:102BB00001D10F2200E0002211460722A068FDF794
:102BC00032FF6269012A01D1002254E06269022ABF
:102BD00001D101224FE06269042A01D102224AE0B8
:102BE0006269082A02D1032245E04AE06269102A9C
:102BF00001D104223FE06269202A01D105223AE096
:102C00006269402A01D1062235E06269802A01D139
:102C1000072230E06269B2F5807F01D108222AE004
:102C20006269B2F5007F01D1092224E06269B2F540
:102C3000806F01D10A221EE06269B2F5006F01D1F6
:102C40000B2218E06269B2F5805F01D10C2212E01C
:102C50006269B2F5005F01D10D220CE06269B2F544
:102C6000804F01D10E2206E06269B2F5004F01D11A
:102C70000F2200E00022114607222069FDF7D3FE53
:102C8000E8E32F492068884257D1E268012A01D140
:102C900000226EE0E268022A01D1012269E0E268C6
:102CA000042A01D1022264E0E268082A01D1032249
:102CB0005FE0E268102A01D104225AE0E268202A8B
:102CC00001D1052255E0E268402A01D1062250E0F8
:102CD000E268802A01D107224BE0E268B2F5807FEA
:102CE00001D1082245E0E268B2F5007F01D1092256
:102CF0003FE0E268B2F5806F01D10A2239E0E26874
:102D0000B2F5006F01D10B2233E0E268B2F5805FCB
:102D100001D10C222DE0E268B2F5005F01D10D2255
:102D200027E0E268B2F5804F01D10E2221E0E2688F
:102D3000B2F5004F1CD10F221BE07EE000100140D5
:102D40000044004000480040004C0040005000405B
:102D5000001401400000024000040240000802404C
:102D6000000C024000100240001402400018024013
:102D7000002211460722A068FDF755FE6269012A6C
:102D800001D1002253E06269022A01D101224EE002
:102D90006269042A01D1022249E06269082A01D14C
:102DA000032244E06269102A01D104223FE06269F3
:102DB000202A01D105223AE06269402A01D1062287
:102DC00035E06269802A01D1072230E06269B2F5FC
:102DD000807F01D108222AE06269B2F5007F01D12B
:102DE000092224E06269B2F5806F01D10A221EE057
:102DF0006269B2F5006F01D10B2218E06269B2F589
:102E0000805F01D10C2212E06269B2F5005F01D14E
:102E10000D220CE06269B2F5804F01D10E2206E06E
:102E20006269B2F5004F01D10F2200E00022114685
:102E300007222069FDF7F7FD0CE3F8492068884276
:102E400071D1E268012A01D1002253E0E268022A2E
:102E500001D101224EE0E268042A01D1022249E0B8
:102E6000E268082A01D1032244E0E268102A01D175
:102E700004223FE0E268202A01D105223AE0E2681C
:102E8000402A01D1062235E0E268802A01D10722DA
:102E900030E0E268B2F5807F01D108222AE0E268E2
:102EA000B2F5007F01D1092224E0E268B2F5806F1B
:102EB00001D10A221EE0E268B2F5006F01D10B22B7
:102EC00018E0E268B2F5805F01D10C2212E0E268FE
:102ED000B2F5005F01D10D220CE0E268B2F5804F3F
:102EE00001D10E2206E0E268B2F5004F01D10F22B7
:102EF00000E0002211460722A068FDF794FD6269F8
:102F0000012A01D1002254E06269022A01D1012282
:102F10004FE06269042A01D102224AE06269082A6C
:102F200002D1032245E04AE06269102A01D104225D
:102F30003FE06269202A01D105223AE06269402A15
:102F400001D1062235E06269802A01D1072230E0F2
:102F50006269B2F5807F01D108222AE06269B2F588
:102F6000007F01D1092224E06269B2F5806F01D1AE
:102F70000A221EE06269B2F5006F01D10B2218E04F
:102F80006269B2F5805F01D10C2212E06269B2F58C
:102F9000005F01D10D220CE06269B2F5804F01D1D2
:102FA0000E2206E06269B2F5004F01D10F2200E067
:102FB0000022114607222069FDF735FD4AE29849B3
:102FC0002068884271D1E268012A01D1002253E0D1
:102FD000E268022A01D101224EE0E268042A01D10E
:102FE000022249E0E268082A01D1032244E0E268B3
:102FF000102A01D104223FE0E268202A01D10522F3
:103000003AE0E268402A01D1062235E0E268802AEF
:1030100001D1072230E0E268B2F5807F01D10822B9
:103020002AE0E268B2F5007F01D1092224E0E268DB
:10303000B2F5806F01D10A221EE0E268B2F5006F9E
:1030400001D10B2218E0E268B2F5805F01D10C22B9
:1030500012E0E268B2F5005F01D10D220CE0E268F7
:10306000B2F5804F01D10E2206E0E268B2F5004FC2
:1030700001D10F2200E0002211460822A068FDF7CE
:10308000D2FC6269012A01D1002254E06269022A5D
:1030900001D101224FE06269042A01D102224AE0F3
:1030A0006269082A02D1032245E04AE06269102AD7
:1030B00001D104223FE06269202A01D105223AE0D1
:1030C0006269402A01D1062235E06269802A01D175
:1030D000072230E06269B2F5807F01D108222AE040
:1030E0006269B2F5007F01D1092224E06269B2F57C
:1030F000806F01D10A221EE06269B2F5006F01D132
:103100000B2218E06269B2F5805F01D10C2212E057
:103110006269B2F5005F01D10D220CE06269B2F57F
:10312000804F01D10E2206E06269B2F5004F01D155
:103130000F2200E00022114608222069FDF773FCEF
:1031400088E138492068884267D1E268012A01D1C4
:10315000002253E0E268022A01D101224EE0E26837
:10316000042A01D1022249E0E268082A01D103229F
:1031700044E0E268102A01D104223FE0E268202AFC
:1031800001D105223AE0E268402A01D1062235E069
:10319000E268802A01D1072230E0E268B2F5807F40
:1031A00001D108222AE0E268B2F5007F01D10922AC
:1031B00024E0E268B2F5806F01D10A221EE0E268E5
:1031C000B2F5006F01D10B2218E0E268B2F5805F22
:1031D00001D10C2212E0E268B2F5005F01D10D22AC
:1031E0000CE0E268B2F5804F01D10E2206E0E26801
:1031F000B2F5004F01D10F2200E000221146082253
:10320000A068FDF710FC6269012A01D100225AE092
:103210006269022A08D1012255E05AE000480040C4
:10322000004C0040005000406269042A01D1022293
:1032300049E06269082A01D1032244E06269102A48
:1032400001D104223FE06269202A01D105223AE03F
:103250006269402A01D1062235E06269802A01D1E3
:10326000072230E06269B2F5807F01D108222AE0AE
:103270006269B2F5007F01D1092224E06269B2F5EA
:10328000806F01D10A221EE06269B2F5006F01D1A0
:103290000B2218E06269B2F5805F01D10C2212E0C6
:1032A0006269B2F5005F01D10D220CE06269B2F5EE
:1032B000804F01D10E2206E06269B2F5004F01D1C4
:1032C0000F2200E00022114608222069FDF7ABFB27
:1032D000C0E0AC492068884271D1E268012A01D17E
:1032E000002253E0E268022A01D101224EE0E268A6
:1032F000042A01D1022249E0E268082A01D103220E
:1033000044E0E268102A01D104223FE0E268202A6A
:1033100001D105223AE0E268402A01D1062235E0D7
:10332000E268802A01D1072230E0E268B2F5807FAE
:1033300001D108222AE0E268B2F5007F01D109221A
:1033400024E0E268B2F5806F01D10A221EE0E26853
:10335000B2F5006F01D10B2218E0E268B2F5805F90
:1033600001D10C2212E0E268B2F5005F01D10D221A
:103370000CE0E268B2F5804F01D10E2206E0E2686F
:10338000B2F5004F01D10F2200E0002211460822C1
:10339000A068FDF748FB6269012A01D1002254E0D0
:1033A0006269022A01D101224FE06269042A01D137
:1033B00002224AE06269082A02D1032245E049E07C
:1033C0006269102A01D104223FE06269202A01D1FA
:1033D00005223AE06269402A01D1062235E062699D
:1033E000802A01D1072230E06269B2F5807F01D1E5
:1033F00008222AE06269B2F5007F01D1092224E0A7
:103400006269B2F5806F01D10A221EE06269B2F5ED
:10341000006F01D10B2218E06269B2F5805F01D123
:103420000C2212E06269B2F5005F01D10D220CE0BE
:103430006269B2F5804F01D10E2206E06269B2F5F1
:10344000004F01D10F2200E000221146082220691E
:10345000FDF7E9FA606804900020ADF81C000C202C
:10346000ADF81A000020ADF81800ADF81600ADF860
:10347000140004A92068FDF7C3FF012240F2244193
:103480002068FDF797FF40492068884201D1252038
:103490001EE03E492068884201D1262018E03C49C0
:1034A0002068884201D1272012E03A4920688842EA
:1034B00001D134200CE038492068884201D1352000
:1034C00006E030492068884201D1472000E0002012
:1034D0008DF80C0001208DF80F008DF80D008DF88F
:1034E0000E0003A8FDF7C8FA2046FEF703FB2046AE
:1034F000FEF77CFA01212068FDF710FF22492068C1
:10350000884205D12548E06125482062254860624F
:103510001E492068884205D12348E0612348206283
:10352000234860621A492068884205D12148E06139
:10353000214820622148606216492068884205D1EE
:103540001F48E0611F4820621F48606212492068DE
:10355000884205D11D48E0611D4820621D48606217
:1035600008492068884205D11B48E0611B48206259
:103570001B4860621B48A062012020760020FFF7F4
:10358000E7B9000000140140001001400044004071
:1035900000480040004C0040005000402515000845
:1035A000C515000881150008F115000891160008DE
:1035B0004D160008BD1600085D1700081917000811
:1035C0008917000829180008E51700085518000891
:1035D000F5180008B118000821190008C1190008E1
:1035E0007D190008DD1A00080836000800000020D8
:1035F0003401000034070008603600083401002060
:103600004466000014150008111410014033C20173
:10361000130240420219080217041244792C49236C
:1036200004180240085A482C5A0450290809162D3B
:103630005A4C2C5A082C290809162C9A502C321056
:103640006A0C8C01135A14DC192C424019080237F9
:10365000802D01020304040500060708090000008C
:04000005080001AD41
:00000001FF
