:020000040800F2
:1000000030070020310200087F070008770700084A
:100010007B0700081905000815090008000000000A
:100020000000000000000000000000004302000883
:100030001D050008000000004702000849020008F2
:100040004B0200084B0200084B0200084B0200085C
:100050004B0200084B0200084B0200084B0200084C
:100060004B0200084B0200084B0200084B0200083C
:100070004B0200084B0200084B0200084B0200082C
:100080004B0200084B0200084B0200084B0200081C
:100090004B0200084B0200084B0200084B0200080C
:1000A0004B0200084B0200084B0200084B020008FC
:1000B0004B0200084B0200084B0200084B020008EC
:1000C0004B0200084B0200084B0200084B020008DC
:1000D0004B0200084B0200084B0200084B020008CC
:1000E0004B0200084B0200084B0200084B020008BC
:1000F0004B0200084B0200084B0200084B020008AC
:100100004B0200084B0200084B0200084B0200089B
:100110004B0200084B0200084B0200084B0200088B
:100120004B0200084B0200084B0200084B0200087B
:100130004B0200084B0200084B0200084B0200086B
:100140004B0200084B0200084B0200084B0200085B
:100150004B0200084B0200084B0200084B0200084B
:100160004B0200084B0200084B0200084B0200083B
:100170004B0200084B0200084B0200084B0200082B
:100180004B0200084B02000800F002F800F040F8B3
:100190000AA090E8000C82448344AAF10107DA45E2
:1001A00001D100F035F8AFF2090EBAE80F0013F0F4
:1001B000010F18BFFB1A43F00103184744DA00008F
:1001C00064DA0000103A24BF78C878C1FAD8520720
:1001D00024BF30C830C144BF04680C6070470000C1
:1001E0000023002400250026103A28BF78C1FBD840
:1001F000520728BF30C148BF0B6070471FB502F0DF
:10020000DFF89DE8030000F0A9F81FBD10B510BD90
:1002100000F000F91146FFF7F1FF02F037F800F0A7
:100220001EF903B4FFF7F2FF03BC00F04FF9000022
:100230000948804709480047FEE7FEE7FEE7FEE77A
:10024000FEE7FEE7FEE7FEE7FEE7FEE704480549B6
:10025000054A064B70470000AD08000889010008F8
:100260003001002030070020300300203003002040
:1002700070B5064600F056F8056806F10B0020F050
:100280000704B4429CBF002070BD2B466A68BAB117
:100290001068A04210D304F1080188423CBF5068A6
:1002A000586007D35168101941601168091B01603B
:1002B00058601460101D70BD13465268002AE7D1C3
:1002C0002146284600F036F80028DED170BD70B512
:1002D0000446051F00F026F80068002C14BF44688F
:1002E00070BD002C18BFAC423CBF20466468F8D3F8
:1002F00001680A18AA4218BF456003D12A6805465A
:100300001144016028684119A1421CBF6C6070BD96
:100310006168696021680844286070BD7047704753
:100320007047000000487047D400002070477047B5
:100330007047704738B504460A4600206946AFF357
:100340000080002808BF38BD02460099204600F012
:100350003FF8012038BD012000F054B8F8B5AFF3E4
:100360000080054600200C46102000BF0646A81954
:10037000A0420DD9324669460020AFF30080070045
:1003800008BF00F03FF80098A04218BF0546C41906
:10039000FFF7C8FF05600746F01D20F0070046196B
:1003A000284600F00AF8B44208BFF8BDA21B314647
:1003B0003868BDE8F84000F00BB800210160C0E9E2
:1003C000011070471020704700487047CC00002093
:1003D000034640688C46002818BF88423CBF03464D
:1003E0004068F8D318681844884207D00CF103001D
:1003F00020F00700001D411A521A0146081D0A602C
:10040000FFF765BF10B500F039F8BDE8104000F007
:100410002FB870477546FFF7D7FFAE46050069460F
:10042000534620F00700854618B020B5FFF70EFFB1
:10043000BDE820404FF000064FF000074FF00008E5
:100440004FF0000B21F00701AC46ACE8C009ACE866
:10045000C009ACE8C009ACE8C0098D46704710B5CA
:100460000446AFF300802046BDE81040FFF7D9BE38
:10047000002801D000F02AB87047000010B501280C
:1004800005D0002103A000F027F8012010BD09A12C
:10049000F8E7000053494752544D454D3A204F75F7
:1004A00074206F662068656170206D656D6F72796C
:1004B000000000003A2048656170206D656D6F7224
:1004C0007920636F72727570746564000149182039
:1004D000ABBEFEE72600020070B505460C460A20BA
:1004E00000E06D1C00F011F835B128780028F8D133
:1004F00002E0641C00F009F814B120780028F8D15B
:10050000BDE870400A20AFF3008008B569468DF859
:1005100000000320ABBE08BD00BFFEE7704700002F
:1005200051B18200A2F1C042126842F00103820080
:10053000A2F1C042136009E08200A2F1C042126839
:10054000034B1A408300A3F1C0431A6070470000B8
:10055000FEFF0F0030B50021002200230468A40034
:10056000A4F1C0442168424C2140D0E901452C430C
:10057000C5682C4305692C4345692C4385692C4388
:10058000C5692C43056A2C43456A2C43856A2C4374
:10059000C56A2C43056B2C4321430468A400A4F1D5
:1005A000C04421608468082C0BD10468A400A4F125
:1005B000C044246844F040050468A400A4F1C04489
:1005C00025600468641CA400A4F1C044226802F001
:1005D0004042446B2468456B6D6844EA0514456BE2
:1005E000AD6844EA0524456BAD8944EA0544456B92
:1005F0002D8A44EA0554456B2D7D44EA0564456B1C
:10060000AD692C4322430468641CA400A4F1C044D7
:100610002260C46AB4F5804F20D10468A400A4F11C
:10062000C044D4F80431134C2340846B2468856B98
:100630006D6844EA0514856BAD6844EA0524856B52
:10064000AD8944EA0544856BAD692C4323430468B6
:10065000A400A4F1C044C4F8043107E06FF0704571
:100660000468A400A4F1C044C4F8045130BD0000E3
:100670008000F7FF0000F0CFF0B50A46002100230C
:10068000002400BF3DE0012505FA01F3156805EAE5
:1006900003049C4234D105684F000326BE40B54395
:1006A000056015794E00B54006683543056015793B
:1006B000012D02D01579022D16D185684F00032631
:1006C000BE40B543856055794E00B54086683543D8
:1006D0008560456801268E40B5434560456896793A
:1006E0008E40B6B235434560C5684F000326BE4014
:1006F000B543C560D5794E00B540C6683543C56081
:10070000491C1029BFD3F0BDF0B5002300244D07CC
:10071000ED0E02FA05F3CE1000F1200555F8265033
:100720004E07F70E0F26BE40B543CF1000F120064E
:1007300046F82750CE1000F1200555F8265045EA1E
:100740000304CE1000F1200545F82640F0BD014617
:100750000C2901D104207047102901D10420FAE7A7
:10076000182901D10420F6E7202901D10420F2E75D
:100770004FF0FF30EFE700BFFEE700BFFEE7704736
:1007800029B1064A12680243044B1A6004E0034A86
:1007900012688243014B1A607047000030380240F3
:1007A00029B1064A12680243044B1A6004E0034A66
:1007B00012688243014B1A607047000038380240CB
:1007C0000CB50020019000903448006840F480305F
:1007D0003249086000BF3148006800F400300090E2
:1007E0000198401C0190009818B90198B0F5A04FED
:1007F000F1D12A48006800F4003010B101200090C7
:1008000001E0002000900098012846D123484030A4
:10081000006840F08050214940310860204800685D
:1008200040F440401E4908601C48083000681B49DD
:10083000083108600846006840F400400860084637
:10084000006840F4A05008601648091F0860081F9F
:10085000006840F08070091F086000BF0F48006802
:1008600000F000700028F9D040F205700E490860D1
:100870000A480830006820F0030008490831086081
:100880000846006840F00200086000BF03480830D6
:10089000006800F00C000828F8D10CBD00380240B8
:1008A0000070004008544007003C024010B5154855
:1008B000006840F47000134908601348006840F075
:1008C00001001149086000200F49083108600E48F6
:1008D00000680E4908400C4908600D48091D086071
:1008E000081F006820F48020091F086000200649C6
:1008F0000C310860FFF764FF4FF000600149803958
:10090000086010BD88ED00E000380240FFFFF6FEF1
:100910001030002400BFFEE72DE9F04104460D46EB
:1009200000276688A088464300221146204600F032
:10093000E0F9204600F008FE00BF02E00348058011
:100940007F1CB742FAD3BDE8F081000000000260CE
:100950002DE9FF4F81B00F4615469846DDE90EABF5
:10096000A8EB0700401C1FFA80F9AAEB0500401C09
:1009700080B20090002416E0281982B2394601980E
:1009800000F0B7F9019800F0DFFD002607E004FB56
:1009900009603BF8100007490880701C86B24E457C
:1009A000F5DB601C84B200988442E5DB05B0BDE84D
:1009B000F08F00000000026010B504460CB12078F2
:1009C00010B94FF0FF3010BDA068FFF780FC002089
:1009D000A060207000BFF6E7014621E045F2082242
:1009E0004FF0E0235A6100229A611A46126942F0E0
:1009F00001021A6100BF4FF0E022106900F001020D
:100A00001AB100F48032002AF5D04FF0E0221269CA
:100A100022F001024FF0E0231A6100229A6100BF28
:100A2000081EA1F10101D9D170472DE9F047814697
:100A30000E4617469846DDF820A00025444649E0BA
:100A4000781B82B2301B81B25346484600F0A0F8B2
:100A5000781B82B2301981B25346484600F098F8AC
:100A6000381982B2701B81B25346484600F090F8A4
:100A7000381B82B2701B81B25346484600F088F89A
:100A8000781982B2301981B25346484600F080F896
:100A9000381B82B2701981B25346484600F078F88C
:100AA000381982B2701981B25346484600F070F886
:100AB000781982B2301B81B25346484600F068F87C
:100AC0006D1C05FB05F004FB040108FB08F08142E6
:100AD00000DD641EA542B3DDBDE8F0872DE9FF4FC0
:100AE00085B0894692460020049003900898A0EBB8
:100AF00009051298A0EB0A06CDF80890CDF804A0DD
:100B0000002D01DD012705E00DB9002702E04FF0BF
:100B1000FF376D42002E02DD4FF0010806E016B9E6
:100B20004FF0000802E04FF0FF387642B54201DD99
:100B30002C4600E034464FF0000B23E0019882B2CF
:100B4000029881B2139B059800F022F8049828447B
:100B500004900398304403900498A04205DD049863
:100B6000001B04900298384402900398A04205DDCF
:100B70000398001B03900198404401900BF1010081
:100B80001FFA80FB601C8345D8DD09B0BDE8F08FFB
:100B90002DE9F04105460E4617461C463A463146B9
:100BA000284600F0A6F8284600F0CEFC0148048054
:100BB000BDE8F081000002602DE9FC5F82460E4630
:100BC00017469846DDE90CB406EB0800401E1FFAF4
:100BD00080F907EB0B00401E85B24B463A46314682
:100BE0005046CDE90074FFF779FF33463A46314667
:100BF0005046CDE90054FFF771FF4B462A46314677
:100C00005046CDE90054FFF769FF4B463A46494646
:100C10005046CDE90054FFF761FFBDE8FC9F00009E
:100C20002DE9FF4F81B00C4615461F46DDE90E9AAF
:100C3000E019401E1FFA80FB05EB0900401E80B240
:100C400000902E4614E032462146019800F051F8FB
:100C5000019800F079FCA04606E00848A0F800A042
:100C600008F101001FFA80F8D845F6DD701C86B245
:100C700000988642E7DD05B0BDE8F08F0000026015
:100C800010B50246012000E050430B1EA1F1010106
:100C9000FAD110BD08B5034800880090BDF80000E7
:100CA00008BD0000000002602DE9F04705460E4631
:100CB00017460024A046A1463A463146284600F091
:100CC00018F82E2000F02EFCFFF7E4FF0446FFF793
:100CD000E1FF0446FFF7DEFF814604F0FF08E01263
:100CE000C0024FEAA80140EA411040EAE920BDE80D
:100CF000F0872DE9F04106460C461546B768F88D99
:100D000000F010FC201200F019FCE0B200F016FC1C
:100D1000388E00F007FC281200F010FCE8B200F05A
:100D20000DFCBDE8F08100002DE9FC5F804689469E
:100D300017461E460E9C01972046E31704EB53739B
:100D4000DB1021464FEAE47C04EB5C7C4FEAEC0CC0
:100D5000A4EBCC0CBCF1000F02D04FF0010C01E071
:100D60004FF0000C6344224604EBD27C4FEA6C0C3B
:100D700003FB0CF3DBB20093A6F12000C6B2002502
:100D80005EE00C2C07D106EB4600304901EB8000F9
:100D900010F805A01BE0102C05D12D4800EB061023
:100DA00010F805A013E0182C07D106EB46002949DE
:100DB00001EB001010F805A009E0202C05D1264811
:100DC00000EB861010F805A001E0BDE8FC9F4FF095
:100DD000000B2FE00AF0800030B13A464946404609
:100DE0000C9BFFF7D5FE07E00F9828B93A46494615
:100DF00040460D9BFFF7CCFE4FEA4A604FEA106A6F
:100E0000781C87B2B8F80400B84200DCDDE701982E
:100E1000381AA0420AD1019F09F101001FFA80F996
:100E2000B8F80200484500DCCFE706E00BF101000E
:100E300000F0FF0BBBF1080FCCDB00BF681CC5B294
:100E4000009885429DDB00BFBFE70000CA23000871
:100E50003E2800082E2E0008FE3F00082DE9FE4F18
:100E60008246894693469846DDE90E47DDE90C56F1
:100E700033E00C2C08D143465A46494650468DE88B
:100E8000E00000F031F822E0102C08D143465A4629
:100E9000494650468DE8E00000F090F817E0182C25
:100EA00008D143465A46494650468DE8E00000F0D6
:100EB000EFF80CE0202C08D143465A4649465046EC
:100EC0008DE8E00000F054F901E0BDE8FE8F08F184
:100ED000030809EB04001FFA80F998F800000028C5
:100EE000C7D100BFF1E700002DE9FF4F81B00D46EB
:100EF00091461E460C20FFF72AFC1FFA80FB1820A3
:100F00000090AA46002451E0C4EBC4002A4911F81D
:100F100020003178884246D1C4EBC400264901EB59
:100F200080004078717888423DD14A462946019830
:100F3000FFF7DFFE002733E04FF000082AE0C4EBA4
:100F4000C4001D4901EB8000001DC05D012101FAB4
:100F500008F1084030B14A4629460E9B0198FFF738
:100F600017FE07E0109828B94A4629460F9B0198BA
:100F7000FFF70EFE681C85B2A5EB0A000C2805D110
:100F8000554609F101001FFA80F906E008F1010059
:100F900000F0FF08B8F1080FD1DB00BF781CC7B222
:100FA00000988742C8DB00BF601C84B25C45ABDBA5
:100FB00005B0BDE8F08F0000BE5700082DE9FF4FD7
:100FC00081B00D4691461E461020FFF7C0FB1FFA68
:100FD00080FB20200090AA46002451E004EBC400CE
:100FE0002A4911F820003178884246D104EBC40028
:100FF000264901EB80004078717888423DD14A460D
:1010000029460198FFF775FE002733E04FF00008EE
:101010002AE004EBC4001D4901EB8000001DC05D07
:10102000012101FA08F1084030B14A4629460E9BD9
:101030000198FFF7ADFD07E0109828B94A46294608
:101040000F9B0198FFF7A4FD681C85B2A5EB0A0071
:10105000102805D1554609F101001FFA80F906E074
:1010600008F1010000F0FF08B8F1080FD1DB00BF64
:10107000781CC7B200988742C8DB00BF601C84B2EE
:101080005C45ABDB05B0BDE8F08F00002E580008D2
:101090002DE9FF4F81B00D4691461E461820FFF7FF
:1010A00056FB1FFA80FB48200090AA46002457E018
:1010B00004EB440000EB04102C4911F820003178B7
:1010C00088424AD104EB440000EB0410274901EBAD
:1010D00080004078717888423FD14A46294601987D
:1010E000FFF707FE002735E04FF000082CE004EB87
:1010F000440000EB04101D4901EB8000001DC05DA1
:10110000012101FA08F1084030B14A4629460E9BF8
:101110000198FFF73DFD07E0109828B94A46294697
:101120000F9B0198FFF734FD681C85B2A5EB0A0000
:10113000182805D1554609F101001FFA80F906E08B
:1011400008F1010000F0FF08B8F1080FCFDB00BF85
:10115000781CC7B200988742C6DB00BF601C84B20F
:101160005C45A5DB05B0BDE8F08F0000BE58000867
:101170002DE9FF4F81B00D4691461E462020FFF716
:10118000E6FA1FFA80FB80200090AA46002451E076
:1011900004EB44102A4911F820003178884246D1E6
:1011A00004EB4410264901EB8000407871788842B6
:1011B0003DD14A4629460198FFF79BFD002733E0C1
:1011C0004FF000082AE004EB44101D4901EB8000B9
:1011D000001DC05D012101FA08F1084030B14A4606
:1011E00029460E9B0198FFF7D3FC07E0109828B919
:1011F0004A4629460F9B0198FFF7CAFC681C85B236
:10120000A5EB0A00202805D1554609F101001FFA77
:1012100080F906E008F1010000F0FF08B8F1080FBE
:10122000D1DB00BF781CC7B200988742C8DB00BF83
:10123000601C84B25C45ABDB05B0BDE8F08F0000FC
:10124000EE5900082DE9FF4F2DED020B2DED028B1D
:1012500087B00F46B0EE408A1D46DDE91A6ADDE927
:101260001889304606EBD071C1F3470BB5EEC08A42
:10127000F1EE10FA10D22D23CDE9026ACDE90089F2
:1012800039460D9A0B98FFF74FFD07EB0B0087B21D
:10129000B1EE480AB0EE408A9FED210A28EE000A1E
:1012A000BCEEC00A8DED050A002430E0281B411E6B
:1012B0000A20FFF7E5FC0599B1FBF0F00A21B0FB2D
:1012C000F1F201FB12000690281FA0420FD100FB93
:1012D0000B7081B22E23CDE9026ACDE900890D9A07
:1012E0000B98FFF721FD601CC4B2681CC5B2CDE9A4
:1012F000026ACDE9008906983030C3B204FB0B7056
:1013000081B20D9A0B98FFF70FFD601CC4B2AC427E
:10131000CCDB07B0BDEC028B06B0BDE8F08F00005F
:1013200000401C462DE9FF4F85B00F469846DDE989
:1013300013ABDDF84890159D002436E0A9EB0400BE
:10134000411E1020FFF79CFCB8FBF0F000F00F06E8
:101350000A2E14DA1698CDE900ABCDE9025004FB51
:1013600005F0049000EBD07007EB600081B206F14D
:101370003000C3B2079A0598FFF7D6FC13E0169821
:10138000CDE900ABCDE9025004FB05F0049000EB81
:10139000D07007EB600081B206F13700C3B2079A44
:1013A0000598FFF7C1FC601CC4B24C45C6DB09B010
:1013B000BDE8F08F2DE9F0410746DDE90664002025
:1013C00035E02A25DFF870C0ACF800500D120CF1A2
:1013D000020CACF80050654629802B25DFF858C078
:1013E000ACF8005015182D120CF1020CACF800509E
:1013F0001518ACF800502C25DFF83CC0ACF80050B4
:10140000002510E094F800C094F801804CEA082C04
:10141000DFF8248008F10208A8F800C0A41C05F138
:10142000010C1FFA8CF59D42ECDB451CA8B2B042C2
:10143000C7DBBDE8F0810000FEFF01602DE9FF4F32
:1014400087B00E469946DDE915AB149F179C002026
:10145000069000253FE0781B411E0A20FFF710FC94
:10146000B9FBF0F00A21B0FBF1F201FB120806987B
:10147000D0B9781EA84217DDB8F1000F12D1189824
:10148000CDE901B4CDF800A00594039004EBD4702D
:10149000401000FB056081B22023099A0798FFF7EE
:1014A00043FC16E0012006901898CDE901B4CDF870
:1014B00000A00594039004EBD470401000FB05607D
:1014C00081B208F13000C3B2099A0798FFF72CFCEB
:1014D00000BF681CC5B2BD42BDDB0BB0BDE8F08FDC
:1014E0002DE9FF5F07460E4690461C46DDE9105B7E
:1014F000DDE90E9A10E0CDE9025BCDE9009A237890
:10150000424631463846FFF70FFC284605EBD071BE
:1015100006EB61018EB2641C20780028EBD1BDE897
:10152000FF9F000001B5BDF800000090BDF800006D
:101530000149088008BD0000FEFF016000BF0149AD
:10154000088070470000026081688A8D014B1A8014
:1015500070470000FEFF016070B505460C46284646
:10156000FFF7E0FF2046FFF7E9FF70BD10B5044626
:1015700003E04FF47A7000F005F8201EA4F1010496
:10158000F7D110BD0146C1EBC10202EB42024FF0A0
:10159000E0235A6100229A611A46126942F0010260
:1015A0001A6100BF4FF0E022106900F001021AB189
:1015B00000F48032002AF5D04FF0E022126922F0C8
:1015C00001024FF0E0231A6100229A617047000087
:1015D000F0B59FB005461DB94FF0FF301FB0F0BD0C
:1015E0003420FEF745FEA860A86810B94FF0FF3020
:1015F000F4E7AC68012084F82A002C20A0852A207A
:10160000E0852B202086FE4820604FF4004060607B
:10161000FC48A0608020E060FA482061C01460614E
:10162000F848A0612020E061F64820621020606246
:1016300001210846FFF7B4F8F149A068884204D1B7
:1016400001210846FFF79CF834E0EF49A068884282
:1016500004D101210220FFF793F82BE0EB49A068A9
:10166000884204D101210420FFF78AF822E0E549ED
:10167000A068884204D101210820FFF781F819E011
:10168000E349A068884204D101211020FFF778F8CF
:1016900010E0E049A068884204D101212020FFF732
:1016A0006FF807E0DC49A068884203D1012140209F
:1016B000FFF766F8D2492069884204D10121084623
:1016C000FFF75EF834E0D0492069884204D1012157
:1016D0000220FFF755F82BE0CC492069884204D15D
:1016E00001210420FFF74CF822E0C6492069884216
:1016F00004D101210820FFF743F819E0C44920690B
:10170000884204D101211020FFF73AF810E0C149C6
:101710002069884204D101212020FFF731F807E039
:10172000BD492069884203D101214020FFF728F8F4
:10173000B349A069884204D101210846FFF720F887
:1017400034E0B149A069884204D101210220FFF7A9
:1017500017F82BE0AD49A069884204D1012104208B
:10176000FFF70EF822E0A749A069884204D10121C1
:101770000820FFF705F819E0A549A069884204D1BF
:1017800001211020FEF7FCFF10E0A249A069884269
:1017900004D101212020FEF7F3FF07E09E49A06954
:1017A000884203D101214020FEF7EAFF9449206AD4
:1017B000884204D101210846FEF7E2FF34E0924955
:1017C000206A884204D101210220FEF7D9FF2BE0D4
:1017D0008E49206A884204D101210420FEF7D0FFFF
:1017E00022E08849206A884204D101210820FEF7BE
:1017F000C7FF19E08649206A884204D101211020E0
:10180000FEF7BEFF10E08349206A884204D101211F
:101810002020FEF7B5FF07E07F49206A884203D108
:1018200001214020FEF7ACFF75492068884204D1B1
:1018300001210846FEF7A4FF34E07349206888427E
:1018400004D101210220FEF79BFF2BE06F492068A5
:10185000884204D101210420FEF792FF22E0694969
:101860002068884204D101210820FEF789FF19E091
:1018700067492068884204D101211020FEF780FFCB
:1018800010E064492068884204D101212020FEF73D
:1018900077FF07E060492068884203D1012140209A
:1018A000FEF76EFF00264DE05C4850F826005449D4
:1018B000884204D101210846FEF762FF40E0574804
:1018C00050F826005049884204D101210220FEF739
:1018D00057FF35E0514850F826004C49884204D162
:1018E00001210420FEF74CFF2AE04C4850F8260066
:1018F0004449884204D101210820FEF741FF1FE03E
:10190000464850F826004249884204D1012110205F
:10191000FEF736FF14E0414850F826003D49884262
:1019200004D101212020FEF72BFF09E03B4850F8AD
:1019300026003949884203D101214020FEF720FFCB
:10194000701CC6B2102EAFDB02208DF80400002000
:101950008DF80600E068009000208DF80700032055
:101960008DF805006946A068FEF786FE02208DF816
:10197000040000208DF806006069009000208DF8BA
:10198000070003208DF8050069462069FEF774FE04
:1019900002208DF8040000208DF80600E069009018
:1019A00000208DF8070003208DF805006946A06926
:1019B000FEF762FE02208DF8040000208DF806007C
:1019C000606A009000208DF8070003208DF8050064
:1019D0006946206AFEF750FE01208DF804000020C1
:1019E0008DF806006068009000208DF80700022046
:1019F0008DF8050069462068FEF73EFE002627E0C8
:101A000000000240000C02400004024000080240B6
:101A100000100240001402400018024000000020A4
:101A200002208DF8040000208DF80600FE4850F8D2
:101A30002600009000208DF8070003208DF8050097
:101A4000FA4951F826006946FEF716FE701CC6B228
:101A5000102EE5DBE268012A01D1002253E0E268A2
:101A6000022A01D101224EE0E268042A01D10222B9
:101A700049E0E268082A01D1032244E0E268102A22
:101A800001D104223FE0E268202A01D105223AE098
:101A9000E268402A01D1062235E0E268802A01D1BD
:101AA000072230E0E268B2F5807F01D108222AE007
:101AB000E268B2F5007F01D1092224E0E268B2F5C4
:101AC000806F01D10A221EE0E268B2F5006F01D1F9
:101AD0000B2218E0E268B2F5805F01D10C2212E01F
:101AE000E268B2F5005F01D10D220CE0E268B2F5C8
:101AF000804F01D10E2206E0E268B2F5004F01D11D
:101B00000F2200E0002211460C22A068FEF7FCFD27
:101B10006269012A01D1002253E06269022A01D1DF
:101B200001224EE06269042A01D1022249E0626981
:101B3000082A01D1032244E06269102A01D104225B
:101B40003FE06269202A01D105223AE06269402A19
:101B500001D1062235E06269802A01D1072230E0F6
:101B60006269B2F5807F01D108222AE06269B2F58C
:101B7000007F01D1092224E06269B2F5806F01D1B2
:101B80000A221EE06269B2F5006F01D10B2218E053
:101B90006269B2F5805F01D10C2212E06269B2F590
:101BA000005F01D10D220CE06269B2F5804F01D1D6
:101BB0000E2206E06269B2F5004F01D10F2200E06B
:101BC000002211460C222069FEF79EFDE269012ADF
:101BD00001D1002253E0E269022A01D101224EE044
:101BE000E269042A01D1022249E0E269082A01D10E
:101BF000032244E0E269102A01D104223FE0E269B5
:101C0000202A01D105223AE0E269402A01D10622C8
:101C100035E0E269802A01D1072230E0E269B2F5BD
:101C2000807F01D108222AE0E269B2F5007F01D16C
:101C3000092224E0E269B2F5806F01D10A221EE098
:101C4000E269B2F5006F01D10B2218E0E269B2F54A
:101C5000805F01D10C2212E0E269B2F5005F01D190
:101C60000D220CE0E269B2F5804F01D10E2206E0B0
:101C7000E269B2F5004F01D10F2200E000221146C7
:101C80000C22A069FEF740FD626A012A01D1002200
:101C900053E0626A022A01D101224EE0626A042AFC
:101CA00001D1022249E0626A082A01D1032244E0FC
:101CB000626A102A01D104223FE0626A202A01D11F
:101CC00005223AE0626A402A01D1062235E0626AC2
:101CD000802A01D1072230E0626AB2F5807F01D10B
:101CE00008222AE0626AB2F5007F01D1092224E0CD
:101CF000626AB2F5806F01D10A221EE0626AB2F513
:101D0000006F01D10B2218E0626AB2F5805F01D149
:101D10000C2212E0626AB2F5005F01D10D220CE0E4
:101D2000626AB2F5804F01D10E2206E0626AB2F516
:101D3000004F01D10F2200E0002211460C22206A40
:101D4000FEF7E2FC0C220E213948FEF7DDFC0C22E6
:101D50000F213748FEF7D8FC0C2200213448FEF74B
:101D6000D3FC0C2201213248FEF7CEFC0C220721C5
:101D70003048FEF7C9FC0C2208212E48FEF7C4FCAF
:101D80000C2209212B48FEF7BFFC0C220A2129480E
:101D9000FEF7BAFC0C220B212648FEF7B5FC0C22FC
:101DA00011462448FEF7B0FC0C220D212148FEF715
:101DB000ABFC0C220E211F48FEF7A6FC0C220F21C3
:101DC0001C48FEF7A1FC0C2208211948FEF79CFCD8
:101DD0000C2209211648FEF797FC0C220A21144810
:101DE000FEF792FCA08BA1690883A08C216A08836E
:101DF000A089A1680883A08A21690883002008E0DF
:101E0000094931F82010094A52F820201183411C59
:101E1000C8B21028F4DB0F201890002019903C2045
:101E20001A9000201B9007E04000002000000020D6
:101E3000000C0240001002401C901D901E900920D2
:101E400011900020129008201390002014901590FB
:101E50001690179002900390049010200590002097
:101E600006900890079009900A904FF480500B90CC
:101E700000200C904FF480400D9000200E9018A888
:101E80000F9011A8109002A8FEF764FB012100201A
:101E9000FEF746FB3220FEF79FFDD320FFF742FB03
:101EA000FEF7F8FE2085FEF7F5FE2085FEF7F2FE30
:101EB0002085208D4FF6FF7101EA00202085FEF776
:101EC000E9FE218D08432085208D49F24131884269
:101ED0002BD1DD48006820F00F004FF02041C1F801
:101EE0001C010846D0F81C0120F47060C1F81C01E8
:101EF0000846D0F81C0140F00300D3490860208D4B
:101F000047F28971884208D1CF48006840F4407098
:101F10004FF02041C1F81C0107E0CB48006840F4B5
:101F200000704FF02041C1F81C01208D49F2413171
:101F300088427CD1CF20FFF7F5FA0020FFF7FEFAA8
:101F4000C120FFF7FBFA3020FFF7F8FAED20FFF78A
:101F5000E9FA6420FFF7F2FA0320FFF7EFFA122004
:101F6000FFF7ECFA8120FFF7E9FAE820FFF7DAFA49
:101F70008520FFF7E3FA1020FFF7E0FA7A20FFF759
:101F8000DDFACB20FFF7CEFA3920FFF7D7FA2C2065
:101F9000FFF7D4FA0020FFF7D1FA3420FFF7CEFA8A
:101FA0000220FFF7CBFAF720FFF7BCFA2020FFF75B
:101FB000C5FAEA20FFF7B6FA0020FFF7BFFA0020C3
:101FC000FFF7BCFAC020FFF7ADFA1B20FFF7B6FA07
:101FD000C120FFF7A7FA0120FFF7B0FAC520FFF7ED
:101FE000A1FA3020FFF7AAFA3020FFF7A7FAC7209E
:101FF000FFF798FAB720FFF7A1FA3620FFF792FA19
:102000004820FFF79BFA3A20FFF78CFA5520FFF79C
:1020100095FAB120FFF786FA0020FFF78FFA1A2011
:10202000FFF78CFAB620FFF77DFA0A2000E097E070
:10203000FFF784FAA220FFF781FAF220FFF772FA85
:102040000020FFF77BFA2620FFF76CFA0120FFF74C
:1020500075FAE020FFF766FA0F20FFF76FFA2A20E3
:10206000FFF76CFA2820FFF769FA0820FFF766FAF5
:102070000E20FFF763FA0820FFF760FA5420FFF7FD
:102080005DFAA920FFF75AFA4320FFF757FA0A2012
:10209000FFF754FA0F20FFF751FA0020FFF74EFA2E
:1020A0000020FFF74BFA0020FFF748FA0020FFF767
:1020B00045FAE120FFF736FA0020FFF73FFA152036
:1020C000FFF73CFA1720FFF739FA0720FFF736FA37
:1020D0001120FFF733FA0620FFF730FA2B20FFF725
:1020E0002DFA5620FFF72AFA3C20FFF727FA0520A1
:1020F000FFF724FA1020FFF721FA0F20FFF71EFA4E
:102100003F20FFF71BFA3F20FFF718FA0F20FFF7D9
:1021100015FA2B20FFF706FA0020FFF70FFA002030
:10212000FFF70CFA0120FFF709FA3F20FFF706FA44
:102130002A20FFF7F7F90020FFF700FA0020FFF749
:10214000FDF90020FFF7FAF9EF20FFF7F7F911206A
:10215000FFF7E8F97820FEF73FFC2920FFF7E2F9C6
:10216000E08DFFF7DFF90020FFF7E8F90020FFF727
:10217000E5F96988491EC1F30F20FFF7DFF9A97857
:10218000491EC8B2FFF7DAF9208EFFF7CBF900201D
:10219000FFF7D4F90020FFF7D1F9A988491EC1F350
:1021A0000F20FFF7CBF92979491EC8B2FFF7C6F90E
:1021B00094F82A0028B9F02068804FF4A070A88015
:1021C00004E04FF4A0706880F020A88094F82A0002
:1021D00020B908213620FFF7BFF907E047F0A00734
:1021E00047F0080739463620FFF7B6F9A08821687E
:1021F00008834FF6FF712846FEF78EFB1348E86010
:1022000013482861134868611348A8611348E861BE
:1022100013482862134868621348A8621348E862AA
:1022200013482863134868631348A8631348E86396
:1022300013482864134868641348A8640120287070
:102240000020FFF7CBB900001C0100A0190900080D
:10225000210C000851090008290D0008E1140008AC
:102260003D14000825130008451200085D0E000803
:10227000B5130008910B0008A90C0008DD0A00083E
:10228000B90B00082B0A0008B909000886B04448B9
:10229000FFF79EF942484FF47841C26890476420A6
:1022A000FFF764F93E484FF4FC61C2689047642030
:1022B000FFF75CF93A481F21C26890476420FFF796
:1022C00055F937480021C268904701200C214FF68C
:1022D000FF721F23CDE90032CDE90210304831A34F
:1022E00000221146C469A047002010214FF6FF725A
:1022F0004FF6E073CDE90032CDE90210284829A35A
:102300000C220021C469A047012018214FF6FF725A
:102310004FF4FC63CDE90032CDE90210204821A33F
:102320001C220021C469A047002020214FF47842DC
:102330004BF64043CDE90032CDE90210184819A30D
:1023400034220021C469A047012020214FF47842A3
:102350004FF4FC63CDE90032CDE90210104815A31B
:1023600054220021C46AA04714488021CDE90010FE
:102370000B480B4674220021046BA04700200C215F
:102380004FF6FF73CDE90130CDE903100420009032
:102390000348FF2300225021446AA04700BFFEE704
:1023A0008000002048656C6C6F2C776F726C642124
:1023B00000000000E4BDA0E5A5BD0000FE5B000834
:1023C0004FF04070E1EE100A70470000000000007E
:1023D000000000000000000000003E40000000007F
:1023E000000000002000C0002000C0000000090024
:1023F0003FC009003FC009000000188024407FE072
:102400002240118000001C0022C01F000B803440BD
:10241000038003801C402740188007400480200070
:10242000C0000000000000000000000000001F00CD
:1024300060C0802000000000802060C01F000000FD
:102440000000090006001F800600090000000000CF
:10245000040004001F0004000400002000C000006D
:102460000000000000000400040004000400040058
:1024700004000000004000000000000000000020F8
:1024800000C003000C00300040001F8020402040AE
:1024900020401F800000000010403FC000400000AE
:1024A000000018C021402240244018400000108045
:1024B0002040244024401B800000030005001940F8
:1024C0003FC0014000003E8024402440244023803F
:1024D00000000F80124024402440138000000000C0
:1024E000200023C02C00300000001B80244024402A
:1024F00024401B8000001C802240224024801F00BA
:102500000000000000000840000000000000000083
:102510000000046000000000000000000600090048
:102520001080204000000A000A000A000A000A0089
:102530000A0000002040108009000600000018007A
:10254000200023402400180000000F0010802740C6
:102550002F4021401E80004007C039000F0001C0FD
:10256000004020403FC0244024401B8000001F80CA
:102570002040204020403080000020403FC02040CC
:1025800020401F80000020403FC024402E4030C02B
:10259000000020403FC024402E00300000000F000B
:1025A0001080204022403380020020403FC00400C1
:1025B00004003FC02040204020403FC02040204039
:1025C00000000030201020103FE0200020002040BC
:1025D0003FC024400A0031C0204020403FC020407E
:1025E0000040004000C03FC03C0003C03C003FC072
:1025F000204020403FC00C4023003FC020001F80EF
:102600002040204020401F80000020403FC0244048
:102610002400180000001F802140214020E01FA05E
:10262000000020403FC02440260019C0004018C0D0
:1026300024402440224031800000300020403FC030
:1026400020403000000020003F80004000403F80DC
:10265000200020003E0001C00700380020003C00A0
:1026600003C03E0003C03C000000204039C006000B
:1026700039C02040000020003C4003C03C40200006
:102680000000304021C02640384020C0000000003B
:102690000000FFE0802080200000000060001C009F
:1026A000038000600000000080208020FFE0000028
:1026B000000000004000800040000000000000100A
:1026C00000100010001000100010000080004000FA
:1026D000000000000000000002800540054003C02B
:1026E000004040007FC00440044003800000000020
:1026F0000380044004400680000000000380044082
:1027000044407FC000400000038005400540034076
:102710000000000004403FC044404440200000004E
:1027200002A0055005500650042040407FC00440E0
:10273000040003C000400000044067C000400000E7
:10274000000000100010041067E00000000040408E
:102750007FC00100068004400000404040407FC030
:1027600000400040000007C0040007C0040003C090
:102770000000044007C00440040003C00040000003
:1027800003800440044003800000041007F004505C
:10279000044003800000000003800440045007F060
:1027A0000010044007C002400400040000000000C4
:1027B00006400540054004C00000000004001FC0A2
:1027C000044004400000040007800040044007C0AB
:1027D00000400400070000C00700040000000600DD
:1027E00001C0070001C006000000044006C001004F
:1027F00006C0044000000410071000A000C007003D
:1028000004000000044005C0064004400000000031
:1028100000000400FFE08020000000000000000035
:10282000FFF00000000000008020FBE0040000003A
:102830000000400080008000400080000000000098
:102840000000000000000000000000000000000088
:10285000000000001FCC000000000000000000008D
:102860000800300040000800300040000000000078
:10287000022003FC1E20022003FC1E20000000009A
:102880000E18110411043FFF10840C7800000F0093
:10289000108C0F3001C00678188400780000007892
:1028A0000F8410C411340E9800E400840008000066
:1028B0004800700000000000000000000000000060
:1028C0000000000007E0181820044002000000008B
:1028D00040022004181807E0000000000000024039
:1028E000024001800FF00180024002400000000021
:1028F00000800080008007F00080008000800000E1
:102900000009000E000000000000000000000000B0
:1029100000800080008000800080008000000000B7
:10292000000C000C0000000000000000000000008F
:102930000006001800E003001C002000000000005A
:1029400007F0080810041004080807F00000000051
:102950000000080408041FFC00040004000000003C
:102960000E0C10141024104410840F0C00000000F2
:102970000C1810041084108411440E38000000005C
:10298000006001A002240C241FFC0024002400008D
:102990001F98110411041104108810700000000029
:1029A00007F0088811041104090400F80000000071
:1029B00018001000107C11801600180000000000A4
:1029C0000E3811441084108411440E3800000000A9
:1029D0000F80104810441044088807F000000000E1
:1029E00000000000030C030C0000000000000000C9
:1029F00000000000010700000000000000000000CF
:102A000000800140022004100808100400000000AB
:102A1000024002400240024002400240000000002A
:102A2000100408080410022001400080000000008B
:102A30000E001200100C10EC11000E00000003E05C
:102A40000C1813E4141417F4081407E80000000429
:102A5000003C03C41C40074000E4001C00041004B8
:102A60001FFC1104110411040E880070000003E023
:102A70000C1810041004100410081C10000010049E
:102A80001FFC100410041004080807F000001004D4
:102A90001FFC1104110417C41004081800001004CE
:102AA0001FFC1104110017C010000800000003E013
:102AB0000C181004100410441C780040000010048E
:102AC0001FFC10840080008010841FFC1004000094
:102AD000100410041FFC1004100400000000000388
:102AE0000001100110011FFE100010000000100472
:102AF0001FFC110403801464181C1004000010044F
:102B00001FFC1004000400040004000C000010046A
:102B10001FFC1F80007C1F801FFC1004000010049D
:102B20001FFC0C04030000E010181FFC100007F04D
:102B30000808100410041004080807F0000010042E
:102B40001FFC10841080108010800F00000007F020
:102B5000080810141014100C080A07F200001004E2
:102B60001FFC1104110011C011300E0C00040000F4
:102B70000E1C11041084108410441C38000018002E
:102B8000100010041FFC10041000180000001000BA
:102B90001FF810040004000410041FF810001000B7
:102BA0001E0011E0001C007013801C0010001000BB
:102BB0001FC0007C1F80007C1FC01000000010049C
:102BC000180C163401C001C01634180C1004100083
:102BD0001C00130400FC13041C0010000000080477
:102BE000101C1064108413041C0410180000000052
:102BF000000000007FFE4002400240020000000092
:102C000020001C0003800060001C00030000000086
:102C10004002400240027FFE000000000000000071
:102C200000002000400040002000000000000001E3
:102C3000000100010001000100010001000100008D
:102C400040004000200000000000000000000000E4
:102C5000009801240124014800FC00040000080041
:102C60000FFC0088010401040088007000000000CF
:102C700000700088010401040104008800000000C5
:102C800000F801040104010409080FFC000400001D
:102C900000F8012401240124012400E800000000C0
:102CA0000104010407FC09040904040000000000F9
:102CB00000D601290129012901C9010600000804E3
:102CC0000FFC008401000100010400FC000400006E
:102CD0000104190419FC00040004000000000000B5
:102CE000000300010101190119FE000000000804A1
:102CF0000FFC002400600194010C0104000000009E
:102D0000080408041FFC0004000400000000010483
:102D100001FC0104010001FC0104010000FC0104AC
:102D200001FC008401000100010400FC000400001B
:102D300000F8010401040104010400F8000001018D
:102D400001FF0089010401040088007000000000F8
:102D50000070008801040104008901FF00010104E2
:102D6000010401FC00840104010001800000000056
:102D700000CC01240124012401240198000000005A
:102D80000100010007F8010401040008000001002F
:102D900001F8000400040004010801FC0004010023
:102DA00001C00130000C013001C0010000000180B1
:102DB0000170000C013001E0001C01600180000086
:102DC0000104018C01700074018C010400000100F9
:102DD00001810161001E00180160018001000000F6
:102DE0000184010C013401440184010C0000000045
:102DF00000000000000000803F7C40024002000014
:102E0000000000000000FFFF000000000000400282
:102E100040023F7C00800000000000000000000035
:102E20004000800040004000200040000000000002
:102E30000000000000000000000000000000000092
:102E40000000000000000000000000000000000082
:102E50000000000000000000000000000000000072
:102E6000000000000000000000000000000FEE382D
:102E70000FF038000000000000000000000000001B
:102E80000000000000000000000000000000000042
:102E9000000000000100000600000C0000380000E7
:102EA0003100000600000C00003800003000000077
:102EB0000000000000000000000000000000000012
:102EC0000000C18000C1F800FF800FC18000C180F8
:102ED00000C18000C18000DFF80FE18000C18000E8
:102EE00000000000000000000000000000000000E2
:102EF0000000000001C0E003E0F0063048041808BC
:102F00001FFFFE048E080787F00381E00000000029
:102F1000000000000000000000000000000003E0CE
:102F2000000C18000808180C18E003F300001C003F
:102F30000063E0038C180C0808000C180003E00084
:102F4000000000000000000000000000000000037E
:102F5000E00007F007E8180FFC08081F080FE3C897
:102F600007C0F0001070001F980010080010080043
:102F70000030000000000000000000000000000021
:102F8000000000003100003200001C0000000000C2
:102F90000000000000000000000000000000000031
:102FA0000000000000000000000000000000000021
:102FB00000000000000000000000000000007F0092
:102FC0000180C00600300800081000042000020044
:102FD00000000000000000000000000000000000F1
:102FE000002000021000040800080600300180C024
:102FF000007F000000000000000000000000000052
:1030000000000000000000000000000000000000C0
:1030100000006600006600002400001C000008009C
:1030200003FFC0011800003C0000240000660000FF
:10303000660000000000000000000000000000002A
:103040000000080000080000080000080000080058
:1030500001FFC00008000008000008000008000090
:103060000800000000000000000000000000000058
:103070000000000000003100003200001C000000D1
:103080000000000000000000000000000000000040
:103090000000000000000000000000000000000030
:1030A00000000800000800000800000800000800F8
:1030B00000080000080000080000080000080000E8
:1030C0000000000000000000000000000000000000
:1030D0000000000000003800003800003800000048
:1030E00000000000000000000000000000000000E0
:1030F00000000000000000000000000000000000D0
:103100000000000600001C000070000180000E009E
:1031100000380000C0000700001C00003000000064
:10312000000000000000000000000000000000009F
:1031300000007F8001FFE003807006001804000893
:1031400004000806001803807001FFE0007F800083
:10315000000000000000000000000000000000006F
:103160000000000002000802000802000803FFF847
:1031700007FFF80000080000080000080000000039
:10318000000000000000000000000000000000003F
:103190000001C01802C03804004804008804030875
:1031A000040608060C0803F80801E0780000000097
:1031B000000000000000000000000000000000000F
:1031C00000038070038070040008040808040808E5
:1031D00006180803F41801E7F00001E00000000001
:1031E00000000000000000000000000000000000DF
:1031F0000000030000050000190000210000C108C4
:1032000001010807FFF807FFF800010800010800A6
:1032100001000000000000000000000000000000AD
:10322000000000E007FCD00408080410080410089F
:10323000041008041838040FF00407C00000000050
:10324000000000000000000000000000000000007E
:1032500000003F8001FFE0038430020818041008DA
:10326000041008041008071810030FF00007C0002E
:10327000000000000000000000000000000000004E
:10328000000000000380000600000400000400F8B5
:103290000407F804180004E000070000060000001E
:1032A000000000000000000000000000000000001E
:1032B0000001C1E003F3F006361004180804080802
:1032C000040C08040C0806161803F3F001C1E00012
:1032D00000000000000000000000000000000000EE
:1032E0000000F80003FC300306380402080402085A
:1032F0000402080404100308F001FFC0007F00006E
:1033000000000000000000000000000000000000BD
:10331000000000000000000000000000000038383D
:1033200000383800383800000000000000000000BD
:10333000000000000000000000000000000000008D
:103340000000000000000000000000000000301B32
:1033500000301C0000000000000000000000000021
:10336000000000000000000000000000000000005D
:1033700000000000000800001400002200004100CE
:1033800000808001004002002004001008000800B6
:10339000000000000000000000000000000000002D
:1033A0000000220000220000220000220000220073
:1033B0000022000022000022000022000022000063
:1033C00000000000000000000000000000000000FD
:1033D0000000000008000804001002002001004066
:1033E000008080004100002200001400000800005E
:1033F00000000000000000000000000000000000CD
:103400000000000001E0000260000200000400383B
:1034100004073804083804180006100003F00001FF
:10342000E0000000000000000000000000000000BC
:1034300000007F0003FFE0070070041F1808FF88EA
:1034400009C088093F8805E09006013001FE400070
:10345000000000000000000000000000000000006C
:10346000080000380001C8001E0801E20006020042
:1034700007820000FA00000F880001F80000180021
:103480000008000000000000000000000000000034
:103490000004000807FFF807FFF8040808040808FC
:1034A00004080806180803F41803E7F00001E00018
:1034B000000000000000000000000000000000000C
:1034C00000003F8001FFE003807002001804000844
:1034D00004000804000806001007003001C0C00006
:1034E00000000000000000000000000000000400D8
:1034F0000804000807FFF807FFF8040008040008A4
:1035000004000802001003807001FFE0007F8000CB
:1035100000000000000000000000000000000400A7
:103520000807FFF807FFF80408080408080408085B
:10353000040808043F08060008060018018060001F
:103540000000000000000000000000000000040077
:103550000807FFF807FFF804080804080804080033
:10356000040800043F00060000060000018000007F
:10357000000000000000000000000000000000004B
:1035800000003F8001FFE00380700600180400087F
:103590000402080402080203F001C3F00002000064
:1035A0000200000000000000000000000000040015
:1035B0000807FFF807FFF8040808000800000800E3
:1035C00000080000080004080807FFF807FFF804D7
:1035D00000080000000000000000000000000000E3
:1035E0000000000004000804000804000807FFF8B9
:1035F00007FFF804000804000804000800000000A9
:1036000000000000000000000000000000000000BA
:10361000000000060000070400010400010400038C
:1036200007FFFE07FFFC0400000400000400000088
:103630000000000000000000000000000000040086
:103640000807FFF807FFF8040C08003000005C00D2
:103650000587000701C8060078040018000008006C
:103660000000000000000000000000000000040056
:103670000807FFF807FFF804000804000800000826
:1036800000000800000800000800001800006000AA
:103690000000000000000000000000000000040026
:1036A0000807FFF807F00800FF000007F00001E03E
:1036B000003E0003C00807FFF807FFF804000800F9
:1036C00000000000000000000000000000000000FA
:1036D0000804000807FFF807800801E008007800E8
:1036E000001E000403C00400F007FFF804000004FB
:1036F00000000000000000000000000000000000CA
:1037000000007F8001FFE0038070060018040008BD
:1037100004000806001803003001FFE0007F80006D
:103720000000000000000000000000000000040095
:103730000807FFF807FFF80404080404080404005D
:10374000040400040C0002080003F80001F000006B
:103750000000000000000000000000000000000069
:1037600000007F8001FFE00380700600980400885D
:103770000400E806003C03003601FFE6007F8400F9
:103780000000000000000000000000000000040035
:103790000807FFF807FFF8040808040800040800F9
:1037A000040E00040B800610E003F07801E018001E
:1037B0000008000000000000000000000000000001
:1037C0000001E0E003F030063810041808041C087B
:1037D000040C08040E080207180787F00001E00037
:1037E0000000000000000000000000000000018058
:1037F0000006000004000004000804000807FFF8A9
:1038000007FFF80400080400080400000600000197
:103810008000000000000000000000000000000028
:103820000004000007FFE007FFF004001800000894
:1038300000000800000804001007FFE0040000007A
:103840000000000000000000000000000000040074
:103850000006000007E000047E000007E00000789A
:103860000001C0001E0005E000060000040000008A
:103870000000000000000000000000000000040044
:103880000007C00004FF000003F80403C0063C006A
:1038900007FC00040FF80001E0043E0007C000042C
:1038A0000000000000000000000000000000000018
:1038B0000004000806001807806804E180003E004C
:1038C0000017000461C8078078040018040008008D
:1038D00000000000000000000000000000000400E4
:1038E0000006000007800004F008003C08001FF8F4
:1038F0000007F800180804600805800006000004AE
:1039000000000000000000000000000000000000B7
:10391000000180080700380600E804018804060852
:1039200004180804600805C00807001804006000B7
:103930000000000000000000000000000000000087
:10394000000000000000000000000000003FFFFE3B
:1039500020000220000220000220000200000000DF
:103960000000000000000000000000000000000057
:10397000000000000C000003000000E00000180040
:103980000007000001C000003000000E0000010030
:103990000000000000000000000000000000000027
:1039A000000000002000022000022000022000028F
:1039B0003FFFFE00000000000000000000000000CB
:1039C00000000000000000000000000000000000F7
:1039D0000000000000000010000020000040000077
:1039E0004000002000001000000000000000000067
:1039F00000000000000000000000000000000000C7
:103A000001000001000001000001000001000001B0
:103A100000000100000100000100000100000100A1
:103A20000001000000000000000000000000000095
:103A30000000000000000020000020000010000036
:103A40001000000000000000000000000000000066
:103A50000000000000000000000000000000000066
:103A6000000000F00019F800199800210800220851
:103A7000002208002210003FF0001FF8000008009C
:103A8000001800000000000000000000000000001E
:103A90000004000007FFF80FFFF0001810001008E6
:103AA000002008002008003018001FF0000FC000A0
:103AB0000000000000000000000000000000000006
:103AC000000007C0001FF000183000200800200888
:103AD000002008003C08001C1000006000000000EE
:103AE00000000000000000000000000000000000D6
:103AF000000007C0001FF000381800200800200850
:103B000004200804101007FFF80FFFF00000100059
:103B100000000000000000000000000000000000A5
:103B2000000000000007C0001FF000113000210855
:103B3000002108002108003108001F1000072000A4
:103B40000000000000000000000000000000000075
:103B50000000200000200800200801FFF803FFF803
:103B600006200804200804200807000003000000C5
:103B70000000000000000000000000000000000045
:103B80000000000E000E7E001FF30031A10020A1F6
:103B90000030B1003FB3002F1E00301E0030000087
:103BA0000000000000000000000000000000000015
:103BB0000004000807FFF80FFFF8001008002000BD
:103BC000002000002008003FF8001FF80000080057
:103BD00000000000000000000000000000000000E5
:103BE00000000000002008002008002008063FF820
:103BF000067FF80000080000080000080000000030
:103C000000000000000000000000000000000000B4
:103C1000000000000000030000030020010020015C
:103C2000062003063FFE067FFC00000000000000A7
:103C30000000000000000000000000000000000084
:103C40000004000807FFF80FFFF800010800020059
:103C50000007000038C80020780020180000080085
:103C60000000000000000000000000000000000054
:103C70000000000004000804000804000807FFF822
:103C80000FFFF80000080000080000080000000016
:103C90000000000000000000000000000000002004
:103CA00008003FF8003FF8001008002008003FF827
:103CB000001FF8001008002008003FF8003FF8003F
:103CC00000080000000000000000000000000000EC
:103CD00000002008003FF8003FF800100800200016
:103CE000002000002008003FF8001FF80000080036
:103CF00000000000000000000000000000000000C4
:103D0000000007C0000FF000183000300800200845
:103D1000002008003008001830000FF00007C00035
:103D20000000000000000000000000000000000093
:103D300000002001003FFF003FFF0010110020099C
:103D4000002008002008003038001FF0000FC000DD
:103D50000000000000000000000000000000000063
:103D6000000007C0001FF0003818002008002008DD
:103D7000002009001011001FFF003FFF000001009C
:103D80000000000000000000000000000000002013
:103D900008002008002008003FF8003FF80008084D
:103DA0000010080020080020000038000018000063
:103DB0000000000000000000000000000000000003
:103DC00000000000001C78001E18003308002308C3
:103DD0000021880021980030F8003CF0000000002D
:103DE00000000000000000000000000000000000D3
:103DF0000000200000200000200000FFF003FFF87A
:103E0000002008002008002008000030000000000A
:103E100000000000000000000000000000000000A2
:103E200000002000003FF0007FF8000018000008AC
:103E3000000008002010003FF8007FF00000100094
:103E40000000000000000000000000000000000072
:103E500000002000003000003E000023C00000F8F9
:103E60000000300001C0002E0000300000200000E3
:103E70000000000000000000000000000000002022
:103E800000003800002F800001F80020F00037000B
:103E9000003F000021F00000F00027000038000083
:103EA00020000000000000000000000000000000F2
:103EB00000000008002008003038003C480027803F
:103EC0000003800024C800383800201800200800B3
:103ED00000000000000000000000000000000000E2
:103EE00000002000002003003C010023810000FEB0
:103EF000000070002380003C000020000020000033
:103F000000000000000000000000000000000000B1
:103F100000000000003C180020780020C800238822
:103F2000002E080038080030180000700000000063
:103F30000000000000000000000000000000000081
:103F40000000000000000000000000000000080069
:103F50000014001FE3FC200002200002000000000B
:103F60000000000000000000000000000000000051
:103F70000000000000000000000000000000000041
:103F8000FFFFFF0000000000000000000000000034
:103F90000000000000000000000000000000000021
:103FA000000000002000022000021FE3FC001400BB
:103FB00000080000000000000000000000000000F9
:103FC00000000000000000000000000000000000F1
:103FD00000300000400000400000400000200000D1
:103FE0001000001800000800000800003000000069
:103FF00000000000000000000000000000000000C1
:1040000000000000000000000000000000000000B0
:1040100000000000000000000000000000000000A0
:104020000000000000000000000000000000000090
:104030000000000000000000000000000000000080
:104040000000000000000000000000000000000070
:1040500000000000000003F0006003FFF8F003FF21
:10406000F8F003F80060000000000000000000000D
:104070000000000000000000000000000000000040
:1040800000000000000000C00000018000000700E8
:1040900000001E0000003C00000038C0000001804D
:1040A0000000070000001E0000003C000000380077
:1040B0000000000000000000000000000000000000
:1040C0000000001C0E00001C0E00001C0FF0001F62
:1040D000FF0003FC0E00001C0E00001C0E00001C64
:1040E0000E00001C0E00001C0FF0001FFF0003FC60
:1040F0000E00001C0E00001C0E000000000000005E
:10410000000000000000000003C0007803E001FE92
:104110000320010F0010020380100FFFFFFE0200BA
:10412000E0100200E0300130786001F03FC000F0A4
:104130000F80000000000000000000000000007E72
:10414000000001FF80000300C000020040300300B7
:10415000C1C001FF8600007E38000000C0000007DB
:104160001F8000387FE000C0C030030080100000D6
:10417000C03000007FE000001F8000000000000051
:104180001F8000003FC000FEC06001FFC03003037D
:10419000F01002017C1002061E1003FC07A000F0C4
:1041A00001C0000081E000008E700000F0300000CF
:1041B000803000008060000000C0000000000000AF
:1041C00000000040000038C00000388000003F00C0
:1041D00000001E00000000000000000000000000C1
:1041E00000000000000000000000000000000000CF
:1041F00000000000000000000000000000000000BF
:1042000000000000000000000000000000000000AE
:1042100000000000000000000000000FF800003F58
:10422000FE0000F00780038000E0060000300C0074
:104230000018100000042000000200000000000030
:10424000000020000002100000040C00001806000E
:104250000030038000E000F00780003FFF00000F07
:10426000F800000000000000000000000000000056
:10427000000000000000000000000000000000003E
:1042800000000000000000181800001C3800000C9E
:104290003000000660000002400000618F0000FF57
:1042A000FF0000F187000002400000066000000CE3
:1042B0003000001C3800001818000000000000004A
:1042C00000000000000000008000000080000000EE
:1042D0008000000080000000800000008000007F5F
:1042E000FF0000008000000080000000800000004F
:1042F000800000008000000080000000000000003E
:10430000000000000001000000E3000000E20000E7
:1043100000FC000000780000000000000000000029
:10432000000000000000000000000000000000008D
:10433000000000000000000000000000000000007D
:1043400000000000800000008000000080000000ED
:10435000800000008000000080000000800000005D
:10436000800000008000000080000000800000004D
:1043700080000000800000008000000000000000BD
:1043800000000000000000000060000000F00000DD
:1043900000F00000006000000000000000000000CD
:1043A000000000000000000000000000000000000D
:1043B00000000000000000000000000000000000FD
:1043C00000000000000C00000038000000E00000C9
:1043D000038000000E00000038000000E000000331
:1043E0008000000E00000038000000E000000380A4
:1043F00000000E0000001800000000000000000097
:10440000000000000000000FFC00007FFF8000F0B3
:1044100003C00180006003000030020000100200B1
:104420000010020000100180006000E001C0007F69
:10443000FF80000FFC0000000000000000000000F2
:10444000000000000000000000000080001000805C
:104450000010008000100080003001FFFFF003FF1B
:10446000FFF000000030000000100000001000000D
:10447000001000000000000000000000000000002C
:1044800000000000000000780070009800B00100FB
:1044900001300200023002000C300200183002002D
:1044A0003030020060300300C0300183803001FFF3
:1044B0000070007C03C0000000000000000000004D
:1044C00000000000000000F003C001F003E0010064
:1044D0000020020000100200801002008010020084
:1044E00080100301C0100183402000FE6060007C4A
:1044F0003FC000000F0000000000000000000000AE
:10450000000000000C000000340000006400000106
:10451000840000060400000804100030041000C0ED
:10452000041003FFFFF003FFFFF000000410000081
:104530000410000004100000000000000000000053
:10454000000000000000000003C000FFC3200300C3
:104550008020030100100302001003020010030278
:1045600000100302001003030020030180E0030099
:10457000FFC003003F00000000000000000000003A
:104580000000000000000007FE00003FFF8000E088
:10459000C1E001810060010300300202001002024C
:1045A0000010020200100203003001C1806001C04F
:1045B000FFC000003F0000000000000000000000FD
:1045C0000000000000000070000003C000000300B5
:1045D000000003000000030003F003003FF00300AD
:1045E000C000030700000318000003600000038000
:1045F00000000300000000000000000000000000B8
:10460000000000000F80007C3FC000FE7060018F42
:10461000402003038010020380100201801002007A
:10462000C0100200E010030170200182786000FEDB
:104630003FC000780F800000000000000000000074
:104640000000003F800000FFC0E001C0E0E001008A
:1046500030100200101002001010020010100200B2
:10466000103002002060010060C000C08780007F21
:10467000FE00001FF8000000000000000000000025
:10468000000000000000000000000000000000002A
:1046900000000000000000030060000780F0000739
:1046A00080F0000300600000000000000000000037
:1046B00000000000000000000000000000000000FA
:1046C00000000000000000000000000000000000EA
:1046D000000000000000000380760003807E0003DD
:1046E00080780000000000000000000000000000D2
:1046F00000000000000000000000000000000000BA
:10470000000000000000000000000000C0000001E8
:10471000200000021000000408000008040000103F
:1047200002000020010000400080008000400100E5
:104730000020020000100000000000000000000047
:104740000000000410000004100000041000000429
:104750001000000410000004100000041000000409
:1047600010000004100000041000000410000004F9
:104770001000000410000004100000000000000001
:104780000000000000000200001001000020008076
:1047900000400040008000200100001002000008DE
:1047A00004000004080000021000000120000000C6
:1047B000C000000000000000000000000000000039
:1047C000000000000000003C000000FC0000019C14
:1047D00000000100000002000060020000F0020082
:1047E0007CF00200C06002008000010180000183B3
:1047F000000000FE0000007C00000000000000003F
:1048000000000007F800003FFF00007003C000C078
:1048100000600181FC200307FE10021E021002301E
:10482000041002203C10021FFE10013C02200080F8
:104830000460006018C0001FE100000000000000DC
:10484000001000000030000001F000003E100003E6
:10485000F010003E100003C0100003C0100003FC65
:104860001000003FD0000001FE1000001FF000000B
:1048700001F0000000300000001000000000000007
:104880000000020000100200001003FFFFF003FF11
:10489000FFF0020080100200801002008010020071
:1048A000801002008010030180100183403001FE5F
:1048B0006060007C3FC000000F800000000000002E
:1048C00000000007FC00003FFF00007803C000C0AC
:1048D0000060010000200300001002000010020030
:1048E00000100200001002000010010000200180F2
:1048F000004001C0008000700300000000000000C4
:104900000000020000100200001003FFFFF003FF90
:10491000FFF0020000100200001002000010020070
:1049200000100300003001000020018000C000F0F2
:1049300003C0003FFF00000FF8000000000000006F
:104940000000020000100200001003FFFFF003FF50
:10495000FFF00200801002008010020080100200B0
:104960008010020080100201C0100207F010030046
:104970000030038000700060018000000000000033
:104980000000020000100200001003FFFFF003FF10
:10499000FFF0020080100200801002008000020080
:1049A0008000020080000201C0000307F80003003D
:1049B0000000038000000060000000000000000014
:1049C00000000007F800003FFF00007003C001C0B6
:1049D0000060010000300200001002000010020020
:1049E0000010020020100100202001C03FC0007014
:1049F0003FC0000020000000200000000000020076
:104A000000100200001003FFFFF003FFFFF00200A0
:104A10008010020080100000800000008000000074
:104A2000800000008000020080100200801003FF60
:104A3000FFF003FFFFF00200001002000010000072
:104A40000000000000000000000002000010020052
:104A50000010020000100200001003FFFFF003FF2F
:104A6000FFF002000010020000100200001002001F
:104A70000010000000000000000000000000000026
:104A800000000000000E0000000F0000000F0000FA
:104A90000001020000010200000102000003020008
:104AA000000603FFFFFC03FFFFF802000000020006
:104AB00000000200000002000000000000000000F2
:104AC0000000020000100200001003FFFFF003FFCF
:104AD000FFF00200C010020100100007C000001823
:104AE000F00002603C0003C00F90030003F00200DE
:104AF0000070020000100000001000000000000024
:104B00000000020000100200001003FFFFF003FF8E
:104B1000FFF0020000100200001000000010000072
:104B20000010000000100000001000000010000045
:104B30000030000000700000018000000000020052
:104B400000100200001003FFFFF003F0001001FF4F
:104B50008000000FF80000007FC0000003F000009C
:104B60000F000001F000001E001001E0001003FF24
:104B7000FFF003FFFFF0020000100200001002002F
:104B800000100200001003FFFFF00380001001E09E
:104B9000001000780000001E0000000780000001E7
:104BA000E0000000780000001E0002000780020004
:104BB00001E003FFFFF0020000000200000000001F
:104BC0000000000FF800003FFF0000F003C001806C
:104BD000006001000020020000100200001002002E
:104BE000001002000010010000200180006000F0B1
:104BF00003C0003FFF000007FC00000000000000B1
:104C00000000020000100200001003FFFFF003FF8D
:104C1000FFF00200401002004010020040000200BD
:104C200040000200400002004000030080000181BB
:104C3000800000FF0000007E000000000000000077
:104C40000000000FFC00003FFF8000F001C0018069
:104C500001E0010002200200021002000210020026
:104C60000310020001F0010000FC0180006E00F062
:104C700001C6003FFF86000FFC0800000000000096
:104C80000000020000100200001003FFFFF003FF0D
:104C9000FFF002008010020080100200800002007D
:104CA000E0000200FC0003019F80018303F001FE8D
:104CB0000070007C001000000010000000000000E8
:104CC0000000007C070000FE01F001870060030384
:104CD000002002038010020180100201C0100200B7
:104CE000C0100300E0100100603001C0786003F0E4
:104CF0003FC000000F800000000000000000000026
:104D000000000060000003800000030000000200BB
:104D10000000020000100200001003FFFFF003FF7C
:104D2000FFF002000010020000100200000002006C
:104D300000000380000000E000000000000002000E
:104D400000000200000003FFFF8003FFFFE00200FD
:104D500000600200003000000010000000100000A1
:104D6000001000000010020000200200004003FFBD
:104D7000FF800200000002000000000000000000B0
:104D80000000020000000200000003E0000003FF3A
:104D90000000021FF0000000FF0000000FF0000004
:104DA00001C000001E000001E000021E000003E040
:104DB00000000300000002000000000000000200EC
:104DC00000000380000003FF0000021FFC00000041
:104DD0003FF0000007C00200780003CF800003FF0F
:104DE0008000021FFF0000003FF000000F80020360
:104DF000F00003FC000003000000020000000000BF
:104E0000000002000010020000100380007003E0A8
:104E100001D002780610001E18000007E000000311
:104E2000F000000C3E0002300F9002C003F00300BF
:104E300000700200003002000010000000000000BE
:104E40000000020000000300000003C0000003F89F
:104E50000000023E00100207C0100001FFF0000039
:104E60007FF000018010020E00100270000003802D
:104E7000000002000000020000000000000000002E
:104E80000000000000100060007003C001F003800B
:104E9000039003000E1002003C100200F010020309
:104EA000C010020F0010021C00100270003003E05E
:104EB0000030038000F002000180000000000000CC
:104EC00000000000000000000000000000000000E2
:104ED0000000000000001FFFFFFC1FFFFFFC100090
:104EE0000004100000041000000410000004100072
:104EF000000410000004000000000000000000009A
:104F00000000000000000000000006000000078014
:104F1000000000F00000003C0000000780000001DD
:104F2000E00000003C0000000F80000003E00000F3
:104F3000007C0000001E00000002000000000000D5
:104F40000000000000001000000410000004100029
:104F500000041000000410000004100000041FFFF3
:104F6000FFFC1FFFFFFC000000000000000000002D
:104F70000000000000000000000000000000000031
:104F8000000000000000000000000000000004001D
:104F90000000080000003800000030000000300071
:104FA00000003000000018000000040000000000B5
:104FB00000000000000000000000000000000000F1
:104FC00000010000000100000001000000010000DD
:104FD00000010000000100000001000000010000CD
:104FE00000010000000100000001000000010000BD
:104FF00000010000000100000001000000010000AD
:105000000000000000000000000020000000200060
:105010000000200000003000000010000000080028
:105020000000000000000000000000000000000080
:105030000000000000000000000000000000000070
:105040000000000003C00001C7E00003CC300002F4
:1050500008100004181000041010000410100004C0
:10506000101000041020000620200003FFE00001C3
:10507000FFF00000001000000010000000600000C1
:105080000000020000000200000003FFFFF007FF25
:10509000FFE0000180600002001000040010000426
:1050A0000010000400100006003000030060000340
:1050B000FFC00000FF000000000000000000000032
:1050C00000000000000000007F000000FFC000039F
:1050D00080E000030020000600100004001000041F
:1050E000001000040010000400100003C0200001A4
:1050F000C04000000180000000000000000000002F
:1051000000000000000000007F000001FFC000035D
:10511000806000060030000400100004001000044D
:105120000010020400200202004003FFFFF007FF0E
:10513000FFE0000000200000002000000000000050
:1051400000000000000000007F000000FFC000031E
:1051500088E0000208200004083000040810000461
:1051600008100004081000020810000308200001C5
:10517000F8600000788000000000000000000000DF
:105180000000000000000004000000040010000403
:10519000001000040010007FFFF001FFFFF0010489
:1051A00000100204001002040010020400100204A7
:1051B000000003C0000001C000000000000000006B
:1051C0000000000000000000001C0000E3BE00031F
:1051D000FFE200020CC1000404C1000404C1000489
:1051E00004C1000404C100060C410003F86200057C
:1051F000F07E0006003C00060000000000000000F9
:105200000000020000100200001003FFFFF007FF83
:10521000FFF0000100100002001000040000000474
:10522000000000040010000600100003FFF0000161
:10523000FFF000000010000000100000000000005F
:105240000000000000000000000000040010000446
:10525000001000040010010400100387FFF0038F0A
:10526000FFF001000010000000100000001000001E
:10527000001000000000000000000000000000001E
:105280000000000000000000000000000006000018
:1052900000070000000100040001000400010004F8
:1052A0000001010400060387FFFC038FFFF80300E1
:1052B00000000000000000000000000000000000EE
:1052C0000000020000100200001003FFFFF007FFC3
:1052D000FFF000000C10000018100000300000006B
:1052E0007C0000048E0000070390000601F000041B
:1052F00000700004003000000010000000000000FA
:105300000000000000000000000002000010020089
:105310000010020000100200001003FFFFF007FF62
:10532000FFF000000010000000100000001000005E
:105330000010000000000000000000000000000459
:1053400000100007FFF0000FFFF000020010000443
:10535000000000040000000400100007FFF000033C
:10536000FFF0000200100004000000040000000430
:1053700000100007FFF00003FFF000000010000025
:10538000000000020010000200100003FFF0000700
:10539000FFF00001001000020010000400000004F3
:1053A000000000040010000600100003FFF00001E0
:1053B000FFF00000001000000010000000000000DE
:1053C00000000000000000003F000000FFC00003DC
:1053D00080E000020020000400100004001000041F
:1053E00000100004001000020020000380E0000113
:1053F000FFC000007F00000000000000000000006F
:10540000000000020001000200010003FFFF00078E
:10541000FFFF0001006100020021000400100004F1
:1054200000100004001000060030000300E000013E
:10543000FFC000007F00000000000000000000002E
:1054400000000000000000007F000001FFC000031A
:10545000806000020030000400100004001000040E
:10546000001000060021000300610003FFFF000799
:10547000FFFF00000001000000010000000000002C
:1054800000000002001000020010000200100002E4
:1054900000100007FFF00007FFF00000C01000013F
:1054A0008010000200100002001000040000000440
:1054B00000000007000000030000000000000000E2
:1054C00000000000000000000000000001F00001EA
:1054D000E0600003F0200006301000041810000403
:1054E000181000041C1000040C1000020E30000301
:1054F00007E00007C3C0000000000000000000003B
:10550000000000000000000400000004000000048F
:105510000000000C0000001FFFC000FFFFE00004BF
:10552000003000040010000400100004001000040B
:105530000020000000C0000000000000000000008B
:10554000000000040000000400000007FFC0000F7E
:10555000FFE000000030000000100000001000001C
:10556000001000040020000400400007FFF0000FBE
:10557000FFE000000020000000200000000000000C
:105580000000000400000004000000078000000785
:10559000E00000047C0000000F80000003F0000029
:1055A00000E00000038000041C000004E00000078D
:1055B000800000060000000400000000000000045D
:1055C0000000000600000007E0000004FE000004E8
:1055D0000FE0000001F000040F000007F0000007DA
:1055E000F80000043F80000003F0000003C0000446
:1055F0003C000007C000000600000004000000009E
:10560000000000000010000400100004003000073B
:105610000070000781900005E20000007C0000009F
:105620001C000004671000048390000700F00004D1
:1056300000700004001000000010000000000000D6
:10564000000000040000000400030007000300073E
:10565000C0030004780300001E06000003F80000E9
:1056600000C000000700000438000007C00000066A
:105670000000000400000004000000000000000022
:105680000000000000000007C030000700700004A8
:1056900001D00004039000040F1000041C1000044B
:1056A00078100004E0100007C0100007003000066A
:1056B0000070000001C000000000000000000000B9
:1056C00000000000000000000000000000000000DA
:1056D0000000000000000000000000008000000149
:1056E0008000000140000FFE3FF810000004200081
:1056F0000002200000020000000000000000000086
:105700000000000000000000000000000000000099
:105710000000000000000000000000000000FFFF8B
:10572000FFFF00000000000000000000000000007B
:105730000000000000000000000000000000000069
:105740000000000000000000000020000002200017
:105750000002100000040FFE3FF8000140000001AD
:105760008000000080000000000000000000000039
:105770000000000000000000000000000000000029
:105780000000180000002000000040000000400061
:1057900000004000000060000000300000001C001D
:1057A00000000400000006000000020000000200EB
:1057B0000000040000001800000000000000E4BD2C
:1057C000A00028002800E407240496028500A40213
:1057D000A404A40494048400C400E5A5BD0004004E
:1057E000E40304021F0192009200F20789008A007C
:1057F00084008A00D100E4B896002001240124012D
:105800002401FF07240124012401E4010400040011
:10581000FC07E7958C00FE032202FE032202FE0332
:105820002000D80007078800880084008200E4BDBB
:10583000A000100110011001887F88404C202C042A
:105840000A04891488244824484428440804080584
:105850000802E5A5BD000800083F082008103F0821
:1058600024042404A47F240412041404080414044B
:10587000220421050002E4B89600400448044804CC
:1058800048044804FF7F4804480448044804C80703
:10589000080008000800F83F0000E7958C000000B1
:1058A000F80F88088808F80F88088808F80F400162
:1058B00030062C1A23622002100210020802E4BDF6
:1058C000A000000000800000803100C03000C01047
:1058D0000040180020F83F200C3070840838820007
:1058E000288200248900229804208808208C18200F
:1058F0008430208230208260208120A08000208897
:105900000060F000204000000000E5A5BD000000A0
:105910000000000060000060000060F81F20001818
:10592000200004FE030230020130020110030110C6
:10593000012110FD7F180101080101880001B0005C
:1059400001C0010140030120060118000104E0012B
:10595000028000000000E4B8960000000000000093
:10596000000402000C022004022004022004022091
:105970000402200402FEFF3F20040220040220044F
:105980000220040220040220040220FC032004025E
:10599000200400200000200010F0FF3F2000000045
:1059A0000000E7958C00000000000000E0FF0760A9
:1059B000180C601804601804E0FF076018046018F1
:1059C00004E0FF07604404004600008301800307F1
:1059D000C0867D3082300C82000083000081008010
:1059E0008100C08000208000188000000000E4BD1D
:1059F000A000000000000000000000020000000EF7
:105A000006000006070000070300000303000083F0
:105A100001008081011880C0FF3FC0C00018C06134
:105A2000080CE0213004B0311002901110008809F8
:105A300010008881110084C1110180C1100280C151
:105A400010048061100C80611018803110388011B2
:105A5000103080091030800910308005100080015E
:105A6000100080011F0080011C0080000800000061
:105A70000000E5A5BD00000000000000000080005F
:105A8000000080030000800100048081FF0F80017E
:105A9000000E80000003C0100001FC3F8000C01019
:105AA0006000C0106000401860006018600060185E
:105AB00060002018601820E8FF3F300C6000300CB8
:105AC0006000100C6000100660007006600080032B
:105AD0006000000F6000003D600080316000C02069
