:020000040800F2
:1000000040070020A1010008F9090008F1090008D3
:10001000F5090008110700083D160008000000005F
:10002000000000000000000000000000B301000814
:100030001909000800000000B7010008B901000814
:10004000BB010008BB010008BB010008BB010008A0
:10005000BB010008BB010008BB010008BB01000890
:10006000BB010008BB010008BB010008BB01000880
:10007000BB010008BB010008BB010008BB01000870
:10008000BB010008BB010008BB010008BB01000860
:10009000BB010008BB010008BB010008BB01000850
:1000A000BB010008BB010008BB010008BB01000840
:1000B000250D0008550D0008890D0008BB0100083A
:1000C000BB010008BB010008BB010008BB01000820
:1000D000BB01000805110008E1110008C112000869
:1000E000BB010008BB010008BB010008BB01000800
:1000F000BB010008BB010008BB010008BB010008F0
:10010000BB010008BB010008BD0D0008BB010008D1
:100110004D0F000829100008F10D0008250E0008F9
:10012000BB010008BB010008BB010008BB010008BF
:10013000BB010008BB010008BB010008BB010008AF
:10014000BB010008BB010008BB010008BB0100089F
:10015000BB010008BB010008BB0100089D1300089B
:10016000BB010008BB010008BB010008BB0100087F
:10017000BB010008BB010008BB010008BB0100086F
:10018000BB010008BB010008DFF810D000F020FA26
:1001900000480047AD250008AFF30080400700206D
:1001A0000648804706480047FEE7FEE7FEE7FEE711
:1001B000FEE7FEE7FEE7FEE7FEE7FEE7BD0C000810
:1001C00089010008421C10F8011B0029FBD1801A8C
:1001D000704730B50B46014600202022012409E07B
:1001E00021FA02F59D4205D303FA02F5491B04FAF0
:1001F00002F52844151EA2F10102F1DC30BD2DE903
:10020000F05F0546002092469B468846064681469A
:1002100040241BE0284641464746224600F0F9F9B3
:1002200053465A46C01A914110D3114618462246E9
:1002300000F0E0F92D1A67EB01084F462246012035
:10024000002100F0D7F917EB00094E41201EA4F160
:100250000104DFDC484631462A464346BDE8F09FAC
:100260002DE9FE4F804681EA0300C00F0C46009046
:1002700021F0004123F00045B8EB0200A94105D26E
:100280004046214690461C460B46024623F000405D
:10029000104347D0270DC7F30A00C3F30A51029059
:1002A000401A019040286BDAC3F3130040F4801B1E
:1002B0000098924620B10023D2EB030A63EB0B0BAC
:1002C00001985946C0F14002504600F093F90646A5
:1002D0000D4650465946019A00F0ABF910EB080064
:1002E0006141002487EA115284EAE7731A4340D03F
:1002F000009A62B3019A012A4FEA075215DC001BEB
:1003000061EB02014FF0004202EA0752CDE90042E0
:10031000001C41F5801132462B4600F0ABF903B0CA
:10032000BDE8F08F40462146F9E7001B61EB020172
:10033000001C41F5801300185B412018A2F500173E
:1003400047EB030140EAD570B6196D4111E06D0825
:100350004FEA360645EAC0754FEA0752001B61EBCB
:100360000201001C41F5801149084FEA30000019D4
:10037000514132462B4603B0BDE8F04F00F06BB957
:100380000098012240000023D0EB020263EBE073EF
:10039000009821464FEAE074B8EB000061EB0401DD
:1003A000E9E783F000435BE781F0004158E72DE97E
:1003B000FE4F81EA030404F0004421F00041009460
:1003C0004FF0000B23F0004350EA01045ED052EAE4
:1003D00003045BD0C3F30A54C1F30A552C44A4F2BE
:1003E000F3340194A0FB0254C1F3130141F48011D2
:1003F000C3F3130343F4801301FB024400FB034ED9
:10040000840A970A44EA815447EA8357A4FB0768A1
:1004100002958D0A05FB07854FEA932C04FB0C54CB
:100420002705029D4FEA065847EA1637B5EB08053F
:100430006EEB070C870E920E47EA811742EA831291
:10044000A7FB0201B6EB0B0164EB00042B0D43EAA2
:100450000C335E1844EB1C50DA465146E7FB0201B0
:10046000C5F313044FEA0B3343EA14534FEA043243
:10047000019C43EA0603A4F10C040294009CCDE91C
:1004800000B400F0F7F803B0BDE8F08F002001469B
:10049000F9E72DE9F04D81EA030404F0004B21F067
:1004A000004514464FF0000A23F0004150EA0502CF
:1004B00020D054EA01021DD0C5F30A570246C5F305
:1004C0001303C1F31300C1F30A5640F4801543F43B
:1004D0008013A7EB0608101BD64608F2FD3873EB15
:1004E000050002D308F1010801E092185B41B8F160
:1004F000000F03DA00200146BDE8F08D00204FF424
:100500008011064684460EE0171B73EB050705D3E2
:10051000121B63EB050306434CEA010C49084FEA42
:10052000300092185B4150EA0107EDD152EA030016
:1005300012D082EA040083EA0501084305D0101BAB
:10054000AB4106D20122002306E000224FF0004317
:1005500002E06FF0010253101AEB06004CEB085159
:1005600010EB0A0041EB0B01BDE8F04D00F073B851
:10057000C1F30A52C1F3130140F2FF3341F4801179
:100580009A4202DA00200146704740F233439A4211
:10059000A2F2334202DC524200F03BB800F02AB82B
:1005A00030B5041E71F1000404DB4FF000444042FA
:1005B00064EB0101141E73F1000405DB1C464FF0CF
:1005C0000043524263EB0403994208BF904230BD9E
:1005D000064C074D06E0E06840F0010394E8070090
:1005E00098471034AC42F6D3FFF7D2FD48350008E7
:1005F00068350008202A04DB203A00FA02F10020C6
:1006000070479140C2F1200320FA03F31943904050
:100610007047202A04DB203A21FA02F000217047BB
:1006200021FA02F3D040C2F120029140084319465A
:100630007047202A06DBCB17203A41FA02F043EA42
:10064000E07306E041FA02F3D040C2F1200291408B
:1006500008431946704710B5141E73F1000408DAF8
:10066000401C41F1000192185B411A4301D120F076
:10067000010010BD2DE9F04D92469B4611B1B1FA33
:1006800081F202E0B0FA80F220329046FFF7B2FF2A
:1006900004460F4640EA0A0041EA0B0153465A4617
:1006A000084313D0114653EA010019D0C8F14002A3
:1006B0005046FFF7AEFF05460E46504659464246A5
:1006C000FFF798FF084305D0012004E02046394693
:1006D000BDE8F08D0020054346EAE0762C43374321
:1006E0000A986305E40AA0EB08000022FD0A44EA28
:1006F00047540A3002D500200146E9E701051019E8
:100700006941DDE9084500196941BDE8F04DA2E7FE
:1007100000BFFEE70246094B9A4201D2084801E0B9
:100720000648103801F000531BB1064B0B40C36064
:1007300002E0044B0B4083607047000010640240ED
:10074000006002407D0F7D0F21B1026842F001027E
:10075000026003E0026822F00102026070470000BC
:10076000016821F0010101600021016041608160A8
:10077000C1600161212141614A49884204D13D2182
:10078000484A103A91608CE046491831884205D1B8
:100790004FF47461434A103A916082E0414930312C
:1007A000884205D14FF474113E4A103A916078E0C6
:1007B0003C494831884205D14FF07461394A103ABA
:1007C00091606EE037496031884204D13649354A3C
:1007D000103AD16065E033497831884204D1334919
:1007E000304A103AD1605CE02E499031884204D101
:1007F0002F492C4A103AD16053E02A49A831884247
:1008000005D14FF03D51274A103AD16049E02949BE
:10081000884204D13D21274A083A116041E0254928
:100820001831884205D14FF47461224A083A1160A8
:1008300037E020493031884205D14FF474111D4A08
:10084000083A11602DE01B494831884205D14FF02C
:100850007461184A083A116023E0164960318842F1
:1008600004D11149134A121F11601AE0114978315D
:10087000884204D10D490F4A121F116011E00D4941
:100880009031884204D10A490A4A121F116008E0D7
:100890000849A831884204D14FF03D51054A121F42
:1008A00011607047106002403D000020400F0020A2
:1008B00000003D20106402400146486880B2704745
:1008C00010B500220268134B1A40CC680B68234312
:1008D0004C6923438C692343CC6923430C6A23432B
:1008E0004C6A23438C6A23434C6B23438C6B234316
:1008F0001A430260426922F00702D1E90B34234314
:100900001A4342610B6943604B6883608B68C36024
:1009100010BD00003F801CF07047F0B50A46002172
:100920000023002400BF3DE0012505FA01F315680E
:1009300005EA03049C4234D105684F000326BE40FB
:10094000B543056015794E00B5400668354305602E
:100950001579012D02D01579022D16D185684F0029
:100960000326BE40B543856055794E00B540866884
:1009700035438560456801268E40B543456045682E
:1009800096798E40B6B235434560C5684F00032660
:10099000BE40B543C560D5794E00B540C668354305
:1009A000C560491C1029BFD3F0BDF0B50023002459
:1009B0004D07ED0E02FA05F3CE1000F1200555F8B3
:1009C00026504E07F70E0F26BE40B543CF1000F15C
:1009D000200646F82750CE1000F1200555F8265085
:1009E00045EA0304CE1000F1200545F82640F0BD8D
:1009F00000BFFEE700BFFEE77047000070B50021B2
:100A000000230F22C4781CB3174C246804F4E0645C
:100A1000C4F5E064C4F30721C1F10404E3B20A4160
:100A200044789C40E1B28478144021430C07210EA5
:100A30000E4C05786155047804F01F050124AC4084
:100A400005786D11AD0005F1E025C5F8004109E01C
:100A5000047804F01F050124AC40054D067876119A
:100A600045F8264070BD00000CED00E000E400E019
:100A700080E100E002490143024A11607047000032
:100A80000000FA050CED00E029B1064A12680243A5
:100A9000044B1A6004E0034A12688243014B1A6057
:100AA000704700003038024029B1064A12680243FC
:100AB000044B1A6004E0034A12688243014B1A6037
:100AC000704700004038024029B1064A12680243CC
:100AD000044B1A6004E0034A12688243014B1A6017
:100AE0007047000044380240F0B500210022002485
:100AF000022500260223324F3F6807F00C0121B186
:100B0000042905D0082937D105E02E4F076036E0CB
:100B10002D4F076033E02A4F3F1F3F68C7F38056D1
:100B2000274F3F1F3F6807F03F036EB1264FB7FBCB
:100B3000F3F7DFF88CC0ACF1040CDCF800C0CCF3A8
:100B4000881C07FB0CF40CE01E4FB7FBF3F7DFF833
:100B500070C0ACF1040CDCF800C0CCF3881C07FBBF
:100B60000CF4174F3F1F3F68C7F301477F1C7D0000
:100B7000B4FBF5F7076002E0124F076000BF00BF4B
:100B80000F4F3F6807F0F0010909104F7A5C0768C2
:100B9000D74047600A4F3F6807F4E051890A0B4F7E
:100BA0007A5C4768D7408760054F3F6807F460412B
:100BB000490B064F7A5C4768D740C760F0BD00001C
:100BC000083802400024F40000127A00E8000020F7
:100BD0000CB50020019000903448006840F480304B
:100BE0003249086000BF3148006800F400300090CE
:100BF0000198401C0190009818B90198B0F5A04FD9
:100C0000F1D12A48006800F4003010B101200090B2
:100C100001E0002000900098012846D12348403090
:100C2000006840F080502149403108602048006849
:100C300040F440401E4908601C48083000681B49C9
:100C4000083108600846006840F400400860084623
:100C5000006840F4A05008601648091F0860081F8B
:100C6000006840F08070091F086000BF0F480068EE
:100C700000F000700028F9D040F205700E490860BD
:100C80000A480830006820F003000849083108606D
:100C90000846006840F00200086000BF03480830C2
:100CA000006800F00C000828F8D10CBD00380240A4
:100CB0000070004008544007003C024010B5154841
:100CC000006840F47000134908601348006840F061
:100CD00001001149086000200F49083108600E48E2
:100CE00000680E4908400C4908600D48091D08605D
:100CF000081F006820F48020091F086000200649B2
:100D00000C310860FFF764FF4FF000600149803943
:100D1000086010BD88ED00E000380240FFFFF6FEDD
:100D20001030002410B50121880700F0AAF801282E
:100D30000BD10121800700F092F80448006820B12F
:100D4000034A1068014A1168884710BD100300204B
:100D50002803002010B50121084800F092F801286E
:100D60000BD10121054800F07AF80548406820B110
:100D7000044A5068024A5168884710BD0004004088
:100D8000100300202803002010B50121084800F0BE
:100D900078F801280BD10121054800F060F80548DA
:100DA000806820B1044A9068024A9168884710BD63
:100DB00000080040100300202803002010B5012186
:100DC000084800F05EF801280BD10121054800F029
:100DD00046F80548C06820B1044AD068024AD16884
:100DE000884710BD000C004010030020280300209D
:100DF00010B50121084800F044F801280BD1012169
:100E0000054800F02CF80548006920B1044A106933
:100E1000024A1169884710BD0010004010030020ED
:100E20002803002010B50121084800F02AF8012805
:100E30000BD10121054800F012F80548406920B1A6
:100E4000044A5069024A5169884710BD00140040A5
:100E50001003002028030020CA4302827047CA43BF
:100E60000282704721B1028842F00102028004E050
:100E700002884FF6FE731A40028070470146486AA6
:100E8000704730B50246002000230024158A05EA89
:100E90000103958905EA010413B10CB1012000E0BA
:100EA000002030BD0146088D70471AB183890B437D
:100EB000838102E083898B438381704701894FF6E8
:100EC000F87211400181704700220288184B984245
:100ED0000ED0184B98420BD0B0F1804F08D0164B73
:100EE000984205D0154B984202D0154B984204D138
:100EF0004FF68F731A404B881A43124B984207D013
:100F0000114B984204D04FF6FF431A400B891A4305
:100F100002804B68C3620B880385054B984202D060
:100F2000044B984201D18B7A038601238382704758
:100F3000000001400004014000040040000800409F
:100F4000000C0040001000400014004038B5334849
:100F5000C46804B938BD40F22441314800F0B0FA09
:100F6000002858D02E480088C0B200902C48001DA0
:100F70000088C0B200902B48FFF79EFCA18C491C52
:100F8000081AA18D0844A085A08D401EE169014486
:100F9000802000594160802000590830802108518C
:100FA0008020015988200059814203D104F130008A
:100FB00080210851608CA18D401AA18C884206DBEB
:100FC000A18DE069014480200059016005E0802086
:100FD0000059E16901600020A08500211148FFF758
:100FE000B3FB00BF0F484038006C00F00100002840
:100FF000F8D1A08C401C0B4940394864802000592E
:101000000068C8644FF081510648FFF783FB012157
:101010000448FFF799FB00BF9CE70000F80200209E
:10102000004C00404060024038B53248046904B9C1
:1010300038BD40F22441304800F042FA002856D032
:101040002D480088C0B200902B488088C0B2009024
:101050002A48FFF731FCA18C491C081AA18D0844CD
:10106000A085A08D401EE1690144802000594160A7
:1010700080200059083080210851802001598820A3
:101080000059814203D104F1300080210851608C65
:10109000A18D401AA18C884206DBA18DE069014434
:1010A00080200059016005E080200059E16901605D
:1010B0000020A08500211148FFF746FB00BF0F4824
:1010C0001038006900F001000028F8D1A08C401C05
:1010D0000A4910394861802000590068C8610849F0
:1010E0000648FFF717FB01210448FFF72DFB00BF5F
:1010F0009EE70000F802002000500040106002400F
:101100002000001038B53248046804B938BD40F2F8
:101110002441304800F0D4F9002857D02D480088E9
:10112000C0B200902B488088C0B200902A48FFF7D8
:10113000C3FBA18C491C081AA18D0844A085A08D71
:10114000401EE1690144802000594160802000591F
:10115000083080210851802001598820005981429F
:1011600003D104F1300080210851608CA18D401A18
:10117000A18C884206DBA18DE069014480200059E2
:10118000016005E080200059E16901600020A08530
:1011900000211148FFF7D8FA00BF0F48006800F09F
:1011A00001000028F9D1A08C401C0B49091D0860E2
:1011B00080200059006808490C310860074906483A
:1011C000FFF7A8FA01210448FFF7BEFA00BF9DE728
:1011D000F80200200010014088640240000800204E
:1011E00038B53348446804B938BD40F22441314829
:1011F00000F066F9002859D02E480088C0B200904F
:101200002C48001D0088C0B200902B48FFF754FB0B
:10121000A18C491C081AA18D0844A085A08D401EF0
:10122000E169014480200059416080200059083064
:10123000802108518020015988200059814203D122
:1012400004F1300080210851608CA18D401AA18CDE
:10125000884206DBA18DE0690144802000590160CD
:1012600005E080200059E16901600020A08500218F
:101270001148FFF769FA00BF0F48006800F001004D
:101280000028F9D1A08C401C0B49091D0860802062
:101290000059006808498839C1F894000749064890
:1012A000FFF738FA01210448FFF74EFA00BF9BE729
:1012B000F80200200044004088600240000800203E
:1012C00038B53248846804B938BD40F2244130480A
:1012D00000F0F6F8002857D02D480088C0B20090E2
:1012E0002B48001D0088C0B200902A48FFF7E4FA9E
:1012F000A18C491C081AA18D0844A085A08D401E10
:10130000E169014480200059416080200059083083
:10131000802108518020015988200059814203D141
:1013200004F1300080210851608CA18D401AA18CFD
:10133000884206DBA18DE0690144802000590160EC
:1013400005E080200059E16901600020A0850021AE
:101350001048FFF7F9F900BF0E482838806A00F0FE
:1013600001000028F8D1A08C401C0A492839C86225
:10137000802000590068486307490648FFF7CAF90A
:1013800001210448FFF7E0F900BF9DE7F8020020C3
:1013900000480040286002400008001038B533487B
:1013A000446904B938BD40F22441314800F088F85E
:1013B000002858D02E480088C0B200902C48001D4C
:1013C0000088C0B200902B48FFF776FAA18C491C28
:1013D000081AA18D0844A085A08D401EE169014432
:1013E0008020005941608020005908308021085138
:1013F0008020015988200059814203D104F1300036
:1014000080210851608CA18D401AA18C884206DB96
:10141000A18DE069014480200059016005E0802031
:101420000059E16901600020A08500211148FFF703
:101430008BF900BF0F48006800F001000028F9D1C7
:10144000A08C401C0B49091D0860802000590068D1
:1014500008490C31086008490648FFF75BF901218B
:101460000448FFF771F900BF9CE70000F802002074
:1014700000140140286402400008001021B1828954
:1014800042F40052828104E082894DF6FF731A40D3
:10149000828170471AB1838A0B43838202E0838A78
:1014A0008B438382704702460020B1F5007F00D154
:1014B00000BF13880B400BB1012000E000207047F3
:1014C00070B50246002400230025002040F66A166D
:1014D000B14200D100BFC1F3421501F01F03012644
:1014E00006FA03F3012D02D19689334006E0022D5E
:1014F00002D1168A334001E0968A33400C1201264D
:1015000006FA04F41688344013B10CB1012000E04F
:10151000002070BDF0B50346002400260025002001
:1015200040F66A17B94200D100BF1846C1F3421411
:1015300001F01F06012707FA06F5012C01D10C3036
:1015400004E0022C01D1103000E014301AB1076819
:101550002F43076002E00768AF430760F0BD00005B
:101560002DE9FF4705460E460024A14600BFA046D0
:10157000B08900B100BF2C8A24F44054F0880443A1
:101580002C82AC8941F20C608443B08831890843D5
:10159000718908430443AC81AC8A24F44074B08957
:1015A0000443AC826846FFF79FFA2048854202D088
:1015B0001F48854202D1DDF80C9001E0DDF808906B
:1015C000A88900F4004040B109EBC90000EB091004
:1015D00031684900B0FBF1F707E009EBC90000EB07
:1015E000091031688900B0FBF1F76420B7FBF0F017
:1015F00004012009642101FB1078A88900F400404F
:1016000040B1322000EBC800B0FBF1F000F0070061
:10161000044308E0322000EB08106421B0FBF1F035
:1016200000F00F0004432C81BDE8FF87001001404B
:1016300000140140C1F308028280704700BFFEE73A
:101640007CB50C001D461646014601D0601E00E028
:101650000020CDE90010064B6A462946304600F0CE
:101660000DFC002C02D0009A002111707CBD0000FE
:101670008325000802E008C8121F08C1002AFAD119
:1016800070477047002001E001C1121F002AFBD102
:1016900070470000014609B1087D10B94FF0FF30D6
:1016A00070470868B0F1804F01D100201FE0174B50
:1016B0000868984201D1012019E0154B086898424A
:1016C00001D1022013E0134B0868984201D1032096
:1016D0000DE0114B0868984201D1042007E00F4B40
:1016E0000868984201D1052001E04FF0FF30024622
:1016F000002A06DB00200A4B43F82200094B43F87E
:1017000022000020087500BFCAE700000004004066
:1017100000080040000C0040001000400014004091
:10172000100300202803002070B505460C462868E9
:10173000FFF7B8FB532802D04FF0FF3070BD04E034
:101740004FF47A71284600F006F8201EA4F1010437
:10175000F6D12046F2E72DE9F04704460E46206810
:10176000FFF7A0FB532803D04FF0FF30BDE8F08710
:101770002068FFF783FB0546E08800F1010800BF01
:101780002068FFF77BFB0746AF4201D3781B02E0DE
:10179000A8EB050038448146B145F1D33046E5E772
:1017A0000FB438B50848046814B938BC5DF814FBA8
:1017B00005A800902046009A049900F03DFA002008
:1017C000009000BFF1E70000F802002010B50348C8
:1017D0000468204600F056FA10BD0000F802002010
:1017E00070B504460D460548066806B970BD2A4620
:1017F0002146304600F068FA00BFF7E7F802002003
:101800000FB438B50848446814B938BC5DF814FB07
:1018100005A800902046009A049900F00DFA0020D7
:10182000009000BFF1E70000F802002010B5034867
:101830004468204600F026FA10BD0000F80200209F
:1018400070B504460D460548466806B970BD2A467F
:101850002146304600F038FA00BFF7E7F8020020D2
:101860000FB438B50848846814B938BC5DF814FB67
:1018700005A800902046009A049900F0DDF90020A8
:10188000009000BFF1E70000F802002010B5034807
:101890008468204600F0F6F910BD0000F802002030
:1018A00070B504460D460548866806B970BD2A46DF
:1018B0002146304600F008FA00BFF7E7F8020020A2
:1018C0000FB438B50848C46814B938BC5DF814FBC7
:1018D00005A800902046009A049900F0ADF9002078
:1018E000009000BFF1E70000F802002010B50348A7
:1018F000C468204600F0C6F910BD0000F8020020C0
:1019000070B504460D460548C66806B970BD2A463E
:101910002146304600F0D8F900BFF7E7F802002072
:101920000FB438B50848046914B938BC5DF814FB25
:1019300005A800902046009A049900F07DF9002047
:10194000009000BFF1E70000F802002010B5034846
:101950000469204600F096F910BD0000F80200204E
:1019600070B504460D460548066906B970BD2A469D
:101970002146304600F0A8F900BFF7E7F802002042
:101980000FB438B50848446914B938BC5DF814FB85
:1019900005A800902046009A049900F04DF9002017
:1019A000009000BFF1E70000F802002010B50348E6
:1019B0004469204600F066F910BD0000F8020020DE
:1019C00070B504460D460548466906B970BD2A46FD
:1019D0002146304600F078F900BFF7E7F802002012
:1019E000014611B191F8280010B94FF0FF3070474F
:1019F000002081F8280000BFF9E7000010B590B082
:101A0000044685492068884204D101218805FFF7F2
:101A10003BF82BE081492068884204D10121480528
:101A2000FFF732F822E07E492068884204D1012184
:101A30004805FFF729F819E07A492068884204D15F
:101A400001214805FFF720F810E077492068884217
:101A500004D101214805FFF717F807E07349206812
:101A6000884203D101218805FFF70EF86A4A2168F0
:101A7000914201D16E4922E0684A2168914201D128
:101A80006C491CE0664A2168914202D1694960397B
:101A900015E0644A2168914202D1664948390EE056
:101AA000614A2168914202D16249783907E05F4A70
:101AB0002168914202D15E49603900E00021084668
:101AC000FEF74EFE54492068884202D14FF0006074
:101AD00023E052492068884202D14FF000601CE0A8
:101AE0004F492068884202D14FF0006015E04D490F
:101AF0002068884202D14FF000600EE04A49206819
:101B0000884202D14FF0006007E0484920688842CF
:101B100002D14FF0206000E0002001902068001DFD
:101B20000290002008900690E06903900020099040
:101B30004FF480600790A08C401C0590002004901A
:101B40000A904FF400300B9000200C9003200D9071
:101B500000200F900E90304A2168914201D1344903
:101B600022E02E4A2168914201D132491CE02C4AE0
:101B70002168914202D12F49603915E0294A216834
:101B8000914202D12B4948390EE0274A21689142FF
:101B900002D12849783907E0244A2168914202D1CC
:101BA0002349603900E00021084601A9FEF788FEBC
:101BB000194A2168914201D11D4922E0174A216842
:101BC000914201D11B491CE0154A2168914202D182
:101BD0001849603915E0134A2168914202D115492C
:101BE00048390EE0104A2168914202D111497839F2
:101BF00007E00E4A2168914202D10D49603900E0A8
:101C0000002108460121FEF79FFD012240212068A6
:101C1000FFF740FC10B010BD001001400044004030
:101C200000480040004C00400050004000140140BB
:101C30008864024088600240F7B504460E46218C55
:101C4000A0693246029BFFF7FBFC00250DE000BFB8
:101C500080212068FFF727FC0128F9D1A269515D96
:101C60002068FFF7E7FC681C85B2A069FEF7AAFAB6
:101C7000A842ECD800BF40212068FFF714FC0128DF
:101C8000F9D1FEBD0146802043588420405883424C
:101C900018D0002384204058406843708420405866
:101CA00002688420405808308423585084204358C8
:101CB00088204058834203D101F1300084235850DA
:101CC000104670470020FCE72DE9F04104460E461F
:101CD000174600250BE0715D2068FFF7ABFC00BFE5
:101CE00080212068FFF7DFFB0028F9D06D1CBD4282
:101CF000F1D3BDE8F08100002DE9FF5F82B0002143
:101D0000DDE90430020DDDF840B0034318D044F69D
:101D10001050A2F2FF3242431514119801281FD02F
:101D2000A5EB0B00401C5FEA000A4FF000064E4F87
:101D3000DFF83891B046504615D5CAF1000413E0DB
:101D4000119801244AA3012801D16FEA0B010298DE
:101D5000119AC0E90031C0E9024206B0BDE8F09F27
:101D6000CBF10000DFE704460021404A491842EB6E
:101D70000450CDE9001012E0E00707D032463B46A0
:101D800040464946FEF713FB8046894632463B46AD
:101D900010461946FEF70BFB06460F466410002C52
:101DA000EAD1DDE90401DDE90023BAF1000F06DA2A
:101DB000FEF7FDFA42464B46FEF7F9FA05E0FEF75C
:101DC00068FB42464B46FEF764FB04460E46002283
:101DD000284BFEF7E5FB03D84FF0FF30014607E044
:101DE0000022254B20463146FEF73AFAFEF7C0FBAB
:101DF000102409E0002C0ADB0A220023FEF7FFF979
:101E0000039B30321A55641E50EA0102F2D1641C61
:101E1000039AC4F111031444119A012A03D0012238
:101E200008430DD10AE0084304D000204FF0110B05
:101E3000119072E7A3EB0B056D1E0DE05B4504DD11
:101E40004FF0000205F1010504E003DA4FF0000253
:101E5000A5F10105002AECD002981199C0E90231E0
:101E6000C0E9004579E70000000014400000F03FA1
:101E7000300000000000F0430000E03F2DE9FF4F7C
:101E800095B09A46884606460025EEE1252877D18A
:101E900000242746F94A0121039400E0044316F880
:101EA000013F203B01FA03F01042F7D130782A2895
:101EB00011D06FF02F033078A0F13002092A16D824
:101EC000039A44F0020402EB820203EB4202104444
:101ED000761C0390EFE758F8042B0392002A03DAEC
:101EE000504244F40054039044F00204761C3078CD
:101EF0002E2816D116F8010F44F004042A280DD01C
:101F00006FF02F023078A0F13003092B09D807EBCE
:101F1000870302EB4303C718761CF3E758F8047BEA
:101F2000761C30786C280FD006DC4C2817D0682837
:101F30000DD06A2814D104E0742810D07A280FD16B
:101F40000DE044F400140AE044F4801401E044F489
:101F500040147278824202D104F58014761C761CFB
:101F6000307866280BD013DC582877D009DC00289D
:101F700075D04528F6D04628F4D047281AD193E1E9
:101F800018E0632835D0642879D0652812D18BE118
:101F9000702873D008DC6728F1D069286FD06E28CC
:101FA0000DD06F2806D1ACE073282CD0752874D0E2
:101FB000782853D05246179990476D1C54E1C4F3CA
:101FC0000250022809D003280DD0D8F800100428A8
:101FD0000DD00D6008F1040846E1D8F80010EA17AA
:101FE000C1E90052F6E7D8F800100D80F2E70D7055
:101FF000F0E718F8041B8DF8001000208DF80100A0
:10200000EB46012003E058F804BB4FF0FF306107B6
:102010004FF0000102D40DE009F101018946B942F7
:102020000FDA8145F8DB1BF809100029F4D108E02C
:1020300009F1010189468142FADB1BF809100029E8
:10204000F6D103985346A0EB090721463846179A64
:1020500000F080FA284400EB090507E044E008E1BD
:102060000DE01BF8010B524617999047B9F1010991
:10207000F7D2534621463846179AF2E039E00A2152
:10208000C4F302524FF0000B0091022A06D058F818
:10209000040BC117032A09D00AE023E008F1070066
:1020A00020F00702F2E80201904605E000B2C117F5
:1020B000042A01D140B2C117002906DA0A460021DC
:1020C000404261EB02012D2202E0220504D52B22C1
:1020D0008DF80420012203E0E20701D02022F7E777
:1020E000914657E00A2100E010214FF0000B0091CB
:1020F0000BE010214FF0000B44F00404082700917E
:1021000003E008204FF0000B0090C4F30252022AB3
:1021100005D058F8040B0021032A08D008E008F184
:10212000070020F00702F2E80201904603E080B2C7
:10213000042A00D1C0B24FF0000922072AD5327814
:10214000702A07D0DDF800C08CF0100C5CEA0B0C94
:1021500005D00EE040228DF80420012208E050EA6C
:10216000010306D030238DF804308DF805200222BB
:102170009146009B83F0080353EA0B030AD150EA0F
:10218000010201D1620705D530228DF804204FF0FD
:1021900001097F1E3278582A04D039A20C920CAA69
:1021A00002920BE03BA2F9E75B46009AFEF727F8A4
:1021B0000C9B9B5C029A521E0292137050EA010221
:1021C000F2D1029804A9081A00F1200B600702D589
:1021D00024F4803400E001275F4502DDA7EB0B000B
:1021E00000E0002000EB0B01009003984944401AE6
:1021F0000390E00306D453462146179A039800F053
:10220000A9F90544002706E001A85246C05D1799C8
:1022100090476D1C7F1C4F45F6DBE0030CD5534601
:102220002146179A039800F095F9054404E0302000
:102230005246179990476D1C0099481E009000293E
:10224000F5DC08E00298029952460078491C029198
:10225000179990476D1CBBF10001ABF1010BF1DC4C
:102260005BE100F065F90544761C307800287FF4C6
:102270000DAE19B02846BDE8F08F00000928010016
:1022800030313233343536373839616263646566EC
:1022900000000000303132333435363738394142AE
:1022A0004344454600000000600700D4062708F1BB
:1022B000070020F00700F0E80223804603F0004CFE
:1022C0005FEA0C0001D097A009E0200501D596A097
:1022D00005E0E00701D095A001E0AFF24C001390BB
:1022E000307823F0004365280CD006DC452809D05F
:1022F00046281DD047287FD13BE0662818D06728A4
:102300007AD136E00021112F01DB112000E0781C8A
:10231000CDE9000104A90CA8FFF7EEFCDDE90D01F1
:102320000C9A4FF0000B07F10109109200914EE05A
:102330004FF000400097CDE9011004A90CA8FFF769
:10234000DBFCDDE90D020C9B0F994FF0000B914671
:102350001093009211B9791C00EB0109B7EB090049
:1023600003D4C0F1FF3B07F10109A9EB070001907D
:1023700042E0012F00DA01270021112F01DD112099
:1023800000E03846CDE9000104A90CA8FFF7B4FC31
:10239000DDE90D010C9A00914FF0000BB946109247
:1023A00021070FD4009A4A4503DA914601E0A9F1CA
:1023B0000109B9F1010F05DD109AA9F10101515C84
:1023C0003029F4D0B84202DA10F1040F03DA012107
:1023D000CDE9011010E0002803DC8344A9EB0001E3
:1023E00002E0411C494500DD8946A0EB0B00401C82
:1023F00001904FF000400290200705D40198484515
:1024000002DB4FF0FF30019000208DF84B00029866
:102410000DF14B07B0F1004F25D002200C902B207E
:102420000D90029800280CDA404202902D200D9069
:1024300007E00A210298FDF7CCFE3031029007F840
:10244000011D0C99481E0C900029F2DC029800280E
:10245000EFD1791E0D980870307800F0200040F020
:10246000450007F8020D11A8C01BC01D029013986B
:10247000007800B1012000EB0901019801EBE07147
:10248000029801440398401A401E0390E00306D4CA
:1024900053462146179A039800F05CF805441398B8
:1024A000007818B15246179990476D1CE00323D568
:1024B00053462146179A039800F04CF805441BE058
:1024C000BBF1000F07DB0098584504DD1098179901
:1024D00010F80B0001E01799302052469047019800
:1024E0000BF1010B401E05F10105019004D12E20D6
:1024F0005246179990476D1CB9F10001A9F10109E5
:10250000DEDC05E017F8010B5246179990476D1C69
:102510000299481E02900029F4DC53462146179A7E
:1025200003989EE62D0000002B0000002000000014
:102530002DE9F041044600251E461746880404D4C0
:1025400005E039462020B0476D1C641EF9D52846A9
:10255000BDE8F0812DE9F041044600251E46904675
:10256000C80301D5302700E02027880404D505E002
:1025700041463846B0476D1C641EF9D52846BDE873
:10258000F0814A68002A06D00A68531C0B6010705C
:102590004868401E48607047024908800121024A8D
:1025A00011707047E6000020E40000204FF44070F6
:1025B000FEF760FAA820FFF7EFFF0D4800F026F9BC
:1025C0000C4800F043F80C4800F040F80848D0F8F8
:1025D0008C100AA0884709E006484FF4FA71C269D6
:1025E00090470348D0F88C1006A08847F4E7000015
:1025F000000000209C000020C00000200D0A0D0AF1
:102600000000000074696D657232203530306D73E2
:102610002064656C6179210D0A00000070B50446E4
:10262000254603482946D0F88C2002A0904770BD6B
:10263000000000202573203530306D7320696E74E2
:10264000657272757074210D0A0000007FB5044632
:102650001CB94FF0FF3004B070BD2068B0F1804F5E
:1026600001D100201FE05F492068884201D101208C
:1026700019E05D492068884201D1022013E05B49DE
:102680002068884201D103200DE059492068884222
:1026900001D1042007E057492068884201D1052074
:1026A00001E04FF0FF3005465349A06841F825008E
:1026B0005249E06841F825002068B0F1804F04D10C
:1026C00001210846FEF7F0F92BE0464920688842D0
:1026D00004D101210220FEF7E7F922E042492068F7
:1026E000884204D101210420FEF7DEF919E03F49B8
:1026F0002068884204D101210820FEF7D5F910E0B6
:102700003B492068884204D101211020FEF7CCF912
:1027100007E038492068884203D101212020FEF7D4
:10272000C3F92068FEF7CAFB0020ADF80C00ADF835
:102730000600A088ADF80400E088029000208DF823
:102740000E0001A92068FEF7BFFBA068E0B30121DD
:102750002068FEF781FB012211462068FEF7A5FBE9
:102760002068B0F1804F01D11C201EE01D49206877
:10277000884201D11D2018E01B492068884201D100
:102780001E2012E019492068884201D132200CE055
:1027900017492068884201D1362006E01549206893
:1027A000884201D1372000E000208DF80000012090
:1027B0008DF80300207C8DF80100607C8DF802000C
:1027C0006846FEF71BF900BF01212068FEF74AFBAF
:1027D0000B48A0610B48E0610B4820620120207586
:1027E000002038E70004004000080040000C0040D2
:1027F00000100040001400401003002028030020B7
:1028000057170008291700089516000830B587B03B
:1028100004461CB94FF0FF3007B030BDF7492068BF
:10282000884201D100201FE0F5492068884201D18B
:10283000012019E0F3492068884201D1022013E009
:10284000F1492068884201D103200DE0EF4920685A
:10285000884201D1042007E0ED492068884201D177
:10286000052001E04FF0FF300546002D02DBE9486E
:1028700040F8254004F1300080210851842108519E
:1028800048308821085180200059E169016000200A
:10289000A085DA492068884204D101211020FEF782
:1028A00013F92BE0D6492068884204D1012148045D
:1028B000FEF7FAF822E0D3492068884204D10121CA
:1028C0008804FEF7F1F819E0CF492068884204D166
:1028D0000121C804FEF7E8F810E0CC4920688842DE
:1028E00004D101210805FEF7DFF807E0C849206898
:1028F000884203D101212020FEF7E6F8C649A068EE
:10290000884204D101210846FEF7BEF834E0C349ED
:10291000A068884204D101210220FEF7B5F82BE01F
:10292000BF49A068884204D101210420FEF7ACF819
:1029300022E0BC49A068884204D101210820FEF7AA
:10294000A3F819E0B849A068884204D101211020F9
:10295000FEF79AF810E0B549A068884204D1012139
:102960002020FEF791F807E0B149A068884203D122
:1029700001214020FEF788F8A7492069884204D148
:1029800001210846FEF780F834E0A4492069884216
:1029900004D101210220FEF777F82BE0A04920693D
:1029A000884204D101210420FEF76EF822E09D49FF
:1029B0002069884204D101210820FEF765F819E05A
:1029C00099492069884204D101211020FEF75CF862
:1029D00010E096492069884204D101212020FEF7A9
:1029E00053F807E092492069884203D10121402031
:1029F000FEF74AF802208DF8040000208DF806004A
:102A0000E068009001208DF8070002208DF8050095
:102A10006946A068FDF781FF02208DF804000020C0
:102A20008DF806006069009001208DF807000220F3
:102A30008DF8050069462069FDF76FFF6F49206832
:102A4000884271D1E268012A01D1002253E0E26894
:102A5000022A01D101224EE0E268042A01D10222B9
:102A600049E0E268082A01D1032244E0E268102A22
:102A700001D104223FE0E268202A01D105223AE098
:102A8000E268402A01D1062235E0E268802A01D1BD
:102A9000072230E0E268B2F5807F01D108222AE007
:102AA000E268B2F5007F01D1092224E0E268B2F5C4
:102AB000806F01D10A221EE0E268B2F5006F01D1F9
:102AC0000B2218E0E268B2F5805F01D10C2212E01F
:102AD000E268B2F5005F01D10D220CE0E268B2F5C8
:102AE000804F01D10E2206E0E268B2F5004F01D11D
:102AF0000F2200E0002211460722A068FDF755FFD3
:102B00006269012A01D1002254E06269022A01D1DE
:102B100001224FE06269042A01D102224AE062697F
:102B2000082A02D1032245E04AE06269102A01D155
:102B300004223FE06269202A01D105223AE062695D
:102B4000402A01D1062235E06269802A01D107229C
:102B500030E06269B2F5807F01D108222AE0626923
:102B6000B2F5007F01D1092224E06269B2F5806FDD
:102B700001D10A221EE06269B2F5006F01D10B2279
:102B800018E06269B2F5805F01D10C2212E062693F
:102B9000B2F5005F01D10D220CE06269B2F5804F01
:102BA00001D10E2206E06269B2F5004F01D10F2279
:102BB00000E00022114607222069FDF7F6FEEBE354
:102BC0000F49206888426ED1E268012A01D10022B3
:102BD00071E0E268022A01D101226CE0E268042A75
:102BE00001D1022267E0E268082A01D1032262E0F3
:102BF000E268102A1ED104225DE0000000100140AE
:102C00000044004000480040004C0040005000409C
:102C100000140140F80200200000024000040240BD
:102C200000080240000C0240001002400014024064
:102C300000180240E268202A01D105223BE0E26848
:102C4000402A01D1062236E0E268802A01D107221B
:102C500031E0E268B2F5807F01D108222BE0E26822
:102C6000B2F5007F01D1092225E0E268B2F5806F5C
:102C700001D10A221FE0E268B2F5006F01D10B22F8
:102C800019E0E268B2F5805F01D10C2213E0E2683E
:102C9000B2F5005F01D10D220DE0E268B2F5804F80
:102CA00002D10E2207E06AE0E268B2F5004F01D1DE
:102CB0000F2200E0002211460722A068FDF775FEF2
:102CC0006269012A01D1002253E06269022A01D11E
:102CD00001224EE06269042A01D1022249E06269C0
:102CE000082A01D1032244E06269102A01D104229A
:102CF0003FE06269202A01D105223AE06269402A58
:102D000001D1062235E06269802A01D1072230E034
:102D10006269B2F5807F01D108222AE06269B2F5CA
:102D2000007F01D1092224E06269B2F5806F01D1F0
:102D30000A221EE06269B2F5006F01D10B2218E091
:102D40006269B2F5805F01D10C2212E06269B2F5CE
:102D5000005F01D10D220CE06269B2F5804F01D114
:102D60000E2206E06269B2F5004F01D10F2200E0A9
:102D70000022114607222069FDF717FE0CE3F849EF
:102D80002068884271D1E268012A01D1002253E013
:102D9000E268022A01D101224EE0E268042A01D150
:102DA000022249E0E268082A01D1032244E0E268F5
:102DB000102A01D104223FE0E268202A01D1052235
:102DC0003AE0E268402A01D1062235E0E268802A32
:102DD00001D1072230E0E268B2F5807F01D10822FC
:102DE0002AE0E268B2F5007F01D1092224E0E2681E
:102DF000B2F5806F01D10A221EE0E268B2F5006FE1
:102E000001D10B2218E0E268B2F5805F01D10C22FB
:102E100012E0E268B2F5005F01D10D220CE0E26839
:102E2000B2F5804F01D10E2206E0E268B2F5004F04
:102E300001D10F2200E0002211460722A068FDF711
:102E4000B4FD6269012A01D1002254E06269022ABC
:102E500001D101224FE06269042A01D102224AE035
:102E60006269082A02D1032245E04AE06269102A19
:102E700001D104223FE06269202A01D105223AE013
:102E80006269402A01D1062235E06269802A01D1B7
:102E9000072230E06269B2F5807F01D108222AE082
:102EA0006269B2F5007F01D1092224E06269B2F5BE
:102EB000806F01D10A221EE06269B2F5006F01D174
:102EC0000B2218E06269B2F5805F01D10C2212E09A
:102ED0006269B2F5005F01D10D220CE06269B2F5C2
:102EE000804F01D10E2206E06269B2F5004F01D198
:102EF0000F2200E00022114607222069FDF755FD50
:102F00004AE298492068884271D1E268012A01D1D9
:102F1000002253E0E268022A01D101224EE0E26879
:102F2000042A01D1022249E0E268082A01D10322E1
:102F300044E0E268102A01D104223FE0E268202A3E
:102F400001D105223AE0E268402A01D1062235E0AB
:102F5000E268802A01D1072230E0E268B2F5807F82
:102F600001D108222AE0E268B2F5007F01D10922EE
:102F700024E0E268B2F5806F01D10A221EE0E26827
:102F8000B2F5006F01D10B2218E0E268B2F5805F64
:102F900001D10C2212E0E268B2F5005F01D10D22EE
:102FA0000CE0E268B2F5804F01D10E2206E0E26843
:102FB000B2F5004F01D10F2200E000221146082295
:102FC000A068FDF7F2FC6269012A01D1002254E0F9
:102FD0006269022A01D101224FE06269042A01D10B
:102FE00002224AE06269082A02D1032245E04AE04F
:102FF0006269102A01D104223FE06269202A01D1CE
:1030000005223AE06269402A01D1062235E0626970
:10301000802A01D1072230E06269B2F5807F01D1B8
:1030200008222AE06269B2F5007F01D1092224E07A
:103030006269B2F5806F01D10A221EE06269B2F5C1
:10304000006F01D10B2218E06269B2F5805F01D1F7
:103050000C2212E06269B2F5005F01D10D220CE092
:103060006269B2F5804F01D10E2206E06269B2F5C5
:10307000004F01D10F2200E00022114608222069F2
:10308000FDF793FC88E138492068884267D1E268FF
:10309000012A01D1002253E0E268022A01D1012273
:1030A0004EE0E268042A01D1022249E0E268082ADF
:1030B00001D1032244E0E268102A01D104223FE05A
:1030C000E268202A01D105223AE0E268402A01D1D3
:1030D000062235E0E268802A01D1072230E0E2686A
:1030E000B2F5807F01D108222AE0E268B2F5007FC4
:1030F00001D1092224E0E268B2F5806F01D10A22F1
:103100001EE0E268B2F5006F01D10B2218E0E26820
:10311000B2F5805F01D10C2212E0E268B2F5005FE7
:1031200001D10D220CE0E268B2F5804F01D10E22F0
:1031300006E0E268B2F5004F01D10F2200E0002264
:1031400011460822A068FDF730FC6269012A01D10E
:1031500000225AE06269022A08D1012255E05AE0B1
:1031600000480040004C0040005000406269042AC2
:1031700001D1022249E06269082A01D1032244E018
:103180006269102A01D104223FE06269202A01D13C
:1031900005223AE06269402A01D1062235E06269DF
:1031A000802A01D1072230E06269B2F5807F01D127
:1031B00008222AE06269B2F5007F01D1092224E0E9
:1031C0006269B2F5806F01D10A221EE06269B2F530
:1031D000006F01D10B2218E06269B2F5805F01D166
:1031E0000C2212E06269B2F5005F01D10D220CE001
:1031F0006269B2F5804F01D10E2206E06269B2F534
:10320000004F01D10F2200E0002211460822206960
:10321000FDF7CBFBC0E0B1492068884271D1E2687C
:10322000012A01D1002253E0E268022A01D10122E1
:103230004EE0E268042A01D1022249E0E268082A4D
:1032400001D1032244E0E268102A01D104223FE0C8
:10325000E268202A01D105223AE0E268402A01D141
:10326000062235E0E268802A01D1072230E0E268D8
:10327000B2F5807F01D108222AE0E268B2F5007F32
:1032800001D1092224E0E268B2F5806F01D10A225F
:103290001EE0E268B2F5006F01D10B2218E0E2688F
:1032A000B2F5805F01D10C2212E0E268B2F5005F56
:1032B00001D10D220CE0E268B2F5804F01D10E225F
:1032C00006E0E268B2F5004F01D10F2200E00022D3
:1032D00011460822A068FDF768FB6269012A01D146
:1032E000002254E06269022A01D101224FE06269A2
:1032F000042A01D102224AE06269082A02D103228B
:1033000045E049E06269102A01D104223FE0626988
:10331000202A01D105223AE06269402A01D1062221
:1033200035E06269802A01D1072230E06269B2F596
:10333000807F01D108222AE06269B2F5007F01D1C5
:10334000092224E06269B2F5806F01D10A221EE0F1
:103350006269B2F5006F01D10B2218E06269B2F523
:10336000805F01D10C2212E06269B2F5005F01D1E9
:103370000D220CE06269B2F5804F01D10E2206E009
:103380006269B2F5004F01D10F2200E00022114620
:1033900008222069FDF709FB606803900020ADF862
:1033A00018000C20ADF816000020ADF81400ADF8A0
:1033B0001200ADF8100003A92068FEF7D1F8012231
:1033C00040F224412068FEF7A5F84549206888426C
:1033D00001D125201EE043492068884201D12620E2
:1033E00018E041492068884201D1272012E03F4976
:1033F0002068884201D134200CE03D492068884291
:1034000001D1352006E035492068884201D14720A6
:1034100000E000208DF8080001208DF80B008DF8E9
:1034200009008DF80A0002A8FDF7E8FA2046FEF729
:10343000E5FA01212068FEF721F829492068884231
:1034400007D12C4844F88C0F2B4860602B48A060B3
:103450008C3C24492068884207D1294844F88C0FC5
:10346000284860602848A0608C3C1F49206888423A
:1034700007D1264844F88C0F254860602548A06095
:103480008C3C1A492068884207D1234844F88C0FA5
:10349000224860602248A0608C3C15492068884220
:1034A00007D1204844F88C0F1F4860601F48A06077
:1034B0008C3C0A492068884207D11D4844F88C0F8B
:1034C0001C4860601C48A0608C3C1C48C4F89800F4
:1034D000012084F828000020FFF79EB90014014065
:1034E000001001400044004000480040004C0040F3
:1034F00000500040A1170008E1170008CD17000890
:1035000001180008411800082D180008611800086B
:10351000A11800088D180008C1180008011900083A
:10352000ED18000821190008611900084D1900085C
:1035300081190008C1190008AD190008E119000837
:1035400074696D6572330000683500080000002062
:10355000F80000007416000860360008F80000202B
:1035600048060000841600080010014000C2010057
:1035700000000240000200000000024000040000C1
:10358000F8000020F80100200001000140000000C8
:10359000000000000000000000000000000000002B
:1035A000000000000000000000000000000000001B
:1035B000000000000000000000000000000000000B
:1035C00000000000000000000000000000000000FB
:1035D00000000000000000000000000000000000EB
:1035E00000000000000000000000000000000000DB
:1035F00000000000000000000000000000000000CB
:10360000000000000000004053004FC30000000015
:1036100000000000000000000000000000000000AA
:10362000000000000000000000040040CF208713CD
:103630001D260008403500080000000000000000C2
:10364000000000000000000000000000000000007A
:103650000000000001020304010203040607080938
:040000050800018965
:00000001FF
