:020000040800F2
:10000000C80600203102000807060008FF050008A6
:100010000306000819050008B50A000800000000E2
:100020000000000000000000000000004302000883
:100030001D050008000000004702000849020008F2
:100040004B0200084B0200084B0200084B0200085C
:100050004B0200084B0200084B0200084B0200084C
:100060004B0200084B0200084B0200084B0200083C
:100070004B0200084B0200084B0200084B0200082C
:100080004B0200084B0200084B0200084B0200081C
:100090004B0200084B0200084B0200084B0200080C
:1000A0004B0200084B0200084B0200084B020008FC
:1000B0004B0200084B0200084B0200084B020008EC
:1000C0004B0200084B0200084B0200084B020008DC
:1000D0004B0200084B0200084B0200084B020008CC
:1000E0004B0200084B0200084B0200084B020008BC
:1000F0004B0200084B0200084B0200084B020008AC
:100100004B0200084B0200084B0200084B0200089B
:100110004B0200084B0200084B0200084B0200088B
:100120004B0200084B0200084B0200084B0200087B
:100130004B0200084B0200084B0200084B0200086B
:100140004B0200084B0200084B0200084B0200085B
:100150004B0200084B0200084B0200084B0200084B
:100160004B0200084B0200084B0200084B0200083B
:100170004B0200084B0200084B0200084B0200082B
:100180004B0200084B02000800F002F800F040F8B3
:100190000AA090E8000C82448344AAF10107DA45E2
:1001A00001D100F035F8AFF2090EBAE80F0013F0F4
:1001B000010F18BFFB1A43F0010318476411000038
:1001C00084110000103A24BF78C878C1FAD85207C9
:1001D00024BF30C830C144BF04680C6070470000C1
:1001E0000023002400250026103A28BF78C1FBD840
:1001F000520728BF30C148BF0B6070471FB501F0E0
:1002000089F89DE8030000F0A9F81FBD10B510BDE6
:1002100000F000F91146FFF7F1FF00F05BFD00F080
:100220001EF903B4FFF7F2FF03BC00F04FF9000022
:100230000948804709480047FEE7FEE7FEE7FEE77A
:10024000FEE7FEE7FEE7FEE7FEE7FEE704480549B6
:10025000054A064B7047000049070008890100085D
:10026000C8000020C8060020C8020020C8020020E4
:1002700070B5064600F056F8056806F10B0020F050
:100280000704B4429CBF002070BD2B466A68BAB117
:100290001068A04210D304F1080188423CBF5068A6
:1002A000586007D35168101941601168091B01603B
:1002B00058601460101D70BD13465268002AE7D1C3
:1002C0002146284600F036F80028DED170BD70B512
:1002D0000446051F00F026F80068002C14BF44688F
:1002E00070BD002C18BFAC423CBF20466468F8D3F8
:1002F00001680A18AA4218BF456003D12A6805465A
:100300001144016028684119A1421CBF6C6070BD96
:100310006168696021680844286070BD7047704753
:1003200070470000004870476C000020704770471D
:100330007047704738B504460A4600206946AFF357
:100340000080002808BF38BD02460099204600F012
:100350003FF8012038BD012000F054B8F8B5AFF3E4
:100360000080054600200C46102000BF0646A81954
:10037000A0420DD9324669460020AFF30080070045
:1003800008BF00F03FF80098A04218BF0546C41906
:10039000FFF7C8FF05600746F01D20F0070046196B
:1003A000284600F00AF8B44208BFF8BDA21B314647
:1003B0003868BDE8F84000F00BB800210160C0E9E2
:1003C00001107047102070470048704764000020FB
:1003D000034640688C46002818BF88423CBF03464D
:1003E0004068F8D318681844884207D00CF103001D
:1003F00020F00700001D411A521A0146081D0A602C
:10040000FFF765BF10B500F039F8BDE8104000F007
:100410002FB870477546FFF7D7FFAE46050069460F
:10042000534620F00700854618B020B5FFF70EFFB1
:10043000BDE820404FF000064FF000074FF00008E5
:100440004FF0000B21F00701AC46ACE8C009ACE866
:10045000C009ACE8C009ACE8C0098D46704710B5CA
:100460000446AFF300802046BDE81040FFF7D9BE38
:10047000002801D000F02AB87047000010B501280C
:1004800005D0002103A000F027F8012010BD09A12C
:10049000F8E7000053494752544D454D3A204F75F7
:1004A00074206F662068656170206D656D6F72796C
:1004B000000000003A2048656170206D656D6F7224
:1004C0007920636F72727570746564000149182039
:1004D000ABBEFEE72600020070B505460C460A20BA
:1004E00000E06D1C00F011F835B128780028F8D133
:1004F00002E0641C00F009F814B120780028F8D15B
:10050000BDE870400A20AFF3008008B569468DF859
:1005100000000320ABBE08BD00BFFEE77047F0B58A
:100520000A4600210023002400BF3DE0012505FA12
:1005300001F3156805EA03049C4234D105684F00B5
:100540000326BE40B543056015794E00B5400668E8
:10055000354305601579012D02D01579022D16D18C
:1005600085684F000326BE40B543856055794E002F
:10057000B540866835438560456801268E40B543A1
:100580004560456896798E40B6B235434560C5688A
:100590004F000326BE40B543C560D5794E00B54037
:1005A000C6683543C560491C1029BFD3F0BDF0B5FE
:1005B000002300244D07ED0E02FA05F3CE1000F1E2
:1005C000200555F826504E07F70E0F26BE40B543BE
:1005D000CF1000F1200646F82750CE1000F120057C
:1005E00055F8265045EA0304CE1000F1200545F8E1
:1005F0002640F0BD0AB1018300E04183704700BF8F
:10060000FEE700BFFEE7704702490143024A11605E
:10061000704700000000FA050CED00E029B1064A21
:1006200012680243044B1A6004E0034A12688243D2
:10063000014B1A60704700003038024029B1064A69
:1006400012680243044B1A6004E0034A12688243B2
:10065000014B1A6070470000403802400CB5002082
:10066000019000903448006840F4803032490860BE
:1006700000BF3148006800F4003000900198401C31
:100680000190009818B90198B0F5A04FF1D12A480F
:10069000006800F4003010B10120009001E000205B
:1006A00000900098012846D123484030006840F06F
:1006B00080502149403108602048006840F44040A3
:1006C0001E4908601C48083000681B490831086052
:1006D0000846006840F4004008600846006840F49E
:1006E000A05008601648091F0860081F006840F005
:1006F0008070091F086000BF0F48006800F000709C
:100700000028F9D040F205700E4908600A48083008
:10071000006820F0030008490831086008460068B6
:1007200040F00200086000BF03480830006800F095
:100730000C000828F8D10CBD0038024000700040C1
:1007400008544007003C024010B51548006840F4CA
:100750007000134908601348006840F00100114917
:10076000086000200F49083108600E4800680E49F3
:1007700008400C4908600D48091D0860081F006802
:1007800020F48020091F0860002006490C31086011
:10079000FFF764FF4FF0006001498039086010BD29
:1007A00088ED00E000380240FFFFF6FE1030002424
:1007B00021B1028842F00102028004E002884FF673
:1007C000FE731A400280704701894FF6F87211409B
:1007D0000181704770B5002400220023058C4FF67C
:1007E000FE7635400584028C8388048B4FF68F7526
:1007F0002C40B51E2C400D882C43751E2A408D8937
:100800002A434D882A43104DA84202D00F4DA842DA
:1008100013D14FF6F7752A40CD892A434FF6FB7561
:100820002A408D882A434FF6FF652B404FF6FF552F
:100830002B400D8A2B434D8A2B43838004838D6884
:100840004563028470BD00000000014000040140C7
:1008500070B5002400220023058C4FF6EF7635405A
:100860000584028C8388048B48F6FF752C404FF674
:10087000FF452C400D884FF6FF7606EA05252C43F0
:100880004FF6DF752A408D8906EA05152A434D8803
:1008900006EA05152A43154DA84202D0144DA84278
:1008A0001DD14FF67F752A40CD894FF6FF7606EAB7
:1008B00005152A434FF6BF752A408D8806EA0515AF
:1008C0002A434FF6FF352B404FF2FF752B400D8A20
:1008D00006EA85052B434D8A06EA85052B4383806E
:1008E00004838D688563028470BD000000000140B0
:1008F0000004014070B5002400220023058C4FF64F
:10090000FF6635400584028C8388848B4FF68F7593
:100910002C404FF6FC752C400D882C434FF6FF55AC
:100920002A408D894FF6FF7606EA05252A434D8831
:1009300006EA05252A43154DA84202D0144DA842C7
:100940001DD14FF2FF752A40CD894FF6FF7606EA9A
:1009500005252A434FF6FF352A408D8806EA0525EE
:100960002A434EF6FF752B404DF6FF752B400D8A3E
:1009700006EA05152B434D8A06EA05152B438380AD
:1009800084838D68C563028470BD0000000001404F
:100990000004014070B5002200230024058C4EF6AF
:1009A000FF7635400584038C8488828B48F6FF757A
:1009B0002A404FF6FF452A400D884FF6FF7606EA9B
:1009C00005252A434DF6FF752B408D8906EA05352E
:1009D0002B434D8806EA05352B430A4DA84202D029
:1009E000094DA84208D14BF6FF752C400D8A4FF6F1
:1009F000FF7606EA85152C43848082838D68056422
:100A0000038470BD0000014000040140002101800A
:100A10004180818081608181C181018241827047F2
:100A20004163704781637047C163704701647047D9
:100A300000220288184B98420ED0184B98420BD0D7
:100A4000B0F1804F08D0164B984205D0154B984214
:100A500002D0154B984204D14FF68F731A404B8841
:100A60001A43124B984207D0114B984204D04FF6CC
:100A7000FF431A400B891A4302804B68C3620B88FC
:100A80000385054B984202D0044B984201D18B7AE2
:100A90000386012383827047000001400004014067
:100AA0000004004000080040000C0040001000401E
:100AB0000014004000BFFEE7014609B1087D10B9EF
:100AC0004FF0FF3070470020087500BFFAE770B59F
:100AD00004460D4600212068FFF76AFE2068C562C3
:100AE00000202168888201212068FFF761FE70BD27
:100AF00070B504460D462079012804D129462068A6
:100B0000FFF78EFF16E02079022804D129462068DD
:100B1000FFF788FF0EE02079032804D129462068DA
:100B2000FFF782FF06E02079042803D129462068D8
:100B3000FFF77CFF70BD70B504460D4600212068AC
:100B4000FFF736FE20680585002021688882012194
:100B50002068FFF72DFE70BD70B5044614B194F8FF
:100B6000400010B94FF0FF3070BD656C206810B1C7
:100B70002846696A8847206A18B105F12800E96C9F
:100B80008847606CFFF7A3FB0020606484F8400096
:100B900000BFE9E72DE9F04781460D4617461E469E
:100BA000DDE90884002C0ADBA9B201224846FFF7E0
:100BB00021FDB1B200223846FFF71CFD0BE0A9B2BF
:100BC00000224846FFF716FDB1B201223846FFF772
:100BD00011FD604244B2642C00DD6424A1B24046A1
:100BE000D8F820209047BDE8F0872DE9FC41044665
:100BF0000D46164614B194F8400018B94FF0FF3076
:100C0000BDE8FC81676C012D07D1CDE9007604F1C8
:100C100010000FC8FFF7BEFF0EE0022D09D107F14B
:100C20002800CDE9000604F130000FC8FFF7B2FF3D
:100C300002E06FF00100E3E70020E1E710B50446B1
:100C400003E04FF47A7000F011F8201EA4F10104C3
:100C5000F7D110BD10B5044603E04FF47A70FFF7EA
:100C6000EDFF201EA4F10104F7D110BD01464FF0A5
:100C7000E022126942F004024FF0E0231A61134AA5
:100C80001268134BB2FBF3F24A43521E4FF0E023BB
:100C90005A6100229A611A46126942F001021A61F1
:100CA00000BF4FF0E022106900F001021AB100F419
:100CB0008032002AF5D04FF0E022126922F00102C2
:100CC0004FF0E0231A6100229A6170475000002023
:100CD00040420F004FF44070FFF796FC124800F0BE
:100CE00083F91FE06FF063040AE00F4822460221F7
:100CF000836C98470220FFF7ADFF04F1320044B245
:100D0000642CF2DD32240AE0074822460221836C7B
:100D100098470220FFF79EFFA4F1320044B214F17D
:100D2000640FF1DADEE700000000002030B58BB080
:100D300004461CB94FF0FF300BB030BD2068B0F155
:100D4000804F04D101210846FFF778FC19E098494B
:100D50002068884204D101210220FFF76FFC10E0D7
:100D600094492068884204D101210420FFF766FCE1
:100D700007E091492068884203D101210820FFF74C
:100D80005DFC8E49E068884204D101210846FFF7E6
:100D900045FC34E08A49E068884204D10121022000
:100DA000FFF73CFC2BE08749E068884204D1012131
:100DB0000420FFF733FC22E08349E068884204D135
:100DC00001210820FFF72AFC19E08049E0688842E9
:100DD00004D101211020FFF721FC10E07C49E068DC
:100DE000884204D101212020FFF718FC07E079494F
:100DF000E068884203D101214020FFF70FFC022068
:100E00008DF8080000208DF80A002069019001206B
:100E10008DF80B0002208DF8090001A9E068FFF7AA
:100E20007EFB2368B3F1804F01D1012312E0604DB6
:100E30002368AB4201D102230CE05E4D2368AB4234
:100E400001D1022306E05C4D2368AB4201D10223AD
:100E500000E000231A462369012B01D1002353E04F
:100E60002369022B01D101234EE02369042B01D118
:100E7000022349E02369082B01D1032344E02369BD
:100E8000102B01D104233FE02369202B01D105233E
:100E90003AE02369402B01D1062335E02369802BFA
:100EA00001D1072330E02369B3F5807F01D1082306
:100EB0002AE02369B3F5007F01D1092324E02369E7
:100EC000B3F5806F01D10A231EE02369B3F5006FEB
:100ED00001D10B2318E02369B3F5805F01D10C2306
:100EE00012E02369B3F5005F01D10D230CE0236903
:100EF000B3F5804F01D10E2306E02369B3F5004F0F
:100F000001D10F2300E000231946E068FFF74FFBF3
:100F10002068FFF759FC0020ADF82800ADF822004A
:100F2000E088ADF820002089099000208DF82A0083
:100F300008A92068FFF77CFD03A8FFF767FD602084
:100F4000ADF80C000020ADF818000120ADF80E003F
:100F500005902079012804D103A92068FFF73AFC05
:100F600016E02079022804D103A92068FFF770FC5D
:100F70000EE02079032804D103A92068FFF7BAFC0A
:100F800006E02079042803D103A92068FFF702FDB9
:100F900001212068FFF70CFC0F48A0610F48E061B9
:100FA0000F4820620F486062012020750020C3E6D0
:100FB0000004004000080040000C00400000024017
:100FC0000004024000080240000C024000100240F1
:100FD0000014024000180240370B0008CF0A000836
:100FE000F10A0008B90A00087CB5044614B94FF0AC
:100FF000FF307CBD5020FFF73BF96064606C10B996
:101000004FF0FF30F5E7656C2068002870D020684D
:10101000286020792871632028812920E880A06831
:10102000E860E06828612846FFF780FEB049206943
:10103000884204D101210846FFF7F0FA34E0AD49B7
:101040002069884204D101210220FFF7E7FA2BE052
:10105000A9492069884204D101210420FFF7DEFA62
:1010600022E0A6492069884204D101210820FFF727
:10107000D5FA19E0A2492069884204D10121102043
:10108000FFF7CCFA10E09F492069884204D1012182
:101090002020FFF7C3FA07E09B492069884203D16B
:1010A00001214020FFF7BAFA9149A069884204D192
:1010B00001210846FFF7B2FA35E08E49A06988425F
:1010C00004D101210220FFF7A9FA2CE08A49A06986
:1010D000884204D101210420FFF7A0FA23E08749C8
:1010E000A069884205D101210820FFF797FA1AE08C
:1010F0003EE08349A069884204D101211020FFF716
:101100008DFA10E07F49A069884204D10121202096
:10111000FFF784FA07E07C49A069884203D10121E6
:101120004020FFF77BFA01208DF8040000208DF8A5
:1011300006006069009000208DF8070002208DF8FD
:10114000050069462069FFF7EAF901208DF80400DF
:1011500000208DF80600E069009000208DF807005F
:1011600002208DF805006946A069FFF7D8F900BF95
:10117000206A002873D0206AA86294F824102C20DA
:101180004155632129862921E985A16A6963E16ABC
:10119000A96305F12800FFF7C9FD5549206B884276
:1011A00004D101210846FFF739FA34E05149206B98
:1011B000884204D101210220FFF730FA2BE04E498A
:1011C000206B884204D101210420FFF727FA22E096
:1011D0004A49206B884204D101210820FFF71EFAFA
:1011E00019E04749206B884204D101211020FFF704
:1011F00015FA10E04349206B884204D101212020D8
:10120000FFF70CFA07E04049206B884203D1012127
:101210004020FFF703FA3649A06B884204D1012130
:101220000846FFF7FBF935E03249A06B884204D14C
:1012300001210220FFF7F2F92CE02F49A06B884230
:1012400004D101210420FFF7E9F923E02B49A06B29
:10125000884205D101210820FFF7E0F91AE03EE0BD
:101260002749A06B884204D101211020FFF7D6F94D
:1012700010E02449A06B884204D101212020FFF70F
:10128000CDF907E02049A06B884203D1012140201D
:10129000FFF7C4F901208DF8040000208DF8060046
:1012A000606B009000208DF8070002208DF805008B
:1012B0006946206BFFF733F901208DF80400002008
:1012C0008DF80600E06B009000208DF807000220EA
:1012D0008DF805006946A06BFFF721F900BF0B48A8
:1012E000A0640B48E064012084F84000002080E600
:1012F000000002400004024000080240000C0240CE
:10130000001002400014024000180240EB0B0008DD
:10131000590B00084FF04070E1EE100A70470000D2
:10132000401300080000002064000000C401000811
:10133000A41300086400002064060000E001000817
:10134000000800400300000000040240000100000B
:1013500000040240010000000004024002000000FE
:10136000000000000000000000000000000000007D
:10137000000000000000000000000000000000006D
:10138000000000000000000000000000000000005D
:10139000007A030A000000000000000001020304BC
:0413A000060708092B
:040000050800018965
:00000001FF
