:020000040800F2
:10000000B00A0020A1010008570C00084F0C00089E
:10001000530C000829090008E10E00080000000048
:10002000000000000000000000000000B301000814
:100030006D0B000800000000B7010008B9010008BE
:10004000BB010008BB010008BB010008BB010008A0
:10005000BB010008BB010008BB010008BB01000890
:10006000BB010008BB010008BB010008BB01000880
:10007000BB010008BB010008BB010008BB01000870
:10008000BB010008BB010008BB010008BB01000860
:10009000BB010008BB010008BB010008BB01000850
:1000A000BB010008BB010008BB010008BB01000840
:1000B000BB010008BB010008BB010008BB01000830
:1000C000BB010008BB010008BB010008BB01000820
:1000D000BB010008BB010008BB010008BB01000810
:1000E000BB010008BB010008BB010008BB01000800
:1000F000BB010008BB010008BB010008BB010008F0
:10010000BB010008BB010008BB010008BB010008DF
:10011000BB010008BB010008BB010008BB010008CF
:10012000BB010008BB010008BB010008BB010008BF
:10013000BB010008BB010008BB010008BB010008AF
:10014000BB010008BB010008BB010008BB0100089F
:10015000BB010008BB010008BB010008BB0100088F
:10016000BB010008BB010008BB010008BB0100087F
:10017000BB010008BB010008BB010008BB0100086F
:10018000BB010008BB010008DFF810D000F0BAFB8B
:1001900000480047C1390008AFF30080B00A0020D2
:1001A0000648804706480047FEE7FEE7FEE7FEE711
:1001B000FEE7FEE7FEE7FEE7FEE7FEE7790E000852
:1001C0008901000810B5002200E0521C835C8C5CA1
:1001D000A34201D1002BF8D1D8B2E1B2401A10BD30
:1001E0002DE9FE4F804681EA0300C00F0C460090C7
:1001F00021F0004123F00045B8EB0200A94105D2EF
:100200004046214690461C460B46024623F00040DD
:10021000104347D0270DC7F30A00C3F30A510290D9
:10022000401A019040286BDAC3F3130040F4801B9E
:100230000098924620B10023D2EB030A63EB0B0B2C
:1002400001985946C0F14002504600F03AFA06467D
:100250000D4650465946019A00F052FA10EB08003C
:100260006141002487EA115284EAE7731A4340D0BF
:10027000009A62B3019A012A4FEA075215DC001B6B
:1002800061EB02014FF0004202EA0752CDE9004261
:10029000001C41F5801132462B4600F089FA03B06C
:1002A000BDE8F08F40462146F9E7001B61EB0201F3
:1002B000001C41F5801300185B412018A2F50017BF
:1002C00047EB030140EAD570B6196D4111E06D08A6
:1002D0004FEA360645EAC0754FEA0752001B61EB4C
:1002E0000201001C41F5801149084FEA3000001955
:1002F000514132462B4603B0BDE8F04F00F049BAF9
:100300000098012240000023D0EB020263EBE0736F
:10031000009821464FEAE074B8EB000061EB04015D
:10032000E9E783F000435BE781F0004158E72DE9FE
:10033000FE4F81EA030404F0004421F000410094E0
:100340004FF0000B23F0004350EA01045ED052EA64
:1003500003045BD0C3F30A54C1F30A552C44A4F23E
:10036000F3340194A0FB0254C1F3130141F4801152
:10037000C3F3130343F4801301FB024400FB034E59
:10038000840A970A44EA815447EA8357A4FB076822
:1003900002958D0A05FB07854FEA932C04FB0C544C
:1003A0002705029D4FEA065847EA1637B5EB0805C0
:1003B0006EEB070C870E920E47EA811742EA831212
:1003C000A7FB0201B6EB0B0164EB00042B0D43EA23
:1003D0000C335E1844EB1C50DA465146E7FB020131
:1003E000C5F313044FEA0B3343EA14534FEA0432C4
:1003F000019C43EA0603A4F10C040294009CCDE99D
:1004000000B400F0D5F903B0BDE8F08F002001463C
:10041000F9E72DE9F04D81EA030404F0004B21F0E7
:10042000004514464FF0000A23F0004150EA05024F
:1004300020D054EA01021DD0C5F30A570246C5F385
:100440001303C1F31300C1F30A5640F4801543F4BB
:100450008013A7EB0608101BD64608F2FD3873EB95
:10046000050002D308F1010801E092185B41B8F1E0
:10047000000F03DA00200146BDE8F08D00204FF4A4
:100480008011064684460EE0171B73EB050705D363
:10049000121B63EB050306434CEA010C49084FEAC3
:1004A000300092185B4150EA0107EDD152EA030097
:1004B00012D082EA040083EA0501084305D0101B2C
:1004C000AB4106D20122002306E000224FF0004398
:1004D00002E06FF0010253101AEB06004CEB0851DA
:1004E00010EB0A0041EB0B01BDE8F04D00F051B9F3
:1004F0000EB5C10F80EAE0700844CA07002140F23F
:1005000033438DE80E000A460B4600F051F903B064
:1005100000BD0EB540F2334102910021CDE900113A
:100520000A460B4600F044F903B000BD70B5C1F3B4
:100530000A5201F000450024C1F3130140F2FF33D9
:1005400041F480119A4201DA002070BD40F2334339
:100550009A42A2F2334203DC524200F0C1F800E0BA
:1005600090402C43F1D0404270BDC1F30A5210B507
:10057000C1F3130140F2FF3341F480119A4201DAD2
:10058000002010BD40F233439A42A2F2334203DC12
:10059000524200F0A5F810BD904010BD30B5041EC9
:1005A00071F1000404DB4FF00044404264EB0101B0
:1005B000141E73F1000405DB1C464FF00043524249
:1005C00063EB04038B4208BF824230BD30B5041E8A
:1005D00071F1000404DB4FF00044404264EB010180
:1005E000141E73F1000405DB1C464FF00043524219
:1005F00063EB0403994208BF904230BD01F0004311
:1006000030B421F0004150EA010206D00A0DA2F5F3
:100610006072C1F31301002A02DC30BC0020704775
:10062000440F44EAC104C100E01830BC00EBC250E2
:1006300000F078B830B50B46014600202022012496
:1006400009E021FA02F59D4205D303FA02F5491BA0
:1006500004FA02F52844151EA2F10102F1DC30BDB6
:100660002DE9F05F0546002092469B4688460646E7
:10067000814640241BE0284641464746224600F07A
:100680002FF853465A46C01A914110D311461846C6
:10069000224600F016F82D1A67EB01084F46224655
:1006A0000120002100F00DF817EB00094E41201E3B
:1006B000A4F10104DFDC484631462A464346BDE842
:1006C000F09F202A04DB203A00FA02F10020704754
:1006D0009140C2F1200320FA03F319439040704780
:1006E000202A04DB203A21FA02F00021704721FA87
:1006F00002F3D040C2F120029140084319467047EE
:10070000202A06DBCB17203A41FA02F043EAE073D5
:1007100006E041FA02F3D040C2F1200291400843C2
:10072000194670470029A8BF7047401C490008BF00
:1007300020F00100704710B4B0FA80FC00FA0CF011
:1007400050EA010404BF10BC704749B1CCF1200449
:1007500021FA04F411FA0CF118BF012121430843D6
:10076000A3EB0C01CB1D4FEA00614FEA102042BF02
:10077000002010BC704700EBC35010440029A4BFF8
:1007800010BC7047401C490008BF20F0010010BC9D
:10079000704710B5141E73F1000408DA401C41F1D3
:1007A000000192185B411A4301D120F0010010BDF5
:1007B0002DE9F04D92469B4611B1B1FA81F202E06B
:1007C000B0FA80F220329046FFF77BFF04460F46D6
:1007D00040EA0A0041EA0B0153465A46084313D047
:1007E000114653EA010019D0C8F140025046FFF704
:1007F00077FF05460E46504659464246FFF761FFD1
:10080000084305D0012004E020463946BDE8F08DBC
:100810000020054346EAE0762C4337430A986305F7
:10082000E40AA0EB08000022FD0A44EA47540A301B
:1008300002D500200146E9E7010510196941DDE90B
:10084000084500196941BDE8F04DA2E72DE9F041E6
:10085000054621F000400C46284309D0C4F30A5055
:1008600040F23341884205DD28462146BDE8F0814B
:100870002846FBE740F2FE31884210DC0CDB4FEAF1
:10088000043040EA155050EA053105D0104804F014
:10089000004101430020E9E700200146E6E7A0F21D
:1008A00033404642C6F1400228462146FFF709FF81
:1008B00007468846284621463246FFF711FF434641
:1008C0003A46FFF766FF3246BDE8F041FFF7F9BE52
:1008D0000000F03FC1F30A52C1F3130140F2FF33AD
:1008E00041F480119A4202DA00200146704740F23A
:1008F00033439A42A2F2334202DC5242FFF7F0BE87
:10090000FFF7DFBE064C074D06E0E06840F001034C
:1009100094E8070098471034AC42F6D3FFF738FC50
:10092000904E0008B04E000800BFFEE70246094B9B
:100930009A4201D2084801E00648103801F00053FD
:100940001BB1064B0B40C36002E0044B0B408360BD
:100950007047000010640240006002407D0F7D0F70
:1009600021B1026842F00102026003E0026822F055
:100970000102026070470000016821F0010101607E
:100980000021016041608160C160016121214161FC
:100990004A49884204D13D21484A103A91608CE08E
:1009A00046491831884205D14FF47461434A103AE0
:1009B000916082E041493031884205D14FF4741191
:1009C0003E4A103A916078E03C494831884205D16E
:1009D0004FF07461394A103A91606EE037496031E6
:1009E000884204D13649354A103AD16065E033492E
:1009F0007831884204D13349304A103AD1605CE002
:100A00002E499031884204D12F492C4A103AD160A6
:100A100053E02A49A831884205D14FF03D51274A79
:100A2000103AD16049E02949884204D13D21274A42
:100A3000083A116041E025491831884205D14FF448
:100A40007461224A083A116037E020493031884207
:100A500005D14FF474111D4A083A11602DE01B496D
:100A60004831884205D14FF07461184A083A116044
:100A700023E016496031884204D11149134A121FFC
:100A800011601AE011497831884204D10D490F4AAA
:100A9000121F116011E00D499031884204D10A49BA
:100AA0000A4A121F116008E00849A831884204D19F
:100AB0004FF03D51054A121F11607047106002400F
:100AC0003D000020400F002000003D201064024047
:100AD00030B503460A46002000240B4DAB4201D23C
:100AE0000A4901E00849103902F000550DB14C687F
:100AF00000E00C68064D2C4004EA02050DB101200F
:100B000000E0002030BD00001064024000600240A0
:100B10007D0F7D0F10B500220268134B1A40CC6880
:100B20000B6823434C6923438C692343CC692343DB
:100B30000C6A23434C6A23438C6A23434C6B234344
:100B40008C6B23431A430260426922F00702D1E909
:100B50000B3423431A4342610B6943604B68836043
:100B60008B68C36010BD00003F801CF07047F0B57B
:100B70000A4600210023002400BF3DE0012505FABC
:100B800001F3156805EA03049C4234D105684F005F
:100B90000326BE40B543056015794E00B540066892
:100BA000354305601579012D02D01579022D16D136
:100BB00085684F000326BE40B543856055794E00D9
:100BC000B540866835438560456801268E40B5434B
:100BD0004560456896798E40B6B235434560C56834
:100BE0004F000326BE40B543C560D5794E00B540E1
:100BF000C6683543C560491C1029BFD3F0BDF0B5A8
:100C0000002300244D07ED0E02FA05F3CE1000F18B
:100C1000200555F826504E07F70E0F26BE40B54367
:100C2000CF1000F1200646F82750CE1000F1200525
:100C300055F8265045EA0304CE1000F1200545F88A
:100C40002640F0BD0AB1018300E04183704700BF38
:100C5000FEE700BFFEE7704702490143024A116008
:100C6000704700000000FA050CED00E070B5044686
:100C70000E46154614B194F8300010B94FF0FF300D
:100C800070BD46F0B001204602F044F8102040EA62
:100C90001511204602F03EF805F00F01204602F043
:100CA00039F80020ECE7000029B1064A1268024337
:100CB000044B1A6004E0034A12688243014B1A6035
:100CC000704700003038024029B1064A12680243DA
:100CD000044B1A6004E0034A12688243014B1A6015
:100CE000704700004038024029B1064A12680243AA
:100CF000044B1A6004E0034A12688243014B1A60F5
:100D0000704700004438024021B1028842F040029E
:100D1000028004E002884FF6BF731A4002807047D9
:100D20001AB183880B43838002E083888B438380DE
:100D300070470246002013890B400BB1012000E0F0
:100D4000002070470146888970478181704710B53F
:100D50000022028802F441520B884C8823438C887D
:100D60002343CC8823430C8923434C8923438C8918
:100D70002343CC8923431A430280838B4FF2FF74B1
:100D8000234083830B8A038210BD00000CB5002032
:100D9000019000903448006840F480303249086087
:100DA00000BF3148006800F4003000900198401CFA
:100DB0000190009818B90198B0F5A04FF1D12A48D8
:100DC000006800F4003010B10120009001E0002024
:100DD00000900098012846D123484030006840F038
:100DE00080502149403108602048006840F440406C
:100DF0001E4908601C48083000681B49083108601B
:100E00000846006840F4004008600846006840F466
:100E1000A05008601648091F0860081F006840F0CD
:100E20008070091F086000BF0F48006800F0007064
:100E30000028F9D040F205700E4908600A480830D1
:100E4000006820F00300084908310860084600687F
:100E500040F00200086000BF03480830006800F05E
:100E60000C000828F8D10CBD00380240007000408A
:100E700008544007003C024010B51548006840F493
:100E80007000134908601348006840F001001149E0
:100E9000086000200F49083108600E4800680E49BC
:100EA00008400C4908600D48091D0860081F0068CB
:100EB00020F48020091F0860002006490C310860DA
:100EC000FFF764FF4FF0006001498039086010BDF2
:100ED00088ED00E000380240FFFFF6FE10300024ED
:100EE00000BFFEE737B514460846064B6A46214662
:100EF00002F098F904466946002002F016FD2046EB
:100F00003EBD00002B39000803B401984100009851
:100F100050EAC12018BF04204A0D18BF40F001005C
:100F200040F2FF72B2EB515F08BF40F002000128AF
:100F300008BF052002B0704770B59B482DED020B2D
:100F40002DED068B079D25F00044A04218DC974844
:100F5000844202DC0AD1069840B19DED060BBDEC3F
:100F6000068B02B0BDE8704000F03EBB002DCCBF48
:100F70009FED8F0B9FED900BBDEC068B02B070BD0B
:100F80008F48A04215DD8F48A042D8BF4FF0FF34F4
:100F900058DD9DED060B51EC100BFFF7B5FF042853
:100FA00008BF00F035FB9DED060BBDEC068B02B0D3
:100FB00070BD9DED060B51EC100B02F0CDFCCDE9A0
:100FC000060181489FED828BA0423CDD8248A04211
:100FD0001FDD00249FED82AB9DED060B53EC1A2B19
:100FE00051EC100BFFF7FCF89DED060B41EC190BD3
:100FF00053EC1A2B51EC100BFFF799F953EC182B0B
:10100000FFF78FF953EC192BFFF703FACDE906012F
:1010100049E09DED060B012453EC182B51EC100B0D
:10102000FFF7DEF89DED060B41EC190B53EC182B86
:1010300051EC100BFFF775F953EC192BFFF7E9F999
:10104000CDE906012FE06848A0421FDD02249FED94
:10105000689B9DED060B53EC192B51EC100BFFF721
:1010600066F953EC182BFFF7BBF89DED060B41EC2E
:10107000180B53EC192B51EC100BFFF752F953ECF2
:10108000182BFFF7C6F9CDE906010CE09DED060B24
:10109000032453EC102B9FED580B51EC100BFFF772
:1010A000B8F9CDE906019DED060B53EC102B51EC80
:1010B000100BFFF73CF941EC180B53EC182BFFF722
:1010C00036F941EC190B4E480621B0EE490AF0EE14
:1010D000690A784400F00CFA53EC182B51EC100B11
:1010E000FFF725F941EC180B4648B0EE490AF0EE3F
:1010F000690A0521784400F0FBF953EC192B51ECF7
:10110000100BFFF714F941EC100B51EC180B53ECDA
:10111000102B002C0EDAFFF763F89DED061B53EC45
:10112000112BFFF704F99DED061B53EC112BFFF774
:10113000FBF835E0FFF754F89DED061B53EC112B3F
:10114000FFF7F5F841EC100B2F48784400EBC40092
:1011500090ED001B51EC100B53EC112BFFF7E1F855
:101160009DED061B53EC112BFFF7DBF841EC100B48
:101170002648784400EBC40090ED001B51EC100BA6
:1011800053EC112BFFF7D0F841EC100B002DA2BF50
:10119000BDEC068B02B070BD51EC100B81F000412C
:1011A00041EC100B01E70000000010440000F07F4C
:1011B000182D4454FB21F93F182D4454FB21F9BF4D
:1011C0000000DC3F0000203E0000F33F0000000074
:1011D000000000000000F03F0000E63F00000000BB
:1011E00000000000000000400080034000000000FC
:1011F000000000000000F83F000000000000F0BF09
:10120000823D0000383D0000C23C00007A3C0000F6
:1012100070B56F4E2DED040B2DED048B82B0DDF813
:1012200024C0DDE907235C422CF000411C4341EA65
:10123000D474069D22F00040B44205D86C422C4381
:1012400040EAD474B4420BD99DED081B9DED060B0A
:1012500002B0BDEC048B04B0BDE8704000F0CEB924
:10126000ACF14054A4F17F641C430BD0022404EA87
:10127000AC7444EAD27405439FED578B9FED582B15
:1012800007D015E09DED060B51EC100B02F052FB60
:1012900042E0002C11BF012C9DED060B02B0BDEC0D
:1012A000048B04BF04B070BD022C38D0032C3BD09B
:1012B0000B439FED4D1B9FED4E0B0AD0B14218D151
:1012C000B04209D121F0804120F08040099107907F
:1012D0000FE0002A15DA10E0474B7B44002C08BFD2
:1012E00093ED000B0DD0012C10D0022C17D0032C45
:1012F0001AD0B0421DD1002A03DAB0EE410AF0EE56
:10130000610A02B0BDEC048B04B070BD93ED000B1C
:1013100051EC100B81F0004141EC100BF1E7B0EE05
:10132000480AF0EE680AECE7B0EE420AF0EE620A14
:10133000E7E7401A00159FED329B3C28C8BF8DEDB2
:10134000000B17DCBCF1000FBCBF10F13C0F8DEDA2
:10135000009B0FDB9DED080B53EC102B9DED060B56
:1013600051EC100BFFF755F802F0F6FA02F0E2FA32
:10137000CDE90001B4B1012C10D0022C9FED220B5D
:1013800053EC102B9DED000B51EC100B19D0FEF718
:10139000C8FF53EC182BFEF7C4FFBDE7019880F09F
:1013A000004001909DED000B53EC192B51EC100BFC
:1013B000FFF7F4F804BF022001F02CFE9DED000BB6
:1013C0009FE7FEF7AEFF53EC182BFEF7ADFFA3E748
:1013D0000000F07F00000000182D4454FB2109405C
:1013E000182D4454FB2109C0182D4454FB21F9BF8A
:1013F000182D4454FB21F93FAA3B000000000000D7
:101400000000000000000000075C143326A6A13C89
:1014100010B52DED020B2DED088B84B09DED0C0B5E
:1014200051EC100BFFF712FA41EC180B9DED0C0B71
:1014300053EC182B51EC100BFEF773FF41EC190B1A
:101440000D989FED290B10F0004F53EC102B51EC31
:10145000190B9FED21AB9FED22BB0ED0FFF79EF83D
:101460000ED953EC1B2B51EC190BFFF7AFF81CD224
:1014700014E000BF41EC180B17E0FFF78FF806D21D
:1014800053EC1A2B51EC180BFEF74BFFF2E753EC21
:101490001B2B51EC190BFFF799F806D853EC1A2BBC
:1014A00051EC180BFEF79CFEE4E78DED028B9DEDF1
:1014B0000C0B18EE901A10EE900A8DED000B61F3F4
:1014C0001E0003909DED020B04B0BDEC088B02B032
:1014D00010BD000000000000000000000000F03F10
:1014E000000000000000E03F000000000000E0BF3E
:1014F00070B504462DED028B4D1E00EBC500B0EE1D
:10150000408AF0EE608A90ED000B35F0060017D0AF
:1015100053EC182B51EC100BFEF709FF41EC100BAC
:101520006D1E04EBC50090ED001B51EC100B53EC4D
:10153000112BFEF755FE41EC100B35F00600E7D1FC
:10154000022D36D0042D1CD0062D1CBFBDEC028B05
:1015500070BD53EC182B51EC100BFEF7E8FE94ED28
:101560000A1B53EC112BFEF73BFE53EC182BFEF736
:10157000DEFE94ED081B53EC112BFEF731FE41EC1F
:10158000100B53EC182B51EC100BFEF7D0FE94ED22
:10159000061B53EC112BFEF723FE53EC182BFEF722
:1015A000C6FE94ED040B53EC102BFEF719FE41EC34
:1015B000100B53EC182B51EC100BFEF7B8FE94ED0A
:1015C000021B53EC112BFEF70BFE53EC182BFEF70E
:1015D000AEFE94ED001B53EC112BFEF701FEBDECAB
:1015E000028B41EC100B70BD10B553EC102B51EC7D
:1015F000100BFEF7F5FD41EC100B10BD10B553ECD0
:10160000112B51EC100BFEF7EBFD41EC100B10BD54
:101610009FED050B10B553EC102B51EC100BFEF7A2
:1016200086FE41EC100B10BD000000000000001011
:1016300070B501464C6B11B191F8300010B94FF004
:10164000FF3070BD002210E000230AE0002094F873
:101650004050084E06EB852505EBC215E854581C92
:10166000C3B2802BF2DB501CC2B2082AECDB002094
:10167000E7E70000B00000202DE9F04F05460C46DA
:101680001F46DDF824C0D5F8348015B195F8300038
:1016900018B94FF0FF30BDE8F08F7F2C02DD4FF01E
:1016A000FF30F8E73F2A02DD4FF0FF30F3E7E019A3
:1016B000802802DDC4F18000C7B202EB0C00402894
:1016C00003DDC2F1400000F0FF0C114638E0264671
:1016D00031E008464FEAE17901EB59794FEAE9092F
:1016E00098F840A0DFF864B00BEB8A2A0AEBC9191E
:1016F00019F806900B464FEAE17A01EB5A7A4FEA65
:10170000EA0AA1EBCA0B4FF0010A0AFA0BFA29EA1E
:101710000A094FEAE17A01EB5A7A4FEAEA0A98F8A5
:1017200040B0DFF828E00EEB8B2B0BEBCA1A0AF85F
:101730000690701CC6B2E019B042CADC481CC1B2A7
:1017400002EB0C008842C2DC0020A4E7B0000020BD
:1017500070B504460D46228C91B22A46E069FFF727
:1017600071FA70BD70B5044614B194F8300010B928
:101770004FF0FF3070BD656B2846E96B8847606BA2
:1017800002F0F6F80020606384F8300000BFF1E753
:101790002DE9F05F82460F4616469B46BAF1000FD0
:1017A00002D09AF8300018B94FF0FF30BDE8F09F32
:1017B000CBF1010900255C4621462846DDE90A23D4
:1017C00000F0E4FD30B13019C2B27819C1B2504610
:1017D00000F09CFC604201B2684200B2DDE90A23DD
:1017E00000F0D4FD30B1301BC2B2781BC1B25046FC
:1017F00000F08CFC29462046DDE90A2300F0C6FDF6
:1018000030B17019C2B23819C1B2504600F07EFC36
:10181000684201B2604200B2DDE90A2300F0B6FD81
:1018200030B1701BC2B2381BC1B2504600F06EFC22
:101830000C98B8B160420FFA80F811E041460020E0
:10184000DDE90A2300F0A2FD30B106EB0800C2B2C8
:101850003946504600F05AFC08F101000FFA80F8B2
:10186000A045EBDBDFE0681C05B2B9F1000F05DA3B
:101870006800401C48440FFA80F907E0601E04B27B
:10188000281B4000401C48440FFA80F92146284696
:10189000DDE90A2300F07AFD30B13019C2B27819BF
:1018A000C1B2504600F032FC29462046DDE90A2349
:1018B00000F06CFD30B17019C2B23819C1B2504697
:1018C00000F024FC604201B2684200B2DDE90A2364
:1018D00000F05CFD30B1301BC2B2781BC1B2504683
:1018E00000F014FC684201B2604200B2DDE90A2354
:1018F00000F04CFD30B1701BC2B2381BC1B2504673
:1019000000F004FC604201B22846DDE90A2300F041
:101910003DFD30B1301BC2B27819C1B2504600F063
:10192000F5FB684201B22046DDE90A2300F02EFDF6
:1019300030B1701BC2B23819C1B2504600F0E6FB9C
:101940002146684200B2DDE90A2300F01FFD30B1F4
:101950003019C2B2781BC1B2504600F0D7FB2946FD
:10196000604200B2DDE90A2300F010FD30B17019C9
:10197000C2B2381BC1B2504600F0C8FB0C98002818
:1019800051D060420FFA80F822E041462846DDE956
:101990000A2300F0FBFC38B106EB0800C2B278194C
:1019A000C1B2504600F0B2FB4146684200B2DDE9E8
:1019B0000A2300F0EBFC38B106EB0800C2B2781B3A
:1019C000C1B2504600F0A2FB08F101000FFA80F806
:1019D000A045DADB68420FFA80F822E04146604217
:1019E00000B2DDE90A2300F0D1FC38B106EB0800B3
:1019F000C2B2381BC1B2504600F088FB41462046B7
:101A0000DDE90A2300F0C2FC38B106EB0800C2B2DF
:101A10003819C1B2504600F079FB08F101000FFA05
:101A200080F8A845DADBA542FFF61DAF0020BDE631
:101A30002DE9F05F83460F4616469946BBF1000F2D
:101A400002D09BF8300018B94FF0FF30BDE8F09F8E
:101A5000C9F1010A00254C463019C2B27819C1B249
:101A6000584600F053FB301BC2B2781BC1B2584637
:101A700000F04CFB7019C2B23819C1B2584600F0E0
:101A800045FB701BC2B2381BC1B2584600F03EFB8A
:101A90000A9880B160420FFA80F80AE006EB08006D
:101AA000C2B23946584600F031FB08F101000FFA86
:101AB00080F8A045F2DB80E0681C05B2BAF1000FA7
:101AC00005DA6800401C50440FFA80FA07E0601EF7
:101AD00004B2281B4000401C50440FFA80FA301911
:101AE000C2B27819C1B2584600F010FB7019C2B2E8
:101AF0003819C1B2584600F009FB301BC2B2781B3E
:101B0000C1B2584600F002FB701BC2B2381BC1B212
:101B1000584600F0FBFA301BC2B27819C1B25846E1
:101B200000F0F4FA701BC2B23819C1B2584600F086
:101B3000EDFA3019C2B2781BC1B2584600F0E6FA8D
:101B40007019C2B2381BC1B2584600F0DFFA0A98C9
:101B500098B360420FFA80F813E006EB0800C2B2B7
:101B60007819C1B2584600F0D1FA06EB0800C2B2AB
:101B7000781BC1B2584600F0C9FA08F101000FFA0B
:101B800080F8A045E9DB68420FFA80F813E006EB25
:101B90000800C2B2381BC1B2584600F0B7FA06EBD3
:101BA0000800C2B23819C1B2584600F0AFFA08F1C5
:101BB00001000FFA80F8A845E9DBA542FFF67CAFEB
:101BC000002043E72DE9F04F2DED108B87B08346C1
:101BD0000F4616469A46DDF88090BBF1000F02D002
:101BE0009BF8300030B94FF0FF3007B0BDEC108BE0
:101BF000BDE8F08F00254C46C9F10000FEF778FCE7
:101C000041EC1E0B9FEDD30B53EC102BFEF7E8FAC3
:101C100041EC1C0B0AFB0AF0FEF76AFC41EC1D0BC1
:101C200053EC1C2BFEF783FB41EC1A0B09FB09F06C
:101C3000FEF75EFC41EC1B0B53EC1A2BFEF7D0FABF
:101C400041EC190BFEF7DAFC08EE100A2198B8B146
:101C500060420FFA80F811E006EB0800C2B2394684
:101C6000584600F053FA06EB0800C2B2394658460F
:101C700000F04CFA08F101000FFA80F8A045EBDB08
:101C80003019C2B27819C1B2584600F03FFA301B81
:101C9000C2B2781BC1B2584600F038FA3019C2B24D
:101CA000781BC1B2584600F031FA301BC2B2781925
:101CB000C1B2584600F02AFA62E0B5EEC08AF1EEF1
:101CC00010FA0DD809FB09F06900C91C484300EE61
:101CD000100AB8EEC00A30EE080AB0EE408A15E0ED
:101CE00009FB09F06900C91C41430AFB0AF06200C4
:101CF000C2F1020200FB021000EE100AB8EEC00AA8
:101D000030EE080AB0EE408A601E04B2681C05B2CC
:101D10002198C8B160420FFA80F813E006EB080082
:101D2000C2B27819C1B2584600F0F0F906EB0800CB
:101D3000C2B2781BC1B2584600F0E8F908F10100C0
:101D40000FFA80F8A045E9DB3019C2B27819C1B2A8
:101D5000584600F0DBF9301BC2B2781BC1B25846BE
:101D600000F0D4F93019C2B2781BC1B2584600F065
:101D7000CDF9301BC2B27819C1B2584600F0C6F98D
:101D80002046FEF7B5FB41EC1D0B9FED720B53ECAB
:101D9000102BFEF7C6FA41EC1B0B0AFB0AF0FEF70C
:101DA000A7FB41EC1C0B53EC1B2BFEF7C0FA41ECDC
:101DB000190B09FB09F16A1C01FB02F0FEF798FB05
:101DC00041EC1A0B53EC192BFEF7E8FBFFF475AF4F
:101DD0000AFB0AF101FB09F101FB09F0FEF788FBA0
:101DE00041EC1A0B0AFB0AF1621E514301FB02F09F
:101DF000FEF77EFBCDE904012846FEF779FB41ECB6
:101E00001D0B9FED540B53EC102BFEF7E9F9CDE9B8
:101E100000012846FEF76CFB41EC1F0B9FED4D0BBC
:101E200053EC102BFEF7DCF941EC1D0B09FB09F01C
:101E3000FEF75EFB41EC1E0B53EC1D2BFEF777FA11
:101E400041EC1C0B9DED000B53EC102BFEF76FFAD1
:101E5000CDE902019DED040B53EC102B9DED020B1F
:101E600051EC100BFEF7BCF941EC1B0B53EC1A2B99
:101E7000FEF757FA41EC190BFEF7C0FB08EE900A8B
:101E800063E0F5EEC08AF1EE10FA16D809FB09F00E
:101E90006900891C41430AFB0AF06200C2F1030297
:101EA00000FB021000EE100AB8EEC00A30EE280A5D
:101EB000F0EE408A681C05B20DE00AFB0AF06100F2
:101EC000C1F10301484300EE100AB8EEC00A30EE3B
:101ED000280AF0EE408A601E04B22198C8B1604220
:101EE0000FFA80F813E006EB0800C2B27819C1B20D
:101EF000584600F00BF906EB0800C2B2781BC1B2DD
:101F0000584600F003F908F101000FFA80F8A045E7
:101F1000E9DB3019C2B27819C1B2584600F0F6F8C0
:101F2000301BC2B2781BC1B2584600F0EFF830192E
:101F3000C2B2781BC1B2584600F0E8F8301BC2B2FA
:101F40007819C1B2584600F0E1F8002C99DC002065
:101F50004BE60000000000000000E03F2DE9FF4FCD
:101F600087B00F4616469846DDF85090079818B18E
:101F7000079890F8300020B94FF0FF300BB0BDE863
:101F8000F08F4FF0000B002001904E4511D14745D6
:101F900003DDBA4647460AF0FF083C4606E0E1B2D8
:101FA0003246079800F0B2F8601C04B24445F6DDF2
:101FB000AAE0474511D14E4503DDB2464E460AF030
:101FC000FF09354606E0EAB23946079800F09EF868
:101FD000681C05B24D45F6DD96E0474507DDBA467B
:101FE00047460AF0FF08B2464E460AF0FF094E4542
:101FF00007DD7042C6B2C9F1000000F0FF094FF0E2
:10200000010BA9EB0600A8EB0701884209DDBA46DF
:1020100037460AF0FF06C246C8460AF0FF0901200B
:102020000190A8EB07000690A9EB06000590059823
:10203000400000B20390DDE90501401A400000B203
:102040000290059841000698081A00B204903C4698
:102050003546BBF1000F08D0019830B16042C2B2E2
:10206000E9B2079800F052F816E0BBF1000F06D075
:102070006842C2B2E1B2079800F048F80CE001985B
:1020800028B1E2B2E9B2079800F040F804E0EAB201
:10209000E1B2079800F03AF834E0601C04B204980A
:1020A000002805DADDE90310084400B2049006E0D8
:1020B000681C05B202990498084400B20490BBF170
:1020C000000F08D0019830B16042C2B2E9B207985F
:1020D00000F01CF816E0BBF1000F06D06842C2B257
:1020E000E1B2079800F012F80CE0019828B1E2B2D2
:1020F000E9B2079800F00AF804E0EAB2E1B2079802
:1021000000F004F84445C8DB002037E72DE9F04132
:1021100003460C465D6B13B193F8300018B94FF0CD
:10212000FF30BDE8F0817F2C02DD4FF0FF30F8E793
:102130003F2A02DD4FF0FF30F3E71046D61702EBDF
:102140005676F61095F84070DFF840C00CEB872704
:1021500007EBC616365D1146D71702EB5777FF100F
:10216000A2EBC70C012707FA0CF73E43D71702EB87
:102170005777FF1095F840C0DFF8108008EB8C2CE3
:102180000CEBC7173E550020CBE70000B000002045
:102190002DE9F05F80460D4616461F46DDE90A9B95
:1021A000B8F1000F02D098F8300018B94FF0FF30A6
:1021B000BDE8F09FBBF1000F28D12C460EE032465F
:1021C00021464046FFF7A2FF06EB0900401EC2B2BF
:1021D00021464046FFF79AFF601CC4B2E819A042AE
:1021E000EDDC34460DE0224629464046FFF78EFFDF
:1021F000E819401EC1B222464046FFF787FF601C27
:10220000C4B206EB0900A042EDDC15E02C4610E05C
:10221000B24608E0524621464046FFF777FF0AF1F2
:10222000010000F0FF0A06EB09005045F2DC601CDB
:10223000C4B2E819A042EBDC0020B9E72DE9FF4F5A
:1022400087B01C46DDE91576149D079818B10798EC
:1022500090F8300020B94FF0FF300BB0BDE8F08FA0
:10226000DDF82080DDF82490DDF82080C246DDF81E
:102270002490CB46DDF82080ADF80C80ADF80E4000
:10228000ADF81070DDF82490ADF80490ADF806506C
:10229000ADF80860179898B92346009507A807C8B5
:1022A000FFF75CFE3B46009607A807C8FFF756FEFF
:1022B0003B462A46214600960798FFF74FFE39E035
:1022C000444500DAA046474500DAB8464D4500DAF5
:1022D000A9464E4500DAB146544500DDA2465745B1
:1022E00000DDBA465D4500DDAB465E4500DDB34628
:1022F000CDF818801BE0CDF8149011E005980090FF
:1023000001AA03A90320069B00F090F820B1DDE9A3
:1023100005210798FFF7FAFE0598401CC0B205900A
:1023200005985845EADD0698401CC0B2069006980C
:102330005045E0DD002090E7F0B503465D6B7F2956
:1023400001DD0020F0BD3F2A01DD0020FAE7D617AD
:1023500002EB5676F61095F84070DFF82CC00CEBC7
:10236000872707EBC616765CD71702EB5777FF1067
:10237000A2EBC70C012707FA0CF73E400EB1012073
:10238000E0E70020DEE70000B00000202DE9F0418A
:102390002DED0A8B80460F4614461D464046FEF73B
:1023A000A7F841EC1B0B3846FEF7A2F841EC1C0BDA
:1023B000B0EE4B1AF0EE6B1AB0EE4C0AF0EE6C0A6F
:1023C000FEF726FFB0EE40AAF0EE60AA9FED130BD9
:1023D00053EC102B51EC1A0BFEF71BF841EC180BC9
:1023E0009FED100B53EC102BFDF7A1FF41EC190BE7
:1023F000FEF79CF806B2AC4208DAA6420CDBAE420D
:102400000ADC0120BDEC0A8BBDE8F081A64201DAAE
:10241000AE4201DC0120F5E70020F3E71F85EB5118
:10242000B81E094000000000008066402DE9F0431E
:1024300005460C461F46079E4FF0000C00216B1E00
:1024400034E032F91100B04201DD012000E000204B
:1024500032F91380B04502DD4FF0010801E04FF082
:10246000000840451FD034F9130034F91180A0EB67
:10247000080032F91180A6EB080800FB08F032F9D9
:10248000138032F91190A8EB090890FBF8F034F9A9
:1024900011804044B84206DDBCF1000F01D101209B
:1024A00000E0002084460B46481C01B2A942C8DB6C
:1024B0000CF0FF00BDE8F08310B50246012000E0FB
:1024C00050430B1EA1F10101FAD110BDF0B58BB044
:1024D00004460E4617461D4614B194F8300018B94C
:1024E0004FF0FF300BB0F0BD11A8029003A8029A84
:1024F0001099FEF7F7FC0020029003AB3A463146F4
:102500002046009500F069FB0020EBE770B504461B
:102510000D46228B91B22A466069FEF793FB70BD8F
:1025200070B50246546B12B192F8300010B94FF0FA
:10253000FF3070BD002119E0002313E094F8400043
:102540000C4D05EB802000EBC110C05C80F0FF005B
:1025500094F84050074E06EB852505EBC115E8546D
:10256000581CC3B2802BE9DB481CC1B20829E3DB4D
:102570000020DEE7B00000202DE9F04F05460C46B4
:102580001F46DDF824C0D5F8348015B195F8300029
:1025900018B94FF0FF30BDE8F08F7F2C02DD4FF00F
:1025A000FF30F8E73F2A02DD4FF0FF30F3E7E01994
:1025B000802802DDC4F18000C7B202EB0C00402885
:1025C00003DDC2F1400000F0FF0C114638E0264662
:1025D00031E008464FEAE17901EB59794FEAE90920
:1025E00098F840A0DFF864B00BEB8A2A0AEBC9190F
:1025F00019F806900B464FEAE17A01EB5A7A4FEA56
:10260000EA0AA1EBCA0B4FF0010A0AFA0BFA89EAAF
:102610000A094FEAE17A01EB5A7A4FEAEA0A98F896
:1026200040B0DFF828E00EEB8B2B0BEBCA1A0AF850
:102630000690701CC6B2E019B042CADC481CC1B298
:1026400002EB0C008842C2DC0020A4E7B0000020AE
:102650002DE9F84F05460E4692461F46DDE90A89E8
:1026600015B195F8300018B94FF0FF30BDE8F88F7C
:10267000002417E0A8EB0400411E0220FFF71CFF16
:10268000B7FBF0F000F0010000F1300B04FB096033
:10269000C1B25B4652462846CDF8009000F006F8DD
:1026A000601CC4B24445E5DB0020DFE72DE9FC41B6
:1026B00004460F4690461D46089E14B194F830001B
:1026C00018B94FF0FF30BDE8FC81082E0ED1A5F1FE
:1026D0002000104901EB0010102108234246CDE9EB
:1026E00000103946204600F03FF911E0062E0FD1C8
:1026F000A5F1200000EB4000074901EB4000082154
:1027000006234246CDE900103946204600F02CF958
:102710000020D8E7A8440008984A00082DE9FE4F99
:10272000074689469246984617B197F8300018B97F
:102730004FF0FF30BDE8FE8F0025002002900024FE
:102740003BE018F8040002A94855681CC5B2032DE7
:1027500031DB002500260BE006EBC6011A4A02EB2E
:10276000810002A9FDF72EFD00B90BE0701CC6B276
:1027700006EBC601144A02EB810014A1FDF722FD0D
:102780000028E9D100BF601C032190FBF1F0401E3E
:1027900009EB001000F0FF0B06EBC6000A4901EB45
:1027A0008000001D10210B465246CDE9001059460D
:1027B000384600F0D9F8601CC4B218F804000028AC
:1027C000BFD100BFB6E70000D24C000800000000F7
:1027D0002DE9FF5F2DED020B2DED088B82B0074632
:1027E0000D46B0EE408AF0EE608A1E46DDE91AB46E
:1027F00017B197F8300038B94FF0FF3002B0BDEC98
:10280000088B06B0BDE8F09F9FED370B53EC102B03
:1028100051EC180BFDF7DAFE07D82B23009429465C
:1028200038460E9AFFF742FF0CE02D23009429460C
:1028300038460E9AFFF73AFF51EC180B81F0004131
:1028400041EC180B51EC180BFDF78FFE82465046F9
:10285000FDF75FFE41EC190B53EC182BFDF764FDFF
:1028600041EC180B59460A20FFF726FE80464046E9
:10287000FDF74FFE41EC1B0B53EC182BFDF757FDFA
:1028800041EC1A0BB0EE4A0AF0EE6A0AFEF7C0FD00
:10289000B0EE409AF0EE609A51EC190BFDF765FE30
:1028A0008146B9FBF8F082442819C1B25346CDE9FC
:1028B000006438460E9A00F019F9701C00FB0450B1
:1028C000C1B22E23009438460E9AFFF7EFFEB01CDB
:1028D00000FB0450C1B24B46CDE900B438460E9A15
:1028E00000F004F9002089E700000000000000006B
:1028F0002DE9F84F0746884693469946DDE90AA533
:1029000017B197F8300018B94FF0FF30BDE8F88FD5
:10291000002424E0AAEB0400411E1020FFF7CCFDA8
:10292000B9FBF0F000F00F060A2E0BDA06F13000CA
:10293000C3B204FB0580C1B25A4638460095FFF782
:10294000B5FE0AE006F13700C3B204FB0580C1B250
:102950005A4638460095FFF7A9FE601CC4B254459C
:10296000D8DB0020D2E700002DE9F84F80460F4663
:1029700014469946DDF828B0D8F834A0B8F1000F15
:1029800002D098F8300018B94FF0FF30BDE8F88F4A
:102990007F2F02DD4FF0FF30F8E73F2C02DD4FF0D4
:1029A000FF30F3E74B46224639464046CDF800B0AB
:1029B000FEF762FE002589E0002681E0B8197F2835
:1029C00000DD80E0E11704EB517105EBE10107291F
:1029D00002DD4FF0FF30D9E72046E21704EB5272D8
:1029E00005EBE2029AF84030DFF8FCC00CEB8323E1
:1029F00003EBC212BB19D25C2146E31704EB5373FD
:102A0000DB10A4EBC30305FB096EDDF82CC01CF83A
:102A10000EC00CFA03FC42EA0C02E31704EB5373FA
:102A200005EBE3039AF840C0DFF8BCE00EEB8C2C1A
:102A30000CEBC31307EB060C03F80C20E11704EBB7
:102A4000517105EBE101491C072900DD36E0204604
:102A5000E21704EB527205EBE202521C9AF8403086
:102A6000DFF884C00CEB832303EBC212BB19D25CEA
:102A70002146E31704EB5373DB10A4EBC303C3F14C
:102A8000080305FB096EDDF82CC01CF80EC04CFADB
:102A900003FC42EA0C02E31704EB537305EBE30378
:102AA0005B1C9AF840C0DFF840E00EEB8C2C0CEB7E
:102AB000C31307EB060C03F80C2000BF701CC6B252
:102AC0004E45FFF67BAF00BF681CC5B2ABF10100FD
:102AD000C11700EB5171012202EBE101A9423FF75E
:102AE0006BAF002052E70000B00000202DE9F84F46
:102AF00005460E4692461F46DDE90A8915B195F84E
:102B0000300018B94FF0FF30BDE8F88F00241AE00C
:102B1000A8EB0400411E0A20FFF7CEFCB7FBF0F043
:102B20000A21B0FBF1F201FB120000F1300B04FBB3
:102B30000960C1B25B4652462846CDF80090FFF7C7
:102B4000B5FD601CC4B24445E2DB0020DCE72DE9A2
:102B5000FF4F81B0074689461D46DDE90EA617B135
:102B600097F8300020B94FF0FF3005B0BDE8F08F86
:102B7000002D08DB2B23009649463846039AFFF7C1
:102B800095FDA84608E02D23009649463846039A4D
:102B9000FFF78CFDC5F1000800241AE0AAEB040041
:102BA000411E0A20FFF788FCB8FBF0F00A21B0FBB9
:102BB000F1F201FB120000F1300B601C00FB0690EB
:102BC000C1B25B4600963846039AFFF76FFD601C62
:102BD000C4B25445E2DB0020C7E72DE9F8430546BF
:102BE0000F4691461E46DDF8208015B195F830005D
:102BF00018B94FF0FF30BDE8F88300240BE0CDF8A2
:102C00000080335D04FB0870C1B24A462846FFF7D6
:102C10004DFD601CC4B2305D0028F0D100BFEAE772
:102C200070B505466E6B15B195F8300010B94FF0D0
:102C3000FF3070BD002411E0002221462846FEF737
:102C400015F896F84000074A02EB802000EBC4110B
:102C50008022284600F09EF8601CC4B2082CEBDBF2
:102C60000020E6E7B00000202DE9F04707460D46BA
:102C700014469846DDF82090D7F834A017B197F89D
:102C8000300018B94FF0FF30BDE8F0877F2D02DD2E
:102C90004FF0FF30F8E73F2C02DD4FF0FF30F3E755
:102CA00005EB0800802803DDC5F1800000F0FF0877
:102CB00004EB0900402803DDC4F1400000F0FF09E7
:102CC0002046E11704EB5171C1F3C70612E02A4612
:102CD00031463846FDF7CAFF9AF840000C4A02EB2D
:102CE000802000EBC61041194246384600F02DF80E
:102CF000701CC6B204EB0901481EC11700EB5171EC
:102D0000012202EBE101B142E1DC0020BCE700005E
:102D1000B000002070B504460E46656B14B194F8FF
:102D2000300010B94FF0FF3070BD2846296B88473E
:102D300000212046FEF70CFD31462846AA6B90473D
:102D40002846696B88470020EEE72DE9F0410446EC
:102D50000F469046656B14B194F8300018B94FF0E7
:102D6000FF30BDE8F0812846296B884701212046C5
:102D7000FEF7EEFC002605E0B95D2846AA6B9047F9
:102D8000701CC6B24645F7DB2846696B88470020B1
:102D9000E7E70000F0B58FB004460E461746656BB6
:102DA00014B194F8300018B94FF0FF300FB0F0BDF7
:102DB0002846296B884701212046FEF7C9FC864931
:102DC0002068884204D101218805FDF76DFF10E0DD
:102DD00082492068884204D101214805FDF764FF3B
:102DE00007E07F492068884203D101214805FDF7AB
:102DF0005BFF794A2168914201D17A490DE0774A17
:102E00002168914201D1784907E0754A21689142D1
:102E100002D17549183100E000210846FDF7ACFDEC
:102E20006D492068884202D14FF0C0600CE06B49C8
:102E30002068884201D1002006E069492068884264
:102E400001D1002000E00020009020680C300190AB
:102E50000296402003900497002005904FF4806074
:102E6000069000200790089009904FF400300A90D7
:102E700000200B9003200C9000200D900E90564ADD
:102E80002168914201D157490DE0544A216891428D
:102E900001D1554907E0524A2168914202D1524975
:102EA000183100E0002108466946FDF733FE012293
:102EB00002212068FDF734FF474A2168914201D181
:102EC00048490DE0454A2168914201D1464907E051
:102ED000434A2168914202D14349183100E0002160
:102EE00008460121FDF73CFD00BF3B4B22689A429A
:102EF00002D14FF0C0520CE0384B22689A4201D107
:102F00003A4A06E0364B22689A4201D1384A00E03C
:102F100000221146304B22689A4201D1314A0DE01D
:102F20002E4B22689A4201D12F4A07E02C4B22688F
:102F30009A4202D12C4A183200E000221046FDF7D6
:102F4000C7FD0028D1D0244B22689A4202D14FF00D
:102F5000C0520CE0214B22689A4201D1234A06E07C
:102F60001F4B22689A4201D1214A00E000221146FB
:102F7000194B22689A4201D11A4A0DE0174B226878
:102F80009A4201D1184A07E0154B22689A4202D1B1
:102F9000154A183200E000221046FDF7C7FC0E4A21
:102FA0002168914201D10F490DE00C4A21689142FC
:102FB00001D10D4907E00A4A2168914202D10A492C
:102FC000183100E0002108460021FDF7C9FC284621
:102FD000696B88470020E9E6003001400038004076
:102FE000003C004058640240706002402000002015
:102FF0000008002002E008C8121F08C1002AFAD108
:1030000070477047002001E001C1121F002AFBD168
:10301000704700000149086070470000AC000020C4
:1030200070B504460D46228C91B22A46E069FDF740
:1030300009FE70BD014611B191F8280010B94FF09A
:10304000FF307047002081F8280000BFF9E710B575
:10305000044600212046FFF7E3FF10BD10B50446EB
:1030600001212046FFF7DCFF10BD70B504460D4678
:1030700000BF02212068FDF75CFE0128F9D1294636
:103080002068FDF762FE00BF01212068FDF751FEB8
:103090000128F9D12068FDF755FEC0B270BD0000CF
:1030A0002DE9FF5F82B00021DDE90430020DDDF87B
:1030B00040B0034318D044F61050A2F2FF3242430E
:1030C0001514119801281FD0A5EB0B00401C5FEAD6
:1030D000000A4FF000064E4FDFF83891B0465046D8
:1030E00015D5CAF1000413E0119801244AA3012860
:1030F00001D16FEA0B010298119AC0E90031C0E9D1
:10310000024206B0BDE8F09FCBF10000DFE70446C5
:103110000021404A491842EB0450CDE9001012E06A
:10312000E00707D032463B4640464946FDF7FFF8E8
:103130008046894632463B4610461946FDF7F7F869
:1031400006460F466410002CEAD1DDE90401DDE9F2
:103150000023BAF1000F06DAFDF7E9F842464B46C4
:10316000FDF7E5F805E0FDF754F942464B46FDF75B
:1031700050F904460E460022284BFDF727FA03D8E3
:103180004FF0FF30014607E00022254B2046314634
:10319000FDF726F8FDF79EFB102409E0002C0ADB62
:1031A0000A220023FDF75CFA039B30321A55641E95
:1031B00050EA0102F2D1641C039AC4F111031444D1
:1031C000119A012A03D0012208430DD10AE00843D5
:1031D00004D000204FF0110B119072E7A3EB0B0508
:1031E0006D1E0DE05B4504DD4FF0000205F10105A9
:1031F00004E003DA4FF00002A5F10105002AECD04B
:1032000002981199C0E90231C0E9004579E7000050
:10321000000014400000F03F300000000000F043C8
:103220000000E03F2DE9FF4F95B09A4688460646DC
:103230000025EEE1252877D100242746F94A01210F
:10324000039400E0044316F8013F203B01FA03F029
:103250001042F7D130782A2811D06FF02F03307840
:10326000A0F13002092A16D8039A44F0020402EBB6
:10327000820203EB42021044761C0390EFE758F8F9
:10328000042B0392002A03DA504244F400540390C2
:1032900044F00204761C30782E2816D116F8010F5F
:1032A00044F004042A280DD06FF02F023078A0F1EA
:1032B0003003092B09D807EB870302EB4303C71838
:1032C000761CF3E758F8047B761C30786C280FD016
:1032D00006DC4C2817D068280DD06A2814D104E0E9
:1032E000742810D07A280FD10DE044F400140AE0BD
:1032F00044F4801401E044F440147278824202D114
:1033000004F58014761C761C307866280BD013DC0C
:10331000582877D009DC002875D04528F6D04628F3
:10332000F4D047281AD193E118E0632835D06428F7
:1033300079D0652812D18BE1702873D008DC67281A
:10334000F1D069286FD06E280DD06F2806D1ACE07F
:1033500073282CD0752874D0782853D052461799EA
:1033600090476D1C54E1C4F30250022809D0032891
:103370000DD0D8F8001004280DD00D6008F1040815
:1033800046E1D8F80010EA17C1E90052F6E7D8F88C
:1033900000100D80F2E70D70F0E718F8041B8DF8AF
:1033A000001000208DF80100EB46012003E058F8E2
:1033B00004BB4FF0FF3061074FF0000102D40DE075
:1033C00009F101018946B9420FDA8145F8DB1BF8A2
:1033D00009100029F4D108E009F101018946814270
:1033E000FADB1BF809100029F6D103985346A0EB2D
:1033F000090721463846179A00F080FA284400EB66
:10340000090507E044E008E10DE01BF8010B524616
:1034100017999047B9F10109F7D25346214638462A
:10342000179AF2E039E00A21C4F302524FF0000B80
:103430000091022A06D058F8040BC117032A09D0BC
:103440000AE023E008F1070020F00702F2E8020199
:10345000904605E000B2C117042A01D140B2C1175D
:10346000002906DA0A460021404261EB02012D22C2
:1034700002E0220504D52B228DF80420012203E06E
:10348000E20701D02022F7E7914657E00A2100E049
:1034900010214FF0000B00910BE010214FF0000BBA
:1034A00044F004040827009103E008204FF0000BCB
:1034B0000090C4F30252022A05D058F8040B0021F0
:1034C000032A08D008E008F1070020F00702F2E81C
:1034D0000201904603E080B2042A00D1C0B24FF04E
:1034E000000922072AD53278702A07D0DDF800C0FB
:1034F0008CF0100C5CEA0B0C05D00EE040228DF82D
:103500000420012208E050EA010306D030238DF8A0
:1035100004308DF8052002229146009B83F00803B9
:1035200053EA0B030AD150EA010201D1620705D523
:1035300030228DF804204FF001097F1E3278582A7E
:1035400004D039A20C920CAA02920BE03BA2F9E73C
:103550005B46009AFDF784F80C9B9B5C029A521E16
:103560000292137050EA0102F2D1029804A9081ADB
:1035700000F1200B600702D524F4803400E001271D
:103580005F4502DDA7EB0B0000E0002000EB0B0124
:10359000009003984944401A0390E00306D4534630
:1035A0002146179A039800F0A9F90544002706E080
:1035B00001A85246C05D179990476D1C7F1C4F456E
:1035C000F6DBE0030CD553462146179A039800F02A
:1035D00095F9054404E030205246179990476D1C38
:1035E0000099481E00900029F5DC08E00298029935
:1035F00052460078491C0291179990476D1CBBF107
:103600000001ABF1010BF1DC5BE100F065F9054471
:10361000761C307800287FF40DAE19B02846BDE83E
:10362000F08F00000928010030313233343536374D
:1036300038396162636465660000000030313233FE
:10364000343536373839414243444546000000009E
:10365000600700D4062708F1070020F00700F0E813
:103660000223804603F0004C5FEA0C0001D097A0D3
:1036700009E0200501D596A005E0E00701D095A05E
:1036800001E0AFF24C001390307823F0004365283E
:103690000CD006DC452809D046281DD047287FD10C
:1036A0003BE0662818D067287AD136E00021112F38
:1036B00001DB112000E0781CCDE9000104A90CA871
:1036C000FFF7EEFCDDE90D010C9A4FF0000B07F15E
:1036D0000109109200914EE04FF000400097CDE9B3
:1036E000011004A90CA8FFF7DBFCDDE90D020C9B1F
:1036F0000F994FF0000B91461093009211B9791C6D
:1037000000EB0109B7EB090003D4C0F1FF3B07F15F
:103710000109A9EB0700019042E0012F00DA01271F
:103720000021112F01DD112000E03846CDE9000114
:1037300004A90CA8FFF7B4FCDDE90D010C9A009177
:103740004FF0000BB946109221070FD4009A4A455A
:1037500003DA914601E0A9F10109B9F1010F05DD94
:10376000109AA9F10101515C3029F4D0B84202DA73
:1037700010F1040F03DA0121CDE9011010E0002857
:1037800003DC8344A9EB000102E0411C494500DD54
:103790008946A0EB0B00401C01904FF000400290C6
:1037A000200705D40198484502DB4FF0FF30019017
:1037B00000208DF84B0002980DF14B07B0F1004F3F
:1037C00025D002200C902B200D90029800280CDAB6
:1037D000404202902D200D9007E00A210298FCF74C
:1037E00029FF3031029007F8011D0C99481E0C90FA
:1037F0000029F2DC02980028EFD1791E0D9808709C
:10380000307800F0200040F0450007F8020D11A8C4
:10381000C01BC01D02901398007800B1012000EB7E
:103820000901019801EBE071029801440398401AE4
:10383000401E0390E00306D453462146179A03988E
:1038400000F05CF805441398007818B152461799B7
:1038500090476D1CE00323D553462146179A0398E1
:1038600000F04CF805441BE0BBF1000F07DB0098AB
:10387000584504DD1098179910F80B0001E01799CE
:1038800030205246904701980BF1010B401E05F184
:103890000105019004D12E205246179990476D1CC6
:1038A000B9F10001A9F10109DEDC05E017F8010B0F
:1038B0005246179990476D1C0299481E02900029A4
:1038C000F4DC53462146179A03989EE62D0000002B
:1038D0002B000000200000002DE9F04104460025E7
:1038E0001E461746880404D405E039462020B04718
:1038F0006D1C641EF9D52846BDE8F0812DE9F04124
:10390000044600251E469046C80301D5302700E036
:103910002027880404D505E041463846B0476D1C91
:10392000641EF9D52846BDE8F0810A68531C0B6077
:103930001070704710B541EC100BFDF7FDFA51EC1B
:10394000100B10BD024908800121024A1170704716
:103950009E0000209C00002082B0CDE9000121F0F3
:10396000004001909DED000B02B051EC100B704730
:1039700010B5002821D0114B0022001F196803E068
:10398000814203D80A4649680029F9D152B1136827
:10399000841A9C4204D1006818441060104602E06A
:1039A000506000E0186039B102680B1A934203D1ED
:1039B0000B681A4402604968416010BDA4000020F1
:1039C0001CB54FF44070FDF747F9A820FFF7BAFF88
:1039D000084800F047F80CE0641C082000900190B3
:1039E0000448234600221146C56DA8470148816B53
:1039F0008847F1E700000020F0B50B30154D20F0AE
:103A000007010024144A0FE003688B420BD38B425A
:103A100005D95E1A43184768C3E9006700E04368A8
:103A2000136002C004E0021D10680028ECD120469B
:103A3000002802D1286808B10020F0BD064A0748D6
:103A40001060074A121A22F00702C0E90024012080
:103A50002860D7E7A8000020A4000020B4040020BC
:103A6000B00600207CB5044614B94FF0FF307CBD91
:103A7000002006E0002100E0491CB1F57A7FFBD36D
:103A8000401CB0F57A7FF5D34420FFF7B5FF6063A3
:103A9000606B10B94FF0FF30E9E7656B2068286074
:103AA00060686860A068A860E068E86020692861D4
:103AB00000206861A861606AE861A06A2862A08D40
:103AC000A88494F82E0085F82600A948007885F887
:103AD0004000A7480078401CA5490870284600F01F
:103AE00089F9A4496069884204D101210846FDF79B
:103AF000DBF834E0A0496069884204D1012102204A
:103B0000FDF7D2F82BE09D496069884204D101217C
:103B10000420FDF7C9F822E099496069884204D180
:103B200001210820FDF7C0F819E096496069884234
:103B300004D101211020FDF7B7F810E09249606927
:103B4000884204D101212020FDF7AEF807E08F491B
:103B50006069884203D101214020FDF7A5F885491D
:103B6000E069884204D101210846FDF79DF834E060
:103B70008149E069884204D101210220FDF794F8CF
:103B80002BE07E49E069884204D101210420FDF741
:103B90008BF822E07A49E069884204D101210820AB
:103BA000FDF782F819E07749E069884204D10121E4
:103BB0001020FDF779F810E07349E069884204D1DC
:103BC00001212020FDF770F807E07049E069884284
:103BD00003D101214020FDF767F801208DF8040092
:103BE00000208DF80600A069009000208DF80700E5
:103BF00002208DF8050069466069FCF7B8FF0120D6
:103C00008DF8040000208DF80600206A0090002046
:103C10008DF8070002208DF805006946E069FCF781
:103C2000A6FF01212046FEF771FC01212046FDF789
:103C30008FFD01212846EA6A904755483034A0603C
:103C40005448E06054482061544860615448A06181
:103C50005448E06154482062544860625448A0626D
:103C60005448E06254482063544860635448A06359
:103C70005448E06354482064544860645448A06445
:103C80005448E06454482065544860655448A06531
:103C90005448E06554482066544860665448A0661D
:103CA000012004F83009AE212046FFF733F8D52172
:103CB0002046FFF72FF880212046FFF72BF8A82198
:103CC0002046FFF727F83F212046FFF723F8D321AE
:103CD0002046FFF71FF800212046FFF71BF8402180
:103CE0002046FFF717F8A1212046FFF713F8C82157
:103CF0002046FFF70FF8DA212046FFF70BF81221D4
:103D00002046FFF707F881212046FFF703F8CF216F
:103D10002046FEF7FFFFD9212046FEF7FBFFF121E9
:103D20002046FEF7F7FFDB212046FEF7F3FF3021A8
:103D30002046FEF7EFFFA4212046FEF7EBFFA62169
:103D40002046FEF7E7FF8D212046FEF7E3FF142112
:103D50002046FEF7DFFFAF212046FEF7DBFF2046BF
:103D6000FDF766FC2046FEF75BFF00207FE60000C3
:103D7000A0000020000002400004024000080240B1
:103D8000000C0240001002400014024000180240E3
:103D9000212C0008692C000831160008791600084B
:103DA000212500087925000869290008AD260008AA
:103DB000DB2B0008ED2A00084F2B0008F128000833
:103DC00051260008D12700081D270008CD2400082F
:103DD0000D210008392300085D1F0008912100080B
:103DE0003D220008311A0008C51B00089117000881
:103DF0006517000830B587B004461CB94FF0FF3096
:103E000007B030BDF9492068884204D101218014EF
:103E1000FCF76AFF10E0F6492068884204D10121CE
:103E20000014FCF751FF07E0F2492068884203D1F3
:103E30000121C013FCF748FFEF496068884204D1B4
:103E400001210846FCF730FF34E0EC496068884205
:103E500004D101210220FCF727FF2BE0E84960682C
:103E6000884204D101210420FCF71EFF22E0E5492D
:103E70006068884204D101210820FCF715FF19E091
:103E8000E1496068884204D101211020FCF70CFF51
:103E900010E0DE496068884204D101212020FCF74F
:103EA00003FF07E0DA496068884203D1012140201E
:103EB000FCF7FAFED049E068884204D101210846A7
:103EC000FCF7F2FE34E0CD49E068884204D10121DC
:103ED0000220FCF7E9FE2BE0C949E068884204D1E2
:103EE00001210420FCF7E0FE22E0C649E068884298
:103EF00004D101210820FCF7D7FE19E0C249E0688F
:103F0000884204D101211020FCF7CEFE10E0BF4909
:103F1000E068884204D101212020FCF7C5FE07E0BB
:103F2000BB49E068884203D101214020FCF7BCFE78
:103F3000B1496069884204D101210846FCF7B4FE0A
:103F400034E0AE496069884204D101210220FCF7C7
:103F5000ABFE2BE0AA496069884204D1012104200C
:103F6000FCF7A2FE22E0A7496069884204D1012142
:103F70000820FCF799FE19E0A3496069884204D142
:103F800001211020FCF790FE10E0A04960698842F2
:103F900004D101212020FCF787FE07E09C496069DD
:103FA000884203D101214020FCF77EFE9249E0695E
:103FB000884204D101210846FCF776FE34E08F499F
:103FC000E069884204D101210220FCF76DFE2BE05C
:103FD0008B49E069884204D101210420FCF764FE8A
:103FE00022E08849E069884204D101210820FCF7D9
:103FF0005BFE19E08449E069884204D10121102068
:10400000FCF752FE10E08149E069884204D10121A9
:104010002020FCF749FE07E07D49E069884203D192
:1040200001214020FCF740FE02208DF80400002012
:104030008DF80600A068009000208DF8070002208F
:104040008DF8050069466068FCF791FD02208DF847
:10405000040000208DF806002069009000208DF8F3
:10406000070002208DF805006946E068FCF77FFD37
:1040700002208DF8040000208DF80600A069009051
:1040800000208DF8070002208DF805006946606960
:10409000FCF76DFD01208DF8040000208DF806006E
:1040A000206A009000208DF8070002208DF805009E
:1040B0006946E069FCF75BFD4C4D2368AB4201D1DA
:1040C00005230CE04A4D2368AB4201D1052306E0ED
:1040D000484D2368AB4201D1062300E000231A4675
:1040E000A368012B01D1002353E0A368022B01D167
:1040F00001234EE0A368042B01D1022349E0A36809
:10410000082B01D1032344E0A368102B01D1042321
:104110003FE0A368202B01D105233AE0A368402BA0
:1041200001D1062335E0A368802B01D1072330E0BD
:10413000A368B3F5807F01D108232AE0A368B3F513
:10414000007F01D1092324E0A368B3F5806F01D17A
:104150000A231EE0A368B3F5006F01D10B2318E01A
:10416000A368B3F5805F01D10C2312E0A368B3F517
:10417000005F01D10D230CE0A368B3F5804F01D19E
:104180000E2306E0A368B3F5004F01D10F2300E032
:10419000002319466068FCF732FD144D2368AB42DA
:1041A00001D105230CE0124D2368AB4201D1052358
:1041B00006E0104D2368AB4201D1062300E0002346
:1041C0001A462369012B01D1002368E02369022BE1
:1041D00001D1012363E02369042B01D102235EE0B6
:1041E0002369082B16D1032359E000000030014059
:1041F00000380040003C0040000002400004024043
:1042000000080240000C024000100240001402406E
:10421000001802402369102B01D104233FE02369D9
:10422000202B01D105233AE02369402B01D106233D
:1042300035E02369802B01D1072330E02369B3F5F2
:10424000807F01D108232AE02369B3F5007F01D1E3
:10425000092324E02369B3F5806F01D10A231EE00E
:104260002369B3F5006F01D10B2318E02369B3F57F
:10427000805F01D10C2312E02369B3F5005F01D107
:104280000D230CE02369B3F5804F01D10E2306E026
:104290002369B3F5004F01D10F2300E00023194635
:1042A000E068FCF7ACFC784D2368AB4201D10523F4
:1042B0000CE0764D2368AB4201D1052306E0744D36
:1042C0002368AB4201D1062300E000231A46A3690C
:1042D000012B01D1002353E0A369022B01D101235B
:1042E0004EE0A369042B01D1022349E0A369082B06
:1042F00001D1032344E0A369102B01D104233FE043
:10430000A369202B01D105233AE0A369402B01D1F9
:10431000062335E0A369802B01D1072330E0A36990
:10432000B3F5807F01D108232AE0A369B3F5007FAC
:1043300001D1092324E0A369B3F5806F01D10A23D9
:104340001EE0A369B3F5006F01D10B2318E0A36948
:10435000B3F5805F01D10C2312E0A369B3F5005FD0
:1043600001D10D230CE0A369B3F5804F01D10E23D9
:1043700006E0A369B3F5004F01D10F2300E000234D
:1043800019466069FCF73BFC4FF48270ADF80A00F7
:104390000020ADF80800ADF80C00ADF81600A08CB8
:1043A000022801D1002023E0A08C042801D108209C
:1043B0001EE0A08C082801D1102019E0A08C102844
:1043C00001D1182014E0A08C202800D110E0A08C8E
:1043D000402801D128200BE0A08C802801D130207A
:1043E00006E0A08CB0F5807F01D1382000E00020ED
:1043F000ADF8140094F8260028B90020ADF80E009E
:10440000ADF810001EE094F82600012806D1002027
:10441000ADF80E000120ADF8100013E094F826006E
:10442000022805D1ADF80E000020ADF8100009E01B
:1044300094F82600032805D10220ADF80E000120D3
:10444000ADF810004FF40070ADF812000720ADF881
:10445000180002A92068FCF77AFC01212068FCF70B
:1044600053FC0C48E0620C4820630C4860630C4825
:10447000A0630C48E063012084F828000121204655
:10448000FEF7CEFD0020BBE40030014000380040C4
:10449000003C0040213000084F3000085D3000082B
:1044A0006B300008353000080000000000000000FC
:1044B0000000000000000000000000F80000000004
:1044C000000000333000000000160E00160E000041
:1044D000000000000000000040C07840C0784000AC
:1044E000043F04043F040400007088FC083000000E
:1044F000001820FF211E0000F008F000E018000066
:1045000000211C031E211E0000F00888700000001E
:104510001E21232419272110000000160E00000080
:104520000000000000000000000000E0180402008D
:10453000000000071820400000020418E0000000FE
:104540000040201807000000404080F080404000FC
:104550000202010F01020200000000F00000000052
:104560000101011F01010100000000000000000026
:1045700000B070000000000000000000000000001B
:104580000001010101010101000000000000000024
:1045900000303000000000000000000080601804BF
:1045A000006018060100000000E010080810E0009C
:1045B000000F102020100F00001010F80000000065
:1045C0000020203F202000000070080808887000AC
:1045D000003028242221300000300888884830002C
:1045E0000018202020110E000000C02010F800004C
:1045F00000070424243F240000F8088888080800E5
:104600000019212020110E0000E0108888180000F9
:10461000000F112020110E0000380808C8380800CB
:104620000000003F0000000000708808088870004B
:10463000001C222121221C0000E010080810E000CC
:104640000000312222110F00000000C0C000000055
:104650000000003030000000000000C0C00000007A
:10466000000080B0700000000000804020100800B2
:10467000000102040810200040404040404040003B
:104680000404040404040400000810204080000016
:104690000020100804020100007048080808F0001B
:1046A0000000003036010000C030C828E810E000EB
:1046B0000718272423140B000000C038E000000076
:1046C000203C23020227382008F8888888700000E0
:1046D000203F202020110E00C030080808083800B4
:1046E000071820202010080008F808080810E0002B
:1046F000203F202020100F0008F88888E8081000CC
:10470000203F20202320180008F88888E80810009F
:10471000203F200003000000C030080808380000D7
:1047200007182020221E020008F808000008F808D8
:10473000203F210101213F20000808F8080800005F
:104740000020203F2020000000000808F808080092
:10475000C08080807F00000008F888C0281808000A
:10476000203F20012638200008F808000000000043
:10477000203F20202020300008F8F800F8F808003A
:10478000203F003F003F200008F830C00008F80834
:10479000203F200007183F00E01008080810E00044
:1047A0000F10202020100F0008F808080808F0005B
:1047B000203F210101010000E01008080810E0007E
:1047C0000F18242438504F0008F888888888700013
:1047D000203F2000030C30200070880808083800B3
:1047E0000038202121221C00180808F808081800A9
:1047F0000000203F2000000008F808000008F8082A
:10480000001F202020201F000878880000C83808DA
:10481000000007380E010000F80800F80008F80052
:10482000033C0700073C03000818688080681808EC
:1048300020302C03032C30200838C800C83808006A
:104840000000203F2000000010080808C8380800B9
:104850002038262120201800000000FE020202005D
:104860000000007F40404000000C30C0000000000D
:10487000000000010638C00000020202FE00000035
:10488000004040407F000000002010080408102075
:104890000000000000000000000000000000000018
:1048A00080808080808080800002040800000000FA
:1048B00000000000000000000000808080800000F8
:1048C0000019242222223F2008F8008080000000E6
:1048D000003F112020110E000000008080800000A9
:1048E000000E112020201100000000808088F800B8
:1048F000000E112020103F200000808080800000EA
:10490000001F222222221300008080F0888888184D
:104910000020203F20200000000080808080800058
:10492000006B94949493600008F8008080800000ED
:10493000203F210000203F200080989800000000C8
:104940000020203F202000000000008098980000F8
:1049500000C08080807F000008F800008080800018
:10496000203F24022D302000000808F8000000003D
:104970000020203F202000008080808080808000F8
:10498000203F20003F20003F00808000808000000A
:1049900000203F2100203F20000080808080000018
:1049A000001F202020201F00808000808000000049
:1049B00080FFA12020110E00000000808080800078
:1049C000000E112020A0FF80808080008080800069
:1049D00020203F2120000100000080808080800096
:1049E0000033242424241900008080E0808000000B
:1049F0000000001F20200000808000000080800058
:104A0000001F202020103F208080800000808080B8
:104A100000010E3008060100808000800080808048
:104A20000F300C030C300F0000808000808080006D
:104A30000020312E0E312000808080000080808098
:104A400080818E7018060100008080808080800048
:104A50000021302C2221300000000000807C020266
:104A600000000000003F404000000000FF00000088
:104A700000000000FF0000000002027C8000000037
:104A80000040403F00000000008040408000008067
:104A90000000000000010100000000000000000014
:104AA000002F000000000700070000147F147F148F
:104AB00000242A7F2A120023130864620036495515
:104AC000225000000007000000001C2241000000EE
:104AD00041221C000014083E08140008083E080883
:104AE000000000A0600000080808080800006060DE
:104AF0000000002010080402003E5149453E00001D
:104B0000427F4000004261514946002141454B31FE
:104B1000001814127F10002745454539003C4A49CA
:104B2000493000017109050300364949493600063C
:104B30004949291E000036360000000056360000A4
:104B4000000814224100001414141414000041221F
:104B50001408000201510906003E4955592E007CF7
:104B60001211127C007F49494936003E41414122E1
:104B7000007F4141221C007F49494941007F0909CA
:104B80000901003E4149497A007F0808087F00007A
:104B9000417F4100002040413F01007F0814224135
:104BA000007F40404040007F020C027F007F0408ED
:104BB000107F003E4141413E007F09090906003E49
:104BC0004151215E007F0919294600464949493172
:104BD0000001017F0101003F4040403F001F204095
:104BE000201F003F4038403F006314081463000753
:104BF0000870080700615149454300007F414100AA
:104C0000000204081020000041417F00000402015E
:104C10000204004040404040000001020400002027
:104C200054545478007F4844443800384444442065
:104C300000384444487F00385454541800087E0912
:104C400001020018A4A4A47C007F080404780000DA
:104C5000447D4000004080847D00007F1028440097
:104C60000000417F4000007C04180478007C0804A8
:104C7000047800384444443800FC242424180018E4
:104C8000242418FC007C08040408004854545420D0
:104C900000043F444020003C4040207C001C204059
:104CA000201C003C4030403C004428102844001C9C
:104CB000A0A0A07C004464544C440000087F410044
:104CC0000000007F00000000417F08000008040889
:104CD0001008EFBC8C000000000000000000000085
:104CE0000000000000000000583800000000000034
:104CF000000000000000E3808200000000000000CF
:104D0000000000000000000000000000182424182B
:104D100000000000000000000000E4BDA0000080D2
:104D200060F8074020180F08C8080828180001007C
:104D300000FF00100C0340807F0001061800E5A56D
:104D4000BD001010F01F10F000808282E2928A866F
:104D50008000402215081661000040807F0000009E
:104D60000000E4B89600202020FE2020FF20202014
:104D7000FF20202020000000007F404047444444A2
:104D8000474040400000E7958C00000000FE9292F2
:104D900092FE929292FE0000000008080484621EB7
:104DA000010001FE02040408080000000000FF01E9
:104DB00001013109090909897101010101FFFF8020
:104DC00080808080809681808080808080FFFF014D
:104DD000818181FD8991A1C1FD81818101FFFF80D8
:104DE0008080809F888482819F80808080FF0000F7
:104DF0004FBB610567ACDD3F182D4454FB21E93FF3
:104E00009BF681D20B73EF3F182D4454FB21F93FE1
:104E1000E2652F227F2B7A3C075C143326A6813C67
:104E2000BDCBF07A8807703C075C143326A6913C12
:104E3000C4EB98999999C9BF711623FEC671BCBF7E
:104E40006D9A74AFF2B0B3BF9AFDDE522DDEADBFE6
:104E50002F6C6A2C44B4A2BF0D5555555555D53FFE
:104E6000FF8300922449C23F6E204CC5CD45B73F19
:104E7000513DD0A0660DB13FEB0D76244B7BA93F91
:104E800011DA22E33AAD903F00000000000000007C
:104E9000B04E000800000020B0000000F42F000811
:104EA000604F0008B0000020000A00000430000835
:104EB00000300140000002402000000000000240DD
:104EC00080000000000402400100000000000240D9
:104ED000400000000004024010000000020000003A
:104EE00000000000000000000000000000000000C2
:104EF00000000000000000000000000000000000B2
:104F000000000000000000000000000000000000A1
:104F10000000000000000000000000000000000091
:104F20000000000000000000000000000000000081
:104F30000000000000000000000000000000000071
:104F40000000000000000000000000000000000061
:104F50000000000000000000000000000000000051
:040000050800018965
:00000001FF
