:020000040800F2
:100000002030002005010008E90A0008E10A000884
:10001000E50A0008010800082D1200080000000091
:10002000000000000000000000000000A90C000813
:10003000AD09000800000000710B0008950D0008D4
:100040001F0100081F0100081F0100081F01000810
:100050001F0100081F0100081F0100081F01000800
:100060001F0100081F0100081F0100081F010008F0
:100070001F0100081F0100081F0100081F010008E0
:100080001F0100081F0100081F0100081F010008D0
:100090001F0100081F0100081F0100081F010008C0
:1000A0001F0100081F0100081F0100081F010008B0
:1000B0001F0100081F0100081F0100081F010008A0
:1000C0001F0100081F0100081F0100081F01000890
:1000D0001F010008F90D0008C90E0008990F00085B
:1000E0001F0100081F0100081F010008DFF810D0E1
:1000F00000F0E6FA00480047D1270008AFF300807F
:10010000203000200648804706480047FEE7FEE70B
:10011000FEE7FEE7FEE7FEE7FEE7FEE7FEE7FEE7B7
:10012000990D0008ED000008421C10F8011B002981
:10013000FBD1801A704780EA010210B502F000433B
:10014000400022D04A001FD0010E01EB1261C0F323
:100150005600C2F3560240F4000042F40002A0FB35
:10016000022000047F39140400D0401C50EA1240E1
:1001700001D44000491EC2B20C0604EBD010401C52
:100180004008802A02D003E0002010BD20F00100CA
:10019000002900DA0020184310BD30B480EA0102C3
:1001A00002F0004530F0004221F0004013D090B141
:1001B000C30DD40DC2F31601C0F31600E41A41F4C6
:1001C000000140F400027D34914201D3641C00E040
:1001D0004900002C02DA30BC002070474FF40000C8
:1001E0000023914201D3891A034340084FEA410199
:1001F000F7D151B1914202D14FF0004105E002D256
:100200004FF0010101E06FF0010103EBC4502844FD
:1002100030BC00F065B896230022114600F069B8A2
:1002200000F0004220F00040C10DC0F3160040F481
:1002300000007F2901DA00207047962903DCC1F114
:100240009601C84001E096398840002AF4D0404227
:10025000704730B50B46014600202022012409E0FA
:1002600021FA02F59D4205D303FA02F5491B04FA6F
:1002700002F52844151EA2F10102F1DC30BD2DE982
:10028000F05F0546002092469B468846064681461A
:1002900040241BE0284641464746224600F031FAFA
:1002A00053465A46C01A914110D311461846224669
:1002B00000F018FA2D1A67EB01084F46224601207C
:1002C000002100F00FFA17EB00094E41201EA4F1A7
:1002D0000104DFDC484631462A464346BDE8F09F2C
:1002E0000029A8BF7047401C490008BF20F001004A
:1002F000704710B4B0FA80FC00FA0CF050EA010428
:1003000004BF10BC704749B1CCF1200421FA04F4B9
:1003100011FA0CF118BF012121430843A3EB0C0192
:10032000CB1D4FEA00614FEA102042BF002010BCF5
:10033000704700EBC35010440029A4BF10BC7047A5
:10034000401C490008BF20F0010010BC70472DE997
:10035000FE4F804681EA0300C00F0C46009021F05A
:10036000004123F00045B8EB0200A94105D2404608
:10037000214690461C460B46024623F0004010439F
:1003800047D0270DC7F30A00C3F30A510290401A61
:10039000019040286BDAC3F3130040F4801B0098EF
:1003A000924620B10023D2EB030A63EB0B0B0198BA
:1003B0005946C0F14002504600F094F906460D46F9
:1003C00050465946019A00F0ACF910EB0800614123
:1003D000002487EA115284EAE7731A4340D0009A56
:1003E00062B3019A012A4FEA075215DC001B61EB48
:1003F00002014FF0004202EA0752CDE90042001C20
:1004000041F5801132462B4600F0ACF903B0BDE84F
:10041000F08F40462146F9E7001B61EB0201001C0A
:1004200041F5801300185B412018A2F5001747EB37
:10043000030140EAD570B6196D4111E06D084FEA2D
:10044000360645EAC0754FEA0752001B61EB020110
:10045000001C41F5801149084FEA30000019514154
:1004600032462B4603B0BDE8F04F00F06CB900985F
:10047000012240000023D0EB020263EBE0730098FE
:1004800021464FEAE074B8EB000061EB0401E9E7B4
:1004900083F000435BE781F0004158E72DE9FE4F10
:1004A00081EA030404F0004421F0004100944FF07D
:1004B000000B23F0004350EA01045ED052EA03042B
:1004C0005BD0C3F30A54C1F30A552C44A4F2F334AD
:1004D0000194A0FB0254C1F3130141F48011C3F352
:1004E000130343F4801301FB024400FB034E840A10
:1004F000970A44EA815447EA8357A4FB07680295A8
:100500008D0A05FB07854FEA932C04FB0C54270545
:10051000029D4FEA065847EA1637B5EB08056EEB21
:10052000070C870E920E47EA811742EA8312A7FB57
:100530000201B6EB0B0164EB00042B0D43EA0C3314
:100540005E1844EB1C50DA465146E7FB0201C5F346
:1005500013044FEA0B3343EA14534FEA0432019C6D
:1005600043EA0603A4F10C040294009CCDE900B414
:1005700000F0F8F803B0BDE8F08F00200146F9E77D
:100580002DE9F04D81EA030404F0004B21F0004511
:1005900014464FF0000A23F0004150EA050220D033
:1005A00054EA01021DD0C5F30A570246C5F31303EE
:1005B000C1F31300C1F30A5640F4801543F48013CD
:1005C000A7EB0608101BD64608F2FD3873EB0500B2
:1005D00002D308F1010801E092185B41B8F1000F65
:1005E00003DA00200146BDE8F08D00204FF48011B1
:1005F000064684460EE0171B73EB050705D3121B56
:1006000063EB050306434CEA010C49084FEA30004E
:1006100092185B4150EA0107EDD152EA030012D073
:1006200082EA040083EA0501084305D0101BAB41B0
:1006300006D20122002306E000224FF0004302E030
:100640006FF0010253101AEB06004CEB085110EB4F
:100650000A0041EB0B01BDE8F04D00F074B8C1F3A6
:100660000A52C1F3130140F2FF3341F480119A4260
:1006700002DA00200146704740F233439A42A2F268
:10068000334202DC524200F03CB800F02BB80000CC
:1006900030B5041E71F1000404DB4FF00044404209
:1006A00064EB0101141E73F1000405DB1C464FF0DE
:1006B0000043524263EB0403994208BF904230BDAD
:1006C000064C074D06E0E06840F0010394E807009F
:1006D00098471034AC42F6D3FFF70CFDD434000831
:1006E000F4340008202A04DB203A00FA02F100204A
:1006F00070479140C2F1200320FA03F31943904060
:100700007047202A04DB203A21FA02F000217047CA
:1007100021FA02F3D040C2F1200291400843194669
:100720007047202A06DBCB17203A41FA02F043EA51
:10073000E07306E041FA02F3D040C2F1200291409A
:1007400008431946704710B5141E73F1000408DA07
:10075000401C41F1000192185B411A4301D120F085
:10076000010010BD2DE9F04D92469B4611B1B1FA42
:1007700081F202E0B0FA80F220329046FFF7B2FF39
:1007800004460F4640EA0A0041EA0B0153465A4626
:10079000084313D0114653EA010019D0C8F14002B2
:1007A0005046FFF7AEFF05460E46504659464246B4
:1007B000FFF798FF084305D0012004E020463946A2
:1007C000BDE8F08D0020054346EAE0762C43374330
:1007D0000A986305E40AA0EB08000022FD0A44EA37
:1007E00047540A3002D500200146E9E701051019F7
:1007F0006941DDE9084500196941BDE8F04DA2E70E
:1008000000BFFEE721B1026842F00102026004E08D
:1008100002684FF6FE731A400260704701684FF697
:10082000FE72114001600021016041608160C16081
:100830004B49884208D14A490839496841F00F01BB
:10084000474A083A51608AE045491431884208D144
:1008500043490839496841F0F001414A083A51607A
:100860007DE03F492831884208D13D49083949682F
:1008700041F470613A4A083A516070E038493C31BD
:10088000884208D136490839496841F47041344AF0
:10089000083A516063E032495031884208D130490A
:1008A0000839496841F470212D4A083A516056E0F0
:1008B0002B496431884208D129490839496841F4F3
:1008C0007001274A083A516049E025497831884249
:1008D00008D123490839496841F07061204A083A33
:1008E00051603CE01F49884206D1011F096841F070
:1008F0000F01021F116032E01A491431884208D1F9
:100900001849091F096841F0F001164A121F1160C9
:1009100025E014492831884208D11249091F096885
:1009200041F470610F4A121F116018E00D493C310B
:10093000884208D10B49091F096841F47041094AEE
:10094000121F11600BE007495031884207D1054959
:10095000091F096841F47021024A121F1160704793
:1009600008000240080402400146486880B270470F
:1009700010B50022026847F6F0739A430C6A8B6840
:1009800023430C6923434C6923438C692343CC697B
:1009900023434C6A23438C6A23431A430260CB6887
:1009A00043600B6883604B68C36010BD70472DE9DE
:1009B000F0410246002500260020002300240027E5
:1009C00091F803C00CF00F0591F803C00CF0100C67
:1009D000BCF1000F03D091F802C04CEA050591F874
:1009E00000C0BCF1000F31D0146800202BE04FF0A4
:1009F000010C0CFA00F3B1F800C00CEA03069E42A9
:100A000020D183004FF00F0C0CFA03F7BC4305FA1A
:100A100003FC4CEA040491F803C0BCF1280F06D192
:100A20004FF0010C0CFA00FCC2F814C00AE091F877
:100A300003C0BCF1480F05D14FF0010C0CFA00FCCB
:100A4000C2F810C0401C0828D1D31460B1F800C00F
:100A5000BCF1FF0F34DD546800202EE000F1080CDB
:100A60004FF0010808FA0CF3B1F800C00CEA0306D5
:100A70009E4221D183004FF00F0C0CFA03F7BC43C8
:100A800005FA03FC4CEA040491F803C0BCF1280FFA
:100A900005D100F1080C08FA0CF8C2F8148091F89E
:100AA00003C0BCF1480F07D100F1080C4FF001085A
:100AB00008FA0CF8C2F81080401C0828CED3546005
:100AC000BDE8F0810246002093680B400BB1012085
:100AD00000E0002070470AB1016100E04161704709
:100AE00000BFFEE700BFFEE77047000070B50021C1
:100AF00000230F22C47804B3154C246804F4E06486
:100B0000C4F5E064210AC1F10403CA40447804FA40
:100B100003F184781440214309010E4C0678A15555
:100B2000047804F01F050124AC4005786D11AD0078
:100B300005F1E025C5F8004109E0047804F01F053F
:100B40000124AC40044D0678761145F8264070BD6E
:100B50000CED00E000E400E080E100E00249014328
:100B6000024A1160704700000000FA050CED00E039
:100B70007047000029B1064A52690243044B5A618A
:100B800004E0034A52698243014B5A6170470000F6
:100B90000010024029B1064AD2690243044BDA61CF
:100BA00004E0034AD2698243014BDA6170470000D6
:100BB0000010024029B1064A92690243044B9A612F
:100BC00004E0034A92698243014B9A617047000036
:100BD0000010024030B500210022002400232D4DDA
:100BE0006D6805F00C0121B1042905D0082923D135
:100BF00005E0294D056022E0274D05601FE0254DE9
:100C00006D6805F47012234D6D6805F4803402257B
:100C100005EB92421CB9214D554305600BE01D4D7B
:100C20006D6805F400351DB11C4D5543056002E0AB
:100C3000194D5543056002E0174D056000BF00BF28
:100C4000144D6D6805F0F0010909154D6B5C0568E0
:100C5000DD4045600F4D6D6805F4E061090A104DF7
:100C60006B5C4568DD4085600A4D6D6805F4605138
:100C7000C90A0B4D6B5C4568DD40C560054D6D686C
:100C800005F44041890B074D6B5CC568B5FBF3F576
:100C9000056130BD0010024000127A0000093D00DD
:100CA000EC000020FC000020704710B500F002F8B6
:100CB00010BD00000CB50020019000903348006882
:100CC00040F480303149086000BF3048006800F4CB
:100CD000003000900198401C0190009818B90198CC
:100CE000B0F5A06FF1D12948006800F4003010B1D0
:100CF0000120009001E0002000900098012843D1DD
:100D00002348006840F01000214908600846006848
:100D100020F0030008600846006840F00200086008
:100D20001A484068194948600846406848600846C3
:100D3000406840F4806048600846406820F47C10B9
:100D400048600846406840F4E8104860084600687B
:100D500040F08070086000BF0C48006800F0007030
:100D60000028F9D00948406820F00300074948608E
:100D70000846406840F00200486000BF03484068F1
:100D800000F00C000828F9D10CBD00000010024052
:100D9000002002407047000010B51348006840F082
:100DA00001001149086008464068104908400E4992
:100DB0004860084600680E4908400B49086008462C
:100DC000006820F4802008600846406820F4FE0097
:100DD00048604FF41F008860FFF767FF4FF0006026
:100DE0000449086010BD0000001002400000FFF838
:100DF000FFFFF6FE08ED00E038B53048046804B99E
:100E000038BD40F224412E4800F050F9002853D05C
:100E10002B480088C0B200902948001D0088C0B24D
:100E200000902848FFF7A0FDA18C491C081AA18D4D
:100E30000844A085A08D401EE1690144802000592E
:100E400041608020005908308021085180200159DC
:100E500088200059814203D104F1300080210851DB
:100E6000608CA18D401AA18C884206DBA18DE069BF
:100E7000014480200059016005E080200059E169AB
:100E800001600020A08500210E48FFF7BBFC00BFD9
:100E90000C485838806D00F001000028F8D1A08C73
:100EA000401C08495839C8658020005900684866C8
:100EB00001210448FFF7A6FC00BFA1E708030020BA
:100EC000003801405800024038B53048446804B941
:100ED00038BD40F224412E4800F0E8F8002853D0F5
:100EE0002B480088C0B200902948001D0088C0B27D
:100EF00000902848FFF738FDA18C491C081AA18DE5
:100F00000844A085A08D401EE1690144802000595D
:100F1000416080200059083080210851802001590B
:100F200088200059814203D104F13000802108510A
:100F3000608CA18D401AA18C884206DBA18DE069EE
:100F4000014480200059016005E080200059E169DA
:100F500001600020A08500210E48FFF753FC00BF70
:100F60000C486C38C06E00F001000028F8D1A08C4D
:100F7000401C08496C390867802000590068886760
:100F800001210448FFF73EFC00BFA1E70803002051
:100F9000004400406C00024038B53048846804B911
:100FA00038BD40F224412E4800F080F8002853D08C
:100FB0002B480088C0B200902948001D0088C0B2AC
:100FC00000902848FFF7D0FCA18C491C081AA18D7D
:100FD0000844A085A08D401EE1690144802000598D
:100FE000416080200059083080210851802001593B
:100FF00088200059814203D104F13000802108513A
:10100000608CA18D401AA18C884206DBA18DE0691D
:10101000014480200059016005E080200059E16909
:1010200001600020A08500210E48FFF7EBFB00BF08
:101030000C483038006B00F001000028F8D1A08C7B
:10104000401C084930394863802000590068C86353
:1010500001210448FFF7D6FB00BFA1E708030020E9
:10106000004800403000024021B1828942F4005221
:10107000828104E082894DF6FF731A4082817047B5
:101080001AB1838A0B43838202E0838A8B43838273
:10109000704702460020B1F5007F00D100BF1388E1
:1010A0000B400BB1012000E00020704770B50246F4
:1010B000002400230025002040F66A16B14200D12A
:1010C00000BFC1F3421501F01F03012606FA03F326
:1010D000012D02D19689334006E0022D02D1168AF5
:1010E000334001E0968A33400C12012606FA04F4DC
:1010F0001688344013B10CB1012000E0002070BD0F
:10110000F0B50346002400260025002040F66A17AB
:10111000B94200D100BF1846C1F3421401F01F06C6
:10112000012707FA06F5012C01D10C3004E0022C4E
:1011300001D1103000E014301AB107682F43076066
:1011400002E00768AF430760F0BD00002DE9F047FB
:1011500086B005460E460024A24600BFA1460027E1
:10116000B08900B100BF2F462C8A4CF6FF700440B6
:10117000F08804432C82AC894EF6F3100440B0880A
:1011800031890843718908430443AC81AC8A4FF626
:10119000FF400440B0890443AC8201A8FFF71AFD68
:1011A0001F48874202D1DDF810A001E0DDF80CA055
:1011B000A88900F4004040B10AEBCA0000EB0A1015
:1011C00031684900B0FBF1F807E00AEBCA0000EB18
:1011D0000A1031688900B0FBF1F86420B8FBF0F028
:1011E00004012009642101FB1089A88900F4004052
:1011F00040B1322000EBC900B0FBF1F000F0070075
:10120000044308E0322000EB09106421B0FBF1F048
:1012100000F00F0004432C8106B0BDE8F087000009
:1012200000380140C1F308028280704700BFFEE72A
:101230007CB50C001D461646014601D0601E00E03C
:101240000020CDE90010064B6A462946304600F0E2
:10125000E7FD002C02D0009A002111707CBD000037
:1012600027250008014609B1087C10B94FF0FF306E
:1012700070470020087400BFFAE72DE9F0410446EA
:101280000D4616461F460CB1207C18B94FF0FF30B2
:10129000BDE8F081204600F00EF96806010E2046F8
:1012A00000F0E9F8204600F069F83146204600F0E9
:1012B000E2F8204600F062F8204600F0FCF8012039
:1012C00000EB4500C1B2204600F0D5F8204600F002
:1012D00055F8204600F066F838700121204600F0ED
:1012E000B3F8204600F001F90020D1E72DE9F047DE
:1012F00005460E4690461F46DDF820900DB1287C2D
:1013000018B94FF0FF30BDE8F087284600F0D3F859
:101310007006010E284600F0AEF8284600F02EF8C0
:101320004146284600F0A7F8284600F027F828464E
:1013300000F0C1F8012000EB4600C1B2284600F0E1
:101340009AF8284600F01AF8002410E0284600F029
:1013500029F809F80400781EA04201D1012000E01C
:1013600000200146284600F06FF8601C84B2BC42A1
:10137000ECDB284600F0B9F80020C4E770B504465D
:101380000121204600F04CF80121204600F027F80A
:10139000204600F038F805460021204600F01FF8EE
:1013A000284670BD70B5064600250121304600F084
:1013B00037F807240FE00121304600F010F83046DE
:1013C00000F021F8A0402843C5B20021304600F0CB
:1013D00006F8601E44B2002CEDDA284670BD70B5E8
:1013E00004460D460CB1207C10B94FF0FF3070BDA3
:1013F000A28891B22A462068FFF76DFB012001F018
:10140000A7F80020F3E770B50446A28991B2A0685E
:10141000FFF758FB0546012001F09AF8284670BDF9
:1014200070B504460D460CB1207C10B94FF0FF306A
:1014300070BDA28991B22A46A068FFF74CFB01203B
:1014400001F086F80020F3E770B504460D460CB1B4
:10145000207C10B94FF0FF3070BD29462046FFF7C1
:10146000DFFF01212046FFF7BAFF00212046FFF7EA
:10147000B6FF0020F0E770B504460E460CB1207CA4
:1014800010B94FF0FF3070BD002510E080202841DA
:1014900000EA06012046FFF7C3FF01212046FFF7BF
:1014A0009EFF00212046FFF79AFF681CC5B2082D59
:1014B000ECDB0020E7E710B504460CB1207C10B946
:1014C0004FF0FF3010BD01212046FFF7A9FF012199
:1014D0002046FFF784FF00212046FFF7A1FF0021EF
:1014E0002046FFF77CFF0020ECE710B504460CB166
:1014F000207C10B94FF0FF3010BD00212046FFF7CF
:101500006EFF00212046FFF78BFF01212046FFF7E9
:1015100066FF01212046FFF783FF0020ECE72DE95D
:10152000F04104460D4616461F460CB1207C18B902
:101530004FF0FF30BDE8F0812046FFF7BCFF6806A2
:10154000010E2046FFF797FF2046FFF717FF3146B1
:101550002046FFF790FF2046FFF710FF3946204650
:10156000FFF789FF2046FFF709FF2046FFF7BDFF81
:101570000020DFE72DE9F04705460E46174698465E
:10158000DDF820900DB1287C18B94FF0FF30BDE890
:10159000F0872846FFF78FFF7006010E2846FFF7F9
:1015A0006AFF2846FFF7EAFE39462846FFF763FF41
:1015B0002846FFF7E3FE002409E019F80410284646
:1015C000FFF759FF2846FFF7D9FE601C84B2444557
:1015D000F3DB2846FFF789FF0020D8E770B5044603
:1015E00014B194F8200010B94FF0FF3070BD656A57
:1015F0002846E96B8847606A00F0DEFF00206062E1
:1016000084F8200000BFF1E72DE9FE4F054615B133
:1016100095F8200018B94FF0FF30BDE8FE8F002686
:10162000B046642429E0624850F82410A4F1640014
:101630005F4A42F820105F4850F82410A4F164007B
:101640005C4A42F820105A4850F824005A49096868
:10165000884204D2564850F824005749086054483C
:1016600050F8240055490968884204D9504850F878
:10167000240052490860601C84B2B4F5FA7FD2DBC2
:101680004FF4C87474E0601E494951F820004C4979
:10169000086000BFAA8A91B22869FFF713FA0128EF
:1016A000F8D0444800EB8402414800EB840128460E
:1016B00000F092F83E4850F82400414909688842F9
:1016C00022D93B4951F824103D4A1268881AFEF786
:1016D000A2FD814639490968374A1268881AFEF71F
:1016E0009AFD824651464846FEF757FD81463549E8
:1016F0004846FEF720FD81464846FEF791FD3F1A19
:10170000002F23DA002721E0294951F824102C4A20
:101710001268501AFEF77FFD814628490968264A5B
:101720001268881AFEF777FD824651464846FEF752
:1017300034FD814623494846FEF7FDFC8146484674
:10174000FEF76EFD0744FF2F00DDFF271E480078DF
:10175000012809D11D4800688C2805DA1B48067845
:101760001B4890F8008001E00026B046601C84B25F
:10177000B4F5FA7F87DB14481449164A144BCDE9B7
:10178000002102900A4A4FF4FA710A4801F07CF9EC
:10179000002E04DD8C2E02DAA6F11400A861B8F147
:1017A000000F03DD642E01DAC5F81C80002034E749
:1017B000F00A002020030020E0000020E4000020C8
:1017C000E800002000007F43DD000020D80000205A
:1017D000D4000020DC0000202DE9F04186B007464F
:1017E0000D46164617B197F8200020B94FF0FF308C
:1017F00006B0BDE8F0817C6A05AB00225721204687
:10180000D4F82CC0E04705AB012257212046D4F87C
:101810002CC0E04703A8009006230722572120464A
:10182000D4F830C0E0478046B8F1000F02D04FFA3C
:1018300088F0DDE700203060286002AB09225721E4
:101840002046D4F82CC0E0479DF80800032816D1A4
:101850009DF80C0000049DF80D1040EA01209DF851
:101860000E10084328609DF80F0000049DF810102A
:1018700040EA01209DF811100843306002E06FF04B
:101880000100B5E72868C0F3110028603068C0F394
:10189000110030600020ABE73EB5054615B195F864
:1018A000200010B94FF0FF303EBD254825490860A3
:1018B00000202549086000242AE000BFAA8A91B2CE
:1018C0002869FFF7FFF80128F8D0204800EB8402D0
:1018D0001F4800EB84012846FFF77EFF1C4850F8A4
:1018E000240018490968884204D2194850F8240095
:1018F00014490860164850F82400134909688842C2
:1019000004D9134850F824000F490860601C84B2C1
:10191000B4F5FA7FD1DB0E4850F824000D49086079
:101920000D480E490E4A0F4BCDE900210290084A9E
:101930004FF4FA71054801F0A7F80020B4E7000061
:10194000FFFF0300E0000020E4000020200300204F
:10195000F00A0020E8000020DD000020D800002070
:10196000DC000020D400002002E008C8121F08C1DB
:10197000002AFAD170477047002001E001C1121F10
:10198000002AFBD1704700000FB438B5084804683E
:1019900014B938BC5DF814FB05A800902046009AE5
:1019A000049900F01BF90020009000BFF1E700004F
:1019B0000803002010B503480468204600F034F9FD
:1019C00010BD00000803002070B504460D46054810
:1019D000066806B970BD2A462146304600F046F931
:1019E00000BFF7E7080300200FB438B50848446883
:1019F00014B938BC5DF814FB05A800902046009A85
:101A0000049900F0EBF80020009000BFF1E700001F
:101A10000803002010B503484468204600F004F98C
:101A200010BD00000803002070B504460D460548AF
:101A3000466806B970BD2A462146304600F016F9C0
:101A400000BFF7E7080300200FB438B508488468E2
:101A500014B938BC5DF814FB05A800902046009A24
:101A6000049900F0BBF80020009000BFF1E70000EF
:101A70000803002010B503488468204600F0D4F81D
:101A800010BD00000803002070B504460D4605484F
:101A9000866806B970BD2A462146304600F0E6F851
:101AA00000BFF7E708030020014611B191F82800B4
:101AB00010B94FF0FF307047002081F8280000BFB8
:101AC000F9E7000010B58CB0044640492068884210
:101AD00004D101210846FFF74DF810E03C49206889
:101AE000884204D101210846FFF744F807E039494C
:101AF0002068884203D101210846FFF73BF8334AAA
:101B00002168914201D134490EE0314A2168914265
:101B100002D13149143107E02E4A2168914202D1A5
:101B20002D49283900E000210846FEF777FE20689D
:101B3000001D0190002007900590E06902900020B0
:101B4000089080200690A08C401C049000200390F8
:101B500009900B904FF400500A901C4A2168914262
:101B600001D11D490EE01A4A2168914202D11A4959
:101B7000143107E0174A2168914202D116492839E9
:101B800000E00021084601A9FEF7F2FE0F4A216895
:101B9000914201D110490EE00D4A2168914202D1D3
:101BA0000D49143107E00B4A2168914202D10A49DC
:101BB000283900E0002108460121FEF723FE01221A
:101BC00040212068FFF75CFA0CB010BD00380140DE
:101BD000004400400048004058000240F7B5044669
:101BE0000E46218CA0693246029BFFF721FB00259F
:101BF0000DE000BF80212068FFF74BFA0128F9D1E2
:101C0000A269515D2068FFF70DFB681C85B2A069D1
:101C1000FEF78AFAA842ECD800BF40212068FFF7FF
:101C200038FA0128F9D1FEBD0146802043588420AE
:101C30004058834218D000238420405840684370A5
:101C4000842040580268842040580830842358502B
:101C50008420435888204058834203D101F130004A
:101C600084235850104670470020FCE72DE9F041CE
:101C700004460E46174600250BE0715D2068FFF70D
:101C8000D1FA00BF80212068FFF703FA0028F9D0BD
:101C90006D1CBD42F1D3BDE8F08100002DE9FF5F6E
:101CA00082B00021DDE90430020DDDF840B00343CD
:101CB00018D044F61050A2F2FF3242431514119886
:101CC00001281FD0A5EB0B00401C5FEA000A4FF073
:101CD00000064E4FDFF83891B046504615D5CAF190
:101CE000000413E0119801244AA3012801D16FEAEE
:101CF0000B010298119AC0E90031C0E9024206B016
:101D0000BDE8F09FCBF10000DFE704460021404A28
:101D1000491842EB0450CDE9001012E0E00707D06B
:101D200032463B4640464946FEF7B8FB8046894668
:101D300032463B4610461946FEF7B0FB06460F46B4
:101D40006410002CEAD1DDE90401DDE90023BAF1D9
:101D5000000F06DAFEF7A2FB42464B46FEF79EFB5B
:101D600005E0FEF70DFC42464B46FEF709FC044633
:101D70000E460022284BFEF78BFC03D84FF0FF30B5
:101D8000014607E00022254B20463146FEF7DFFAE8
:101D9000FEF765FC102409E0002C0ADB0A22002370
:101DA000FEF76DFA039B30321A55641E50EA0102A9
:101DB000F2D1641C039AC4F111031444119A012A4C
:101DC00003D0012208430DD10AE0084304D00020CB
:101DD0004FF0110B119072E7A3EB0B056D1E0DE098
:101DE0005B4504DD4FF0000205F1010504E003DA74
:101DF0004FF00002A5F10105002AECD002981199DC
:101E0000C0E90231C0E9004579E700000000144054
:101E10000000F03F300000000000F0430000E03F11
:101E20002DE9FF4F95B09A46884606460025EEE11B
:101E3000252877D100242746F94A0121039400E0A0
:101E4000044316F8013F203B01FA03F01042F7D19A
:101E500030782A2811D06FF02F033078A0F13002AB
:101E6000092A16D8039A44F0020402EB820203EB1B
:101E700042021044761C0390EFE758F8042B0392BB
:101E8000002A03DA504244F40054039044F0020460
:101E9000761C30782E2816D116F8010F44F0040471
:101EA0002A280DD06FF02F023078A0F13003092BD3
:101EB00009D807EB870302EB4303C718761CF3E747
:101EC00058F8047B761C30786C280FD006DC4C2840
:101ED00017D068280DD06A2814D104E0742810D0D7
:101EE0007A280FD10DE044F400140AE044F4801481
:101EF00001E044F440147278824202D104F5801467
:101F0000761C761C307866280BD013DC582877D0E6
:101F100009DC002875D04528F6D04628F4D047289B
:101F20001AD193E118E0632835D0642879D0652868
:101F300012D18BE1702873D008DC6728F1D06928B2
:101F40006FD06E280DD06F2806D1ACE073282CD04E
:101F5000752874D0782853D05246179990476D1C35
:101F600054E1C4F30250022809D003280DD0D8F858
:101F7000001004280DD00D6008F1040846E1D8F8DF
:101F80000010EA17C1E90052F6E7D8F800100D80FA
:101F9000F2E70D70F0E718F8041B8DF80010002030
:101FA0008DF80100EB46012003E058F804BB4FF028
:101FB000FF3061074FF0000102D40DE009F101018B
:101FC0008946B9420FDA8145F8DB1BF80910002970
:101FD000F4D108E009F1010189468142FADB1BF8DE
:101FE00009100029F6D103985346A0EB09072146B2
:101FF0003846179A00F080FA284400EB090507E0FC
:1020000044E008E10DE01BF8010B52461799904798
:10201000B9F10109F7D2534621463846179AF2E042
:1020200039E00A21C4F302524FF0000B0091022A5A
:1020300006D058F8040BC117032A09D00AE023E0A0
:1020400008F1070020F00702F2E80201904605E0DF
:1020500000B2C117042A01D140B2C117002906DA23
:102060000A460021404261EB02012D2202E02205D6
:1020700004D52B228DF80420012203E0E20701D0D1
:102080002022F7E7914657E00A2100E010214FF0A7
:10209000000B00910BE010214FF0000B44F0040402
:1020A0000827009103E008204FF0000B0090C4F3D4
:1020B0000252022A05D058F8040B0021032A08D046
:1020C00008E008F1070020F00702F2E8020190465C
:1020D00003E080B2042A00D1C0B24FF00009220709
:1020E0002AD53278702A07D0DDF800C08CF0100CA9
:1020F0005CEA0B0C05D00EE040228DF80420012292
:1021000008E050EA010306D030238DF804308DF842
:10211000052002229146009B83F0080353EA0B033B
:102120000AD150EA010201D1620705D530228DF8AB
:1021300004204FF001097F1E3278582A04D039A2BA
:102140000C920CAA02920BE03BA2F9E75B46009AC4
:10215000FEF795F80C9B9B5C029A521E029213703C
:1021600050EA0102F2D1029804A9081A00F1200BEA
:10217000600702D524F4803400E001275F4502DDCA
:10218000A7EB0B0000E0002000EB0B010090039890
:102190004944401A0390E00306D453462146179A57
:1021A000039800F0A9F90544002706E001A852466B
:1021B000C05D179990476D1C7F1C4F45F6DBE0030F
:1021C0000CD553462146179A039800F095F905441B
:1021D00004E030205246179990476D1C0099481E24
:1021E00000900029F5DC08E0029802995246007838
:1021F000491C0291179990476D1CBBF10001ABF18E
:10220000010BF1DC5BE100F065F90544761C3078E8
:1022100000287FF40DAE19B02846BDE8F08F00000D
:1022200009280100303132333435363738396162AC
:102230006364656600000000303132333435363770
:10224000383941424344454600000000600700D44D
:10225000062708F1070020F00700F0E80223804677
:1022600003F0004C5FEA0C0001D097A009E02005C4
:1022700001D596A005E0E00701D095A001E0AFF2FE
:102280004C001390307823F0004365280CD006DC16
:10229000452809D046281DD047287FD13BE0662835
:1022A00018D067287AD136E00021112F01DB1120E8
:1022B00000E0781CCDE9000104A90CA8FFF7EEFCB2
:1022C000DDE90D010C9A4FF0000B07F101091092A6
:1022D00000914EE04FF000400097CDE9011004A9B5
:1022E0000CA8FFF7DBFCDDE90D020C9B0F994FF00A
:1022F000000B91461093009211B9791C00EB010973
:10230000B7EB090003D4C0F1FF3B07F10109A9EBCA
:102310000700019042E0012F00DA01270021112F70
:1023200001DD112000E03846CDE9000104A90CA828
:10233000FFF7B4FCDDE90D010C9A00914FF0000BA2
:10234000B946109221070FD4009A4A4503DA914604
:1023500001E0A9F10109B9F1010F05DD109AA9F118
:102360000101515C3029F4D0B84202DA10F1040FB7
:1023700003DA0121CDE9011010E0002803DC8344D9
:10238000A9EB000102E0411C494500DD8946A0EBB4
:102390000B00401C01904FF000400290200705D434
:1023A0000198484502DB4FF0FF30019000208DF886
:1023B0004B0002980DF14B07B0F1004F25D00220E1
:1023C0000C902B200D90029800280CDA40420290CD
:1023D0002D200D9007E00A210298FDF73AFF3031D9
:1023E000029007F8011D0C99481E0C900029F2DCA0
:1023F00002980028EFD1791E0D980870307800F00F
:10240000200040F0450007F8020D11A8C01BC01DB8
:1024100002901398007800B1012000EB09010198A7
:1024200001EBE071029801440398401A401E0390AA
:10243000E00306D453462146179A039800F05CF84F
:1024400005441398007818B15246179990476D1CAF
:10245000E00323D553462146179A039800F04CF821
:1024600005441BE0BBF1000F07DB0098584504DD75
:102470001098179910F80B0001E017993020524678
:10248000904701980BF1010B401E05F101050190E9
:1024900004D12E205246179990476D1CB9F10001C6
:1024A000A9F10109DEDC05E017F8010B5246179986
:1024B00090476D1C0299481E02900029F4DC534697
:1024C0002146179A03989EE62D0000002B0000007D
:1024D000200000002DE9F041044600251E46174665
:1024E000880404D405E039462020B0476D1C641EE2
:1024F000F9D52846BDE8F0812DE9F04104460025D4
:102500001E469046C80301D5302700E020278804E6
:1025100004D505E041463846B0476D1C641EF9D528
:102520002846BDE8F0814A68002A06D00A68531C94
:102530000B6010704868401E486070470249088070
:102540000121024A11707047D2000020D000002003
:102550000146174A127802B970474FF0E02212691B
:1025600042F004024FF0E0231A61124A12884A43F3
:102570005A6100229A611A46126942F001021A61F8
:1025800000BF4FF0E022106900F001021AB100F420
:102590008032002AF5D04FF0E022126922F00102C9
:1025A0004FF0E0231A6100229A6100BFD4E70000D7
:1025B000D0000020D200002010B5002821D0114BFF
:1025C0000022001F196803E0814203D80A464968C7
:1025D0000029F9D152B11368841A9C4204D10068D1
:1025E00018441060104602E0506000E0186039B1F5
:1025F00002680B1A934203D10B681A4402604968BF
:10260000416010BD0001002038B5044614B94FF0F8
:10261000FF3038BD5C492068884204D10121042084
:10262000FEF7C8FA34E059492068884204D10121F4
:102630000820FEF7BFFA2BE055492068884204D1F4
:1026400001211020FEF7B6FA22E0524920688842A4
:1026500004D101212020FEF7ADFA19E04E4920688F
:10266000884204D101214020FEF7A4FA10E04B4932
:102670002068884204D101218020FEF79BFA07E000
:1026800047492068884203D101218015FEF792FA5C
:102690003D49A068884204D101210420FEF78AFA4E
:1026A00034E03A49A068884204D101210820FEF7AD
:1026B00081FA2BE03649A068884204D1012110201C
:1026C000FEF778FA22E03349A068884204D101215C
:1026D0002020FEF76FFA19E02F49A068884204D144
:1026E00001214020FEF766FA10E02C49A0688842DC
:1026F00004D101218020FEF75DFA07E02849A06897
:10270000884203D101218015FEF754FA14208DF878
:10271000030003208DF80200A08880B2ADF800000D
:1027200069462068FEF743F914208DF80300032062
:102730008DF80200A08980B2ADF800006946A0685B
:10274000FEF735F9174860611748A0611748E06146
:1027500017482062174860621748A0621748E06275
:1027600017482063174860631748A0631748E06361
:102770000120207401212046FEF731FE0121204670
:10278000FEF74EFE002044E700080140000C014027
:10279000001001400014014000180140001C0140DD
:1027A00000200140B7140008EB140008771400085B
:1027B000A5130008491400087D1300087B120008C7
:1027C000ED1200081F1500087515000865120008B5
:1027D0004FF44070FEF7C2F94820FFF7AFFE0B48F8
:1027E00000F084FC0A4800F05FF80948816A8847D5
:1027F0000AE00748C16A88470548C26981690348F9
:10280000D0F88C3003A09847F3E7000000000020C8
:102810009C000020486561727420726174653A20E2
:1028200025642C20426C6F6F64206F787967656E29
:102830003A20256425250D0A00000000F0B50B3074
:10284000154D20F007010024144A0FE003688B4265
:102850000BD38B4205D95E1A43184768C3E900675A
:1028600000E04368136002C004E0021D1068002805
:10287000ECD12046002802D1286808B10020F0BD24
:10288000064A07481060074A121A22F00702C0E9F8
:10289000002401202860D7E7040100200001002067
:1028A000242A0020202C0020F8B5044614B94FF04B
:1028B000FF30F8BD4020FFF7C1FF6062606A10B9C9
:1028C0004FF0FF30F5E7656A20682860606868604F
:1028D000A068A860E068E86050492069884204D197
:1028E00001210420FEF766F934E04D492069884251
:1028F00004D101210820FEF75DF92BE04949206948
:10290000884204D101211020FEF754F922E0464903
:102910002069884204D101212020FEF74BF919E0FB
:1029200042492069884204D101214020FEF742F942
:1029300010E03F492069884204D101218020FEF740
:1029400039F907E03B492069884203D1012180150C
:10295000FEF730F948208DF8030003208DF80200BF
:10296000A08A80B2ADF8000069462069FEF71FF822
:102970002846FFF749FE012084F820004023092261
:10298000572128466E6BB047C023022257212846A4
:102990006E6BB04700230322572128466E6BB04769
:1029A00000230422572128466E6BB04700230522DE
:1029B000572128466E6BB047002306225721284630
:1029C0006E6BB0470F230822572128466E6BB04725
:1029D00003230922572128466E6BB04727230A227A
:1029E000572128466E6BB04724230C2257212846D6
:1029F0006E6BB04724230D22572128466E6BB047DB
:102A00007F231022572128466E6BB0470A48A062E8
:102A10000A48E0620A48206300204AE700080140B3
:102A2000000C01400010014000140140001801405A
:102A3000001C0140002001409918000809160008F8
:102A4000DD1500082DE9F84F05460C4616461F46D1
:102A5000DDE90B9ADDF828803B46324621462846C0
:102A6000CDF8008000F090FA4B46324621462846C9
:102A700000F0C7FA2068504501DA206800E05046AF
:102A80002060BDE8F88F00002DE9FF4FC7B08846F1
:102A9000994600204690002406E0479850F82410FC
:102AA000469808444690641C4445F6DB4698B0FBC3
:102AB000F8F04690002408E0479850F82410469813
:102AC000081AFE4941F82400641C4445F4DB002444
:102AD00017E0FA4850F824100246601C52F8200013
:102AE0000144A01C52F820000144E01C52F82000D0
:102AF0000F183846F91707EB9171891042F8241026
:102B0000641CB4F5F87FE4DB00240AE0EB49601CA8
:102B100051F8200051F82410401AE94941F82400E6
:102B2000641CB4F5F77FF1DD00240EE0E44951F8B0
:102B300024200B46611C53F82110501800EBD07173
:102B400049101A4642F82410641CB4F5F77FEDDBF7
:102B500000251BE0002044902C460BE0D84850F89C
:102B60002410601BD74A32F81020449801FB120051
:102B70004490641C681D8442F0DB40F27A41449822
:102B800090FBF1F0CE4941F825006D1CB5F5F47FBE
:102B9000E0DD00204290002410E0C94850F82400F5
:102BA000002803DDC64850F8240003E0C44850F86C
:102BB00024004042429908444290641CB4F5F77FD7
:102BC000EBDD40F2EF11429890FBF1F042900521CD
:102BD0000822429840F2EF13CDE901210090B84A53
:102BE00041A913A8FFF72EFF002012904198022858
:102BF00021DB01240BE013A850F82410601E13AA57
:102C000052F82000091A129808441290641C419846
:102C10008442F0DB4198401E129991FBF0F0129033
:102C200041F27071129891FBF0F155980160012109
:102C30005698017005E0A449559801600021569806
:102C40000170002407E013A850F82400801C31A96B
:102C500041F82400641C41988442F4DB00240CE019
:102C6000479850F82400954941F82400499850F8B5
:102C70002400964941F82400641C4445F0DB002000
:102C8000439000242DE00120459031A850F824A065
:102C90004FF0807040900AF10500B0F5F77F1FDC1F
:102CA0000A3800281CDD054611E0844850F825103C
:102CB000409881420ADA459808B1002045907F4843
:102CC00050F82500409022A840F824506D1C0AF1CD
:102CD00005008542E9DB459810B94398401C4390B4
:102CE000641C41988442CEDB4398022808DA764877
:102CF000C9F800000021549801704BB0BDE8F08F76
:102D000000242EE06D4951F824200B46611C53F835
:102D100021100A44A11C53F821100A44E11C53F865
:102D200021105018C11700EB917189101A4642F812
:102D30002410664951F824200B46611C53F82110D9
:102D40000A44A11C53F821100A44E11C53F8211035
:102D50005018C11700EB917189101A4642F82410DF
:102D6000641CB4F5F87FCDDB00200590002600241C
:102D700004E0002006A941F82400641C052CF8DBBF
:102D800000240DE022A850F82400B0F5FA7F06DDFB
:102D90004D48C9F80000002154980170ADE7641C4B
:102DA00043988442EEDB0024AFE04FF07F400E906A
:102DB0000D9022A9601C51F8200051F82410401AEF
:102DC0000A2879DD22A850F8245016E03B4850F834
:102DD00025100D98814204DD384850F825000D90EB
:102DE0000B953A4850F825100E98814204DD37487B
:102DF00050F825000E900C956D1C22A9601C51F80E
:102E00002000A842E2DC601C51F820002F4951F854
:102E1000200022A951F824102C4A52F82110401AFF
:102E200022A951F824200C99891A4843119022A90B
:102E3000601C51F8200051F82410411A119890FBA1
:102E4000F1F022A951F82410204A52F82110084428
:102E5000119011460C9851F820101198081A1190F1
:102E600022A9601C51F82000144951F8200022A921
:102E700051F82410114A52F82110401A22A951F891
:102E800024200B99891A4843109022A9601C51F8FC
:102E9000200051F82410411A109890FBF1F022A95B
:102EA00051F82410054A52F8211008441090114698
:102EB0000C9851F820100BE026E00000801A00204A
:102EC000C0120020DC33000819FCFFFF5022002054
:102ED0001098081A10900D9911984843C011049049
:102EE0000E9910984843C711002F0DDD052E0BDAFF
:102EF000049848B1049800EB8000800090FBF7F044
:102F000006A941F82600761C641C4398401EA04286
:102F10003FF74BAF314606A800F0ACF8304606EB61
:102F2000D0714FEA610BBBF1010F0CDDABF1010178
:102F300006AA52F8211052F82B20881800EBD07105
:102F40004910059103E006A850F82B00059005985C
:102F500002280DDD0598B8280ADA09490598085CA9
:102F60000F900F98C9F8000001215498017005E0F6
:102F70000448C9F8000000215498017000BFBCE665
:102F80001A34000819FCFFFFF0B505461C46059EE3
:102F9000012000270F6030E052F82070B7422BDD8F
:102FA00052F820C0471E52F82770BC4524DD01238B
:102FB00000E05B1CC718A74207DA52F8207000EB4C
:102FC000030C52F82CC06745F3D052F8207000EB88
:102FD000030C52F82CC067450CDD0F680F2F09DA7F
:102FE000D1F800C00CF101070F6045F82C005F1C00
:102FF000384402E0184400E0401C671E8742CBDCE6
:10300000F0BD2DE9F05F05460C46924698462946EC
:103010005046226800F049F84FF0FF3621E0D4F81E
:1030200000B0701C2060771C18E055F82710701C49
:1030300010B94FF0FF3001E055F82600A1EB000970
:10304000C14503DCC8F10000814506DA55F82710B8
:103050002268501C206045F822107F1C5F45E4DB8D
:10306000761C2068B042DADC2846216800F002F8BD
:10307000BDE8F09F30B50C46012213E050F8223035
:10308000114605E04D1E50F8255040F82150491ECC
:10309000002904DD4D1E50F825509D42F2DC40F819
:1030A0002130521CA242E9DB30BDF0B50346154683
:1030B000012217E051F82240104605E0461E51F863
:1030C000266041F82060401E002808DD53F8247077
:1030D000461E51F8266053F82660B742EEDC41F8F0
:1030E0002040521CAA42E5DBF0BD000030B587B09D
:1030F00004461CB94FF0FF3007B030BDA24920682C
:10310000884201D100200DE0A0492068884201D109
:10311000012007E09E492068884201D1022001E099
:103120004FF0FF300546002D02DB9A4840F825405D
:1031300004F1300080210851842108514830882151
:10314000085180200059E16901600020A0858E4966
:103150002068884204D101218803FDF72BFD10E08F
:103160008A492068884204D101214804FDF712FDF4
:1031700007E087492068884203D101218804FDF7D0
:1031800009FD8549A068884204D101210420FDF78A
:1031900011FD34E08149A068884204D10121082052
:1031A000FDF708FD2BE07E49A068884204D101218B
:1031B0001020FDF7FFFC22E07A49A068884204D184
:1031C00001212020FDF7F6FC19E07749A06888422C
:1031D00004D101214020FDF7EDFC10E07349A06807
:1031E000884204D101218020FDF7E4FC07E070490A
:1031F000A068884203D101218015FDF7DBFC6649F8
:103200002069884204D101210420FDF7D3FC34E079
:1032100062492069884204D101210820FDF7CAFCD7
:103220002BE05F492069884204D101211020FDF77D
:10323000C1FC22E05B492069884204D101212020A1
:10324000FDF7B8FC19E058492069884204D10121F2
:103250004020FDF7AFFC10E054492069884204D1BA
:1032600001218020FDF7A6FC07E051492069884232
:1032700003D101218015FDF79DFC18208DF8070072
:1032800003208DF80600A08980B2ADF8040001A9E2
:10329000A068FDF78CFB48208DF8070003208DF80F
:1032A0000600A08A80B2ADF8040001A92069FDF7EC
:1032B0007EFB606803900020ADF818000C20ADF88C
:1032C00016000020ADF81400ADF81200ADF81000A3
:1032D00003A92068FDF73AFF012240F2244120684B
:1032E000FDF70EFF28492068884201D125200CE017
:1032F00026492068884201D1262006E0244920681A
:10330000884201D1272000E000208DF8080001202C
:103310008DF80B008DF809008DF80A0002A8FDF762
:10332000E5FB2046FEF7CEFB01212068FDF79CFE61
:1033300015492068884207D11E4844F88C0F1E4862
:1033400060601E48A0608C3C10492068884207D10C
:103350001B4844F88C0F1B4860601B48A0608C3CE5
:103360000B492068884207D1184844F88C0F184848
:1033700060601848A0608C3C1748C4F89800012091
:1033800084F828000020B7E60038014000440040DF
:10339000004800400803002000080140000C0140E4
:1033A000001001400014014000180140001C0140C1
:1033B0000020014089190008C9190008B519000842
:1033C000E9190008291A0008151A0008491A000806
:1033D000891A0008751A0008A91A000829001401A2
:1033E000000214012900000000000000000000009D
:1033F00000000000000000000000000000000000CD
:1034000000000000000000000000000000000000BC
:10341000000000000000000000005F5F5F6060606F
:10342000616161616162626262626363636363637B
:10343000636364646464646464646464646464644E
:103440006464646464646363636363636363626248
:103450006262626261616161606060605F5F5F5E65
:103460005E5E5D5D5D5C5C5C5B5B5A5A59595958A8
:10347000585757565655555454535252515150500F
:103480004F4E4E4D4C4C4B4A4A494848474645459D
:103490004443424241403F3E3E3D3C3B3A3938384E
:1034A00037363534333231302F2E2D2C2B2A292824
:1034B000272625242322211F1E1D1C1B1A1917161F
:1034C00015141311100F0E0C0B0A09070605030241
:1034D00001000000F4340008000000200801000092
:1034E00068190008FC35000808010020182F0000AA
:1034F000781900080038014000C2010000080140AE
:103500000002000000080140000400000801002043
:10351000080200200001000140000000000000003F
:10352000000000000000000000000000000000009B
:10353000000000000000000000000000000000008B
:10354000000000000000000000000000000000007B
:10355000000000000000000000000000000000006B
:10356000000000000000000000000000000000005B
:10357000000000000000000000000000000000004B
:10358000000000000000000000000000000000003B
:10359000000C014040000000000C014080000000D1
:1035A000000C0140000200000000000000000000CC
:1035B000000000000000000000000000000000000B
:1035C00000000000000000000000000000000000FB
:1035D00000000000000000000000000000000000EB
:1035E00000000000010203040102030406070809A9
:0C35F000020406080000000000000000BB
:04000005080000ED02
:00000001FF
